{
	"data": {
		"bytecode": {
			"linkReferences": {},
			"object": "608060405234801561001057600080fd5b5061069d806100206000396000f3fe608060405234801561001057600080fd5b50600436106100415760003560e01c8063b1b5351f14610046578063b92d91e214610077578063f184d7a514610093575b600080fd5b610060600480360381019061005b9190610298565b6100c4565b60405161006e929190610379565b60405180910390f35b610091600480360381019061008c9190610514565b61017d565b005b6100ad60048036038101906100a891906105d9565b610185565b6040516100bb929190610379565b60405180910390f35b60016020528060005260406000206000915090508060000180546100e790610635565b80601f016020809104026020016040519081016040528092919081815260200182805461011390610635565b80156101605780601f1061013557610100808354040283529160200191610160565b820191906000526020600020905b81548152906001019060200180831161014357829003601f168201915b5050505050908060030160009054906101000a900460ff16905082565b505050505050565b6002818154811061019557600080fd5b90600052602060002090600402016000915090508060000180546101b890610635565b80601f01602080910402602001604051908101604052809291908181526020018280546101e490610635565b80156102315780601f1061020657610100808354040283529160200191610231565b820191906000526020600020905b81548152906001019060200180831161021457829003601f168201915b5050505050908060030160009054906101000a900460ff16905082565b6000604051905090565b600080fd5b600080fd5b6000819050919050565b61027581610262565b811461028057600080fd5b50565b6000813590506102928161026c565b92915050565b6000602082840312156102ae576102ad610258565b5b60006102bc84828501610283565b91505092915050565b600081519050919050565b600082825260208201905092915050565b60005b838110156102ff5780820151818401526020810190506102e4565b8381111561030e576000848401525b50505050565b6000601f19601f8301169050919050565b6000610330826102c5565b61033a81856102d0565b935061034a8185602086016102e1565b61035381610314565b840191505092915050565b60008115159050919050565b6103738161035e565b82525050565b600060408201905081810360008301526103938185610325565b90506103a2602083018461036a565b9392505050565b6000819050919050565b6103bc816103a9565b81146103c757600080fd5b50565b6000813590506103d9816103b3565b92915050565b600080fd5b600080fd5b7f4e487b7100000000000000000000000000000000000000000000000000000000600052604160045260246000fd5b61042182610314565b810181811067ffffffffffffffff821117156104405761043f6103e9565b5b80604052505050565b600061045361024e565b905061045f8282610418565b919050565b600067ffffffffffffffff82111561047f5761047e6103e9565b5b61048882610314565b9050602081019050919050565b82818337600083830152505050565b60006104b76104b284610464565b610449565b9050828152602081018484840111156104d3576104d26103e4565b5b6104de848285610495565b509392505050565b600082601f8301126104fb576104fa6103df565b5b813561050b8482602086016104a4565b91505092915050565b60008060008060008060c0878903121561053157610530610258565b5b600061053f89828a016103ca565b965050602061055089828a01610283565b955050604061056189828a01610283565b945050606061057289828a01610283565b935050608087013567ffffffffffffffff8111156105935761059261025d565b5b61059f89828a016104e6565b92505060a087013567ffffffffffffffff8111156105c0576105bf61025d565b5b6105cc89828a016104e6565b9150509295509295509295565b6000602082840312156105ef576105ee610258565b5b60006105fd848285016103ca565b91505092915050565b7f4e487b7100000000000000000000000000000000000000000000000000000000600052602260045260246000fd5b6000600282049050600182168061064d57607f821691505b6020821081141561066157610660610606565b5b5091905056fea2646970667358221220667ec8d1146bb8b0d88feb1b1730c33bba1392b2ac06e154ff811d42654c0b2664736f6c63430008090033",
			"opcodes": "PUSH1 0x80 PUSH1 0x40 MSTORE CALLVALUE DUP1 ISZERO PUSH2 0x10 JUMPI PUSH1 0x0 DUP1 REVERT JUMPDEST POP PUSH2 0x69D DUP1 PUSH2 0x20 PUSH1 0x0 CODECOPY PUSH1 0x0 RETURN INVALID PUSH1 0x80 PUSH1 0x40 MSTORE CALLVALUE DUP1 ISZERO PUSH2 0x10 JUMPI PUSH1 0x0 DUP1 REVERT JUMPDEST POP PUSH1 0x4 CALLDATASIZE LT PUSH2 0x41 JUMPI PUSH1 0x0 CALLDATALOAD PUSH1 0xE0 SHR DUP1 PUSH4 0xB1B5351F EQ PUSH2 0x46 JUMPI DUP1 PUSH4 0xB92D91E2 EQ PUSH2 0x77 JUMPI DUP1 PUSH4 0xF184D7A5 EQ PUSH2 0x93 JUMPI JUMPDEST PUSH1 0x0 DUP1 REVERT JUMPDEST PUSH2 0x60 PUSH1 0x4 DUP1 CALLDATASIZE SUB DUP2 ADD SWAP1 PUSH2 0x5B SWAP2 SWAP1 PUSH2 0x298 JUMP JUMPDEST PUSH2 0xC4 JUMP JUMPDEST PUSH1 0x40 MLOAD PUSH2 0x6E SWAP3 SWAP2 SWAP1 PUSH2 0x379 JUMP JUMPDEST PUSH1 0x40 MLOAD DUP1 SWAP2 SUB SWAP1 RETURN JUMPDEST PUSH2 0x91 PUSH1 0x4 DUP1 CALLDATASIZE SUB DUP2 ADD SWAP1 PUSH2 0x8C SWAP2 SWAP1 PUSH2 0x514 JUMP JUMPDEST PUSH2 0x17D JUMP JUMPDEST STOP JUMPDEST PUSH2 0xAD PUSH1 0x4 DUP1 CALLDATASIZE SUB DUP2 ADD SWAP1 PUSH2 0xA8 SWAP2 SWAP1 PUSH2 0x5D9 JUMP JUMPDEST PUSH2 0x185 JUMP JUMPDEST PUSH1 0x40 MLOAD PUSH2 0xBB SWAP3 SWAP2 SWAP1 PUSH2 0x379 JUMP JUMPDEST PUSH1 0x40 MLOAD DUP1 SWAP2 SUB SWAP1 RETURN JUMPDEST PUSH1 0x1 PUSH1 0x20 MSTORE DUP1 PUSH1 0x0 MSTORE PUSH1 0x40 PUSH1 0x0 KECCAK256 PUSH1 0x0 SWAP2 POP SWAP1 POP DUP1 PUSH1 0x0 ADD DUP1 SLOAD PUSH2 0xE7 SWAP1 PUSH2 0x635 JUMP JUMPDEST DUP1 PUSH1 0x1F ADD PUSH1 0x20 DUP1 SWAP2 DIV MUL PUSH1 0x20 ADD PUSH1 0x40 MLOAD SWAP1 DUP2 ADD PUSH1 0x40 MSTORE DUP1 SWAP3 SWAP2 SWAP1 DUP2 DUP2 MSTORE PUSH1 0x20 ADD DUP3 DUP1 SLOAD PUSH2 0x113 SWAP1 PUSH2 0x635 JUMP JUMPDEST DUP1 ISZERO PUSH2 0x160 JUMPI DUP1 PUSH1 0x1F LT PUSH2 0x135 JUMPI PUSH2 0x100 DUP1 DUP4 SLOAD DIV MUL DUP4 MSTORE SWAP2 PUSH1 0x20 ADD SWAP2 PUSH2 0x160 JUMP JUMPDEST DUP3 ADD SWAP2 SWAP1 PUSH1 0x0 MSTORE PUSH1 0x20 PUSH1 0x0 KECCAK256 SWAP1 JUMPDEST DUP2 SLOAD DUP2 MSTORE SWAP1 PUSH1 0x1 ADD SWAP1 PUSH1 0x20 ADD DUP1 DUP4 GT PUSH2 0x143 JUMPI DUP3 SWAP1 SUB PUSH1 0x1F AND DUP3 ADD SWAP2 JUMPDEST POP POP POP POP POP SWAP1 DUP1 PUSH1 0x3 ADD PUSH1 0x0 SWAP1 SLOAD SWAP1 PUSH2 0x100 EXP SWAP1 DIV PUSH1 0xFF AND SWAP1 POP DUP3 JUMP JUMPDEST POP POP POP POP POP POP JUMP JUMPDEST PUSH1 0x2 DUP2 DUP2 SLOAD DUP2 LT PUSH2 0x195 JUMPI PUSH1 0x0 DUP1 REVERT JUMPDEST SWAP1 PUSH1 0x0 MSTORE PUSH1 0x20 PUSH1 0x0 KECCAK256 SWAP1 PUSH1 0x4 MUL ADD PUSH1 0x0 SWAP2 POP SWAP1 POP DUP1 PUSH1 0x0 ADD DUP1 SLOAD PUSH2 0x1B8 SWAP1 PUSH2 0x635 JUMP JUMPDEST DUP1 PUSH1 0x1F ADD PUSH1 0x20 DUP1 SWAP2 DIV MUL PUSH1 0x20 ADD PUSH1 0x40 MLOAD SWAP1 DUP2 ADD PUSH1 0x40 MSTORE DUP1 SWAP3 SWAP2 SWAP1 DUP2 DUP2 MSTORE PUSH1 0x20 ADD DUP3 DUP1 SLOAD PUSH2 0x1E4 SWAP1 PUSH2 0x635 JUMP JUMPDEST DUP1 ISZERO PUSH2 0x231 JUMPI DUP1 PUSH1 0x1F LT PUSH2 0x206 JUMPI PUSH2 0x100 DUP1 DUP4 SLOAD DIV MUL DUP4 MSTORE SWAP2 PUSH1 0x20 ADD SWAP2 PUSH2 0x231 JUMP JUMPDEST DUP3 ADD SWAP2 SWAP1 PUSH1 0x0 MSTORE PUSH1 0x20 PUSH1 0x0 KECCAK256 SWAP1 JUMPDEST DUP2 SLOAD DUP2 MSTORE SWAP1 PUSH1 0x1 ADD SWAP1 PUSH1 0x20 ADD DUP1 DUP4 GT PUSH2 0x214 JUMPI DUP3 SWAP1 SUB PUSH1 0x1F AND DUP3 ADD SWAP2 JUMPDEST POP POP POP POP POP SWAP1 DUP1 PUSH1 0x3 ADD PUSH1 0x0 SWAP1 SLOAD SWAP1 PUSH2 0x100 EXP SWAP1 DIV PUSH1 0xFF AND SWAP1 POP DUP3 JUMP JUMPDEST PUSH1 0x0 PUSH1 0x40 MLOAD SWAP1 POP SWAP1 JUMP JUMPDEST PUSH1 0x0 DUP1 REVERT JUMPDEST PUSH1 0x0 DUP1 REVERT JUMPDEST PUSH1 0x0 DUP2 SWAP1 POP SWAP2 SWAP1 POP JUMP JUMPDEST PUSH2 0x275 DUP2 PUSH2 0x262 JUMP JUMPDEST DUP2 EQ PUSH2 0x280 JUMPI PUSH1 0x0 DUP1 REVERT JUMPDEST POP JUMP JUMPDEST PUSH1 0x0 DUP2 CALLDATALOAD SWAP1 POP PUSH2 0x292 DUP2 PUSH2 0x26C JUMP JUMPDEST SWAP3 SWAP2 POP POP JUMP JUMPDEST PUSH1 0x0 PUSH1 0x20 DUP3 DUP5 SUB SLT ISZERO PUSH2 0x2AE JUMPI PUSH2 0x2AD PUSH2 0x258 JUMP JUMPDEST JUMPDEST PUSH1 0x0 PUSH2 0x2BC DUP5 DUP3 DUP6 ADD PUSH2 0x283 JUMP JUMPDEST SWAP2 POP POP SWAP3 SWAP2 POP POP JUMP JUMPDEST PUSH1 0x0 DUP2 MLOAD SWAP1 POP SWAP2 SWAP1 POP JUMP JUMPDEST PUSH1 0x0 DUP3 DUP3 MSTORE PUSH1 0x20 DUP3 ADD SWAP1 POP SWAP3 SWAP2 POP POP JUMP JUMPDEST PUSH1 0x0 JUMPDEST DUP4 DUP2 LT ISZERO PUSH2 0x2FF JUMPI DUP1 DUP3 ADD MLOAD DUP2 DUP5 ADD MSTORE PUSH1 0x20 DUP2 ADD SWAP1 POP PUSH2 0x2E4 JUMP JUMPDEST DUP4 DUP2 GT ISZERO PUSH2 0x30E JUMPI PUSH1 0x0 DUP5 DUP5 ADD MSTORE JUMPDEST POP POP POP POP JUMP JUMPDEST PUSH1 0x0 PUSH1 0x1F NOT PUSH1 0x1F DUP4 ADD AND SWAP1 POP SWAP2 SWAP1 POP JUMP JUMPDEST PUSH1 0x0 PUSH2 0x330 DUP3 PUSH2 0x2C5 JUMP JUMPDEST PUSH2 0x33A DUP2 DUP6 PUSH2 0x2D0 JUMP JUMPDEST SWAP4 POP PUSH2 0x34A DUP2 DUP6 PUSH1 0x20 DUP7 ADD PUSH2 0x2E1 JUMP JUMPDEST PUSH2 0x353 DUP2 PUSH2 0x314 JUMP JUMPDEST DUP5 ADD SWAP2 POP POP SWAP3 SWAP2 POP POP JUMP JUMPDEST PUSH1 0x0 DUP2 ISZERO ISZERO SWAP1 POP SWAP2 SWAP1 POP JUMP JUMPDEST PUSH2 0x373 DUP2 PUSH2 0x35E JUMP JUMPDEST DUP3 MSTORE POP POP JUMP JUMPDEST PUSH1 0x0 PUSH1 0x40 DUP3 ADD SWAP1 POP DUP2 DUP2 SUB PUSH1 0x0 DUP4 ADD MSTORE PUSH2 0x393 DUP2 DUP6 PUSH2 0x325 JUMP JUMPDEST SWAP1 POP PUSH2 0x3A2 PUSH1 0x20 DUP4 ADD DUP5 PUSH2 0x36A JUMP JUMPDEST SWAP4 SWAP3 POP POP POP JUMP JUMPDEST PUSH1 0x0 DUP2 SWAP1 POP SWAP2 SWAP1 POP JUMP JUMPDEST PUSH2 0x3BC DUP2 PUSH2 0x3A9 JUMP JUMPDEST DUP2 EQ PUSH2 0x3C7 JUMPI PUSH1 0x0 DUP1 REVERT JUMPDEST POP JUMP JUMPDEST PUSH1 0x0 DUP2 CALLDATALOAD SWAP1 POP PUSH2 0x3D9 DUP2 PUSH2 0x3B3 JUMP JUMPDEST SWAP3 SWAP2 POP POP JUMP JUMPDEST PUSH1 0x0 DUP1 REVERT JUMPDEST PUSH1 0x0 DUP1 REVERT JUMPDEST PUSH32 0x4E487B7100000000000000000000000000000000000000000000000000000000 PUSH1 0x0 MSTORE PUSH1 0x41 PUSH1 0x4 MSTORE PUSH1 0x24 PUSH1 0x0 REVERT JUMPDEST PUSH2 0x421 DUP3 PUSH2 0x314 JUMP JUMPDEST DUP2 ADD DUP2 DUP2 LT PUSH8 0xFFFFFFFFFFFFFFFF DUP3 GT OR ISZERO PUSH2 0x440 JUMPI PUSH2 0x43F PUSH2 0x3E9 JUMP JUMPDEST JUMPDEST DUP1 PUSH1 0x40 MSTORE POP POP POP JUMP JUMPDEST PUSH1 0x0 PUSH2 0x453 PUSH2 0x24E JUMP JUMPDEST SWAP1 POP PUSH2 0x45F DUP3 DUP3 PUSH2 0x418 JUMP JUMPDEST SWAP2 SWAP1 POP JUMP JUMPDEST PUSH1 0x0 PUSH8 0xFFFFFFFFFFFFFFFF DUP3 GT ISZERO PUSH2 0x47F JUMPI PUSH2 0x47E PUSH2 0x3E9 JUMP JUMPDEST JUMPDEST PUSH2 0x488 DUP3 PUSH2 0x314 JUMP JUMPDEST SWAP1 POP PUSH1 0x20 DUP2 ADD SWAP1 POP SWAP2 SWAP1 POP JUMP JUMPDEST DUP3 DUP2 DUP4 CALLDATACOPY PUSH1 0x0 DUP4 DUP4 ADD MSTORE POP POP POP JUMP JUMPDEST PUSH1 0x0 PUSH2 0x4B7 PUSH2 0x4B2 DUP5 PUSH2 0x464 JUMP JUMPDEST PUSH2 0x449 JUMP JUMPDEST SWAP1 POP DUP3 DUP2 MSTORE PUSH1 0x20 DUP2 ADD DUP5 DUP5 DUP5 ADD GT ISZERO PUSH2 0x4D3 JUMPI PUSH2 0x4D2 PUSH2 0x3E4 JUMP JUMPDEST JUMPDEST PUSH2 0x4DE DUP5 DUP3 DUP6 PUSH2 0x495 JUMP JUMPDEST POP SWAP4 SWAP3 POP POP POP JUMP JUMPDEST PUSH1 0x0 DUP3 PUSH1 0x1F DUP4 ADD SLT PUSH2 0x4FB JUMPI PUSH2 0x4FA PUSH2 0x3DF JUMP JUMPDEST JUMPDEST DUP2 CALLDATALOAD PUSH2 0x50B DUP5 DUP3 PUSH1 0x20 DUP7 ADD PUSH2 0x4A4 JUMP JUMPDEST SWAP2 POP POP SWAP3 SWAP2 POP POP JUMP JUMPDEST PUSH1 0x0 DUP1 PUSH1 0x0 DUP1 PUSH1 0x0 DUP1 PUSH1 0xC0 DUP8 DUP10 SUB SLT ISZERO PUSH2 0x531 JUMPI PUSH2 0x530 PUSH2 0x258 JUMP JUMPDEST JUMPDEST PUSH1 0x0 PUSH2 0x53F DUP10 DUP3 DUP11 ADD PUSH2 0x3CA JUMP JUMPDEST SWAP7 POP POP PUSH1 0x20 PUSH2 0x550 DUP10 DUP3 DUP11 ADD PUSH2 0x283 JUMP JUMPDEST SWAP6 POP POP PUSH1 0x40 PUSH2 0x561 DUP10 DUP3 DUP11 ADD PUSH2 0x283 JUMP JUMPDEST SWAP5 POP POP PUSH1 0x60 PUSH2 0x572 DUP10 DUP3 DUP11 ADD PUSH2 0x283 JUMP JUMPDEST SWAP4 POP POP PUSH1 0x80 DUP8 ADD CALLDATALOAD PUSH8 0xFFFFFFFFFFFFFFFF DUP2 GT ISZERO PUSH2 0x593 JUMPI PUSH2 0x592 PUSH2 0x25D JUMP JUMPDEST JUMPDEST PUSH2 0x59F DUP10 DUP3 DUP11 ADD PUSH2 0x4E6 JUMP JUMPDEST SWAP3 POP POP PUSH1 0xA0 DUP8 ADD CALLDATALOAD PUSH8 0xFFFFFFFFFFFFFFFF DUP2 GT ISZERO PUSH2 0x5C0 JUMPI PUSH2 0x5BF PUSH2 0x25D JUMP JUMPDEST JUMPDEST PUSH2 0x5CC DUP10 DUP3 DUP11 ADD PUSH2 0x4E6 JUMP JUMPDEST SWAP2 POP POP SWAP3 SWAP6 POP SWAP3 SWAP6 POP SWAP3 SWAP6 JUMP JUMPDEST PUSH1 0x0 PUSH1 0x20 DUP3 DUP5 SUB SLT ISZERO PUSH2 0x5EF JUMPI PUSH2 0x5EE PUSH2 0x258 JUMP JUMPDEST JUMPDEST PUSH1 0x0 PUSH2 0x5FD DUP5 DUP3 DUP6 ADD PUSH2 0x3CA JUMP JUMPDEST SWAP2 POP POP SWAP3 SWAP2 POP POP JUMP JUMPDEST PUSH32 0x4E487B7100000000000000000000000000000000000000000000000000000000 PUSH1 0x0 MSTORE PUSH1 0x22 PUSH1 0x4 MSTORE PUSH1 0x24 PUSH1 0x0 REVERT JUMPDEST PUSH1 0x0 PUSH1 0x2 DUP3 DIV SWAP1 POP PUSH1 0x1 DUP3 AND DUP1 PUSH2 0x64D JUMPI PUSH1 0x7F DUP3 AND SWAP2 POP JUMPDEST PUSH1 0x20 DUP3 LT DUP2 EQ ISZERO PUSH2 0x661 JUMPI PUSH2 0x660 PUSH2 0x606 JUMP JUMPDEST JUMPDEST POP SWAP2 SWAP1 POP JUMP INVALID LOG2 PUSH5 0x6970667358 0x22 SLT KECCAK256 PUSH7 0x7EC8D1146BB8B0 0xD8 DUP16 0xEB SHL OR ADDRESS 0xC3 EXTCODESIZE 0xBA SGT SWAP3 0xB2 0xAC MOD 0xE1 SLOAD SELFDESTRUCT DUP2 SAR TIMESTAMP PUSH6 0x4C0B2664736F PUSH13 0x63430008090033000000000000 "
		},
		"gasEstimates": {
			"creation": {
				"codeDepositCost": "338600",
				"executionCost": "374",
				"totalCost": "338974"
			},
			"external": {
				"Devices(bytes32)": "infinite",
				"SensorDataList(uint256)": "infinite",
				"newData(uint256,bytes32,bytes32,bytes32,bytes,bytes)": "infinite"
			}
		},
		"methodIdentifiers": {
			"Devices(bytes32)": "b1b5351f",
			"SensorDataList(uint256)": "f184d7a5",
			"newData(uint256,bytes32,bytes32,bytes32,bytes,bytes)": "b92d91e2"
		}
	},
	"abi": [
		{
			"inputs": [
				{
					"internalType": "bytes32",
					"name": "",
					"type": "bytes32"
				}
			],
			"name": "Devices",
			"outputs": [
				{
					"internalType": "bytes",
					"name": "public_key",
					"type": "bytes"
				},
				{
					"internalType": "bool",
					"name": "created",
					"type": "bool"
				}
			],
			"stateMutability": "view",
			"type": "function"
		},
		{
			"inputs": [
				{
					"internalType": "uint256",
					"name": "",
					"type": "uint256"
				}
			],
			"name": "SensorDataList",
			"outputs": [
				{
					"internalType": "bytes",
					"name": "public_key",
					"type": "bytes"
				},
				{
					"internalType": "bool",
					"name": "created",
					"type": "bool"
				}
			],
			"stateMutability": "view",
			"type": "function"
		},
		{
			"inputs": [
				{
					"internalType": "uint256",
					"name": "_tx_index",
					"type": "uint256"
				},
				{
					"internalType": "bytes32",
					"name": "_cid",
					"type": "bytes32"
				},
				{
					"internalType": "bytes32",
					"name": "_url",
					"type": "bytes32"
				},
				{
					"internalType": "bytes32",
					"name": "_timestamp",
					"type": "bytes32"
				},
				{
					"internalType": "bytes",
					"name": "_signature",
					"type": "bytes"
				},
				{
					"internalType": "bytes",
					"name": "_public_key",
					"type": "bytes"
				}
			],
			"name": "newData",
			"outputs": [],
			"stateMutability": "nonpayable",
			"type": "function"
		}
	]
}