{
	"data": {
		"bytecode": {
			"linkReferences": {},
			"object": "608060405234801561001057600080fd5b50336000806101000a81548173ffffffffffffffffffffffffffffffffffffffff021916908373ffffffffffffffffffffffffffffffffffffffff160217905550612a28806100606000396000f3fe608060405234801561001057600080fd5b50600436106100935760003560e01c8063802e9cb911610066578063802e9cb9146101325780639790e96a1461014e578063d35309751461017f578063f5e757421461019b578063fe41576f146101cb57610093565b806331137090146100985780633bb4497c146100c85780634f65e878146100e65780635b485a1414610116575b600080fd5b6100b260048036038101906100ad919061192e565b6101fb565b6040516100bf919061199c565b60405180910390f35b6100d061023a565b6040516100dd9190611a75565b60405180910390f35b61010060048036038101906100fb9190611c09565b6102c8565b60405161010d9190611ce4565b60405180910390f35b610130600480360381019061012b9190611d06565b6105e0565b005b61014c60048036038101906101479190611da2565b610893565b005b61016860048036038101906101639190611d06565b610be6565b604051610176929190611e54565b60405180910390f35b61019960048036038101906101949190611e7d565b610c37565b005b6101b560048036038101906101b09190611d06565b611324565b6040516101c29190612093565b60405180910390f35b6101e560048036038101906101e09190611c09565b6114d5565b6040516101f29190612093565b60405180910390f35b6002818154811061020b57600080fd5b906000526020600020016000915054906101000a900473ffffffffffffffffffffffffffffffffffffffff1681565b606060028054806020026020016040519081016040528092919081815260200182805480156102be57602002820191906000526020600020905b8160009054906101000a900473ffffffffffffffffffffffffffffffffffffffff1673ffffffffffffffffffffffffffffffffffffffff1681526020019060010190808311610274575b5050505050905090565b606060011515600160008573ffffffffffffffffffffffffffffffffffffffff1673ffffffffffffffffffffffffffffffffffffffff16815260200190815260200160002060030160009054906101000a900460ff16151514610360576040517f08c379a000000000000000000000000000000000000000000000000000000000815260040161035790612101565b60405180910390fd5b60011515600160008573ffffffffffffffffffffffffffffffffffffffff1673ffffffffffffffffffffffffffffffffffffffff168152602001908152602001600020600101836040516103b4919061215d565b908152602001604051809103902060030160009054906101000a900460ff16151514610415576040517f08c379a000000000000000000000000000000000000000000000000000000000815260040161040c906121c0565b60405180910390fd5b6000600160008573ffffffffffffffffffffffffffffffffffffffff1673ffffffffffffffffffffffffffffffffffffffff16815260200190815260200160002060010183604051610467919061215d565b9081526020016040518091039020600201805490509050600081036104c4576040518060400160405280601281526020017f53656e736f72206861736e2774206369647300000000000000000000000000008152509150506105da565b600160008573ffffffffffffffffffffffffffffffffffffffff1673ffffffffffffffffffffffffffffffffffffffff16815260200190815260200160002060010183604051610514919061215d565b9081526020016040518091039020600201600182610532919061220f565b8154811061054357610542612243565b5b906000526020600020018054610558906122a1565b80601f0160208091040260200160405190810160405280929190818152602001828054610584906122a1565b80156105d15780601f106105a6576101008083540402835291602001916105d1565b820191906000526020600020905b8154815290600101906020018083116105b457829003601f168201915b50505050509150505b92915050565b60008054906101000a900473ffffffffffffffffffffffffffffffffffffffff1673ffffffffffffffffffffffffffffffffffffffff163373ffffffffffffffffffffffffffffffffffffffff161461066e576040517f08c379a000000000000000000000000000000000000000000000000000000000815260040161066590612344565b60405180910390fd5b60001515600160008373ffffffffffffffffffffffffffffffffffffffff1673ffffffffffffffffffffffffffffffffffffffff16815260200190815260200160002060030160009054906101000a900460ff16151514610704576040517f08c379a00000000000000000000000000000000000000000000000000000000081526004016106fb906123b0565b60405180910390fd5b80600160008373ffffffffffffffffffffffffffffffffffffffff1673ffffffffffffffffffffffffffffffffffffffff16815260200190815260200160002060000160006101000a81548173ffffffffffffffffffffffffffffffffffffffff021916908373ffffffffffffffffffffffffffffffffffffffff16021790555060018060008373ffffffffffffffffffffffffffffffffffffffff1673ffffffffffffffffffffffffffffffffffffffff16815260200190815260200160002060030160006101000a81548160ff0219169083151502179055506002819080600181540180825580915050600190039060005260206000200160009091909190916101000a81548173ffffffffffffffffffffffffffffffffffffffff021916908373ffffffffffffffffffffffffffffffffffffffff1602179055508073ffffffffffffffffffffffffffffffffffffffff167f1b8d6e7edd12ce9bf5cbe0cf36d5e75e86617a943f642908cb445fdadb4830514260405161088891906123df565b60405180910390a250565b6000600182868686604051600081526020016040526040516108b89493929190612418565b6020604051602081039080840390855afa1580156108da573d6000803e3d6000fd5b50505060206040510351905060011515600160008373ffffffffffffffffffffffffffffffffffffffff1673ffffffffffffffffffffffffffffffffffffffff16815260200190815260200160002060030160009054906101000a900460ff1615151461097c576040517f08c379a0000000000000000000000000000000000000000000000000000000008152600401610973906124cf565b60405180910390fd5b60001515600160008373ffffffffffffffffffffffffffffffffffffffff1673ffffffffffffffffffffffffffffffffffffffff168152602001908152602001600020600101876040516109d0919061215d565b908152602001604051809103902060030160009054906101000a900460ff16151514610a31576040517f08c379a0000000000000000000000000000000000000000000000000000000008152600401610a289061253b565b60405180910390fd5b85600160008373ffffffffffffffffffffffffffffffffffffffff1673ffffffffffffffffffffffffffffffffffffffff16815260200190815260200160002060010187604051610a82919061215d565b90815260200160405180910390206000019081610a9f9190612707565b5060018060008373ffffffffffffffffffffffffffffffffffffffff1673ffffffffffffffffffffffffffffffffffffffff16815260200190815260200160002060010187604051610af1919061215d565b908152602001604051809103902060030160006101000a81548160ff021916908315150217905550600160008273ffffffffffffffffffffffffffffffffffffffff1673ffffffffffffffffffffffffffffffffffffffff16815260200190815260200160002060020186908060018154018082558091505060019003906000526020600020016000909190919091509081610b8d9190612707565b508073ffffffffffffffffffffffffffffffffffffffff167f54c4764e35db3b768b99b60a6d4768f57731e91c4f672b4b8f19c366321528368742604051610bd69291906127d9565b60405180910390a2505050505050565b60016020528060005260406000206000915090508060000160009054906101000a900473ffffffffffffffffffffffffffffffffffffffff16908060030160009054906101000a900460ff16905082565b600060018286868660405160008152602001604052604051610c5c9493929190612418565b6020604051602081039080840390855afa158015610c7e573d6000803e3d6000fd5b50505060206040510351905060011515600160008373ffffffffffffffffffffffffffffffffffffffff1673ffffffffffffffffffffffffffffffffffffffff16815260200190815260200160002060030160009054906101000a900460ff16151514610d20576040517f08c379a0000000000000000000000000000000000000000000000000000000008152600401610d17906124cf565b60405180910390fd5b3373ffffffffffffffffffffffffffffffffffffffff168173ffffffffffffffffffffffffffffffffffffffff1614610d8e576040517f08c379a0000000000000000000000000000000000000000000000000000000008152600401610d859061287b565b60405180910390fd5b60011515600160008373ffffffffffffffffffffffffffffffffffffffff1673ffffffffffffffffffffffffffffffffffffffff1681526020019081526020016000206001018a604051610de2919061215d565b908152602001604051809103902060030160009054906101000a900460ff16151514610e43576040517f08c379a0000000000000000000000000000000000000000000000000000000008152600401610e3a906128e7565b60405180910390fd5b87600160008373ffffffffffffffffffffffffffffffffffffffff1673ffffffffffffffffffffffffffffffffffffffff1681526020019081526020016000206001018a604051610e94919061215d565b908152602001604051809103902060010189604051610eb3919061215d565b90815260200160405180910390206000019081610ed09190612707565b5086600160008373ffffffffffffffffffffffffffffffffffffffff1673ffffffffffffffffffffffffffffffffffffffff1681526020019081526020016000206001018a604051610f22919061215d565b908152602001604051809103902060010189604051610f41919061215d565b90815260200160405180910390206001019081610f5e9190612707565b5085600160008373ffffffffffffffffffffffffffffffffffffffff1673ffffffffffffffffffffffffffffffffffffffff1681526020019081526020016000206001018a604051610fb0919061215d565b908152602001604051809103902060010189604051610fcf919061215d565b90815260200160405180910390206002018190555084600160008373ffffffffffffffffffffffffffffffffffffffff1673ffffffffffffffffffffffffffffffffffffffff1681526020019081526020016000206001018a604051611035919061215d565b908152602001604051809103902060010189604051611054919061215d565b908152602001604051809103902060030160006101000a81548160ff021916908360ff16021790555083600160008373ffffffffffffffffffffffffffffffffffffffff1673ffffffffffffffffffffffffffffffffffffffff1681526020019081526020016000206001018a6040516110ce919061215d565b9081526020016040518091039020600101896040516110ed919061215d565b90815260200160405180910390206004018190555082600160008373ffffffffffffffffffffffffffffffffffffffff1673ffffffffffffffffffffffffffffffffffffffff1681526020019081526020016000206001018a604051611153919061215d565b908152602001604051809103902060010189604051611172919061215d565b90815260200160405180910390206005018190555060018060008373ffffffffffffffffffffffffffffffffffffffff1673ffffffffffffffffffffffffffffffffffffffff1681526020019081526020016000206001018a6040516111d8919061215d565b9081526020016040518091039020600101896040516111f7919061215d565b908152602001604051809103902060070160006101000a81548160ff021916908315150217905550600160008273ffffffffffffffffffffffffffffffffffffffff1673ffffffffffffffffffffffffffffffffffffffff1681526020019081526020016000206001018960405161126f919061215d565b9081526020016040518091039020600201889080600181540180825580915050600190039060005260206000200160009091909190915090816112b29190612707565b508073ffffffffffffffffffffffffffffffffffffffff16886040516112d8919061215d565b60405180910390207fa30fa568a3da991493dc4ffbb1e531dc3712025f0bc9570a32d8d28ce91b3eb08b8a604051611311929190612907565b60405180910390a3505050505050505050565b606060011515600160008473ffffffffffffffffffffffffffffffffffffffff1673ffffffffffffffffffffffffffffffffffffffff16815260200190815260200160002060030160009054906101000a900460ff161515146113bc576040517f08c379a00000000000000000000000000000000000000000000000000000000081526004016113b39061298a565b60405180910390fd5b600160008373ffffffffffffffffffffffffffffffffffffffff1673ffffffffffffffffffffffffffffffffffffffff168152602001908152602001600020600201805480602002602001604051908101604052809291908181526020016000905b828210156114ca57838290600052602060002001805461143d906122a1565b80601f0160208091040260200160405190810160405280929190818152602001828054611469906122a1565b80156114b65780601f1061148b576101008083540402835291602001916114b6565b820191906000526020600020905b81548152906001019060200180831161149957829003601f168201915b50505050508152602001906001019061141e565b505050509050919050565b606060011515600160008573ffffffffffffffffffffffffffffffffffffffff1673ffffffffffffffffffffffffffffffffffffffff16815260200190815260200160002060030160009054906101000a900460ff1615151461156d576040517f08c379a000000000000000000000000000000000000000000000000000000000815260040161156490612101565b60405180910390fd5b60011515600160008573ffffffffffffffffffffffffffffffffffffffff1673ffffffffffffffffffffffffffffffffffffffff168152602001908152602001600020600101836040516115c1919061215d565b908152602001604051809103902060030160009054906101000a900460ff16151514611622576040517f08c379a0000000000000000000000000000000000000000000000000000000008152600401611619906121c0565b60405180910390fd5b6000600160008573ffffffffffffffffffffffffffffffffffffffff1673ffffffffffffffffffffffffffffffffffffffff16815260200190815260200160002060010183604051611674919061215d565b908152602001604051809103902060020180549050905060008167ffffffffffffffff8111156116a7576116a6611ade565b5b6040519080825280602002602001820160405280156116da57816020015b60608152602001906001900390816116c55790505b5090506000820361179557600167ffffffffffffffff811115611700576116ff611ade565b5b60405190808252806020026020018201604052801561173357816020015b606081526020019060019003908161171e5790505b5090506040518060400160405280601281526020017f53656e736f72206861736e277420636964730000000000000000000000000000815250816000815181106117805761177f612243565b5b602002602001018190525080925050506118de565b60005b828110156118d757600160008773ffffffffffffffffffffffffffffffffffffffff1673ffffffffffffffffffffffffffffffffffffffff168152602001908152602001600020600101856040516117f0919061215d565b9081526020016040518091039020600201818154811061181357611812612243565b5b906000526020600020018054611828906122a1565b80601f0160208091040260200160405190810160405280929190818152602001828054611854906122a1565b80156118a15780601f10611876576101008083540402835291602001916118a1565b820191906000526020600020905b81548152906001019060200180831161188457829003601f168201915b50505050508282815181106118b9576118b8612243565b5b602002602001018190525080806118cf906129aa565b915050611798565b5080925050505b92915050565b6000604051905090565b600080fd5b600080fd5b6000819050919050565b61190b816118f8565b811461191657600080fd5b50565b60008135905061192881611902565b92915050565b600060208284031215611944576119436118ee565b5b600061195284828501611919565b91505092915050565b600073ffffffffffffffffffffffffffffffffffffffff82169050919050565b60006119868261195b565b9050919050565b6119968161197b565b82525050565b60006020820190506119b1600083018461198d565b92915050565b600081519050919050565b600082825260208201905092915050565b6000819050602082019050919050565b6119ec8161197b565b82525050565b60006119fe83836119e3565b60208301905092915050565b6000602082019050919050565b6000611a22826119b7565b611a2c81856119c2565b9350611a37836119d3565b8060005b83811015611a68578151611a4f88826119f2565b9750611a5a83611a0a565b925050600181019050611a3b565b5085935050505092915050565b60006020820190508181036000830152611a8f8184611a17565b905092915050565b611aa08161197b565b8114611aab57600080fd5b50565b600081359050611abd81611a97565b92915050565b600080fd5b600080fd5b6000601f19601f8301169050919050565b7f4e487b7100000000000000000000000000000000000000000000000000000000600052604160045260246000fd5b611b1682611acd565b810181811067ffffffffffffffff82111715611b3557611b34611ade565b5b80604052505050565b6000611b486118e4565b9050611b548282611b0d565b919050565b600067ffffffffffffffff821115611b7457611b73611ade565b5b611b7d82611acd565b9050602081019050919050565b82818337600083830152505050565b6000611bac611ba784611b59565b611b3e565b905082815260208101848484011115611bc857611bc7611ac8565b5b611bd3848285611b8a565b509392505050565b600082601f830112611bf057611bef611ac3565b5b8135611c00848260208601611b99565b91505092915050565b60008060408385031215611c2057611c1f6118ee565b5b6000611c2e85828601611aae565b925050602083013567ffffffffffffffff811115611c4f57611c4e6118f3565b5b611c5b85828601611bdb565b9150509250929050565b600081519050919050565b600082825260208201905092915050565b60005b83811015611c9f578082015181840152602081019050611c84565b60008484015250505050565b6000611cb682611c65565b611cc08185611c70565b9350611cd0818560208601611c81565b611cd981611acd565b840191505092915050565b60006020820190508181036000830152611cfe8184611cab565b905092915050565b600060208284031215611d1c57611d1b6118ee565b5b6000611d2a84828501611aae565b91505092915050565b600060ff82169050919050565b611d4981611d33565b8114611d5457600080fd5b50565b600081359050611d6681611d40565b92915050565b6000819050919050565b611d7f81611d6c565b8114611d8a57600080fd5b50565b600081359050611d9c81611d76565b92915050565b600080600080600060a08688031215611dbe57611dbd6118ee565b5b600086013567ffffffffffffffff811115611ddc57611ddb6118f3565b5b611de888828901611bdb565b9550506020611df988828901611d57565b9450506040611e0a88828901611d8d565b9350506060611e1b88828901611d8d565b9250506080611e2c88828901611d8d565b9150509295509295909350565b60008115159050919050565b611e4e81611e39565b82525050565b6000604082019050611e69600083018561198d565b611e766020830184611e45565b9392505050565b600080600080600080600080610100898b031215611e9e57611e9d6118ee565b5b600089013567ffffffffffffffff811115611ebc57611ebb6118f3565b5b611ec88b828c01611bdb565b985050602089013567ffffffffffffffff811115611ee957611ee86118f3565b5b611ef58b828c01611bdb565b975050604089013567ffffffffffffffff811115611f1657611f156118f3565b5b611f228b828c01611bdb565b9650506060611f338b828c01611919565b9550506080611f448b828c01611d57565b94505060a0611f558b828c01611d8d565b93505060c0611f668b828c01611d8d565b92505060e0611f778b828c01611d8d565b9150509295985092959890939650565b600081519050919050565b600082825260208201905092915050565b6000819050602082019050919050565b600082825260208201905092915050565b6000611fcf82611c65565b611fd98185611fb3565b9350611fe9818560208601611c81565b611ff281611acd565b840191505092915050565b60006120098383611fc4565b905092915050565b6000602082019050919050565b600061202982611f87565b6120338185611f92565b93508360208202850161204585611fa3565b8060005b8581101561208157848403895281516120628582611ffd565b945061206d83612011565b925060208a01995050600181019050612049565b50829750879550505050505092915050565b600060208201905081810360008301526120ad818461201e565b905092915050565b7f496e76616c69642070726f766964657220616464726573730000000000000000600082015250565b60006120eb601883611c70565b91506120f6826120b5565b602082019050919050565b6000602082019050818103600083015261211a816120de565b9050919050565b600081905092915050565b600061213782611c65565b6121418185612121565b9350612151818560208601611c81565b80840191505092915050565b6000612169828461212c565b915081905092915050565b7f496e76616c69642073656e736f72204d41430000000000000000000000000000600082015250565b60006121aa601283611c70565b91506121b582612174565b602082019050919050565b600060208201905081810360008301526121d98161219d565b9050919050565b7f4e487b7100000000000000000000000000000000000000000000000000000000600052601160045260246000fd5b600061221a826118f8565b9150612225836118f8565b925082820390508181111561223d5761223c6121e0565b5b92915050565b7f4e487b7100000000000000000000000000000000000000000000000000000000600052603260045260246000fd5b7f4e487b7100000000000000000000000000000000000000000000000000000000600052602260045260246000fd5b600060028204905060018216806122b957607f821691505b6020821081036122cc576122cb612272565b5b50919050565b7f4f6e6c7920636f6e74726163742773206f776e65722063616e2061646420612060008201527f70726f7669646572000000000000000000000000000000000000000000000000602082015250565b600061232e602883611c70565b9150612339826122d2565b604082019050919050565b6000602082019050818103600083015261235d81612321565b9050919050565b7f50726f76696465722068617320616c7265616479206164646564000000000000600082015250565b600061239a601a83611c70565b91506123a582612364565b602082019050919050565b600060208201905081810360008301526123c98161238d565b9050919050565b6123d9816118f8565b82525050565b60006020820190506123f460008301846123d0565b92915050565b61240381611d6c565b82525050565b61241281611d33565b82525050565b600060808201905061242d60008301876123fa565b61243a6020830186612409565b61244760408301856123fa565b61245460608301846123fa565b95945050505050565b7f496e76616c6964207369676e61747572652c2070726f766964657220646f657360008201527f6e27742065786973747300000000000000000000000000000000000000000000602082015250565b60006124b9602a83611c70565b91506124c48261245d565b604082019050919050565b600060208201905081810360008301526124e8816124ac565b9050919050565b7f53656e736f722068617320616c72656164792061646465640000000000000000600082015250565b6000612525601883611c70565b9150612530826124ef565b602082019050919050565b6000602082019050818103600083015261255481612518565b9050919050565b60008190508160005260206000209050919050565b60006020601f8301049050919050565b600082821b905092915050565b6000600883026125bd7fffffffffffffffffffffffffffffffffffffffffffffffffffffffffffffffff82612580565b6125c78683612580565b95508019841693508086168417925050509392505050565b6000819050919050565b60006126046125ff6125fa846118f8565b6125df565b6118f8565b9050919050565b6000819050919050565b61261e836125e9565b61263261262a8261260b565b84845461258d565b825550505050565b600090565b61264761263a565b612652818484612615565b505050565b5b818110156126765761266b60008261263f565b600181019050612658565b5050565b601f8211156126bb5761268c8161255b565b61269584612570565b810160208510156126a4578190505b6126b86126b085612570565b830182612657565b50505b505050565b600082821c905092915050565b60006126de600019846008026126c0565b1980831691505092915050565b60006126f783836126cd565b9150826002028217905092915050565b61271082611c65565b67ffffffffffffffff81111561272957612728611ade565b5b61273382546122a1565b61273e82828561267a565b600060209050601f831160018114612771576000841561275f578287015190505b61276985826126eb565b8655506127d1565b601f19841661277f8661255b565b60005b828110156127a757848901518255600182019150602085019450602081019050612782565b868310156127c457848901516127c0601f8916826126cd565b8355505b6001600288020188555050505b505050505050565b600060408201905081810360008301526127f38185611cab565b905061280260208301846123d0565b9392505050565b7f4f6e6c792070726f76696465722063616e2075706c6f6164206e65772064617460008201527f6100000000000000000000000000000000000000000000000000000000000000602082015250565b6000612865602183611c70565b915061287082612809565b604082019050919050565b6000602082019050818103600083015261289481612858565b9050919050565b7f53656e736f7220646f65736e2774206578697374730000000000000000000000600082015250565b60006128d1601583611c70565b91506128dc8261289b565b602082019050919050565b60006020820190508181036000830152612900816128c4565b9050919050565b600060408201905081810360008301526129218185611cab565b905081810360208301526129358184611cab565b90509392505050565b7f50726f766964657220646f65736e277420657869737473000000000000000000600082015250565b6000612974601783611c70565b915061297f8261293e565b602082019050919050565b600060208201905081810360008301526129a381612967565b9050919050565b60006129b5826118f8565b91507fffffffffffffffffffffffffffffffffffffffffffffffffffffffffffffffff82036129e7576129e66121e0565b5b60018201905091905056fea2646970667358221220a7157555e373b68ee4fee194875ff70cd3b6620b08595fdb667ca39a27a4fddd64736f6c63430008120033",
			"opcodes": "PUSH1 0x80 PUSH1 0x40 MSTORE CALLVALUE DUP1 ISZERO PUSH2 0x10 JUMPI PUSH1 0x0 DUP1 REVERT JUMPDEST POP CALLER PUSH1 0x0 DUP1 PUSH2 0x100 EXP DUP2 SLOAD DUP2 PUSH20 0xFFFFFFFFFFFFFFFFFFFFFFFFFFFFFFFFFFFFFFFF MUL NOT AND SWAP1 DUP4 PUSH20 0xFFFFFFFFFFFFFFFFFFFFFFFFFFFFFFFFFFFFFFFF AND MUL OR SWAP1 SSTORE POP PUSH2 0x2A28 DUP1 PUSH2 0x60 PUSH1 0x0 CODECOPY PUSH1 0x0 RETURN INVALID PUSH1 0x80 PUSH1 0x40 MSTORE CALLVALUE DUP1 ISZERO PUSH2 0x10 JUMPI PUSH1 0x0 DUP1 REVERT JUMPDEST POP PUSH1 0x4 CALLDATASIZE LT PUSH2 0x93 JUMPI PUSH1 0x0 CALLDATALOAD PUSH1 0xE0 SHR DUP1 PUSH4 0x802E9CB9 GT PUSH2 0x66 JUMPI DUP1 PUSH4 0x802E9CB9 EQ PUSH2 0x132 JUMPI DUP1 PUSH4 0x9790E96A EQ PUSH2 0x14E JUMPI DUP1 PUSH4 0xD3530975 EQ PUSH2 0x17F JUMPI DUP1 PUSH4 0xF5E75742 EQ PUSH2 0x19B JUMPI DUP1 PUSH4 0xFE41576F EQ PUSH2 0x1CB JUMPI PUSH2 0x93 JUMP JUMPDEST DUP1 PUSH4 0x31137090 EQ PUSH2 0x98 JUMPI DUP1 PUSH4 0x3BB4497C EQ PUSH2 0xC8 JUMPI DUP1 PUSH4 0x4F65E878 EQ PUSH2 0xE6 JUMPI DUP1 PUSH4 0x5B485A14 EQ PUSH2 0x116 JUMPI JUMPDEST PUSH1 0x0 DUP1 REVERT JUMPDEST PUSH2 0xB2 PUSH1 0x4 DUP1 CALLDATASIZE SUB DUP2 ADD SWAP1 PUSH2 0xAD SWAP2 SWAP1 PUSH2 0x192E JUMP JUMPDEST PUSH2 0x1FB JUMP JUMPDEST PUSH1 0x40 MLOAD PUSH2 0xBF SWAP2 SWAP1 PUSH2 0x199C JUMP JUMPDEST PUSH1 0x40 MLOAD DUP1 SWAP2 SUB SWAP1 RETURN JUMPDEST PUSH2 0xD0 PUSH2 0x23A JUMP JUMPDEST PUSH1 0x40 MLOAD PUSH2 0xDD SWAP2 SWAP1 PUSH2 0x1A75 JUMP JUMPDEST PUSH1 0x40 MLOAD DUP1 SWAP2 SUB SWAP1 RETURN JUMPDEST PUSH2 0x100 PUSH1 0x4 DUP1 CALLDATASIZE SUB DUP2 ADD SWAP1 PUSH2 0xFB SWAP2 SWAP1 PUSH2 0x1C09 JUMP JUMPDEST PUSH2 0x2C8 JUMP JUMPDEST PUSH1 0x40 MLOAD PUSH2 0x10D SWAP2 SWAP1 PUSH2 0x1CE4 JUMP JUMPDEST PUSH1 0x40 MLOAD DUP1 SWAP2 SUB SWAP1 RETURN JUMPDEST PUSH2 0x130 PUSH1 0x4 DUP1 CALLDATASIZE SUB DUP2 ADD SWAP1 PUSH2 0x12B SWAP2 SWAP1 PUSH2 0x1D06 JUMP JUMPDEST PUSH2 0x5E0 JUMP JUMPDEST STOP JUMPDEST PUSH2 0x14C PUSH1 0x4 DUP1 CALLDATASIZE SUB DUP2 ADD SWAP1 PUSH2 0x147 SWAP2 SWAP1 PUSH2 0x1DA2 JUMP JUMPDEST PUSH2 0x893 JUMP JUMPDEST STOP JUMPDEST PUSH2 0x168 PUSH1 0x4 DUP1 CALLDATASIZE SUB DUP2 ADD SWAP1 PUSH2 0x163 SWAP2 SWAP1 PUSH2 0x1D06 JUMP JUMPDEST PUSH2 0xBE6 JUMP JUMPDEST PUSH1 0x40 MLOAD PUSH2 0x176 SWAP3 SWAP2 SWAP1 PUSH2 0x1E54 JUMP JUMPDEST PUSH1 0x40 MLOAD DUP1 SWAP2 SUB SWAP1 RETURN JUMPDEST PUSH2 0x199 PUSH1 0x4 DUP1 CALLDATASIZE SUB DUP2 ADD SWAP1 PUSH2 0x194 SWAP2 SWAP1 PUSH2 0x1E7D JUMP JUMPDEST PUSH2 0xC37 JUMP JUMPDEST STOP JUMPDEST PUSH2 0x1B5 PUSH1 0x4 DUP1 CALLDATASIZE SUB DUP2 ADD SWAP1 PUSH2 0x1B0 SWAP2 SWAP1 PUSH2 0x1D06 JUMP JUMPDEST PUSH2 0x1324 JUMP JUMPDEST PUSH1 0x40 MLOAD PUSH2 0x1C2 SWAP2 SWAP1 PUSH2 0x2093 JUMP JUMPDEST PUSH1 0x40 MLOAD DUP1 SWAP2 SUB SWAP1 RETURN JUMPDEST PUSH2 0x1E5 PUSH1 0x4 DUP1 CALLDATASIZE SUB DUP2 ADD SWAP1 PUSH2 0x1E0 SWAP2 SWAP1 PUSH2 0x1C09 JUMP JUMPDEST PUSH2 0x14D5 JUMP JUMPDEST PUSH1 0x40 MLOAD PUSH2 0x1F2 SWAP2 SWAP1 PUSH2 0x2093 JUMP JUMPDEST PUSH1 0x40 MLOAD DUP1 SWAP2 SUB SWAP1 RETURN JUMPDEST PUSH1 0x2 DUP2 DUP2 SLOAD DUP2 LT PUSH2 0x20B JUMPI PUSH1 0x0 DUP1 REVERT JUMPDEST SWAP1 PUSH1 0x0 MSTORE PUSH1 0x20 PUSH1 0x0 KECCAK256 ADD PUSH1 0x0 SWAP2 POP SLOAD SWAP1 PUSH2 0x100 EXP SWAP1 DIV PUSH20 0xFFFFFFFFFFFFFFFFFFFFFFFFFFFFFFFFFFFFFFFF AND DUP2 JUMP JUMPDEST PUSH1 0x60 PUSH1 0x2 DUP1 SLOAD DUP1 PUSH1 0x20 MUL PUSH1 0x20 ADD PUSH1 0x40 MLOAD SWAP1 DUP2 ADD PUSH1 0x40 MSTORE DUP1 SWAP3 SWAP2 SWAP1 DUP2 DUP2 MSTORE PUSH1 0x20 ADD DUP3 DUP1 SLOAD DUP1 ISZERO PUSH2 0x2BE JUMPI PUSH1 0x20 MUL DUP3 ADD SWAP2 SWAP1 PUSH1 0x0 MSTORE PUSH1 0x20 PUSH1 0x0 KECCAK256 SWAP1 JUMPDEST DUP2 PUSH1 0x0 SWAP1 SLOAD SWAP1 PUSH2 0x100 EXP SWAP1 DIV PUSH20 0xFFFFFFFFFFFFFFFFFFFFFFFFFFFFFFFFFFFFFFFF AND PUSH20 0xFFFFFFFFFFFFFFFFFFFFFFFFFFFFFFFFFFFFFFFF AND DUP2 MSTORE PUSH1 0x20 ADD SWAP1 PUSH1 0x1 ADD SWAP1 DUP1 DUP4 GT PUSH2 0x274 JUMPI JUMPDEST POP POP POP POP POP SWAP1 POP SWAP1 JUMP JUMPDEST PUSH1 0x60 PUSH1 0x1 ISZERO ISZERO PUSH1 0x1 PUSH1 0x0 DUP6 PUSH20 0xFFFFFFFFFFFFFFFFFFFFFFFFFFFFFFFFFFFFFFFF AND PUSH20 0xFFFFFFFFFFFFFFFFFFFFFFFFFFFFFFFFFFFFFFFF AND DUP2 MSTORE PUSH1 0x20 ADD SWAP1 DUP2 MSTORE PUSH1 0x20 ADD PUSH1 0x0 KECCAK256 PUSH1 0x3 ADD PUSH1 0x0 SWAP1 SLOAD SWAP1 PUSH2 0x100 EXP SWAP1 DIV PUSH1 0xFF AND ISZERO ISZERO EQ PUSH2 0x360 JUMPI PUSH1 0x40 MLOAD PUSH32 0x8C379A000000000000000000000000000000000000000000000000000000000 DUP2 MSTORE PUSH1 0x4 ADD PUSH2 0x357 SWAP1 PUSH2 0x2101 JUMP JUMPDEST PUSH1 0x40 MLOAD DUP1 SWAP2 SUB SWAP1 REVERT JUMPDEST PUSH1 0x1 ISZERO ISZERO PUSH1 0x1 PUSH1 0x0 DUP6 PUSH20 0xFFFFFFFFFFFFFFFFFFFFFFFFFFFFFFFFFFFFFFFF AND PUSH20 0xFFFFFFFFFFFFFFFFFFFFFFFFFFFFFFFFFFFFFFFF AND DUP2 MSTORE PUSH1 0x20 ADD SWAP1 DUP2 MSTORE PUSH1 0x20 ADD PUSH1 0x0 KECCAK256 PUSH1 0x1 ADD DUP4 PUSH1 0x40 MLOAD PUSH2 0x3B4 SWAP2 SWAP1 PUSH2 0x215D JUMP JUMPDEST SWAP1 DUP2 MSTORE PUSH1 0x20 ADD PUSH1 0x40 MLOAD DUP1 SWAP2 SUB SWAP1 KECCAK256 PUSH1 0x3 ADD PUSH1 0x0 SWAP1 SLOAD SWAP1 PUSH2 0x100 EXP SWAP1 DIV PUSH1 0xFF AND ISZERO ISZERO EQ PUSH2 0x415 JUMPI PUSH1 0x40 MLOAD PUSH32 0x8C379A000000000000000000000000000000000000000000000000000000000 DUP2 MSTORE PUSH1 0x4 ADD PUSH2 0x40C SWAP1 PUSH2 0x21C0 JUMP JUMPDEST PUSH1 0x40 MLOAD DUP1 SWAP2 SUB SWAP1 REVERT JUMPDEST PUSH1 0x0 PUSH1 0x1 PUSH1 0x0 DUP6 PUSH20 0xFFFFFFFFFFFFFFFFFFFFFFFFFFFFFFFFFFFFFFFF AND PUSH20 0xFFFFFFFFFFFFFFFFFFFFFFFFFFFFFFFFFFFFFFFF AND DUP2 MSTORE PUSH1 0x20 ADD SWAP1 DUP2 MSTORE PUSH1 0x20 ADD PUSH1 0x0 KECCAK256 PUSH1 0x1 ADD DUP4 PUSH1 0x40 MLOAD PUSH2 0x467 SWAP2 SWAP1 PUSH2 0x215D JUMP JUMPDEST SWAP1 DUP2 MSTORE PUSH1 0x20 ADD PUSH1 0x40 MLOAD DUP1 SWAP2 SUB SWAP1 KECCAK256 PUSH1 0x2 ADD DUP1 SLOAD SWAP1 POP SWAP1 POP PUSH1 0x0 DUP2 SUB PUSH2 0x4C4 JUMPI PUSH1 0x40 MLOAD DUP1 PUSH1 0x40 ADD PUSH1 0x40 MSTORE DUP1 PUSH1 0x12 DUP2 MSTORE PUSH1 0x20 ADD PUSH32 0x53656E736F72206861736E277420636964730000000000000000000000000000 DUP2 MSTORE POP SWAP2 POP POP PUSH2 0x5DA JUMP JUMPDEST PUSH1 0x1 PUSH1 0x0 DUP6 PUSH20 0xFFFFFFFFFFFFFFFFFFFFFFFFFFFFFFFFFFFFFFFF AND PUSH20 0xFFFFFFFFFFFFFFFFFFFFFFFFFFFFFFFFFFFFFFFF AND DUP2 MSTORE PUSH1 0x20 ADD SWAP1 DUP2 MSTORE PUSH1 0x20 ADD PUSH1 0x0 KECCAK256 PUSH1 0x1 ADD DUP4 PUSH1 0x40 MLOAD PUSH2 0x514 SWAP2 SWAP1 PUSH2 0x215D JUMP JUMPDEST SWAP1 DUP2 MSTORE PUSH1 0x20 ADD PUSH1 0x40 MLOAD DUP1 SWAP2 SUB SWAP1 KECCAK256 PUSH1 0x2 ADD PUSH1 0x1 DUP3 PUSH2 0x532 SWAP2 SWAP1 PUSH2 0x220F JUMP JUMPDEST DUP2 SLOAD DUP2 LT PUSH2 0x543 JUMPI PUSH2 0x542 PUSH2 0x2243 JUMP JUMPDEST JUMPDEST SWAP1 PUSH1 0x0 MSTORE PUSH1 0x20 PUSH1 0x0 KECCAK256 ADD DUP1 SLOAD PUSH2 0x558 SWAP1 PUSH2 0x22A1 JUMP JUMPDEST DUP1 PUSH1 0x1F ADD PUSH1 0x20 DUP1 SWAP2 DIV MUL PUSH1 0x20 ADD PUSH1 0x40 MLOAD SWAP1 DUP2 ADD PUSH1 0x40 MSTORE DUP1 SWAP3 SWAP2 SWAP1 DUP2 DUP2 MSTORE PUSH1 0x20 ADD DUP3 DUP1 SLOAD PUSH2 0x584 SWAP1 PUSH2 0x22A1 JUMP JUMPDEST DUP1 ISZERO PUSH2 0x5D1 JUMPI DUP1 PUSH1 0x1F LT PUSH2 0x5A6 JUMPI PUSH2 0x100 DUP1 DUP4 SLOAD DIV MUL DUP4 MSTORE SWAP2 PUSH1 0x20 ADD SWAP2 PUSH2 0x5D1 JUMP JUMPDEST DUP3 ADD SWAP2 SWAP1 PUSH1 0x0 MSTORE PUSH1 0x20 PUSH1 0x0 KECCAK256 SWAP1 JUMPDEST DUP2 SLOAD DUP2 MSTORE SWAP1 PUSH1 0x1 ADD SWAP1 PUSH1 0x20 ADD DUP1 DUP4 GT PUSH2 0x5B4 JUMPI DUP3 SWAP1 SUB PUSH1 0x1F AND DUP3 ADD SWAP2 JUMPDEST POP POP POP POP POP SWAP2 POP POP JUMPDEST SWAP3 SWAP2 POP POP JUMP JUMPDEST PUSH1 0x0 DUP1 SLOAD SWAP1 PUSH2 0x100 EXP SWAP1 DIV PUSH20 0xFFFFFFFFFFFFFFFFFFFFFFFFFFFFFFFFFFFFFFFF AND PUSH20 0xFFFFFFFFFFFFFFFFFFFFFFFFFFFFFFFFFFFFFFFF AND CALLER PUSH20 0xFFFFFFFFFFFFFFFFFFFFFFFFFFFFFFFFFFFFFFFF AND EQ PUSH2 0x66E JUMPI PUSH1 0x40 MLOAD PUSH32 0x8C379A000000000000000000000000000000000000000000000000000000000 DUP2 MSTORE PUSH1 0x4 ADD PUSH2 0x665 SWAP1 PUSH2 0x2344 JUMP JUMPDEST PUSH1 0x40 MLOAD DUP1 SWAP2 SUB SWAP1 REVERT JUMPDEST PUSH1 0x0 ISZERO ISZERO PUSH1 0x1 PUSH1 0x0 DUP4 PUSH20 0xFFFFFFFFFFFFFFFFFFFFFFFFFFFFFFFFFFFFFFFF AND PUSH20 0xFFFFFFFFFFFFFFFFFFFFFFFFFFFFFFFFFFFFFFFF AND DUP2 MSTORE PUSH1 0x20 ADD SWAP1 DUP2 MSTORE PUSH1 0x20 ADD PUSH1 0x0 KECCAK256 PUSH1 0x3 ADD PUSH1 0x0 SWAP1 SLOAD SWAP1 PUSH2 0x100 EXP SWAP1 DIV PUSH1 0xFF AND ISZERO ISZERO EQ PUSH2 0x704 JUMPI PUSH1 0x40 MLOAD PUSH32 0x8C379A000000000000000000000000000000000000000000000000000000000 DUP2 MSTORE PUSH1 0x4 ADD PUSH2 0x6FB SWAP1 PUSH2 0x23B0 JUMP JUMPDEST PUSH1 0x40 MLOAD DUP1 SWAP2 SUB SWAP1 REVERT JUMPDEST DUP1 PUSH1 0x1 PUSH1 0x0 DUP4 PUSH20 0xFFFFFFFFFFFFFFFFFFFFFFFFFFFFFFFFFFFFFFFF AND PUSH20 0xFFFFFFFFFFFFFFFFFFFFFFFFFFFFFFFFFFFFFFFF AND DUP2 MSTORE PUSH1 0x20 ADD SWAP1 DUP2 MSTORE PUSH1 0x20 ADD PUSH1 0x0 KECCAK256 PUSH1 0x0 ADD PUSH1 0x0 PUSH2 0x100 EXP DUP2 SLOAD DUP2 PUSH20 0xFFFFFFFFFFFFFFFFFFFFFFFFFFFFFFFFFFFFFFFF MUL NOT AND SWAP1 DUP4 PUSH20 0xFFFFFFFFFFFFFFFFFFFFFFFFFFFFFFFFFFFFFFFF AND MUL OR SWAP1 SSTORE POP PUSH1 0x1 DUP1 PUSH1 0x0 DUP4 PUSH20 0xFFFFFFFFFFFFFFFFFFFFFFFFFFFFFFFFFFFFFFFF AND PUSH20 0xFFFFFFFFFFFFFFFFFFFFFFFFFFFFFFFFFFFFFFFF AND DUP2 MSTORE PUSH1 0x20 ADD SWAP1 DUP2 MSTORE PUSH1 0x20 ADD PUSH1 0x0 KECCAK256 PUSH1 0x3 ADD PUSH1 0x0 PUSH2 0x100 EXP DUP2 SLOAD DUP2 PUSH1 0xFF MUL NOT AND SWAP1 DUP4 ISZERO ISZERO MUL OR SWAP1 SSTORE POP PUSH1 0x2 DUP2 SWAP1 DUP1 PUSH1 0x1 DUP2 SLOAD ADD DUP1 DUP3 SSTORE DUP1 SWAP2 POP POP PUSH1 0x1 SWAP1 SUB SWAP1 PUSH1 0x0 MSTORE PUSH1 0x20 PUSH1 0x0 KECCAK256 ADD PUSH1 0x0 SWAP1 SWAP2 SWAP1 SWAP2 SWAP1 SWAP2 PUSH2 0x100 EXP DUP2 SLOAD DUP2 PUSH20 0xFFFFFFFFFFFFFFFFFFFFFFFFFFFFFFFFFFFFFFFF MUL NOT AND SWAP1 DUP4 PUSH20 0xFFFFFFFFFFFFFFFFFFFFFFFFFFFFFFFFFFFFFFFF AND MUL OR SWAP1 SSTORE POP DUP1 PUSH20 0xFFFFFFFFFFFFFFFFFFFFFFFFFFFFFFFFFFFFFFFF AND PUSH32 0x1B8D6E7EDD12CE9BF5CBE0CF36D5E75E86617A943F642908CB445FDADB483051 TIMESTAMP PUSH1 0x40 MLOAD PUSH2 0x888 SWAP2 SWAP1 PUSH2 0x23DF JUMP JUMPDEST PUSH1 0x40 MLOAD DUP1 SWAP2 SUB SWAP1 LOG2 POP JUMP JUMPDEST PUSH1 0x0 PUSH1 0x1 DUP3 DUP7 DUP7 DUP7 PUSH1 0x40 MLOAD PUSH1 0x0 DUP2 MSTORE PUSH1 0x20 ADD PUSH1 0x40 MSTORE PUSH1 0x40 MLOAD PUSH2 0x8B8 SWAP5 SWAP4 SWAP3 SWAP2 SWAP1 PUSH2 0x2418 JUMP JUMPDEST PUSH1 0x20 PUSH1 0x40 MLOAD PUSH1 0x20 DUP2 SUB SWAP1 DUP1 DUP5 SUB SWAP1 DUP6 GAS STATICCALL ISZERO DUP1 ISZERO PUSH2 0x8DA JUMPI RETURNDATASIZE PUSH1 0x0 DUP1 RETURNDATACOPY RETURNDATASIZE PUSH1 0x0 REVERT JUMPDEST POP POP POP PUSH1 0x20 PUSH1 0x40 MLOAD SUB MLOAD SWAP1 POP PUSH1 0x1 ISZERO ISZERO PUSH1 0x1 PUSH1 0x0 DUP4 PUSH20 0xFFFFFFFFFFFFFFFFFFFFFFFFFFFFFFFFFFFFFFFF AND PUSH20 0xFFFFFFFFFFFFFFFFFFFFFFFFFFFFFFFFFFFFFFFF AND DUP2 MSTORE PUSH1 0x20 ADD SWAP1 DUP2 MSTORE PUSH1 0x20 ADD PUSH1 0x0 KECCAK256 PUSH1 0x3 ADD PUSH1 0x0 SWAP1 SLOAD SWAP1 PUSH2 0x100 EXP SWAP1 DIV PUSH1 0xFF AND ISZERO ISZERO EQ PUSH2 0x97C JUMPI PUSH1 0x40 MLOAD PUSH32 0x8C379A000000000000000000000000000000000000000000000000000000000 DUP2 MSTORE PUSH1 0x4 ADD PUSH2 0x973 SWAP1 PUSH2 0x24CF JUMP JUMPDEST PUSH1 0x40 MLOAD DUP1 SWAP2 SUB SWAP1 REVERT JUMPDEST PUSH1 0x0 ISZERO ISZERO PUSH1 0x1 PUSH1 0x0 DUP4 PUSH20 0xFFFFFFFFFFFFFFFFFFFFFFFFFFFFFFFFFFFFFFFF AND PUSH20 0xFFFFFFFFFFFFFFFFFFFFFFFFFFFFFFFFFFFFFFFF AND DUP2 MSTORE PUSH1 0x20 ADD SWAP1 DUP2 MSTORE PUSH1 0x20 ADD PUSH1 0x0 KECCAK256 PUSH1 0x1 ADD DUP8 PUSH1 0x40 MLOAD PUSH2 0x9D0 SWAP2 SWAP1 PUSH2 0x215D JUMP JUMPDEST SWAP1 DUP2 MSTORE PUSH1 0x20 ADD PUSH1 0x40 MLOAD DUP1 SWAP2 SUB SWAP1 KECCAK256 PUSH1 0x3 ADD PUSH1 0x0 SWAP1 SLOAD SWAP1 PUSH2 0x100 EXP SWAP1 DIV PUSH1 0xFF AND ISZERO ISZERO EQ PUSH2 0xA31 JUMPI PUSH1 0x40 MLOAD PUSH32 0x8C379A000000000000000000000000000000000000000000000000000000000 DUP2 MSTORE PUSH1 0x4 ADD PUSH2 0xA28 SWAP1 PUSH2 0x253B JUMP JUMPDEST PUSH1 0x40 MLOAD DUP1 SWAP2 SUB SWAP1 REVERT JUMPDEST DUP6 PUSH1 0x1 PUSH1 0x0 DUP4 PUSH20 0xFFFFFFFFFFFFFFFFFFFFFFFFFFFFFFFFFFFFFFFF AND PUSH20 0xFFFFFFFFFFFFFFFFFFFFFFFFFFFFFFFFFFFFFFFF AND DUP2 MSTORE PUSH1 0x20 ADD SWAP1 DUP2 MSTORE PUSH1 0x20 ADD PUSH1 0x0 KECCAK256 PUSH1 0x1 ADD DUP8 PUSH1 0x40 MLOAD PUSH2 0xA82 SWAP2 SWAP1 PUSH2 0x215D JUMP JUMPDEST SWAP1 DUP2 MSTORE PUSH1 0x20 ADD PUSH1 0x40 MLOAD DUP1 SWAP2 SUB SWAP1 KECCAK256 PUSH1 0x0 ADD SWAP1 DUP2 PUSH2 0xA9F SWAP2 SWAP1 PUSH2 0x2707 JUMP JUMPDEST POP PUSH1 0x1 DUP1 PUSH1 0x0 DUP4 PUSH20 0xFFFFFFFFFFFFFFFFFFFFFFFFFFFFFFFFFFFFFFFF AND PUSH20 0xFFFFFFFFFFFFFFFFFFFFFFFFFFFFFFFFFFFFFFFF AND DUP2 MSTORE PUSH1 0x20 ADD SWAP1 DUP2 MSTORE PUSH1 0x20 ADD PUSH1 0x0 KECCAK256 PUSH1 0x1 ADD DUP8 PUSH1 0x40 MLOAD PUSH2 0xAF1 SWAP2 SWAP1 PUSH2 0x215D JUMP JUMPDEST SWAP1 DUP2 MSTORE PUSH1 0x20 ADD PUSH1 0x40 MLOAD DUP1 SWAP2 SUB SWAP1 KECCAK256 PUSH1 0x3 ADD PUSH1 0x0 PUSH2 0x100 EXP DUP2 SLOAD DUP2 PUSH1 0xFF MUL NOT AND SWAP1 DUP4 ISZERO ISZERO MUL OR SWAP1 SSTORE POP PUSH1 0x1 PUSH1 0x0 DUP3 PUSH20 0xFFFFFFFFFFFFFFFFFFFFFFFFFFFFFFFFFFFFFFFF AND PUSH20 0xFFFFFFFFFFFFFFFFFFFFFFFFFFFFFFFFFFFFFFFF AND DUP2 MSTORE PUSH1 0x20 ADD SWAP1 DUP2 MSTORE PUSH1 0x20 ADD PUSH1 0x0 KECCAK256 PUSH1 0x2 ADD DUP7 SWAP1 DUP1 PUSH1 0x1 DUP2 SLOAD ADD DUP1 DUP3 SSTORE DUP1 SWAP2 POP POP PUSH1 0x1 SWAP1 SUB SWAP1 PUSH1 0x0 MSTORE PUSH1 0x20 PUSH1 0x0 KECCAK256 ADD PUSH1 0x0 SWAP1 SWAP2 SWAP1 SWAP2 SWAP1 SWAP2 POP SWAP1 DUP2 PUSH2 0xB8D SWAP2 SWAP1 PUSH2 0x2707 JUMP JUMPDEST POP DUP1 PUSH20 0xFFFFFFFFFFFFFFFFFFFFFFFFFFFFFFFFFFFFFFFF AND PUSH32 0x54C4764E35DB3B768B99B60A6D4768F57731E91C4F672B4B8F19C36632152836 DUP8 TIMESTAMP PUSH1 0x40 MLOAD PUSH2 0xBD6 SWAP3 SWAP2 SWAP1 PUSH2 0x27D9 JUMP JUMPDEST PUSH1 0x40 MLOAD DUP1 SWAP2 SUB SWAP1 LOG2 POP POP POP POP POP POP JUMP JUMPDEST PUSH1 0x1 PUSH1 0x20 MSTORE DUP1 PUSH1 0x0 MSTORE PUSH1 0x40 PUSH1 0x0 KECCAK256 PUSH1 0x0 SWAP2 POP SWAP1 POP DUP1 PUSH1 0x0 ADD PUSH1 0x0 SWAP1 SLOAD SWAP1 PUSH2 0x100 EXP SWAP1 DIV PUSH20 0xFFFFFFFFFFFFFFFFFFFFFFFFFFFFFFFFFFFFFFFF AND SWAP1 DUP1 PUSH1 0x3 ADD PUSH1 0x0 SWAP1 SLOAD SWAP1 PUSH2 0x100 EXP SWAP1 DIV PUSH1 0xFF AND SWAP1 POP DUP3 JUMP JUMPDEST PUSH1 0x0 PUSH1 0x1 DUP3 DUP7 DUP7 DUP7 PUSH1 0x40 MLOAD PUSH1 0x0 DUP2 MSTORE PUSH1 0x20 ADD PUSH1 0x40 MSTORE PUSH1 0x40 MLOAD PUSH2 0xC5C SWAP5 SWAP4 SWAP3 SWAP2 SWAP1 PUSH2 0x2418 JUMP JUMPDEST PUSH1 0x20 PUSH1 0x40 MLOAD PUSH1 0x20 DUP2 SUB SWAP1 DUP1 DUP5 SUB SWAP1 DUP6 GAS STATICCALL ISZERO DUP1 ISZERO PUSH2 0xC7E JUMPI RETURNDATASIZE PUSH1 0x0 DUP1 RETURNDATACOPY RETURNDATASIZE PUSH1 0x0 REVERT JUMPDEST POP POP POP PUSH1 0x20 PUSH1 0x40 MLOAD SUB MLOAD SWAP1 POP PUSH1 0x1 ISZERO ISZERO PUSH1 0x1 PUSH1 0x0 DUP4 PUSH20 0xFFFFFFFFFFFFFFFFFFFFFFFFFFFFFFFFFFFFFFFF AND PUSH20 0xFFFFFFFFFFFFFFFFFFFFFFFFFFFFFFFFFFFFFFFF AND DUP2 MSTORE PUSH1 0x20 ADD SWAP1 DUP2 MSTORE PUSH1 0x20 ADD PUSH1 0x0 KECCAK256 PUSH1 0x3 ADD PUSH1 0x0 SWAP1 SLOAD SWAP1 PUSH2 0x100 EXP SWAP1 DIV PUSH1 0xFF AND ISZERO ISZERO EQ PUSH2 0xD20 JUMPI PUSH1 0x40 MLOAD PUSH32 0x8C379A000000000000000000000000000000000000000000000000000000000 DUP2 MSTORE PUSH1 0x4 ADD PUSH2 0xD17 SWAP1 PUSH2 0x24CF JUMP JUMPDEST PUSH1 0x40 MLOAD DUP1 SWAP2 SUB SWAP1 REVERT JUMPDEST CALLER PUSH20 0xFFFFFFFFFFFFFFFFFFFFFFFFFFFFFFFFFFFFFFFF AND DUP2 PUSH20 0xFFFFFFFFFFFFFFFFFFFFFFFFFFFFFFFFFFFFFFFF AND EQ PUSH2 0xD8E JUMPI PUSH1 0x40 MLOAD PUSH32 0x8C379A000000000000000000000000000000000000000000000000000000000 DUP2 MSTORE PUSH1 0x4 ADD PUSH2 0xD85 SWAP1 PUSH2 0x287B JUMP JUMPDEST PUSH1 0x40 MLOAD DUP1 SWAP2 SUB SWAP1 REVERT JUMPDEST PUSH1 0x1 ISZERO ISZERO PUSH1 0x1 PUSH1 0x0 DUP4 PUSH20 0xFFFFFFFFFFFFFFFFFFFFFFFFFFFFFFFFFFFFFFFF AND PUSH20 0xFFFFFFFFFFFFFFFFFFFFFFFFFFFFFFFFFFFFFFFF AND DUP2 MSTORE PUSH1 0x20 ADD SWAP1 DUP2 MSTORE PUSH1 0x20 ADD PUSH1 0x0 KECCAK256 PUSH1 0x1 ADD DUP11 PUSH1 0x40 MLOAD PUSH2 0xDE2 SWAP2 SWAP1 PUSH2 0x215D JUMP JUMPDEST SWAP1 DUP2 MSTORE PUSH1 0x20 ADD PUSH1 0x40 MLOAD DUP1 SWAP2 SUB SWAP1 KECCAK256 PUSH1 0x3 ADD PUSH1 0x0 SWAP1 SLOAD SWAP1 PUSH2 0x100 EXP SWAP1 DIV PUSH1 0xFF AND ISZERO ISZERO EQ PUSH2 0xE43 JUMPI PUSH1 0x40 MLOAD PUSH32 0x8C379A000000000000000000000000000000000000000000000000000000000 DUP2 MSTORE PUSH1 0x4 ADD PUSH2 0xE3A SWAP1 PUSH2 0x28E7 JUMP JUMPDEST PUSH1 0x40 MLOAD DUP1 SWAP2 SUB SWAP1 REVERT JUMPDEST DUP8 PUSH1 0x1 PUSH1 0x0 DUP4 PUSH20 0xFFFFFFFFFFFFFFFFFFFFFFFFFFFFFFFFFFFFFFFF AND PUSH20 0xFFFFFFFFFFFFFFFFFFFFFFFFFFFFFFFFFFFFFFFF AND DUP2 MSTORE PUSH1 0x20 ADD SWAP1 DUP2 MSTORE PUSH1 0x20 ADD PUSH1 0x0 KECCAK256 PUSH1 0x1 ADD DUP11 PUSH1 0x40 MLOAD PUSH2 0xE94 SWAP2 SWAP1 PUSH2 0x215D JUMP JUMPDEST SWAP1 DUP2 MSTORE PUSH1 0x20 ADD PUSH1 0x40 MLOAD DUP1 SWAP2 SUB SWAP1 KECCAK256 PUSH1 0x1 ADD DUP10 PUSH1 0x40 MLOAD PUSH2 0xEB3 SWAP2 SWAP1 PUSH2 0x215D JUMP JUMPDEST SWAP1 DUP2 MSTORE PUSH1 0x20 ADD PUSH1 0x40 MLOAD DUP1 SWAP2 SUB SWAP1 KECCAK256 PUSH1 0x0 ADD SWAP1 DUP2 PUSH2 0xED0 SWAP2 SWAP1 PUSH2 0x2707 JUMP JUMPDEST POP DUP7 PUSH1 0x1 PUSH1 0x0 DUP4 PUSH20 0xFFFFFFFFFFFFFFFFFFFFFFFFFFFFFFFFFFFFFFFF AND PUSH20 0xFFFFFFFFFFFFFFFFFFFFFFFFFFFFFFFFFFFFFFFF AND DUP2 MSTORE PUSH1 0x20 ADD SWAP1 DUP2 MSTORE PUSH1 0x20 ADD PUSH1 0x0 KECCAK256 PUSH1 0x1 ADD DUP11 PUSH1 0x40 MLOAD PUSH2 0xF22 SWAP2 SWAP1 PUSH2 0x215D JUMP JUMPDEST SWAP1 DUP2 MSTORE PUSH1 0x20 ADD PUSH1 0x40 MLOAD DUP1 SWAP2 SUB SWAP1 KECCAK256 PUSH1 0x1 ADD DUP10 PUSH1 0x40 MLOAD PUSH2 0xF41 SWAP2 SWAP1 PUSH2 0x215D JUMP JUMPDEST SWAP1 DUP2 MSTORE PUSH1 0x20 ADD PUSH1 0x40 MLOAD DUP1 SWAP2 SUB SWAP1 KECCAK256 PUSH1 0x1 ADD SWAP1 DUP2 PUSH2 0xF5E SWAP2 SWAP1 PUSH2 0x2707 JUMP JUMPDEST POP DUP6 PUSH1 0x1 PUSH1 0x0 DUP4 PUSH20 0xFFFFFFFFFFFFFFFFFFFFFFFFFFFFFFFFFFFFFFFF AND PUSH20 0xFFFFFFFFFFFFFFFFFFFFFFFFFFFFFFFFFFFFFFFF AND DUP2 MSTORE PUSH1 0x20 ADD SWAP1 DUP2 MSTORE PUSH1 0x20 ADD PUSH1 0x0 KECCAK256 PUSH1 0x1 ADD DUP11 PUSH1 0x40 MLOAD PUSH2 0xFB0 SWAP2 SWAP1 PUSH2 0x215D JUMP JUMPDEST SWAP1 DUP2 MSTORE PUSH1 0x20 ADD PUSH1 0x40 MLOAD DUP1 SWAP2 SUB SWAP1 KECCAK256 PUSH1 0x1 ADD DUP10 PUSH1 0x40 MLOAD PUSH2 0xFCF SWAP2 SWAP1 PUSH2 0x215D JUMP JUMPDEST SWAP1 DUP2 MSTORE PUSH1 0x20 ADD PUSH1 0x40 MLOAD DUP1 SWAP2 SUB SWAP1 KECCAK256 PUSH1 0x2 ADD DUP2 SWAP1 SSTORE POP DUP5 PUSH1 0x1 PUSH1 0x0 DUP4 PUSH20 0xFFFFFFFFFFFFFFFFFFFFFFFFFFFFFFFFFFFFFFFF AND PUSH20 0xFFFFFFFFFFFFFFFFFFFFFFFFFFFFFFFFFFFFFFFF AND DUP2 MSTORE PUSH1 0x20 ADD SWAP1 DUP2 MSTORE PUSH1 0x20 ADD PUSH1 0x0 KECCAK256 PUSH1 0x1 ADD DUP11 PUSH1 0x40 MLOAD PUSH2 0x1035 SWAP2 SWAP1 PUSH2 0x215D JUMP JUMPDEST SWAP1 DUP2 MSTORE PUSH1 0x20 ADD PUSH1 0x40 MLOAD DUP1 SWAP2 SUB SWAP1 KECCAK256 PUSH1 0x1 ADD DUP10 PUSH1 0x40 MLOAD PUSH2 0x1054 SWAP2 SWAP1 PUSH2 0x215D JUMP JUMPDEST SWAP1 DUP2 MSTORE PUSH1 0x20 ADD PUSH1 0x40 MLOAD DUP1 SWAP2 SUB SWAP1 KECCAK256 PUSH1 0x3 ADD PUSH1 0x0 PUSH2 0x100 EXP DUP2 SLOAD DUP2 PUSH1 0xFF MUL NOT AND SWAP1 DUP4 PUSH1 0xFF AND MUL OR SWAP1 SSTORE POP DUP4 PUSH1 0x1 PUSH1 0x0 DUP4 PUSH20 0xFFFFFFFFFFFFFFFFFFFFFFFFFFFFFFFFFFFFFFFF AND PUSH20 0xFFFFFFFFFFFFFFFFFFFFFFFFFFFFFFFFFFFFFFFF AND DUP2 MSTORE PUSH1 0x20 ADD SWAP1 DUP2 MSTORE PUSH1 0x20 ADD PUSH1 0x0 KECCAK256 PUSH1 0x1 ADD DUP11 PUSH1 0x40 MLOAD PUSH2 0x10CE SWAP2 SWAP1 PUSH2 0x215D JUMP JUMPDEST SWAP1 DUP2 MSTORE PUSH1 0x20 ADD PUSH1 0x40 MLOAD DUP1 SWAP2 SUB SWAP1 KECCAK256 PUSH1 0x1 ADD DUP10 PUSH1 0x40 MLOAD PUSH2 0x10ED SWAP2 SWAP1 PUSH2 0x215D JUMP JUMPDEST SWAP1 DUP2 MSTORE PUSH1 0x20 ADD PUSH1 0x40 MLOAD DUP1 SWAP2 SUB SWAP1 KECCAK256 PUSH1 0x4 ADD DUP2 SWAP1 SSTORE POP DUP3 PUSH1 0x1 PUSH1 0x0 DUP4 PUSH20 0xFFFFFFFFFFFFFFFFFFFFFFFFFFFFFFFFFFFFFFFF AND PUSH20 0xFFFFFFFFFFFFFFFFFFFFFFFFFFFFFFFFFFFFFFFF AND DUP2 MSTORE PUSH1 0x20 ADD SWAP1 DUP2 MSTORE PUSH1 0x20 ADD PUSH1 0x0 KECCAK256 PUSH1 0x1 ADD DUP11 PUSH1 0x40 MLOAD PUSH2 0x1153 SWAP2 SWAP1 PUSH2 0x215D JUMP JUMPDEST SWAP1 DUP2 MSTORE PUSH1 0x20 ADD PUSH1 0x40 MLOAD DUP1 SWAP2 SUB SWAP1 KECCAK256 PUSH1 0x1 ADD DUP10 PUSH1 0x40 MLOAD PUSH2 0x1172 SWAP2 SWAP1 PUSH2 0x215D JUMP JUMPDEST SWAP1 DUP2 MSTORE PUSH1 0x20 ADD PUSH1 0x40 MLOAD DUP1 SWAP2 SUB SWAP1 KECCAK256 PUSH1 0x5 ADD DUP2 SWAP1 SSTORE POP PUSH1 0x1 DUP1 PUSH1 0x0 DUP4 PUSH20 0xFFFFFFFFFFFFFFFFFFFFFFFFFFFFFFFFFFFFFFFF AND PUSH20 0xFFFFFFFFFFFFFFFFFFFFFFFFFFFFFFFFFFFFFFFF AND DUP2 MSTORE PUSH1 0x20 ADD SWAP1 DUP2 MSTORE PUSH1 0x20 ADD PUSH1 0x0 KECCAK256 PUSH1 0x1 ADD DUP11 PUSH1 0x40 MLOAD PUSH2 0x11D8 SWAP2 SWAP1 PUSH2 0x215D JUMP JUMPDEST SWAP1 DUP2 MSTORE PUSH1 0x20 ADD PUSH1 0x40 MLOAD DUP1 SWAP2 SUB SWAP1 KECCAK256 PUSH1 0x1 ADD DUP10 PUSH1 0x40 MLOAD PUSH2 0x11F7 SWAP2 SWAP1 PUSH2 0x215D JUMP JUMPDEST SWAP1 DUP2 MSTORE PUSH1 0x20 ADD PUSH1 0x40 MLOAD DUP1 SWAP2 SUB SWAP1 KECCAK256 PUSH1 0x7 ADD PUSH1 0x0 PUSH2 0x100 EXP DUP2 SLOAD DUP2 PUSH1 0xFF MUL NOT AND SWAP1 DUP4 ISZERO ISZERO MUL OR SWAP1 SSTORE POP PUSH1 0x1 PUSH1 0x0 DUP3 PUSH20 0xFFFFFFFFFFFFFFFFFFFFFFFFFFFFFFFFFFFFFFFF AND PUSH20 0xFFFFFFFFFFFFFFFFFFFFFFFFFFFFFFFFFFFFFFFF AND DUP2 MSTORE PUSH1 0x20 ADD SWAP1 DUP2 MSTORE PUSH1 0x20 ADD PUSH1 0x0 KECCAK256 PUSH1 0x1 ADD DUP10 PUSH1 0x40 MLOAD PUSH2 0x126F SWAP2 SWAP1 PUSH2 0x215D JUMP JUMPDEST SWAP1 DUP2 MSTORE PUSH1 0x20 ADD PUSH1 0x40 MLOAD DUP1 SWAP2 SUB SWAP1 KECCAK256 PUSH1 0x2 ADD DUP9 SWAP1 DUP1 PUSH1 0x1 DUP2 SLOAD ADD DUP1 DUP3 SSTORE DUP1 SWAP2 POP POP PUSH1 0x1 SWAP1 SUB SWAP1 PUSH1 0x0 MSTORE PUSH1 0x20 PUSH1 0x0 KECCAK256 ADD PUSH1 0x0 SWAP1 SWAP2 SWAP1 SWAP2 SWAP1 SWAP2 POP SWAP1 DUP2 PUSH2 0x12B2 SWAP2 SWAP1 PUSH2 0x2707 JUMP JUMPDEST POP DUP1 PUSH20 0xFFFFFFFFFFFFFFFFFFFFFFFFFFFFFFFFFFFFFFFF AND DUP9 PUSH1 0x40 MLOAD PUSH2 0x12D8 SWAP2 SWAP1 PUSH2 0x215D JUMP JUMPDEST PUSH1 0x40 MLOAD DUP1 SWAP2 SUB SWAP1 KECCAK256 PUSH32 0xA30FA568A3DA991493DC4FFBB1E531DC3712025F0BC9570A32D8D28CE91B3EB0 DUP12 DUP11 PUSH1 0x40 MLOAD PUSH2 0x1311 SWAP3 SWAP2 SWAP1 PUSH2 0x2907 JUMP JUMPDEST PUSH1 0x40 MLOAD DUP1 SWAP2 SUB SWAP1 LOG3 POP POP POP POP POP POP POP POP POP JUMP JUMPDEST PUSH1 0x60 PUSH1 0x1 ISZERO ISZERO PUSH1 0x1 PUSH1 0x0 DUP5 PUSH20 0xFFFFFFFFFFFFFFFFFFFFFFFFFFFFFFFFFFFFFFFF AND PUSH20 0xFFFFFFFFFFFFFFFFFFFFFFFFFFFFFFFFFFFFFFFF AND DUP2 MSTORE PUSH1 0x20 ADD SWAP1 DUP2 MSTORE PUSH1 0x20 ADD PUSH1 0x0 KECCAK256 PUSH1 0x3 ADD PUSH1 0x0 SWAP1 SLOAD SWAP1 PUSH2 0x100 EXP SWAP1 DIV PUSH1 0xFF AND ISZERO ISZERO EQ PUSH2 0x13BC JUMPI PUSH1 0x40 MLOAD PUSH32 0x8C379A000000000000000000000000000000000000000000000000000000000 DUP2 MSTORE PUSH1 0x4 ADD PUSH2 0x13B3 SWAP1 PUSH2 0x298A JUMP JUMPDEST PUSH1 0x40 MLOAD DUP1 SWAP2 SUB SWAP1 REVERT JUMPDEST PUSH1 0x1 PUSH1 0x0 DUP4 PUSH20 0xFFFFFFFFFFFFFFFFFFFFFFFFFFFFFFFFFFFFFFFF AND PUSH20 0xFFFFFFFFFFFFFFFFFFFFFFFFFFFFFFFFFFFFFFFF AND DUP2 MSTORE PUSH1 0x20 ADD SWAP1 DUP2 MSTORE PUSH1 0x20 ADD PUSH1 0x0 KECCAK256 PUSH1 0x2 ADD DUP1 SLOAD DUP1 PUSH1 0x20 MUL PUSH1 0x20 ADD PUSH1 0x40 MLOAD SWAP1 DUP2 ADD PUSH1 0x40 MSTORE DUP1 SWAP3 SWAP2 SWAP1 DUP2 DUP2 MSTORE PUSH1 0x20 ADD PUSH1 0x0 SWAP1 JUMPDEST DUP3 DUP3 LT ISZERO PUSH2 0x14CA JUMPI DUP4 DUP3 SWAP1 PUSH1 0x0 MSTORE PUSH1 0x20 PUSH1 0x0 KECCAK256 ADD DUP1 SLOAD PUSH2 0x143D SWAP1 PUSH2 0x22A1 JUMP JUMPDEST DUP1 PUSH1 0x1F ADD PUSH1 0x20 DUP1 SWAP2 DIV MUL PUSH1 0x20 ADD PUSH1 0x40 MLOAD SWAP1 DUP2 ADD PUSH1 0x40 MSTORE DUP1 SWAP3 SWAP2 SWAP1 DUP2 DUP2 MSTORE PUSH1 0x20 ADD DUP3 DUP1 SLOAD PUSH2 0x1469 SWAP1 PUSH2 0x22A1 JUMP JUMPDEST DUP1 ISZERO PUSH2 0x14B6 JUMPI DUP1 PUSH1 0x1F LT PUSH2 0x148B JUMPI PUSH2 0x100 DUP1 DUP4 SLOAD DIV MUL DUP4 MSTORE SWAP2 PUSH1 0x20 ADD SWAP2 PUSH2 0x14B6 JUMP JUMPDEST DUP3 ADD SWAP2 SWAP1 PUSH1 0x0 MSTORE PUSH1 0x20 PUSH1 0x0 KECCAK256 SWAP1 JUMPDEST DUP2 SLOAD DUP2 MSTORE SWAP1 PUSH1 0x1 ADD SWAP1 PUSH1 0x20 ADD DUP1 DUP4 GT PUSH2 0x1499 JUMPI DUP3 SWAP1 SUB PUSH1 0x1F AND DUP3 ADD SWAP2 JUMPDEST POP POP POP POP POP DUP2 MSTORE PUSH1 0x20 ADD SWAP1 PUSH1 0x1 ADD SWAP1 PUSH2 0x141E JUMP JUMPDEST POP POP POP POP SWAP1 POP SWAP2 SWAP1 POP JUMP JUMPDEST PUSH1 0x60 PUSH1 0x1 ISZERO ISZERO PUSH1 0x1 PUSH1 0x0 DUP6 PUSH20 0xFFFFFFFFFFFFFFFFFFFFFFFFFFFFFFFFFFFFFFFF AND PUSH20 0xFFFFFFFFFFFFFFFFFFFFFFFFFFFFFFFFFFFFFFFF AND DUP2 MSTORE PUSH1 0x20 ADD SWAP1 DUP2 MSTORE PUSH1 0x20 ADD PUSH1 0x0 KECCAK256 PUSH1 0x3 ADD PUSH1 0x0 SWAP1 SLOAD SWAP1 PUSH2 0x100 EXP SWAP1 DIV PUSH1 0xFF AND ISZERO ISZERO EQ PUSH2 0x156D JUMPI PUSH1 0x40 MLOAD PUSH32 0x8C379A000000000000000000000000000000000000000000000000000000000 DUP2 MSTORE PUSH1 0x4 ADD PUSH2 0x1564 SWAP1 PUSH2 0x2101 JUMP JUMPDEST PUSH1 0x40 MLOAD DUP1 SWAP2 SUB SWAP1 REVERT JUMPDEST PUSH1 0x1 ISZERO ISZERO PUSH1 0x1 PUSH1 0x0 DUP6 PUSH20 0xFFFFFFFFFFFFFFFFFFFFFFFFFFFFFFFFFFFFFFFF AND PUSH20 0xFFFFFFFFFFFFFFFFFFFFFFFFFFFFFFFFFFFFFFFF AND DUP2 MSTORE PUSH1 0x20 ADD SWAP1 DUP2 MSTORE PUSH1 0x20 ADD PUSH1 0x0 KECCAK256 PUSH1 0x1 ADD DUP4 PUSH1 0x40 MLOAD PUSH2 0x15C1 SWAP2 SWAP1 PUSH2 0x215D JUMP JUMPDEST SWAP1 DUP2 MSTORE PUSH1 0x20 ADD PUSH1 0x40 MLOAD DUP1 SWAP2 SUB SWAP1 KECCAK256 PUSH1 0x3 ADD PUSH1 0x0 SWAP1 SLOAD SWAP1 PUSH2 0x100 EXP SWAP1 DIV PUSH1 0xFF AND ISZERO ISZERO EQ PUSH2 0x1622 JUMPI PUSH1 0x40 MLOAD PUSH32 0x8C379A000000000000000000000000000000000000000000000000000000000 DUP2 MSTORE PUSH1 0x4 ADD PUSH2 0x1619 SWAP1 PUSH2 0x21C0 JUMP JUMPDEST PUSH1 0x40 MLOAD DUP1 SWAP2 SUB SWAP1 REVERT JUMPDEST PUSH1 0x0 PUSH1 0x1 PUSH1 0x0 DUP6 PUSH20 0xFFFFFFFFFFFFFFFFFFFFFFFFFFFFFFFFFFFFFFFF AND PUSH20 0xFFFFFFFFFFFFFFFFFFFFFFFFFFFFFFFFFFFFFFFF AND DUP2 MSTORE PUSH1 0x20 ADD SWAP1 DUP2 MSTORE PUSH1 0x20 ADD PUSH1 0x0 KECCAK256 PUSH1 0x1 ADD DUP4 PUSH1 0x40 MLOAD PUSH2 0x1674 SWAP2 SWAP1 PUSH2 0x215D JUMP JUMPDEST SWAP1 DUP2 MSTORE PUSH1 0x20 ADD PUSH1 0x40 MLOAD DUP1 SWAP2 SUB SWAP1 KECCAK256 PUSH1 0x2 ADD DUP1 SLOAD SWAP1 POP SWAP1 POP PUSH1 0x0 DUP2 PUSH8 0xFFFFFFFFFFFFFFFF DUP2 GT ISZERO PUSH2 0x16A7 JUMPI PUSH2 0x16A6 PUSH2 0x1ADE JUMP JUMPDEST JUMPDEST PUSH1 0x40 MLOAD SWAP1 DUP1 DUP3 MSTORE DUP1 PUSH1 0x20 MUL PUSH1 0x20 ADD DUP3 ADD PUSH1 0x40 MSTORE DUP1 ISZERO PUSH2 0x16DA JUMPI DUP2 PUSH1 0x20 ADD JUMPDEST PUSH1 0x60 DUP2 MSTORE PUSH1 0x20 ADD SWAP1 PUSH1 0x1 SWAP1 SUB SWAP1 DUP2 PUSH2 0x16C5 JUMPI SWAP1 POP JUMPDEST POP SWAP1 POP PUSH1 0x0 DUP3 SUB PUSH2 0x1795 JUMPI PUSH1 0x1 PUSH8 0xFFFFFFFFFFFFFFFF DUP2 GT ISZERO PUSH2 0x1700 JUMPI PUSH2 0x16FF PUSH2 0x1ADE JUMP JUMPDEST JUMPDEST PUSH1 0x40 MLOAD SWAP1 DUP1 DUP3 MSTORE DUP1 PUSH1 0x20 MUL PUSH1 0x20 ADD DUP3 ADD PUSH1 0x40 MSTORE DUP1 ISZERO PUSH2 0x1733 JUMPI DUP2 PUSH1 0x20 ADD JUMPDEST PUSH1 0x60 DUP2 MSTORE PUSH1 0x20 ADD SWAP1 PUSH1 0x1 SWAP1 SUB SWAP1 DUP2 PUSH2 0x171E JUMPI SWAP1 POP JUMPDEST POP SWAP1 POP PUSH1 0x40 MLOAD DUP1 PUSH1 0x40 ADD PUSH1 0x40 MSTORE DUP1 PUSH1 0x12 DUP2 MSTORE PUSH1 0x20 ADD PUSH32 0x53656E736F72206861736E277420636964730000000000000000000000000000 DUP2 MSTORE POP DUP2 PUSH1 0x0 DUP2 MLOAD DUP2 LT PUSH2 0x1780 JUMPI PUSH2 0x177F PUSH2 0x2243 JUMP JUMPDEST JUMPDEST PUSH1 0x20 MUL PUSH1 0x20 ADD ADD DUP2 SWAP1 MSTORE POP DUP1 SWAP3 POP POP POP PUSH2 0x18DE JUMP JUMPDEST PUSH1 0x0 JUMPDEST DUP3 DUP2 LT ISZERO PUSH2 0x18D7 JUMPI PUSH1 0x1 PUSH1 0x0 DUP8 PUSH20 0xFFFFFFFFFFFFFFFFFFFFFFFFFFFFFFFFFFFFFFFF AND PUSH20 0xFFFFFFFFFFFFFFFFFFFFFFFFFFFFFFFFFFFFFFFF AND DUP2 MSTORE PUSH1 0x20 ADD SWAP1 DUP2 MSTORE PUSH1 0x20 ADD PUSH1 0x0 KECCAK256 PUSH1 0x1 ADD DUP6 PUSH1 0x40 MLOAD PUSH2 0x17F0 SWAP2 SWAP1 PUSH2 0x215D JUMP JUMPDEST SWAP1 DUP2 MSTORE PUSH1 0x20 ADD PUSH1 0x40 MLOAD DUP1 SWAP2 SUB SWAP1 KECCAK256 PUSH1 0x2 ADD DUP2 DUP2 SLOAD DUP2 LT PUSH2 0x1813 JUMPI PUSH2 0x1812 PUSH2 0x2243 JUMP JUMPDEST JUMPDEST SWAP1 PUSH1 0x0 MSTORE PUSH1 0x20 PUSH1 0x0 KECCAK256 ADD DUP1 SLOAD PUSH2 0x1828 SWAP1 PUSH2 0x22A1 JUMP JUMPDEST DUP1 PUSH1 0x1F ADD PUSH1 0x20 DUP1 SWAP2 DIV MUL PUSH1 0x20 ADD PUSH1 0x40 MLOAD SWAP1 DUP2 ADD PUSH1 0x40 MSTORE DUP1 SWAP3 SWAP2 SWAP1 DUP2 DUP2 MSTORE PUSH1 0x20 ADD DUP3 DUP1 SLOAD PUSH2 0x1854 SWAP1 PUSH2 0x22A1 JUMP JUMPDEST DUP1 ISZERO PUSH2 0x18A1 JUMPI DUP1 PUSH1 0x1F LT PUSH2 0x1876 JUMPI PUSH2 0x100 DUP1 DUP4 SLOAD DIV MUL DUP4 MSTORE SWAP2 PUSH1 0x20 ADD SWAP2 PUSH2 0x18A1 JUMP JUMPDEST DUP3 ADD SWAP2 SWAP1 PUSH1 0x0 MSTORE PUSH1 0x20 PUSH1 0x0 KECCAK256 SWAP1 JUMPDEST DUP2 SLOAD DUP2 MSTORE SWAP1 PUSH1 0x1 ADD SWAP1 PUSH1 0x20 ADD DUP1 DUP4 GT PUSH2 0x1884 JUMPI DUP3 SWAP1 SUB PUSH1 0x1F AND DUP3 ADD SWAP2 JUMPDEST POP POP POP POP POP DUP3 DUP3 DUP2 MLOAD DUP2 LT PUSH2 0x18B9 JUMPI PUSH2 0x18B8 PUSH2 0x2243 JUMP JUMPDEST JUMPDEST PUSH1 0x20 MUL PUSH1 0x20 ADD ADD DUP2 SWAP1 MSTORE POP DUP1 DUP1 PUSH2 0x18CF SWAP1 PUSH2 0x29AA JUMP JUMPDEST SWAP2 POP POP PUSH2 0x1798 JUMP JUMPDEST POP DUP1 SWAP3 POP POP POP JUMPDEST SWAP3 SWAP2 POP POP JUMP JUMPDEST PUSH1 0x0 PUSH1 0x40 MLOAD SWAP1 POP SWAP1 JUMP JUMPDEST PUSH1 0x0 DUP1 REVERT JUMPDEST PUSH1 0x0 DUP1 REVERT JUMPDEST PUSH1 0x0 DUP2 SWAP1 POP SWAP2 SWAP1 POP JUMP JUMPDEST PUSH2 0x190B DUP2 PUSH2 0x18F8 JUMP JUMPDEST DUP2 EQ PUSH2 0x1916 JUMPI PUSH1 0x0 DUP1 REVERT JUMPDEST POP JUMP JUMPDEST PUSH1 0x0 DUP2 CALLDATALOAD SWAP1 POP PUSH2 0x1928 DUP2 PUSH2 0x1902 JUMP JUMPDEST SWAP3 SWAP2 POP POP JUMP JUMPDEST PUSH1 0x0 PUSH1 0x20 DUP3 DUP5 SUB SLT ISZERO PUSH2 0x1944 JUMPI PUSH2 0x1943 PUSH2 0x18EE JUMP JUMPDEST JUMPDEST PUSH1 0x0 PUSH2 0x1952 DUP5 DUP3 DUP6 ADD PUSH2 0x1919 JUMP JUMPDEST SWAP2 POP POP SWAP3 SWAP2 POP POP JUMP JUMPDEST PUSH1 0x0 PUSH20 0xFFFFFFFFFFFFFFFFFFFFFFFFFFFFFFFFFFFFFFFF DUP3 AND SWAP1 POP SWAP2 SWAP1 POP JUMP JUMPDEST PUSH1 0x0 PUSH2 0x1986 DUP3 PUSH2 0x195B JUMP JUMPDEST SWAP1 POP SWAP2 SWAP1 POP JUMP JUMPDEST PUSH2 0x1996 DUP2 PUSH2 0x197B JUMP JUMPDEST DUP3 MSTORE POP POP JUMP JUMPDEST PUSH1 0x0 PUSH1 0x20 DUP3 ADD SWAP1 POP PUSH2 0x19B1 PUSH1 0x0 DUP4 ADD DUP5 PUSH2 0x198D JUMP JUMPDEST SWAP3 SWAP2 POP POP JUMP JUMPDEST PUSH1 0x0 DUP2 MLOAD SWAP1 POP SWAP2 SWAP1 POP JUMP JUMPDEST PUSH1 0x0 DUP3 DUP3 MSTORE PUSH1 0x20 DUP3 ADD SWAP1 POP SWAP3 SWAP2 POP POP JUMP JUMPDEST PUSH1 0x0 DUP2 SWAP1 POP PUSH1 0x20 DUP3 ADD SWAP1 POP SWAP2 SWAP1 POP JUMP JUMPDEST PUSH2 0x19EC DUP2 PUSH2 0x197B JUMP JUMPDEST DUP3 MSTORE POP POP JUMP JUMPDEST PUSH1 0x0 PUSH2 0x19FE DUP4 DUP4 PUSH2 0x19E3 JUMP JUMPDEST PUSH1 0x20 DUP4 ADD SWAP1 POP SWAP3 SWAP2 POP POP JUMP JUMPDEST PUSH1 0x0 PUSH1 0x20 DUP3 ADD SWAP1 POP SWAP2 SWAP1 POP JUMP JUMPDEST PUSH1 0x0 PUSH2 0x1A22 DUP3 PUSH2 0x19B7 JUMP JUMPDEST PUSH2 0x1A2C DUP2 DUP6 PUSH2 0x19C2 JUMP JUMPDEST SWAP4 POP PUSH2 0x1A37 DUP4 PUSH2 0x19D3 JUMP JUMPDEST DUP1 PUSH1 0x0 JUMPDEST DUP4 DUP2 LT ISZERO PUSH2 0x1A68 JUMPI DUP2 MLOAD PUSH2 0x1A4F DUP9 DUP3 PUSH2 0x19F2 JUMP JUMPDEST SWAP8 POP PUSH2 0x1A5A DUP4 PUSH2 0x1A0A JUMP JUMPDEST SWAP3 POP POP PUSH1 0x1 DUP2 ADD SWAP1 POP PUSH2 0x1A3B JUMP JUMPDEST POP DUP6 SWAP4 POP POP POP POP SWAP3 SWAP2 POP POP JUMP JUMPDEST PUSH1 0x0 PUSH1 0x20 DUP3 ADD SWAP1 POP DUP2 DUP2 SUB PUSH1 0x0 DUP4 ADD MSTORE PUSH2 0x1A8F DUP2 DUP5 PUSH2 0x1A17 JUMP JUMPDEST SWAP1 POP SWAP3 SWAP2 POP POP JUMP JUMPDEST PUSH2 0x1AA0 DUP2 PUSH2 0x197B JUMP JUMPDEST DUP2 EQ PUSH2 0x1AAB JUMPI PUSH1 0x0 DUP1 REVERT JUMPDEST POP JUMP JUMPDEST PUSH1 0x0 DUP2 CALLDATALOAD SWAP1 POP PUSH2 0x1ABD DUP2 PUSH2 0x1A97 JUMP JUMPDEST SWAP3 SWAP2 POP POP JUMP JUMPDEST PUSH1 0x0 DUP1 REVERT JUMPDEST PUSH1 0x0 DUP1 REVERT JUMPDEST PUSH1 0x0 PUSH1 0x1F NOT PUSH1 0x1F DUP4 ADD AND SWAP1 POP SWAP2 SWAP1 POP JUMP JUMPDEST PUSH32 0x4E487B7100000000000000000000000000000000000000000000000000000000 PUSH1 0x0 MSTORE PUSH1 0x41 PUSH1 0x4 MSTORE PUSH1 0x24 PUSH1 0x0 REVERT JUMPDEST PUSH2 0x1B16 DUP3 PUSH2 0x1ACD JUMP JUMPDEST DUP2 ADD DUP2 DUP2 LT PUSH8 0xFFFFFFFFFFFFFFFF DUP3 GT OR ISZERO PUSH2 0x1B35 JUMPI PUSH2 0x1B34 PUSH2 0x1ADE JUMP JUMPDEST JUMPDEST DUP1 PUSH1 0x40 MSTORE POP POP POP JUMP JUMPDEST PUSH1 0x0 PUSH2 0x1B48 PUSH2 0x18E4 JUMP JUMPDEST SWAP1 POP PUSH2 0x1B54 DUP3 DUP3 PUSH2 0x1B0D JUMP JUMPDEST SWAP2 SWAP1 POP JUMP JUMPDEST PUSH1 0x0 PUSH8 0xFFFFFFFFFFFFFFFF DUP3 GT ISZERO PUSH2 0x1B74 JUMPI PUSH2 0x1B73 PUSH2 0x1ADE JUMP JUMPDEST JUMPDEST PUSH2 0x1B7D DUP3 PUSH2 0x1ACD JUMP JUMPDEST SWAP1 POP PUSH1 0x20 DUP2 ADD SWAP1 POP SWAP2 SWAP1 POP JUMP JUMPDEST DUP3 DUP2 DUP4 CALLDATACOPY PUSH1 0x0 DUP4 DUP4 ADD MSTORE POP POP POP JUMP JUMPDEST PUSH1 0x0 PUSH2 0x1BAC PUSH2 0x1BA7 DUP5 PUSH2 0x1B59 JUMP JUMPDEST PUSH2 0x1B3E JUMP JUMPDEST SWAP1 POP DUP3 DUP2 MSTORE PUSH1 0x20 DUP2 ADD DUP5 DUP5 DUP5 ADD GT ISZERO PUSH2 0x1BC8 JUMPI PUSH2 0x1BC7 PUSH2 0x1AC8 JUMP JUMPDEST JUMPDEST PUSH2 0x1BD3 DUP5 DUP3 DUP6 PUSH2 0x1B8A JUMP JUMPDEST POP SWAP4 SWAP3 POP POP POP JUMP JUMPDEST PUSH1 0x0 DUP3 PUSH1 0x1F DUP4 ADD SLT PUSH2 0x1BF0 JUMPI PUSH2 0x1BEF PUSH2 0x1AC3 JUMP JUMPDEST JUMPDEST DUP2 CALLDATALOAD PUSH2 0x1C00 DUP5 DUP3 PUSH1 0x20 DUP7 ADD PUSH2 0x1B99 JUMP JUMPDEST SWAP2 POP POP SWAP3 SWAP2 POP POP JUMP JUMPDEST PUSH1 0x0 DUP1 PUSH1 0x40 DUP4 DUP6 SUB SLT ISZERO PUSH2 0x1C20 JUMPI PUSH2 0x1C1F PUSH2 0x18EE JUMP JUMPDEST JUMPDEST PUSH1 0x0 PUSH2 0x1C2E DUP6 DUP3 DUP7 ADD PUSH2 0x1AAE JUMP JUMPDEST SWAP3 POP POP PUSH1 0x20 DUP4 ADD CALLDATALOAD PUSH8 0xFFFFFFFFFFFFFFFF DUP2 GT ISZERO PUSH2 0x1C4F JUMPI PUSH2 0x1C4E PUSH2 0x18F3 JUMP JUMPDEST JUMPDEST PUSH2 0x1C5B DUP6 DUP3 DUP7 ADD PUSH2 0x1BDB JUMP JUMPDEST SWAP2 POP POP SWAP3 POP SWAP3 SWAP1 POP JUMP JUMPDEST PUSH1 0x0 DUP2 MLOAD SWAP1 POP SWAP2 SWAP1 POP JUMP JUMPDEST PUSH1 0x0 DUP3 DUP3 MSTORE PUSH1 0x20 DUP3 ADD SWAP1 POP SWAP3 SWAP2 POP POP JUMP JUMPDEST PUSH1 0x0 JUMPDEST DUP4 DUP2 LT ISZERO PUSH2 0x1C9F JUMPI DUP1 DUP3 ADD MLOAD DUP2 DUP5 ADD MSTORE PUSH1 0x20 DUP2 ADD SWAP1 POP PUSH2 0x1C84 JUMP JUMPDEST PUSH1 0x0 DUP5 DUP5 ADD MSTORE POP POP POP POP JUMP JUMPDEST PUSH1 0x0 PUSH2 0x1CB6 DUP3 PUSH2 0x1C65 JUMP JUMPDEST PUSH2 0x1CC0 DUP2 DUP6 PUSH2 0x1C70 JUMP JUMPDEST SWAP4 POP PUSH2 0x1CD0 DUP2 DUP6 PUSH1 0x20 DUP7 ADD PUSH2 0x1C81 JUMP JUMPDEST PUSH2 0x1CD9 DUP2 PUSH2 0x1ACD JUMP JUMPDEST DUP5 ADD SWAP2 POP POP SWAP3 SWAP2 POP POP JUMP JUMPDEST PUSH1 0x0 PUSH1 0x20 DUP3 ADD SWAP1 POP DUP2 DUP2 SUB PUSH1 0x0 DUP4 ADD MSTORE PUSH2 0x1CFE DUP2 DUP5 PUSH2 0x1CAB JUMP JUMPDEST SWAP1 POP SWAP3 SWAP2 POP POP JUMP JUMPDEST PUSH1 0x0 PUSH1 0x20 DUP3 DUP5 SUB SLT ISZERO PUSH2 0x1D1C JUMPI PUSH2 0x1D1B PUSH2 0x18EE JUMP JUMPDEST JUMPDEST PUSH1 0x0 PUSH2 0x1D2A DUP5 DUP3 DUP6 ADD PUSH2 0x1AAE JUMP JUMPDEST SWAP2 POP POP SWAP3 SWAP2 POP POP JUMP JUMPDEST PUSH1 0x0 PUSH1 0xFF DUP3 AND SWAP1 POP SWAP2 SWAP1 POP JUMP JUMPDEST PUSH2 0x1D49 DUP2 PUSH2 0x1D33 JUMP JUMPDEST DUP2 EQ PUSH2 0x1D54 JUMPI PUSH1 0x0 DUP1 REVERT JUMPDEST POP JUMP JUMPDEST PUSH1 0x0 DUP2 CALLDATALOAD SWAP1 POP PUSH2 0x1D66 DUP2 PUSH2 0x1D40 JUMP JUMPDEST SWAP3 SWAP2 POP POP JUMP JUMPDEST PUSH1 0x0 DUP2 SWAP1 POP SWAP2 SWAP1 POP JUMP JUMPDEST PUSH2 0x1D7F DUP2 PUSH2 0x1D6C JUMP JUMPDEST DUP2 EQ PUSH2 0x1D8A JUMPI PUSH1 0x0 DUP1 REVERT JUMPDEST POP JUMP JUMPDEST PUSH1 0x0 DUP2 CALLDATALOAD SWAP1 POP PUSH2 0x1D9C DUP2 PUSH2 0x1D76 JUMP JUMPDEST SWAP3 SWAP2 POP POP JUMP JUMPDEST PUSH1 0x0 DUP1 PUSH1 0x0 DUP1 PUSH1 0x0 PUSH1 0xA0 DUP7 DUP9 SUB SLT ISZERO PUSH2 0x1DBE JUMPI PUSH2 0x1DBD PUSH2 0x18EE JUMP JUMPDEST JUMPDEST PUSH1 0x0 DUP7 ADD CALLDATALOAD PUSH8 0xFFFFFFFFFFFFFFFF DUP2 GT ISZERO PUSH2 0x1DDC JUMPI PUSH2 0x1DDB PUSH2 0x18F3 JUMP JUMPDEST JUMPDEST PUSH2 0x1DE8 DUP9 DUP3 DUP10 ADD PUSH2 0x1BDB JUMP JUMPDEST SWAP6 POP POP PUSH1 0x20 PUSH2 0x1DF9 DUP9 DUP3 DUP10 ADD PUSH2 0x1D57 JUMP JUMPDEST SWAP5 POP POP PUSH1 0x40 PUSH2 0x1E0A DUP9 DUP3 DUP10 ADD PUSH2 0x1D8D JUMP JUMPDEST SWAP4 POP POP PUSH1 0x60 PUSH2 0x1E1B DUP9 DUP3 DUP10 ADD PUSH2 0x1D8D JUMP JUMPDEST SWAP3 POP POP PUSH1 0x80 PUSH2 0x1E2C DUP9 DUP3 DUP10 ADD PUSH2 0x1D8D JUMP JUMPDEST SWAP2 POP POP SWAP3 SWAP6 POP SWAP3 SWAP6 SWAP1 SWAP4 POP JUMP JUMPDEST PUSH1 0x0 DUP2 ISZERO ISZERO SWAP1 POP SWAP2 SWAP1 POP JUMP JUMPDEST PUSH2 0x1E4E DUP2 PUSH2 0x1E39 JUMP JUMPDEST DUP3 MSTORE POP POP JUMP JUMPDEST PUSH1 0x0 PUSH1 0x40 DUP3 ADD SWAP1 POP PUSH2 0x1E69 PUSH1 0x0 DUP4 ADD DUP6 PUSH2 0x198D JUMP JUMPDEST PUSH2 0x1E76 PUSH1 0x20 DUP4 ADD DUP5 PUSH2 0x1E45 JUMP JUMPDEST SWAP4 SWAP3 POP POP POP JUMP JUMPDEST PUSH1 0x0 DUP1 PUSH1 0x0 DUP1 PUSH1 0x0 DUP1 PUSH1 0x0 DUP1 PUSH2 0x100 DUP10 DUP12 SUB SLT ISZERO PUSH2 0x1E9E JUMPI PUSH2 0x1E9D PUSH2 0x18EE JUMP JUMPDEST JUMPDEST PUSH1 0x0 DUP10 ADD CALLDATALOAD PUSH8 0xFFFFFFFFFFFFFFFF DUP2 GT ISZERO PUSH2 0x1EBC JUMPI PUSH2 0x1EBB PUSH2 0x18F3 JUMP JUMPDEST JUMPDEST PUSH2 0x1EC8 DUP12 DUP3 DUP13 ADD PUSH2 0x1BDB JUMP JUMPDEST SWAP9 POP POP PUSH1 0x20 DUP10 ADD CALLDATALOAD PUSH8 0xFFFFFFFFFFFFFFFF DUP2 GT ISZERO PUSH2 0x1EE9 JUMPI PUSH2 0x1EE8 PUSH2 0x18F3 JUMP JUMPDEST JUMPDEST PUSH2 0x1EF5 DUP12 DUP3 DUP13 ADD PUSH2 0x1BDB JUMP JUMPDEST SWAP8 POP POP PUSH1 0x40 DUP10 ADD CALLDATALOAD PUSH8 0xFFFFFFFFFFFFFFFF DUP2 GT ISZERO PUSH2 0x1F16 JUMPI PUSH2 0x1F15 PUSH2 0x18F3 JUMP JUMPDEST JUMPDEST PUSH2 0x1F22 DUP12 DUP3 DUP13 ADD PUSH2 0x1BDB JUMP JUMPDEST SWAP7 POP POP PUSH1 0x60 PUSH2 0x1F33 DUP12 DUP3 DUP13 ADD PUSH2 0x1919 JUMP JUMPDEST SWAP6 POP POP PUSH1 0x80 PUSH2 0x1F44 DUP12 DUP3 DUP13 ADD PUSH2 0x1D57 JUMP JUMPDEST SWAP5 POP POP PUSH1 0xA0 PUSH2 0x1F55 DUP12 DUP3 DUP13 ADD PUSH2 0x1D8D JUMP JUMPDEST SWAP4 POP POP PUSH1 0xC0 PUSH2 0x1F66 DUP12 DUP3 DUP13 ADD PUSH2 0x1D8D JUMP JUMPDEST SWAP3 POP POP PUSH1 0xE0 PUSH2 0x1F77 DUP12 DUP3 DUP13 ADD PUSH2 0x1D8D JUMP JUMPDEST SWAP2 POP POP SWAP3 SWAP6 SWAP9 POP SWAP3 SWAP6 SWAP9 SWAP1 SWAP4 SWAP7 POP JUMP JUMPDEST PUSH1 0x0 DUP2 MLOAD SWAP1 POP SWAP2 SWAP1 POP JUMP JUMPDEST PUSH1 0x0 DUP3 DUP3 MSTORE PUSH1 0x20 DUP3 ADD SWAP1 POP SWAP3 SWAP2 POP POP JUMP JUMPDEST PUSH1 0x0 DUP2 SWAP1 POP PUSH1 0x20 DUP3 ADD SWAP1 POP SWAP2 SWAP1 POP JUMP JUMPDEST PUSH1 0x0 DUP3 DUP3 MSTORE PUSH1 0x20 DUP3 ADD SWAP1 POP SWAP3 SWAP2 POP POP JUMP JUMPDEST PUSH1 0x0 PUSH2 0x1FCF DUP3 PUSH2 0x1C65 JUMP JUMPDEST PUSH2 0x1FD9 DUP2 DUP6 PUSH2 0x1FB3 JUMP JUMPDEST SWAP4 POP PUSH2 0x1FE9 DUP2 DUP6 PUSH1 0x20 DUP7 ADD PUSH2 0x1C81 JUMP JUMPDEST PUSH2 0x1FF2 DUP2 PUSH2 0x1ACD JUMP JUMPDEST DUP5 ADD SWAP2 POP POP SWAP3 SWAP2 POP POP JUMP JUMPDEST PUSH1 0x0 PUSH2 0x2009 DUP4 DUP4 PUSH2 0x1FC4 JUMP JUMPDEST SWAP1 POP SWAP3 SWAP2 POP POP JUMP JUMPDEST PUSH1 0x0 PUSH1 0x20 DUP3 ADD SWAP1 POP SWAP2 SWAP1 POP JUMP JUMPDEST PUSH1 0x0 PUSH2 0x2029 DUP3 PUSH2 0x1F87 JUMP JUMPDEST PUSH2 0x2033 DUP2 DUP6 PUSH2 0x1F92 JUMP JUMPDEST SWAP4 POP DUP4 PUSH1 0x20 DUP3 MUL DUP6 ADD PUSH2 0x2045 DUP6 PUSH2 0x1FA3 JUMP JUMPDEST DUP1 PUSH1 0x0 JUMPDEST DUP6 DUP2 LT ISZERO PUSH2 0x2081 JUMPI DUP5 DUP5 SUB DUP10 MSTORE DUP2 MLOAD PUSH2 0x2062 DUP6 DUP3 PUSH2 0x1FFD JUMP JUMPDEST SWAP5 POP PUSH2 0x206D DUP4 PUSH2 0x2011 JUMP JUMPDEST SWAP3 POP PUSH1 0x20 DUP11 ADD SWAP10 POP POP PUSH1 0x1 DUP2 ADD SWAP1 POP PUSH2 0x2049 JUMP JUMPDEST POP DUP3 SWAP8 POP DUP8 SWAP6 POP POP POP POP POP POP SWAP3 SWAP2 POP POP JUMP JUMPDEST PUSH1 0x0 PUSH1 0x20 DUP3 ADD SWAP1 POP DUP2 DUP2 SUB PUSH1 0x0 DUP4 ADD MSTORE PUSH2 0x20AD DUP2 DUP5 PUSH2 0x201E JUMP JUMPDEST SWAP1 POP SWAP3 SWAP2 POP POP JUMP JUMPDEST PUSH32 0x496E76616C69642070726F766964657220616464726573730000000000000000 PUSH1 0x0 DUP3 ADD MSTORE POP JUMP JUMPDEST PUSH1 0x0 PUSH2 0x20EB PUSH1 0x18 DUP4 PUSH2 0x1C70 JUMP JUMPDEST SWAP2 POP PUSH2 0x20F6 DUP3 PUSH2 0x20B5 JUMP JUMPDEST PUSH1 0x20 DUP3 ADD SWAP1 POP SWAP2 SWAP1 POP JUMP JUMPDEST PUSH1 0x0 PUSH1 0x20 DUP3 ADD SWAP1 POP DUP2 DUP2 SUB PUSH1 0x0 DUP4 ADD MSTORE PUSH2 0x211A DUP2 PUSH2 0x20DE JUMP JUMPDEST SWAP1 POP SWAP2 SWAP1 POP JUMP JUMPDEST PUSH1 0x0 DUP2 SWAP1 POP SWAP3 SWAP2 POP POP JUMP JUMPDEST PUSH1 0x0 PUSH2 0x2137 DUP3 PUSH2 0x1C65 JUMP JUMPDEST PUSH2 0x2141 DUP2 DUP6 PUSH2 0x2121 JUMP JUMPDEST SWAP4 POP PUSH2 0x2151 DUP2 DUP6 PUSH1 0x20 DUP7 ADD PUSH2 0x1C81 JUMP JUMPDEST DUP1 DUP5 ADD SWAP2 POP POP SWAP3 SWAP2 POP POP JUMP JUMPDEST PUSH1 0x0 PUSH2 0x2169 DUP3 DUP5 PUSH2 0x212C JUMP JUMPDEST SWAP2 POP DUP2 SWAP1 POP SWAP3 SWAP2 POP POP JUMP JUMPDEST PUSH32 0x496E76616C69642073656E736F72204D41430000000000000000000000000000 PUSH1 0x0 DUP3 ADD MSTORE POP JUMP JUMPDEST PUSH1 0x0 PUSH2 0x21AA PUSH1 0x12 DUP4 PUSH2 0x1C70 JUMP JUMPDEST SWAP2 POP PUSH2 0x21B5 DUP3 PUSH2 0x2174 JUMP JUMPDEST PUSH1 0x20 DUP3 ADD SWAP1 POP SWAP2 SWAP1 POP JUMP JUMPDEST PUSH1 0x0 PUSH1 0x20 DUP3 ADD SWAP1 POP DUP2 DUP2 SUB PUSH1 0x0 DUP4 ADD MSTORE PUSH2 0x21D9 DUP2 PUSH2 0x219D JUMP JUMPDEST SWAP1 POP SWAP2 SWAP1 POP JUMP JUMPDEST PUSH32 0x4E487B7100000000000000000000000000000000000000000000000000000000 PUSH1 0x0 MSTORE PUSH1 0x11 PUSH1 0x4 MSTORE PUSH1 0x24 PUSH1 0x0 REVERT JUMPDEST PUSH1 0x0 PUSH2 0x221A DUP3 PUSH2 0x18F8 JUMP JUMPDEST SWAP2 POP PUSH2 0x2225 DUP4 PUSH2 0x18F8 JUMP JUMPDEST SWAP3 POP DUP3 DUP3 SUB SWAP1 POP DUP2 DUP2 GT ISZERO PUSH2 0x223D JUMPI PUSH2 0x223C PUSH2 0x21E0 JUMP JUMPDEST JUMPDEST SWAP3 SWAP2 POP POP JUMP JUMPDEST PUSH32 0x4E487B7100000000000000000000000000000000000000000000000000000000 PUSH1 0x0 MSTORE PUSH1 0x32 PUSH1 0x4 MSTORE PUSH1 0x24 PUSH1 0x0 REVERT JUMPDEST PUSH32 0x4E487B7100000000000000000000000000000000000000000000000000000000 PUSH1 0x0 MSTORE PUSH1 0x22 PUSH1 0x4 MSTORE PUSH1 0x24 PUSH1 0x0 REVERT JUMPDEST PUSH1 0x0 PUSH1 0x2 DUP3 DIV SWAP1 POP PUSH1 0x1 DUP3 AND DUP1 PUSH2 0x22B9 JUMPI PUSH1 0x7F DUP3 AND SWAP2 POP JUMPDEST PUSH1 0x20 DUP3 LT DUP2 SUB PUSH2 0x22CC JUMPI PUSH2 0x22CB PUSH2 0x2272 JUMP JUMPDEST JUMPDEST POP SWAP2 SWAP1 POP JUMP JUMPDEST PUSH32 0x4F6E6C7920636F6E74726163742773206F776E65722063616E20616464206120 PUSH1 0x0 DUP3 ADD MSTORE PUSH32 0x70726F7669646572000000000000000000000000000000000000000000000000 PUSH1 0x20 DUP3 ADD MSTORE POP JUMP JUMPDEST PUSH1 0x0 PUSH2 0x232E PUSH1 0x28 DUP4 PUSH2 0x1C70 JUMP JUMPDEST SWAP2 POP PUSH2 0x2339 DUP3 PUSH2 0x22D2 JUMP JUMPDEST PUSH1 0x40 DUP3 ADD SWAP1 POP SWAP2 SWAP1 POP JUMP JUMPDEST PUSH1 0x0 PUSH1 0x20 DUP3 ADD SWAP1 POP DUP2 DUP2 SUB PUSH1 0x0 DUP4 ADD MSTORE PUSH2 0x235D DUP2 PUSH2 0x2321 JUMP JUMPDEST SWAP1 POP SWAP2 SWAP1 POP JUMP JUMPDEST PUSH32 0x50726F76696465722068617320616C7265616479206164646564000000000000 PUSH1 0x0 DUP3 ADD MSTORE POP JUMP JUMPDEST PUSH1 0x0 PUSH2 0x239A PUSH1 0x1A DUP4 PUSH2 0x1C70 JUMP JUMPDEST SWAP2 POP PUSH2 0x23A5 DUP3 PUSH2 0x2364 JUMP JUMPDEST PUSH1 0x20 DUP3 ADD SWAP1 POP SWAP2 SWAP1 POP JUMP JUMPDEST PUSH1 0x0 PUSH1 0x20 DUP3 ADD SWAP1 POP DUP2 DUP2 SUB PUSH1 0x0 DUP4 ADD MSTORE PUSH2 0x23C9 DUP2 PUSH2 0x238D JUMP JUMPDEST SWAP1 POP SWAP2 SWAP1 POP JUMP JUMPDEST PUSH2 0x23D9 DUP2 PUSH2 0x18F8 JUMP JUMPDEST DUP3 MSTORE POP POP JUMP JUMPDEST PUSH1 0x0 PUSH1 0x20 DUP3 ADD SWAP1 POP PUSH2 0x23F4 PUSH1 0x0 DUP4 ADD DUP5 PUSH2 0x23D0 JUMP JUMPDEST SWAP3 SWAP2 POP POP JUMP JUMPDEST PUSH2 0x2403 DUP2 PUSH2 0x1D6C JUMP JUMPDEST DUP3 MSTORE POP POP JUMP JUMPDEST PUSH2 0x2412 DUP2 PUSH2 0x1D33 JUMP JUMPDEST DUP3 MSTORE POP POP JUMP JUMPDEST PUSH1 0x0 PUSH1 0x80 DUP3 ADD SWAP1 POP PUSH2 0x242D PUSH1 0x0 DUP4 ADD DUP8 PUSH2 0x23FA JUMP JUMPDEST PUSH2 0x243A PUSH1 0x20 DUP4 ADD DUP7 PUSH2 0x2409 JUMP JUMPDEST PUSH2 0x2447 PUSH1 0x40 DUP4 ADD DUP6 PUSH2 0x23FA JUMP JUMPDEST PUSH2 0x2454 PUSH1 0x60 DUP4 ADD DUP5 PUSH2 0x23FA JUMP JUMPDEST SWAP6 SWAP5 POP POP POP POP POP JUMP JUMPDEST PUSH32 0x496E76616C6964207369676E61747572652C2070726F766964657220646F6573 PUSH1 0x0 DUP3 ADD MSTORE PUSH32 0x6E27742065786973747300000000000000000000000000000000000000000000 PUSH1 0x20 DUP3 ADD MSTORE POP JUMP JUMPDEST PUSH1 0x0 PUSH2 0x24B9 PUSH1 0x2A DUP4 PUSH2 0x1C70 JUMP JUMPDEST SWAP2 POP PUSH2 0x24C4 DUP3 PUSH2 0x245D JUMP JUMPDEST PUSH1 0x40 DUP3 ADD SWAP1 POP SWAP2 SWAP1 POP JUMP JUMPDEST PUSH1 0x0 PUSH1 0x20 DUP3 ADD SWAP1 POP DUP2 DUP2 SUB PUSH1 0x0 DUP4 ADD MSTORE PUSH2 0x24E8 DUP2 PUSH2 0x24AC JUMP JUMPDEST SWAP1 POP SWAP2 SWAP1 POP JUMP JUMPDEST PUSH32 0x53656E736F722068617320616C72656164792061646465640000000000000000 PUSH1 0x0 DUP3 ADD MSTORE POP JUMP JUMPDEST PUSH1 0x0 PUSH2 0x2525 PUSH1 0x18 DUP4 PUSH2 0x1C70 JUMP JUMPDEST SWAP2 POP PUSH2 0x2530 DUP3 PUSH2 0x24EF JUMP JUMPDEST PUSH1 0x20 DUP3 ADD SWAP1 POP SWAP2 SWAP1 POP JUMP JUMPDEST PUSH1 0x0 PUSH1 0x20 DUP3 ADD SWAP1 POP DUP2 DUP2 SUB PUSH1 0x0 DUP4 ADD MSTORE PUSH2 0x2554 DUP2 PUSH2 0x2518 JUMP JUMPDEST SWAP1 POP SWAP2 SWAP1 POP JUMP JUMPDEST PUSH1 0x0 DUP2 SWAP1 POP DUP2 PUSH1 0x0 MSTORE PUSH1 0x20 PUSH1 0x0 KECCAK256 SWAP1 POP SWAP2 SWAP1 POP JUMP JUMPDEST PUSH1 0x0 PUSH1 0x20 PUSH1 0x1F DUP4 ADD DIV SWAP1 POP SWAP2 SWAP1 POP JUMP JUMPDEST PUSH1 0x0 DUP3 DUP3 SHL SWAP1 POP SWAP3 SWAP2 POP POP JUMP JUMPDEST PUSH1 0x0 PUSH1 0x8 DUP4 MUL PUSH2 0x25BD PUSH32 0xFFFFFFFFFFFFFFFFFFFFFFFFFFFFFFFFFFFFFFFFFFFFFFFFFFFFFFFFFFFFFFFF DUP3 PUSH2 0x2580 JUMP JUMPDEST PUSH2 0x25C7 DUP7 DUP4 PUSH2 0x2580 JUMP JUMPDEST SWAP6 POP DUP1 NOT DUP5 AND SWAP4 POP DUP1 DUP7 AND DUP5 OR SWAP3 POP POP POP SWAP4 SWAP3 POP POP POP JUMP JUMPDEST PUSH1 0x0 DUP2 SWAP1 POP SWAP2 SWAP1 POP JUMP JUMPDEST PUSH1 0x0 PUSH2 0x2604 PUSH2 0x25FF PUSH2 0x25FA DUP5 PUSH2 0x18F8 JUMP JUMPDEST PUSH2 0x25DF JUMP JUMPDEST PUSH2 0x18F8 JUMP JUMPDEST SWAP1 POP SWAP2 SWAP1 POP JUMP JUMPDEST PUSH1 0x0 DUP2 SWAP1 POP SWAP2 SWAP1 POP JUMP JUMPDEST PUSH2 0x261E DUP4 PUSH2 0x25E9 JUMP JUMPDEST PUSH2 0x2632 PUSH2 0x262A DUP3 PUSH2 0x260B JUMP JUMPDEST DUP5 DUP5 SLOAD PUSH2 0x258D JUMP JUMPDEST DUP3 SSTORE POP POP POP POP JUMP JUMPDEST PUSH1 0x0 SWAP1 JUMP JUMPDEST PUSH2 0x2647 PUSH2 0x263A JUMP JUMPDEST PUSH2 0x2652 DUP2 DUP5 DUP5 PUSH2 0x2615 JUMP JUMPDEST POP POP POP JUMP JUMPDEST JUMPDEST DUP2 DUP2 LT ISZERO PUSH2 0x2676 JUMPI PUSH2 0x266B PUSH1 0x0 DUP3 PUSH2 0x263F JUMP JUMPDEST PUSH1 0x1 DUP2 ADD SWAP1 POP PUSH2 0x2658 JUMP JUMPDEST POP POP JUMP JUMPDEST PUSH1 0x1F DUP3 GT ISZERO PUSH2 0x26BB JUMPI PUSH2 0x268C DUP2 PUSH2 0x255B JUMP JUMPDEST PUSH2 0x2695 DUP5 PUSH2 0x2570 JUMP JUMPDEST DUP2 ADD PUSH1 0x20 DUP6 LT ISZERO PUSH2 0x26A4 JUMPI DUP2 SWAP1 POP JUMPDEST PUSH2 0x26B8 PUSH2 0x26B0 DUP6 PUSH2 0x2570 JUMP JUMPDEST DUP4 ADD DUP3 PUSH2 0x2657 JUMP JUMPDEST POP POP JUMPDEST POP POP POP JUMP JUMPDEST PUSH1 0x0 DUP3 DUP3 SHR SWAP1 POP SWAP3 SWAP2 POP POP JUMP JUMPDEST PUSH1 0x0 PUSH2 0x26DE PUSH1 0x0 NOT DUP5 PUSH1 0x8 MUL PUSH2 0x26C0 JUMP JUMPDEST NOT DUP1 DUP4 AND SWAP2 POP POP SWAP3 SWAP2 POP POP JUMP JUMPDEST PUSH1 0x0 PUSH2 0x26F7 DUP4 DUP4 PUSH2 0x26CD JUMP JUMPDEST SWAP2 POP DUP3 PUSH1 0x2 MUL DUP3 OR SWAP1 POP SWAP3 SWAP2 POP POP JUMP JUMPDEST PUSH2 0x2710 DUP3 PUSH2 0x1C65 JUMP JUMPDEST PUSH8 0xFFFFFFFFFFFFFFFF DUP2 GT ISZERO PUSH2 0x2729 JUMPI PUSH2 0x2728 PUSH2 0x1ADE JUMP JUMPDEST JUMPDEST PUSH2 0x2733 DUP3 SLOAD PUSH2 0x22A1 JUMP JUMPDEST PUSH2 0x273E DUP3 DUP3 DUP6 PUSH2 0x267A JUMP JUMPDEST PUSH1 0x0 PUSH1 0x20 SWAP1 POP PUSH1 0x1F DUP4 GT PUSH1 0x1 DUP2 EQ PUSH2 0x2771 JUMPI PUSH1 0x0 DUP5 ISZERO PUSH2 0x275F JUMPI DUP3 DUP8 ADD MLOAD SWAP1 POP JUMPDEST PUSH2 0x2769 DUP6 DUP3 PUSH2 0x26EB JUMP JUMPDEST DUP7 SSTORE POP PUSH2 0x27D1 JUMP JUMPDEST PUSH1 0x1F NOT DUP5 AND PUSH2 0x277F DUP7 PUSH2 0x255B JUMP JUMPDEST PUSH1 0x0 JUMPDEST DUP3 DUP2 LT ISZERO PUSH2 0x27A7 JUMPI DUP5 DUP10 ADD MLOAD DUP3 SSTORE PUSH1 0x1 DUP3 ADD SWAP2 POP PUSH1 0x20 DUP6 ADD SWAP5 POP PUSH1 0x20 DUP2 ADD SWAP1 POP PUSH2 0x2782 JUMP JUMPDEST DUP7 DUP4 LT ISZERO PUSH2 0x27C4 JUMPI DUP5 DUP10 ADD MLOAD PUSH2 0x27C0 PUSH1 0x1F DUP10 AND DUP3 PUSH2 0x26CD JUMP JUMPDEST DUP4 SSTORE POP JUMPDEST PUSH1 0x1 PUSH1 0x2 DUP9 MUL ADD DUP9 SSTORE POP POP POP JUMPDEST POP POP POP POP POP POP JUMP JUMPDEST PUSH1 0x0 PUSH1 0x40 DUP3 ADD SWAP1 POP DUP2 DUP2 SUB PUSH1 0x0 DUP4 ADD MSTORE PUSH2 0x27F3 DUP2 DUP6 PUSH2 0x1CAB JUMP JUMPDEST SWAP1 POP PUSH2 0x2802 PUSH1 0x20 DUP4 ADD DUP5 PUSH2 0x23D0 JUMP JUMPDEST SWAP4 SWAP3 POP POP POP JUMP JUMPDEST PUSH32 0x4F6E6C792070726F76696465722063616E2075706C6F6164206E657720646174 PUSH1 0x0 DUP3 ADD MSTORE PUSH32 0x6100000000000000000000000000000000000000000000000000000000000000 PUSH1 0x20 DUP3 ADD MSTORE POP JUMP JUMPDEST PUSH1 0x0 PUSH2 0x2865 PUSH1 0x21 DUP4 PUSH2 0x1C70 JUMP JUMPDEST SWAP2 POP PUSH2 0x2870 DUP3 PUSH2 0x2809 JUMP JUMPDEST PUSH1 0x40 DUP3 ADD SWAP1 POP SWAP2 SWAP1 POP JUMP JUMPDEST PUSH1 0x0 PUSH1 0x20 DUP3 ADD SWAP1 POP DUP2 DUP2 SUB PUSH1 0x0 DUP4 ADD MSTORE PUSH2 0x2894 DUP2 PUSH2 0x2858 JUMP JUMPDEST SWAP1 POP SWAP2 SWAP1 POP JUMP JUMPDEST PUSH32 0x53656E736F7220646F65736E2774206578697374730000000000000000000000 PUSH1 0x0 DUP3 ADD MSTORE POP JUMP JUMPDEST PUSH1 0x0 PUSH2 0x28D1 PUSH1 0x15 DUP4 PUSH2 0x1C70 JUMP JUMPDEST SWAP2 POP PUSH2 0x28DC DUP3 PUSH2 0x289B JUMP JUMPDEST PUSH1 0x20 DUP3 ADD SWAP1 POP SWAP2 SWAP1 POP JUMP JUMPDEST PUSH1 0x0 PUSH1 0x20 DUP3 ADD SWAP1 POP DUP2 DUP2 SUB PUSH1 0x0 DUP4 ADD MSTORE PUSH2 0x2900 DUP2 PUSH2 0x28C4 JUMP JUMPDEST SWAP1 POP SWAP2 SWAP1 POP JUMP JUMPDEST PUSH1 0x0 PUSH1 0x40 DUP3 ADD SWAP1 POP DUP2 DUP2 SUB PUSH1 0x0 DUP4 ADD MSTORE PUSH2 0x2921 DUP2 DUP6 PUSH2 0x1CAB JUMP JUMPDEST SWAP1 POP DUP2 DUP2 SUB PUSH1 0x20 DUP4 ADD MSTORE PUSH2 0x2935 DUP2 DUP5 PUSH2 0x1CAB JUMP JUMPDEST SWAP1 POP SWAP4 SWAP3 POP POP POP JUMP JUMPDEST PUSH32 0x50726F766964657220646F65736E277420657869737473000000000000000000 PUSH1 0x0 DUP3 ADD MSTORE POP JUMP JUMPDEST PUSH1 0x0 PUSH2 0x2974 PUSH1 0x17 DUP4 PUSH2 0x1C70 JUMP JUMPDEST SWAP2 POP PUSH2 0x297F DUP3 PUSH2 0x293E JUMP JUMPDEST PUSH1 0x20 DUP3 ADD SWAP1 POP SWAP2 SWAP1 POP JUMP JUMPDEST PUSH1 0x0 PUSH1 0x20 DUP3 ADD SWAP1 POP DUP2 DUP2 SUB PUSH1 0x0 DUP4 ADD MSTORE PUSH2 0x29A3 DUP2 PUSH2 0x2967 JUMP JUMPDEST SWAP1 POP SWAP2 SWAP1 POP JUMP JUMPDEST PUSH1 0x0 PUSH2 0x29B5 DUP3 PUSH2 0x18F8 JUMP JUMPDEST SWAP2 POP PUSH32 0xFFFFFFFFFFFFFFFFFFFFFFFFFFFFFFFFFFFFFFFFFFFFFFFFFFFFFFFFFFFFFFFF DUP3 SUB PUSH2 0x29E7 JUMPI PUSH2 0x29E6 PUSH2 0x21E0 JUMP JUMPDEST JUMPDEST PUSH1 0x1 DUP3 ADD SWAP1 POP SWAP2 SWAP1 POP JUMP INVALID LOG2 PUSH5 0x6970667358 0x22 SLT KECCAK256 0xA7 ISZERO PUSH22 0x55E373B68EE4FEE194875FF70CD3B6620B08595FDB66 PUSH29 0xA39A27A4FDDD64736F6C63430008120033000000000000000000000000 "
		},
		"gasEstimates": {
			"creation": {
				"codeDepositCost": "2158400",
				"executionCost": "26568",
				"totalCost": "2184968"
			},
			"external": {
				"DataProviderList(uint256)": "4957",
				"Devices(address)": "infinite",
				"getAllCids(address,string)": "infinite",
				"getAllProviders()": "infinite",
				"getLastCID(address,string)": "infinite",
				"getMacList(address)": "infinite",
				"newData(string,string,string,uint256,uint8,bytes32,bytes32,bytes32)": "infinite",
				"newProvider(address)": "103835",
				"newSensor(string,uint8,bytes32,bytes32,bytes32)": "infinite"
			}
		},
		"methodIdentifiers": {
			"DataProviderList(uint256)": "31137090",
			"Devices(address)": "9790e96a",
			"getAllCids(address,string)": "fe41576f",
			"getAllProviders()": "3bb4497c",
			"getLastCID(address,string)": "4f65e878",
			"getMacList(address)": "f5e75742",
			"newData(string,string,string,uint256,uint8,bytes32,bytes32,bytes32)": "d3530975",
			"newProvider(address)": "5b485a14",
			"newSensor(string,uint8,bytes32,bytes32,bytes32)": "802e9cb9"
		}
	},
	"abi": [
		{
			"inputs": [],
			"stateMutability": "nonpayable",
			"type": "constructor"
		},
		{
			"anonymous": false,
			"inputs": [
				{
					"indexed": true,
					"internalType": "string",
					"name": "cid",
					"type": "string"
				},
				{
					"indexed": true,
					"internalType": "address",
					"name": "_provider_address",
					"type": "address"
				},
				{
					"indexed": false,
					"internalType": "string",
					"name": "mac",
					"type": "string"
				},
				{
					"indexed": false,
					"internalType": "string",
					"name": "url",
					"type": "string"
				}
			],
			"name": "EventDataAdded",
			"type": "event"
		},
		{
			"anonymous": false,
			"inputs": [
				{
					"indexed": true,
					"internalType": "address",
					"name": "addressProvider",
					"type": "address"
				},
				{
					"indexed": false,
					"internalType": "uint256",
					"name": "date",
					"type": "uint256"
				}
			],
			"name": "EventProviderAdded",
			"type": "event"
		},
		{
			"anonymous": false,
			"inputs": [
				{
					"indexed": true,
					"internalType": "address",
					"name": "addressProvider",
					"type": "address"
				},
				{
					"indexed": false,
					"internalType": "string",
					"name": "mac",
					"type": "string"
				},
				{
					"indexed": false,
					"internalType": "uint256",
					"name": "date",
					"type": "uint256"
				}
			],
			"name": "EventSensorAdded",
			"type": "event"
		},
		{
			"inputs": [
				{
					"internalType": "uint256",
					"name": "",
					"type": "uint256"
				}
			],
			"name": "DataProviderList",
			"outputs": [
				{
					"internalType": "address",
					"name": "",
					"type": "address"
				}
			],
			"stateMutability": "view",
			"type": "function"
		},
		{
			"inputs": [
				{
					"internalType": "address",
					"name": "",
					"type": "address"
				}
			],
			"name": "Devices",
			"outputs": [
				{
					"internalType": "address",
					"name": "provider_address",
					"type": "address"
				},
				{
					"internalType": "bool",
					"name": "created",
					"type": "bool"
				}
			],
			"stateMutability": "view",
			"type": "function"
		},
		{
			"inputs": [
				{
					"internalType": "address",
					"name": "_provider_address",
					"type": "address"
				},
				{
					"internalType": "string",
					"name": "_mac",
					"type": "string"
				}
			],
			"name": "getAllCids",
			"outputs": [
				{
					"internalType": "string[]",
					"name": "",
					"type": "string[]"
				}
			],
			"stateMutability": "view",
			"type": "function"
		},
		{
			"inputs": [],
			"name": "getAllProviders",
			"outputs": [
				{
					"internalType": "address[]",
					"name": "",
					"type": "address[]"
				}
			],
			"stateMutability": "view",
			"type": "function"
		},
		{
			"inputs": [
				{
					"internalType": "address",
					"name": "_provider_address",
					"type": "address"
				},
				{
					"internalType": "string",
					"name": "_mac",
					"type": "string"
				}
			],
			"name": "getLastCID",
			"outputs": [
				{
					"internalType": "string",
					"name": "",
					"type": "string"
				}
			],
			"stateMutability": "view",
			"type": "function"
		},
		{
			"inputs": [
				{
					"internalType": "address",
					"name": "_provider_address",
					"type": "address"
				}
			],
			"name": "getMacList",
			"outputs": [
				{
					"internalType": "string[]",
					"name": "",
					"type": "string[]"
				}
			],
			"stateMutability": "view",
			"type": "function"
		},
		{
			"inputs": [
				{
					"internalType": "string",
					"name": "_mac",
					"type": "string"
				},
				{
					"internalType": "string",
					"name": "_cid",
					"type": "string"
				},
				{
					"internalType": "string",
					"name": "_url",
					"type": "string"
				},
				{
					"internalType": "uint256",
					"name": "_timestamp",
					"type": "uint256"
				},
				{
					"internalType": "uint8",
					"name": "_v",
					"type": "uint8"
				},
				{
					"internalType": "bytes32",
					"name": "_r",
					"type": "bytes32"
				},
				{
					"internalType": "bytes32",
					"name": "_s",
					"type": "bytes32"
				},
				{
					"internalType": "bytes32",
					"name": "_hash",
					"type": "bytes32"
				}
			],
			"name": "newData",
			"outputs": [],
			"stateMutability": "nonpayable",
			"type": "function"
		},
		{
			"inputs": [
				{
					"internalType": "address",
					"name": "_provider_address",
					"type": "address"
				}
			],
			"name": "newProvider",
			"outputs": [],
			"stateMutability": "nonpayable",
			"type": "function"
		},
		{
			"inputs": [
				{
					"internalType": "string",
					"name": "_mac",
					"type": "string"
				},
				{
					"internalType": "uint8",
					"name": "_v",
					"type": "uint8"
				},
				{
					"internalType": "bytes32",
					"name": "_r",
					"type": "bytes32"
				},
				{
					"internalType": "bytes32",
					"name": "_s",
					"type": "bytes32"
				},
				{
					"internalType": "bytes32",
					"name": "_hash",
					"type": "bytes32"
				}
			],
			"name": "newSensor",
			"outputs": [],
			"stateMutability": "nonpayable",
			"type": "function"
		}
	]
}