{
	"contracts/StorageContract.sol": {
		"StorageContract": {
			"abi": [
				{
					"inputs": [],
					"stateMutability": "nonpayable",
					"type": "constructor"
				},
				{
					"anonymous": false,
					"inputs": [
						{
							"indexed": true,
							"internalType": "string",
							"name": "cid",
							"type": "string"
						},
						{
							"indexed": true,
							"internalType": "address",
							"name": "_provider_address",
							"type": "address"
						},
						{
							"indexed": false,
							"internalType": "string",
							"name": "mac",
							"type": "string"
						},
						{
							"indexed": false,
							"internalType": "string",
							"name": "url",
							"type": "string"
						}
					],
					"name": "EventDataAdded",
					"type": "event"
				},
				{
					"anonymous": false,
					"inputs": [
						{
							"indexed": true,
							"internalType": "address",
							"name": "addressProvider",
							"type": "address"
						},
						{
							"indexed": false,
							"internalType": "uint256",
							"name": "date",
							"type": "uint256"
						}
					],
					"name": "EventProviderAdded",
					"type": "event"
				},
				{
					"anonymous": false,
					"inputs": [
						{
							"indexed": true,
							"internalType": "address",
							"name": "addressProvider",
							"type": "address"
						},
						{
							"indexed": false,
							"internalType": "string",
							"name": "mac",
							"type": "string"
						},
						{
							"indexed": false,
							"internalType": "uint256",
							"name": "date",
							"type": "uint256"
						}
					],
					"name": "EventSensorAdded",
					"type": "event"
				},
				{
					"inputs": [
						{
							"internalType": "uint256",
							"name": "",
							"type": "uint256"
						}
					],
					"name": "DataProviderList",
					"outputs": [
						{
							"internalType": "address",
							"name": "",
							"type": "address"
						}
					],
					"stateMutability": "view",
					"type": "function"
				},
				{
					"inputs": [
						{
							"internalType": "address",
							"name": "",
							"type": "address"
						}
					],
					"name": "Devices",
					"outputs": [
						{
							"internalType": "address",
							"name": "provider_address",
							"type": "address"
						},
						{
							"internalType": "bool",
							"name": "created",
							"type": "bool"
						}
					],
					"stateMutability": "view",
					"type": "function"
				},
				{
					"inputs": [
						{
							"internalType": "address",
							"name": "_provider_address",
							"type": "address"
						},
						{
							"internalType": "string",
							"name": "_mac",
							"type": "string"
						}
					],
					"name": "getAllCids",
					"outputs": [
						{
							"internalType": "string[]",
							"name": "",
							"type": "string[]"
						}
					],
					"stateMutability": "view",
					"type": "function"
				},
				{
					"inputs": [],
					"name": "getAllProviders",
					"outputs": [
						{
							"internalType": "address[]",
							"name": "",
							"type": "address[]"
						}
					],
					"stateMutability": "view",
					"type": "function"
				},
				{
					"inputs": [
						{
							"internalType": "address",
							"name": "_provider_address",
							"type": "address"
						},
						{
							"internalType": "string",
							"name": "_mac",
							"type": "string"
						}
					],
					"name": "getLastCID",
					"outputs": [
						{
							"internalType": "string",
							"name": "",
							"type": "string"
						}
					],
					"stateMutability": "view",
					"type": "function"
				},
				{
					"inputs": [
						{
							"internalType": "address",
							"name": "_provider_address",
							"type": "address"
						}
					],
					"name": "getMacList",
					"outputs": [
						{
							"internalType": "string[]",
							"name": "",
							"type": "string[]"
						}
					],
					"stateMutability": "view",
					"type": "function"
				},
				{
					"inputs": [
						{
							"internalType": "string",
							"name": "_mac",
							"type": "string"
						},
						{
							"internalType": "string",
							"name": "_cid",
							"type": "string"
						},
						{
							"internalType": "string",
							"name": "_url",
							"type": "string"
						},
						{
							"internalType": "uint256",
							"name": "_timestamp",
							"type": "uint256"
						},
						{
							"internalType": "uint8",
							"name": "_v",
							"type": "uint8"
						},
						{
							"internalType": "bytes32",
							"name": "_r",
							"type": "bytes32"
						},
						{
							"internalType": "bytes32",
							"name": "_s",
							"type": "bytes32"
						},
						{
							"internalType": "bytes32",
							"name": "_hash",
							"type": "bytes32"
						}
					],
					"name": "newData",
					"outputs": [],
					"stateMutability": "nonpayable",
					"type": "function"
				},
				{
					"inputs": [
						{
							"internalType": "address",
							"name": "_provider_address",
							"type": "address"
						}
					],
					"name": "newProvider",
					"outputs": [],
					"stateMutability": "nonpayable",
					"type": "function"
				},
				{
					"inputs": [
						{
							"internalType": "string",
							"name": "_mac",
							"type": "string"
						},
						{
							"internalType": "uint8",
							"name": "_v",
							"type": "uint8"
						},
						{
							"internalType": "bytes32",
							"name": "_r",
							"type": "bytes32"
						},
						{
							"internalType": "bytes32",
							"name": "_s",
							"type": "bytes32"
						},
						{
							"internalType": "bytes32",
							"name": "_hash",
							"type": "bytes32"
						}
					],
					"name": "newSensor",
					"outputs": [],
					"stateMutability": "nonpayable",
					"type": "function"
				}
			],
			"devdoc": {
				"kind": "dev",
				"methods": {},
				"version": 1
			},
			"evm": {
				"assembly": "    /* \"contracts/StorageContract.sol\":62:5764  contract StorageContract {... */\n  mstore(0x40, 0x80)\n    /* \"contracts/StorageContract.sol\":1113:1171  constructor() {... */\n  callvalue\n  dup1\n  iszero\n  tag_1\n  jumpi\n  0x00\n  dup1\n  revert\ntag_1:\n  pop\n    /* \"contracts/StorageContract.sol\":1153:1163  msg.sender */\n  caller\n    /* \"contracts/StorageContract.sol\":1137:1142  owner */\n  0x00\n  dup1\n    /* \"contracts/StorageContract.sol\":1137:1164  owner = payable(msg.sender) */\n  0x0100\n  exp\n  dup2\n  sload\n  dup2\n  0xffffffffffffffffffffffffffffffffffffffff\n  mul\n  not\n  and\n  swap1\n  dup4\n  0xffffffffffffffffffffffffffffffffffffffff\n  and\n  mul\n  or\n  swap1\n  sstore\n  pop\n    /* \"contracts/StorageContract.sol\":62:5764  contract StorageContract {... */\n  dataSize(sub_0)\n  dup1\n  dataOffset(sub_0)\n  0x00\n  codecopy\n  0x00\n  return\nstop\n\nsub_0: assembly {\n        /* \"contracts/StorageContract.sol\":62:5764  contract StorageContract {... */\n      mstore(0x40, 0x80)\n      callvalue\n      dup1\n      iszero\n      tag_1\n      jumpi\n      0x00\n      dup1\n      revert\n    tag_1:\n      pop\n      jumpi(tag_2, lt(calldatasize, 0x04))\n      shr(0xe0, calldataload(0x00))\n      dup1\n      0x802e9cb9\n      gt\n      tag_12\n      jumpi\n      dup1\n      0x802e9cb9\n      eq\n      tag_7\n      jumpi\n      dup1\n      0x9790e96a\n      eq\n      tag_8\n      jumpi\n      dup1\n      0xd3530975\n      eq\n      tag_9\n      jumpi\n      dup1\n      0xf5e75742\n      eq\n      tag_10\n      jumpi\n      dup1\n      0xfe41576f\n      eq\n      tag_11\n      jumpi\n      jump(tag_2)\n    tag_12:\n      dup1\n      0x31137090\n      eq\n      tag_3\n      jumpi\n      dup1\n      0x3bb4497c\n      eq\n      tag_4\n      jumpi\n      dup1\n      0x4f65e878\n      eq\n      tag_5\n      jumpi\n      dup1\n      0x5b485a14\n      eq\n      tag_6\n      jumpi\n    tag_2:\n      0x00\n      dup1\n      revert\n        /* \"contracts/StorageContract.sol\":733:766  address[] public DataProviderList */\n    tag_3:\n      tag_13\n      0x04\n      dup1\n      calldatasize\n      sub\n      dup2\n      add\n      swap1\n      tag_14\n      swap2\n      swap1\n      tag_15\n      jump\t// in\n    tag_14:\n      tag_16\n      jump\t// in\n    tag_13:\n      mload(0x40)\n      tag_17\n      swap2\n      swap1\n      tag_18\n      jump\t// in\n    tag_17:\n      mload(0x40)\n      dup1\n      swap2\n      sub\n      swap1\n      return\n        /* \"contracts/StorageContract.sol\":4108:4214  function getAllProviders() public view returns (address[] memory) {... */\n    tag_4:\n      tag_19\n      tag_20\n      jump\t// in\n    tag_19:\n      mload(0x40)\n      tag_21\n      swap2\n      swap1\n      tag_22\n      jump\t// in\n    tag_21:\n      mload(0x40)\n      dup1\n      swap2\n      sub\n      swap1\n      return\n        /* \"contracts/StorageContract.sol\":4464:5012  function getLastCID(address _provider_address, string memory _mac) public view returns (string memory) {... */\n    tag_5:\n      tag_23\n      0x04\n      dup1\n      calldatasize\n      sub\n      dup2\n      add\n      swap1\n      tag_24\n      swap2\n      swap1\n      tag_25\n      jump\t// in\n    tag_24:\n      tag_26\n      jump\t// in\n    tag_23:\n      mload(0x40)\n      tag_27\n      swap2\n      swap1\n      tag_28\n      jump\t// in\n    tag_27:\n      mload(0x40)\n      dup1\n      swap2\n      sub\n      swap1\n      return\n        /* \"contracts/StorageContract.sol\":1177:1669  function newProvider(address _provider_address) public {... */\n    tag_6:\n      tag_29\n      0x04\n      dup1\n      calldatasize\n      sub\n      dup2\n      add\n      swap1\n      tag_30\n      swap2\n      swap1\n      tag_31\n      jump\t// in\n    tag_30:\n      tag_32\n      jump\t// in\n    tag_29:\n      stop\n        /* \"contracts/StorageContract.sol\":1914:2604  function newSensor(... */\n    tag_7:\n      tag_33\n      0x04\n      dup1\n      calldatasize\n      sub\n      dup2\n      add\n      swap1\n      tag_34\n      swap2\n      swap1\n      tag_35\n      jump\t// in\n    tag_34:\n      tag_36\n      jump\t// in\n    tag_33:\n      stop\n        /* \"contracts/StorageContract.sol\":680:727  mapping(address => DataProvider) public Devices */\n    tag_8:\n      tag_37\n      0x04\n      dup1\n      calldatasize\n      sub\n      dup2\n      add\n      swap1\n      tag_38\n      swap2\n      swap1\n      tag_31\n      jump\t// in\n    tag_38:\n      tag_39\n      jump\t// in\n    tag_37:\n      mload(0x40)\n      tag_40\n      swap3\n      swap2\n      swap1\n      tag_41\n      jump\t// in\n    tag_40:\n      mload(0x40)\n      dup1\n      swap2\n      sub\n      swap1\n      return\n        /* \"contracts/StorageContract.sol\":2845:4102  function newData(... */\n    tag_9:\n      tag_42\n      0x04\n      dup1\n      calldatasize\n      sub\n      dup2\n      add\n      swap1\n      tag_43\n      swap2\n      swap1\n      tag_44\n      jump\t// in\n    tag_43:\n      tag_45\n      jump\t// in\n    tag_42:\n      stop\n        /* \"contracts/StorageContract.sol\":4220:4458  function getMacList(address _provider_address) public view returns (string[] memory) {... */\n    tag_10:\n      tag_46\n      0x04\n      dup1\n      calldatasize\n      sub\n      dup2\n      add\n      swap1\n      tag_47\n      swap2\n      swap1\n      tag_31\n      jump\t// in\n    tag_47:\n      tag_48\n      jump\t// in\n    tag_46:\n      mload(0x40)\n      tag_49\n      swap2\n      swap1\n      tag_50\n      jump\t// in\n    tag_49:\n      mload(0x40)\n      dup1\n      swap2\n      sub\n      swap1\n      return\n        /* \"contracts/StorageContract.sol\":5018:5762  function getAllCids(address _provider_address, string memory _mac) public view returns (string[] memory) {... */\n    tag_11:\n      tag_51\n      0x04\n      dup1\n      calldatasize\n      sub\n      dup2\n      add\n      swap1\n      tag_52\n      swap2\n      swap1\n      tag_25\n      jump\t// in\n    tag_52:\n      tag_53\n      jump\t// in\n    tag_51:\n      mload(0x40)\n      tag_54\n      swap2\n      swap1\n      tag_50\n      jump\t// in\n    tag_54:\n      mload(0x40)\n      dup1\n      swap2\n      sub\n      swap1\n      return\n        /* \"contracts/StorageContract.sol\":733:766  address[] public DataProviderList */\n    tag_16:\n      0x02\n      dup2\n      dup2\n      sload\n      dup2\n      lt\n      tag_55\n      jumpi\n      0x00\n      dup1\n      revert\n    tag_55:\n      swap1\n      0x00\n      mstore\n      keccak256(0x00, 0x20)\n      add\n      0x00\n      swap2\n      pop\n      sload\n      swap1\n      0x0100\n      exp\n      swap1\n      div\n      0xffffffffffffffffffffffffffffffffffffffff\n      and\n      dup2\n      jump\t// out\n        /* \"contracts/StorageContract.sol\":4108:4214  function getAllProviders() public view returns (address[] memory) {... */\n    tag_20:\n        /* \"contracts/StorageContract.sol\":4156:4172  address[] memory */\n      0x60\n        /* \"contracts/StorageContract.sol\":4191:4207  DataProviderList */\n      0x02\n        /* \"contracts/StorageContract.sol\":4184:4207  return DataProviderList */\n      dup1\n      sload\n      dup1\n      0x20\n      mul\n      0x20\n      add\n      mload(0x40)\n      swap1\n      dup2\n      add\n      0x40\n      mstore\n      dup1\n      swap3\n      swap2\n      swap1\n      dup2\n      dup2\n      mstore\n      0x20\n      add\n      dup3\n      dup1\n      sload\n      dup1\n      iszero\n      tag_58\n      jumpi\n      0x20\n      mul\n      dup3\n      add\n      swap2\n      swap1\n      0x00\n      mstore\n      keccak256(0x00, 0x20)\n      swap1\n    tag_59:\n      dup2\n      0x00\n      swap1\n      sload\n      swap1\n      0x0100\n      exp\n      swap1\n      div\n      0xffffffffffffffffffffffffffffffffffffffff\n      and\n      0xffffffffffffffffffffffffffffffffffffffff\n      and\n      dup2\n      mstore\n      0x20\n      add\n      swap1\n      0x01\n      add\n      swap1\n      dup1\n      dup4\n      gt\n      tag_59\n      jumpi\n    tag_58:\n      pop\n      pop\n      pop\n      pop\n      pop\n      swap1\n      pop\n        /* \"contracts/StorageContract.sol\":4108:4214  function getAllProviders() public view returns (address[] memory) {... */\n      swap1\n      jump\t// out\n        /* \"contracts/StorageContract.sol\":4464:5012  function getLastCID(address _provider_address, string memory _mac) public view returns (string memory) {... */\n    tag_26:\n        /* \"contracts/StorageContract.sol\":4552:4565  string memory */\n      0x60\n        /* \"contracts/StorageContract.sol\":4623:4627  true */\n      0x01\n        /* \"contracts/StorageContract.sol\":4585:4627  Devices[_provider_address].created == true */\n      iszero\n      iszero\n        /* \"contracts/StorageContract.sol\":4585:4592  Devices */\n      0x01\n        /* \"contracts/StorageContract.sol\":4585:4611  Devices[_provider_address] */\n      0x00\n        /* \"contracts/StorageContract.sol\":4593:4610  _provider_address */\n      dup6\n        /* \"contracts/StorageContract.sol\":4585:4611  Devices[_provider_address] */\n      0xffffffffffffffffffffffffffffffffffffffff\n      and\n      0xffffffffffffffffffffffffffffffffffffffff\n      and\n      dup2\n      mstore\n      0x20\n      add\n      swap1\n      dup2\n      mstore\n      0x20\n      add\n      0x00\n      keccak256\n        /* \"contracts/StorageContract.sol\":4585:4619  Devices[_provider_address].created */\n      0x03\n      add\n      0x00\n      swap1\n      sload\n      swap1\n      0x0100\n      exp\n      swap1\n      div\n      0xff\n      and\n        /* \"contracts/StorageContract.sol\":4585:4627  Devices[_provider_address].created == true */\n      iszero\n      iszero\n      eq\n        /* \"contracts/StorageContract.sol\":4577:4656  require(Devices[_provider_address].created == true, \"Invalid provider address\") */\n      tag_61\n      jumpi\n      mload(0x40)\n      0x08c379a000000000000000000000000000000000000000000000000000000000\n      dup2\n      mstore\n      0x04\n      add\n      tag_62\n      swap1\n      tag_63\n      jump\t// in\n    tag_62:\n      mload(0x40)\n      dup1\n      swap2\n      sub\n      swap1\n      revert\n    tag_61:\n        /* \"contracts/StorageContract.sol\":4729:4733  true */\n      0x01\n        /* \"contracts/StorageContract.sol\":4674:4733  Devices[_provider_address].SensorInfo[_mac].created == true */\n      iszero\n      iszero\n        /* \"contracts/StorageContract.sol\":4674:4681  Devices */\n      0x01\n        /* \"contracts/StorageContract.sol\":4674:4700  Devices[_provider_address] */\n      0x00\n        /* \"contracts/StorageContract.sol\":4682:4699  _provider_address */\n      dup6\n        /* \"contracts/StorageContract.sol\":4674:4700  Devices[_provider_address] */\n      0xffffffffffffffffffffffffffffffffffffffff\n      and\n      0xffffffffffffffffffffffffffffffffffffffff\n      and\n      dup2\n      mstore\n      0x20\n      add\n      swap1\n      dup2\n      mstore\n      0x20\n      add\n      0x00\n      keccak256\n        /* \"contracts/StorageContract.sol\":4674:4711  Devices[_provider_address].SensorInfo */\n      0x01\n      add\n        /* \"contracts/StorageContract.sol\":4712:4716  _mac */\n      dup4\n        /* \"contracts/StorageContract.sol\":4674:4717  Devices[_provider_address].SensorInfo[_mac] */\n      mload(0x40)\n      tag_64\n      swap2\n      swap1\n      tag_65\n      jump\t// in\n    tag_64:\n      swap1\n      dup2\n      mstore\n      0x20\n      add\n      mload(0x40)\n      dup1\n      swap2\n      sub\n      swap1\n      keccak256\n        /* \"contracts/StorageContract.sol\":4674:4725  Devices[_provider_address].SensorInfo[_mac].created */\n      0x03\n      add\n      0x00\n      swap1\n      sload\n      swap1\n      0x0100\n      exp\n      swap1\n      div\n      0xff\n      and\n        /* \"contracts/StorageContract.sol\":4674:4733  Devices[_provider_address].SensorInfo[_mac].created == true */\n      iszero\n      iszero\n      eq\n        /* \"contracts/StorageContract.sol\":4666:4756  require(Devices[_provider_address].SensorInfo[_mac].created == true, \"Invalid sensor MAC\") */\n      tag_66\n      jumpi\n      mload(0x40)\n      0x08c379a000000000000000000000000000000000000000000000000000000000\n      dup2\n      mstore\n      0x04\n      add\n      tag_67\n      swap1\n      tag_68\n      jump\t// in\n    tag_67:\n      mload(0x40)\n      dup1\n      swap2\n      sub\n      swap1\n      revert\n    tag_66:\n        /* \"contracts/StorageContract.sol\":4767:4778  uint256 len */\n      0x00\n        /* \"contracts/StorageContract.sol\":4781:4788  Devices */\n      0x01\n        /* \"contracts/StorageContract.sol\":4781:4807  Devices[_provider_address] */\n      0x00\n        /* \"contracts/StorageContract.sol\":4789:4806  _provider_address */\n      dup6\n        /* \"contracts/StorageContract.sol\":4781:4807  Devices[_provider_address] */\n      0xffffffffffffffffffffffffffffffffffffffff\n      and\n      0xffffffffffffffffffffffffffffffffffffffff\n      and\n      dup2\n      mstore\n      0x20\n      add\n      swap1\n      dup2\n      mstore\n      0x20\n      add\n      0x00\n      keccak256\n        /* \"contracts/StorageContract.sol\":4781:4818  Devices[_provider_address].SensorInfo */\n      0x01\n      add\n        /* \"contracts/StorageContract.sol\":4819:4823  _mac */\n      dup4\n        /* \"contracts/StorageContract.sol\":4781:4824  Devices[_provider_address].SensorInfo[_mac] */\n      mload(0x40)\n      tag_69\n      swap2\n      swap1\n      tag_65\n      jump\t// in\n    tag_69:\n      swap1\n      dup2\n      mstore\n      0x20\n      add\n      mload(0x40)\n      dup1\n      swap2\n      sub\n      swap1\n      keccak256\n        /* \"contracts/StorageContract.sol\":4781:4839  Devices[_provider_address].SensorInfo[_mac].SensorDataList */\n      0x02\n      add\n        /* \"contracts/StorageContract.sol\":4781:4846  Devices[_provider_address].SensorInfo[_mac].SensorDataList.length */\n      dup1\n      sload\n      swap1\n      pop\n        /* \"contracts/StorageContract.sol\":4767:4846  uint256 len = Devices[_provider_address].SensorInfo[_mac].SensorDataList.length */\n      swap1\n      pop\n        /* \"contracts/StorageContract.sol\":4867:4868  0 */\n      0x00\n        /* \"contracts/StorageContract.sol\":4860:4863  len */\n      dup2\n        /* \"contracts/StorageContract.sol\":4860:4868  len == 0 */\n      sub\n        /* \"contracts/StorageContract.sol\":4856:4922  if (len == 0) {... */\n      tag_70\n      jumpi\n        /* \"contracts/StorageContract.sol\":4884:4911  return \"Sensor hasn't cids\" */\n      mload(0x40)\n      dup1\n      0x40\n      add\n      0x40\n      mstore\n      dup1\n      0x12\n      dup2\n      mstore\n      0x20\n      add\n      0x53656e736f72206861736e277420636964730000000000000000000000000000\n      dup2\n      mstore\n      pop\n      swap2\n      pop\n      pop\n      jump(tag_60)\n        /* \"contracts/StorageContract.sol\":4856:4922  if (len == 0) {... */\n    tag_70:\n        /* \"contracts/StorageContract.sol\":4938:4945  Devices */\n      0x01\n        /* \"contracts/StorageContract.sol\":4938:4964  Devices[_provider_address] */\n      0x00\n        /* \"contracts/StorageContract.sol\":4946:4963  _provider_address */\n      dup6\n        /* \"contracts/StorageContract.sol\":4938:4964  Devices[_provider_address] */\n      0xffffffffffffffffffffffffffffffffffffffff\n      and\n      0xffffffffffffffffffffffffffffffffffffffff\n      and\n      dup2\n      mstore\n      0x20\n      add\n      swap1\n      dup2\n      mstore\n      0x20\n      add\n      0x00\n      keccak256\n        /* \"contracts/StorageContract.sol\":4938:4975  Devices[_provider_address].SensorInfo */\n      0x01\n      add\n        /* \"contracts/StorageContract.sol\":4976:4980  _mac */\n      dup4\n        /* \"contracts/StorageContract.sol\":4938:4981  Devices[_provider_address].SensorInfo[_mac] */\n      mload(0x40)\n      tag_71\n      swap2\n      swap1\n      tag_65\n      jump\t// in\n    tag_71:\n      swap1\n      dup2\n      mstore\n      0x20\n      add\n      mload(0x40)\n      dup1\n      swap2\n      sub\n      swap1\n      keccak256\n        /* \"contracts/StorageContract.sol\":4938:4996  Devices[_provider_address].SensorInfo[_mac].SensorDataList */\n      0x02\n      add\n        /* \"contracts/StorageContract.sol\":5003:5004  1 */\n      0x01\n        /* \"contracts/StorageContract.sol\":4997:5000  len */\n      dup3\n        /* \"contracts/StorageContract.sol\":4997:5004  len - 1 */\n      tag_72\n      swap2\n      swap1\n      tag_73\n      jump\t// in\n    tag_72:\n        /* \"contracts/StorageContract.sol\":4938:5005  Devices[_provider_address].SensorInfo[_mac].SensorDataList[len - 1] */\n      dup2\n      sload\n      dup2\n      lt\n      tag_74\n      jumpi\n      tag_75\n      tag_76\n      jump\t// in\n    tag_75:\n    tag_74:\n      swap1\n      0x00\n      mstore\n      keccak256(0x00, 0x20)\n      add\n        /* \"contracts/StorageContract.sol\":4931:5005  return Devices[_provider_address].SensorInfo[_mac].SensorDataList[len - 1] */\n      dup1\n      sload\n      tag_78\n      swap1\n      tag_79\n      jump\t// in\n    tag_78:\n      dup1\n      0x1f\n      add\n      0x20\n      dup1\n      swap2\n      div\n      mul\n      0x20\n      add\n      mload(0x40)\n      swap1\n      dup2\n      add\n      0x40\n      mstore\n      dup1\n      swap3\n      swap2\n      swap1\n      dup2\n      dup2\n      mstore\n      0x20\n      add\n      dup3\n      dup1\n      sload\n      tag_80\n      swap1\n      tag_79\n      jump\t// in\n    tag_80:\n      dup1\n      iszero\n      tag_81\n      jumpi\n      dup1\n      0x1f\n      lt\n      tag_82\n      jumpi\n      0x0100\n      dup1\n      dup4\n      sload\n      div\n      mul\n      dup4\n      mstore\n      swap2\n      0x20\n      add\n      swap2\n      jump(tag_81)\n    tag_82:\n      dup3\n      add\n      swap2\n      swap1\n      0x00\n      mstore\n      keccak256(0x00, 0x20)\n      swap1\n    tag_83:\n      dup2\n      sload\n      dup2\n      mstore\n      swap1\n      0x01\n      add\n      swap1\n      0x20\n      add\n      dup1\n      dup4\n      gt\n      tag_83\n      jumpi\n      dup3\n      swap1\n      sub\n      0x1f\n      and\n      dup3\n      add\n      swap2\n    tag_81:\n      pop\n      pop\n      pop\n      pop\n      pop\n      swap2\n      pop\n      pop\n        /* \"contracts/StorageContract.sol\":4464:5012  function getLastCID(address _provider_address, string memory _mac) public view returns (string memory) {... */\n    tag_60:\n      swap3\n      swap2\n      pop\n      pop\n      jump\t// out\n        /* \"contracts/StorageContract.sol\":1177:1669  function newProvider(address _provider_address) public {... */\n    tag_32:\n        /* \"contracts/StorageContract.sol\":1274:1279  owner */\n      0x00\n      dup1\n      sload\n      swap1\n      0x0100\n      exp\n      swap1\n      div\n      0xffffffffffffffffffffffffffffffffffffffff\n      and\n        /* \"contracts/StorageContract.sol\":1251:1279  payable(msg.sender) == owner */\n      0xffffffffffffffffffffffffffffffffffffffff\n      and\n        /* \"contracts/StorageContract.sol\":1259:1269  msg.sender */\n      caller\n        /* \"contracts/StorageContract.sol\":1251:1279  payable(msg.sender) == owner */\n      0xffffffffffffffffffffffffffffffffffffffff\n      and\n      eq\n        /* \"contracts/StorageContract.sol\":1242:1324  require( payable(msg.sender) == owner, \"Only contract's owner can add a provider\") */\n      tag_85\n      jumpi\n      mload(0x40)\n      0x08c379a000000000000000000000000000000000000000000000000000000000\n      dup2\n      mstore\n      0x04\n      add\n      tag_86\n      swap1\n      tag_87\n      jump\t// in\n    tag_86:\n      mload(0x40)\n      dup1\n      swap2\n      sub\n      swap1\n      revert\n    tag_85:\n        /* \"contracts/StorageContract.sol\":1381:1386  false */\n      0x00\n        /* \"contracts/StorageContract.sol\":1343:1386  Devices[_provider_address].created == false */\n      iszero\n      iszero\n        /* \"contracts/StorageContract.sol\":1343:1350  Devices */\n      0x01\n        /* \"contracts/StorageContract.sol\":1343:1369  Devices[_provider_address] */\n      0x00\n        /* \"contracts/StorageContract.sol\":1351:1368  _provider_address */\n      dup4\n        /* \"contracts/StorageContract.sol\":1343:1369  Devices[_provider_address] */\n      0xffffffffffffffffffffffffffffffffffffffff\n      and\n      0xffffffffffffffffffffffffffffffffffffffff\n      and\n      dup2\n      mstore\n      0x20\n      add\n      swap1\n      dup2\n      mstore\n      0x20\n      add\n      0x00\n      keccak256\n        /* \"contracts/StorageContract.sol\":1343:1377  Devices[_provider_address].created */\n      0x03\n      add\n      0x00\n      swap1\n      sload\n      swap1\n      0x0100\n      exp\n      swap1\n      div\n      0xff\n      and\n        /* \"contracts/StorageContract.sol\":1343:1386  Devices[_provider_address].created == false */\n      iszero\n      iszero\n      eq\n        /* \"contracts/StorageContract.sol\":1334:1417  require( Devices[_provider_address].created == false, \"Provider has already added\") */\n      tag_88\n      jumpi\n      mload(0x40)\n      0x08c379a000000000000000000000000000000000000000000000000000000000\n      dup2\n      mstore\n      0x04\n      add\n      tag_89\n      swap1\n      tag_90\n      jump\t// in\n    tag_89:\n      mload(0x40)\n      dup1\n      swap2\n      sub\n      swap1\n      revert\n    tag_88:\n        /* \"contracts/StorageContract.sol\":1474:1491  _provider_address */\n      dup1\n        /* \"contracts/StorageContract.sol\":1428:1435  Devices */\n      0x01\n        /* \"contracts/StorageContract.sol\":1428:1454  Devices[_provider_address] */\n      0x00\n        /* \"contracts/StorageContract.sol\":1436:1453  _provider_address */\n      dup4\n        /* \"contracts/StorageContract.sol\":1428:1454  Devices[_provider_address] */\n      0xffffffffffffffffffffffffffffffffffffffff\n      and\n      0xffffffffffffffffffffffffffffffffffffffff\n      and\n      dup2\n      mstore\n      0x20\n      add\n      swap1\n      dup2\n      mstore\n      0x20\n      add\n      0x00\n      keccak256\n        /* \"contracts/StorageContract.sol\":1428:1471  Devices[_provider_address].provider_address */\n      0x00\n      add\n      0x00\n        /* \"contracts/StorageContract.sol\":1428:1491  Devices[_provider_address].provider_address = _provider_address */\n      0x0100\n      exp\n      dup2\n      sload\n      dup2\n      0xffffffffffffffffffffffffffffffffffffffff\n      mul\n      not\n      and\n      swap1\n      dup4\n      0xffffffffffffffffffffffffffffffffffffffff\n      and\n      mul\n      or\n      swap1\n      sstore\n      pop\n        /* \"contracts/StorageContract.sol\":1538:1542  true */\n      0x01\n        /* \"contracts/StorageContract.sol\":1501:1508  Devices */\n      dup1\n        /* \"contracts/StorageContract.sol\":1501:1527  Devices[_provider_address] */\n      0x00\n        /* \"contracts/StorageContract.sol\":1509:1526  _provider_address */\n      dup4\n        /* \"contracts/StorageContract.sol\":1501:1527  Devices[_provider_address] */\n      0xffffffffffffffffffffffffffffffffffffffff\n      and\n      0xffffffffffffffffffffffffffffffffffffffff\n      and\n      dup2\n      mstore\n      0x20\n      add\n      swap1\n      dup2\n      mstore\n      0x20\n      add\n      0x00\n      keccak256\n        /* \"contracts/StorageContract.sol\":1501:1535  Devices[_provider_address].created */\n      0x03\n      add\n      0x00\n        /* \"contracts/StorageContract.sol\":1501:1542  Devices[_provider_address].created = true */\n      0x0100\n      exp\n      dup2\n      sload\n      dup2\n      0xff\n      mul\n      not\n      and\n      swap1\n      dup4\n      iszero\n      iszero\n      mul\n      or\n      swap1\n      sstore\n      pop\n        /* \"contracts/StorageContract.sol\":1552:1568  DataProviderList */\n      0x02\n        /* \"contracts/StorageContract.sol\":1574:1591  _provider_address */\n      dup2\n        /* \"contracts/StorageContract.sol\":1552:1592  DataProviderList.push(_provider_address) */\n      swap1\n      dup1\n      0x01\n      dup2\n      sload\n      add\n      dup1\n      dup3\n      sstore\n      dup1\n      swap2\n      pop\n      pop\n      0x01\n      swap1\n      sub\n      swap1\n      0x00\n      mstore\n      keccak256(0x00, 0x20)\n      add\n      0x00\n      swap1\n      swap2\n      swap1\n      swap2\n      swap1\n      swap2\n      0x0100\n      exp\n      dup2\n      sload\n      dup2\n      0xffffffffffffffffffffffffffffffffffffffff\n      mul\n      not\n      and\n      swap1\n      dup4\n      0xffffffffffffffffffffffffffffffffffffffff\n      and\n      mul\n      or\n      swap1\n      sstore\n      pop\n        /* \"contracts/StorageContract.sol\":1627:1644  _provider_address */\n      dup1\n        /* \"contracts/StorageContract.sol\":1608:1662  EventProviderAdded(_provider_address, block.timestamp) */\n      0xffffffffffffffffffffffffffffffffffffffff\n      and\n      0x1b8d6e7edd12ce9bf5cbe0cf36d5e75e86617a943f642908cb445fdadb483051\n        /* \"contracts/StorageContract.sol\":1646:1661  block.timestamp */\n      timestamp\n        /* \"contracts/StorageContract.sol\":1608:1662  EventProviderAdded(_provider_address, block.timestamp) */\n      mload(0x40)\n      tag_92\n      swap2\n      swap1\n      tag_93\n      jump\t// in\n    tag_92:\n      mload(0x40)\n      dup1\n      swap2\n      sub\n      swap1\n      log2\n        /* \"contracts/StorageContract.sol\":1177:1669  function newProvider(address _provider_address) public {... */\n      pop\n      jump\t// out\n        /* \"contracts/StorageContract.sol\":1914:2604  function newSensor(... */\n    tag_36:\n        /* \"contracts/StorageContract.sol\":2065:2089  address recoveredAddress */\n      0x00\n        /* \"contracts/StorageContract.sol\":2092:2120  ecrecover(_hash, _v, _r, _s) */\n      0x01\n        /* \"contracts/StorageContract.sol\":2102:2107  _hash */\n      dup3\n        /* \"contracts/StorageContract.sol\":2109:2111  _v */\n      dup7\n        /* \"contracts/StorageContract.sol\":2113:2115  _r */\n      dup7\n        /* \"contracts/StorageContract.sol\":2117:2119  _s */\n      dup7\n        /* \"contracts/StorageContract.sol\":2092:2120  ecrecover(_hash, _v, _r, _s) */\n      mload(0x40)\n      0x00\n      dup2\n      mstore\n      0x20\n      add\n      0x40\n      mstore\n      mload(0x40)\n      tag_95\n      swap5\n      swap4\n      swap3\n      swap2\n      swap1\n      tag_96\n      jump\t// in\n    tag_95:\n      0x20\n      mload(0x40)\n      0x20\n      dup2\n      sub\n      swap1\n      dup1\n      dup5\n      sub\n      swap1\n      dup6\n      gas\n      staticcall\n      iszero\n      dup1\n      iszero\n      tag_98\n      jumpi\n      returndatasize\n      0x00\n      dup1\n      returndatacopy\n      revert(0x00, returndatasize)\n    tag_98:\n      pop\n      pop\n      pop\n      mload(sub(mload(0x40), 0x20))\n        /* \"contracts/StorageContract.sol\":2065:2120  address recoveredAddress = ecrecover(_hash, _v, _r, _s) */\n      swap1\n      pop\n        /* \"contracts/StorageContract.sol\":2175:2179  true */\n      0x01\n        /* \"contracts/StorageContract.sol\":2138:2179  Devices[recoveredAddress].created == true */\n      iszero\n      iszero\n        /* \"contracts/StorageContract.sol\":2138:2145  Devices */\n      0x01\n        /* \"contracts/StorageContract.sol\":2138:2163  Devices[recoveredAddress] */\n      0x00\n        /* \"contracts/StorageContract.sol\":2146:2162  recoveredAddress */\n      dup4\n        /* \"contracts/StorageContract.sol\":2138:2163  Devices[recoveredAddress] */\n      0xffffffffffffffffffffffffffffffffffffffff\n      and\n      0xffffffffffffffffffffffffffffffffffffffff\n      and\n      dup2\n      mstore\n      0x20\n      add\n      swap1\n      dup2\n      mstore\n      0x20\n      add\n      0x00\n      keccak256\n        /* \"contracts/StorageContract.sol\":2138:2171  Devices[recoveredAddress].created */\n      0x03\n      add\n      0x00\n      swap1\n      sload\n      swap1\n      0x0100\n      exp\n      swap1\n      div\n      0xff\n      and\n        /* \"contracts/StorageContract.sol\":2138:2179  Devices[recoveredAddress].created == true */\n      iszero\n      iszero\n      eq\n        /* \"contracts/StorageContract.sol\":2130:2226  require(Devices[recoveredAddress].created == true, \"Invalid signature, provider doesn't exists\") */\n      tag_99\n      jumpi\n      mload(0x40)\n      0x08c379a000000000000000000000000000000000000000000000000000000000\n      dup2\n      mstore\n      0x04\n      add\n      tag_100\n      swap1\n      tag_101\n      jump\t// in\n    tag_100:\n      mload(0x40)\n      dup1\n      swap2\n      sub\n      swap1\n      revert\n    tag_99:\n        /* \"contracts/StorageContract.sol\":2298:2303  false */\n      0x00\n        /* \"contracts/StorageContract.sol\":2244:2303  Devices[recoveredAddress].SensorInfo[_mac].created == false */\n      iszero\n      iszero\n        /* \"contracts/StorageContract.sol\":2244:2251  Devices */\n      0x01\n        /* \"contracts/StorageContract.sol\":2244:2269  Devices[recoveredAddress] */\n      0x00\n        /* \"contracts/StorageContract.sol\":2252:2268  recoveredAddress */\n      dup4\n        /* \"contracts/StorageContract.sol\":2244:2269  Devices[recoveredAddress] */\n      0xffffffffffffffffffffffffffffffffffffffff\n      and\n      0xffffffffffffffffffffffffffffffffffffffff\n      and\n      dup2\n      mstore\n      0x20\n      add\n      swap1\n      dup2\n      mstore\n      0x20\n      add\n      0x00\n      keccak256\n        /* \"contracts/StorageContract.sol\":2244:2280  Devices[recoveredAddress].SensorInfo */\n      0x01\n      add\n        /* \"contracts/StorageContract.sol\":2281:2285  _mac */\n      dup8\n        /* \"contracts/StorageContract.sol\":2244:2286  Devices[recoveredAddress].SensorInfo[_mac] */\n      mload(0x40)\n      tag_102\n      swap2\n      swap1\n      tag_65\n      jump\t// in\n    tag_102:\n      swap1\n      dup2\n      mstore\n      0x20\n      add\n      mload(0x40)\n      dup1\n      swap2\n      sub\n      swap1\n      keccak256\n        /* \"contracts/StorageContract.sol\":2244:2294  Devices[recoveredAddress].SensorInfo[_mac].created */\n      0x03\n      add\n      0x00\n      swap1\n      sload\n      swap1\n      0x0100\n      exp\n      swap1\n      div\n      0xff\n      and\n        /* \"contracts/StorageContract.sol\":2244:2303  Devices[recoveredAddress].SensorInfo[_mac].created == false */\n      iszero\n      iszero\n      eq\n        /* \"contracts/StorageContract.sol\":2236:2332  require(Devices[recoveredAddress].SensorInfo[_mac].created == false, \"Sensor has already added\") */\n      tag_103\n      jumpi\n      mload(0x40)\n      0x08c379a000000000000000000000000000000000000000000000000000000000\n      dup2\n      mstore\n      0x04\n      add\n      tag_104\n      swap1\n      tag_105\n      jump\t// in\n    tag_104:\n      mload(0x40)\n      dup1\n      swap2\n      sub\n      swap1\n      revert\n    tag_103:\n        /* \"contracts/StorageContract.sol\":2392:2396  _mac */\n      dup6\n        /* \"contracts/StorageContract.sol\":2343:2350  Devices */\n      0x01\n        /* \"contracts/StorageContract.sol\":2343:2368  Devices[recoveredAddress] */\n      0x00\n        /* \"contracts/StorageContract.sol\":2351:2367  recoveredAddress */\n      dup4\n        /* \"contracts/StorageContract.sol\":2343:2368  Devices[recoveredAddress] */\n      0xffffffffffffffffffffffffffffffffffffffff\n      and\n      0xffffffffffffffffffffffffffffffffffffffff\n      and\n      dup2\n      mstore\n      0x20\n      add\n      swap1\n      dup2\n      mstore\n      0x20\n      add\n      0x00\n      keccak256\n        /* \"contracts/StorageContract.sol\":2343:2379  Devices[recoveredAddress].SensorInfo */\n      0x01\n      add\n        /* \"contracts/StorageContract.sol\":2380:2384  _mac */\n      dup8\n        /* \"contracts/StorageContract.sol\":2343:2385  Devices[recoveredAddress].SensorInfo[_mac] */\n      mload(0x40)\n      tag_106\n      swap2\n      swap1\n      tag_65\n      jump\t// in\n    tag_106:\n      swap1\n      dup2\n      mstore\n      0x20\n      add\n      mload(0x40)\n      dup1\n      swap2\n      sub\n      swap1\n      keccak256\n        /* \"contracts/StorageContract.sol\":2343:2389  Devices[recoveredAddress].SensorInfo[_mac].mac */\n      0x00\n      add\n        /* \"contracts/StorageContract.sol\":2343:2396  Devices[recoveredAddress].SensorInfo[_mac].mac = _mac */\n      swap1\n      dup2\n      tag_107\n      swap2\n      swap1\n      tag_108\n      jump\t// in\n    tag_107:\n      pop\n        /* \"contracts/StorageContract.sol\":2459:2463  true */\n      0x01\n        /* \"contracts/StorageContract.sol\":2406:2413  Devices */\n      dup1\n        /* \"contracts/StorageContract.sol\":2406:2431  Devices[recoveredAddress] */\n      0x00\n        /* \"contracts/StorageContract.sol\":2414:2430  recoveredAddress */\n      dup4\n        /* \"contracts/StorageContract.sol\":2406:2431  Devices[recoveredAddress] */\n      0xffffffffffffffffffffffffffffffffffffffff\n      and\n      0xffffffffffffffffffffffffffffffffffffffff\n      and\n      dup2\n      mstore\n      0x20\n      add\n      swap1\n      dup2\n      mstore\n      0x20\n      add\n      0x00\n      keccak256\n        /* \"contracts/StorageContract.sol\":2406:2442  Devices[recoveredAddress].SensorInfo */\n      0x01\n      add\n        /* \"contracts/StorageContract.sol\":2443:2447  _mac */\n      dup8\n        /* \"contracts/StorageContract.sol\":2406:2448  Devices[recoveredAddress].SensorInfo[_mac] */\n      mload(0x40)\n      tag_109\n      swap2\n      swap1\n      tag_65\n      jump\t// in\n    tag_109:\n      swap1\n      dup2\n      mstore\n      0x20\n      add\n      mload(0x40)\n      dup1\n      swap2\n      sub\n      swap1\n      keccak256\n        /* \"contracts/StorageContract.sol\":2406:2456  Devices[recoveredAddress].SensorInfo[_mac].created */\n      0x03\n      add\n      0x00\n        /* \"contracts/StorageContract.sol\":2406:2463  Devices[recoveredAddress].SensorInfo[_mac].created = true */\n      0x0100\n      exp\n      dup2\n      sload\n      dup2\n      0xff\n      mul\n      not\n      and\n      swap1\n      dup4\n      iszero\n      iszero\n      mul\n      or\n      swap1\n      sstore\n      pop\n        /* \"contracts/StorageContract.sol\":2473:2480  Devices */\n      0x01\n        /* \"contracts/StorageContract.sol\":2473:2498  Devices[recoveredAddress] */\n      0x00\n        /* \"contracts/StorageContract.sol\":2481:2497  recoveredAddress */\n      dup3\n        /* \"contracts/StorageContract.sol\":2473:2498  Devices[recoveredAddress] */\n      0xffffffffffffffffffffffffffffffffffffffff\n      and\n      0xffffffffffffffffffffffffffffffffffffffff\n      and\n      dup2\n      mstore\n      0x20\n      add\n      swap1\n      dup2\n      mstore\n      0x20\n      add\n      0x00\n      keccak256\n        /* \"contracts/StorageContract.sol\":2473:2513  Devices[recoveredAddress].SensorInfoList */\n      0x02\n      add\n        /* \"contracts/StorageContract.sol\":2519:2523  _mac */\n      dup7\n        /* \"contracts/StorageContract.sol\":2473:2524  Devices[recoveredAddress].SensorInfoList.push(_mac) */\n      swap1\n      dup1\n      0x01\n      dup2\n      sload\n      add\n      dup1\n      dup3\n      sstore\n      dup1\n      swap2\n      pop\n      pop\n      0x01\n      swap1\n      sub\n      swap1\n      0x00\n      mstore\n      keccak256(0x00, 0x20)\n      add\n      0x00\n      swap1\n      swap2\n      swap1\n      swap2\n      swap1\n      swap2\n      pop\n      swap1\n      dup2\n      tag_111\n      swap2\n      swap1\n      tag_108\n      jump\t// in\n    tag_111:\n      pop\n        /* \"contracts/StorageContract.sol\":2557:2573  recoveredAddress */\n      dup1\n        /* \"contracts/StorageContract.sol\":2540:2597  EventSensorAdded(recoveredAddress, _mac, block.timestamp) */\n      0xffffffffffffffffffffffffffffffffffffffff\n      and\n      0x54c4764e35db3b768b99b60a6d4768f57731e91c4f672b4b8f19c36632152836\n        /* \"contracts/StorageContract.sol\":2575:2579  _mac */\n      dup8\n        /* \"contracts/StorageContract.sol\":2581:2596  block.timestamp */\n      timestamp\n        /* \"contracts/StorageContract.sol\":2540:2597  EventSensorAdded(recoveredAddress, _mac, block.timestamp) */\n      mload(0x40)\n      tag_112\n      swap3\n      swap2\n      swap1\n      tag_113\n      jump\t// in\n    tag_112:\n      mload(0x40)\n      dup1\n      swap2\n      sub\n      swap1\n      log2\n        /* \"contracts/StorageContract.sol\":2055:2604  {... */\n      pop\n        /* \"contracts/StorageContract.sol\":1914:2604  function newSensor(... */\n      pop\n      pop\n      pop\n      pop\n      pop\n      jump\t// out\n        /* \"contracts/StorageContract.sol\":680:727  mapping(address => DataProvider) public Devices */\n    tag_39:\n      mstore(0x20, 0x01)\n      dup1\n      0x00\n      mstore\n      keccak256(0x00, 0x40)\n      0x00\n      swap2\n      pop\n      swap1\n      pop\n      dup1\n      0x00\n      add\n      0x00\n      swap1\n      sload\n      swap1\n      0x0100\n      exp\n      swap1\n      div\n      0xffffffffffffffffffffffffffffffffffffffff\n      and\n      swap1\n      dup1\n      0x03\n      add\n      0x00\n      swap1\n      sload\n      swap1\n      0x0100\n      exp\n      swap1\n      div\n      0xff\n      and\n      swap1\n      pop\n      dup3\n      jump\t// out\n        /* \"contracts/StorageContract.sol\":2845:4102  function newData(... */\n    tag_45:\n        /* \"contracts/StorageContract.sol\":3078:3102  address recoveredAddress */\n      0x00\n        /* \"contracts/StorageContract.sol\":3105:3133  ecrecover(_hash, _v, _r, _s) */\n      0x01\n        /* \"contracts/StorageContract.sol\":3115:3120  _hash */\n      dup3\n        /* \"contracts/StorageContract.sol\":3122:3124  _v */\n      dup7\n        /* \"contracts/StorageContract.sol\":3126:3128  _r */\n      dup7\n        /* \"contracts/StorageContract.sol\":3130:3132  _s */\n      dup7\n        /* \"contracts/StorageContract.sol\":3105:3133  ecrecover(_hash, _v, _r, _s) */\n      mload(0x40)\n      0x00\n      dup2\n      mstore\n      0x20\n      add\n      0x40\n      mstore\n      mload(0x40)\n      tag_115\n      swap5\n      swap4\n      swap3\n      swap2\n      swap1\n      tag_96\n      jump\t// in\n    tag_115:\n      0x20\n      mload(0x40)\n      0x20\n      dup2\n      sub\n      swap1\n      dup1\n      dup5\n      sub\n      swap1\n      dup6\n      gas\n      staticcall\n      iszero\n      dup1\n      iszero\n      tag_117\n      jumpi\n      returndatasize\n      0x00\n      dup1\n      returndatacopy\n      revert(0x00, returndatasize)\n    tag_117:\n      pop\n      pop\n      pop\n      mload(sub(mload(0x40), 0x20))\n        /* \"contracts/StorageContract.sol\":3078:3133  address recoveredAddress = ecrecover(_hash, _v, _r, _s) */\n      swap1\n      pop\n        /* \"contracts/StorageContract.sol\":3188:3192  true */\n      0x01\n        /* \"contracts/StorageContract.sol\":3151:3192  Devices[recoveredAddress].created == true */\n      iszero\n      iszero\n        /* \"contracts/StorageContract.sol\":3151:3158  Devices */\n      0x01\n        /* \"contracts/StorageContract.sol\":3151:3176  Devices[recoveredAddress] */\n      0x00\n        /* \"contracts/StorageContract.sol\":3159:3175  recoveredAddress */\n      dup4\n        /* \"contracts/StorageContract.sol\":3151:3176  Devices[recoveredAddress] */\n      0xffffffffffffffffffffffffffffffffffffffff\n      and\n      0xffffffffffffffffffffffffffffffffffffffff\n      and\n      dup2\n      mstore\n      0x20\n      add\n      swap1\n      dup2\n      mstore\n      0x20\n      add\n      0x00\n      keccak256\n        /* \"contracts/StorageContract.sol\":3151:3184  Devices[recoveredAddress].created */\n      0x03\n      add\n      0x00\n      swap1\n      sload\n      swap1\n      0x0100\n      exp\n      swap1\n      div\n      0xff\n      and\n        /* \"contracts/StorageContract.sol\":3151:3192  Devices[recoveredAddress].created == true */\n      iszero\n      iszero\n      eq\n        /* \"contracts/StorageContract.sol\":3143:3239  require(Devices[recoveredAddress].created == true, \"Invalid signature, provider doesn't exists\") */\n      tag_118\n      jumpi\n      mload(0x40)\n      0x08c379a000000000000000000000000000000000000000000000000000000000\n      dup2\n      mstore\n      0x04\n      add\n      tag_119\n      swap1\n      tag_101\n      jump\t// in\n    tag_119:\n      mload(0x40)\n      dup1\n      swap2\n      sub\n      swap1\n      revert\n    tag_118:\n        /* \"contracts/StorageContract.sol\":3277:3287  msg.sender */\n      caller\n        /* \"contracts/StorageContract.sol\":3257:3287  recoveredAddress == msg.sender */\n      0xffffffffffffffffffffffffffffffffffffffff\n      and\n        /* \"contracts/StorageContract.sol\":3257:3273  recoveredAddress */\n      dup2\n        /* \"contracts/StorageContract.sol\":3257:3287  recoveredAddress == msg.sender */\n      0xffffffffffffffffffffffffffffffffffffffff\n      and\n      eq\n        /* \"contracts/StorageContract.sol\":3249:3325  require(recoveredAddress == msg.sender, \"Only provider can upload new data\") */\n      tag_120\n      jumpi\n      mload(0x40)\n      0x08c379a000000000000000000000000000000000000000000000000000000000\n      dup2\n      mstore\n      0x04\n      add\n      tag_121\n      swap1\n      tag_122\n      jump\t// in\n    tag_121:\n      mload(0x40)\n      dup1\n      swap2\n      sub\n      swap1\n      revert\n    tag_120:\n        /* \"contracts/StorageContract.sol\":3397:3401  true */\n      0x01\n        /* \"contracts/StorageContract.sol\":3343:3401  Devices[recoveredAddress].SensorInfo[_mac].created == true */\n      iszero\n      iszero\n        /* \"contracts/StorageContract.sol\":3343:3350  Devices */\n      0x01\n        /* \"contracts/StorageContract.sol\":3343:3368  Devices[recoveredAddress] */\n      0x00\n        /* \"contracts/StorageContract.sol\":3351:3367  recoveredAddress */\n      dup4\n        /* \"contracts/StorageContract.sol\":3343:3368  Devices[recoveredAddress] */\n      0xffffffffffffffffffffffffffffffffffffffff\n      and\n      0xffffffffffffffffffffffffffffffffffffffff\n      and\n      dup2\n      mstore\n      0x20\n      add\n      swap1\n      dup2\n      mstore\n      0x20\n      add\n      0x00\n      keccak256\n        /* \"contracts/StorageContract.sol\":3343:3379  Devices[recoveredAddress].SensorInfo */\n      0x01\n      add\n        /* \"contracts/StorageContract.sol\":3380:3384  _mac */\n      dup11\n        /* \"contracts/StorageContract.sol\":3343:3385  Devices[recoveredAddress].SensorInfo[_mac] */\n      mload(0x40)\n      tag_123\n      swap2\n      swap1\n      tag_65\n      jump\t// in\n    tag_123:\n      swap1\n      dup2\n      mstore\n      0x20\n      add\n      mload(0x40)\n      dup1\n      swap2\n      sub\n      swap1\n      keccak256\n        /* \"contracts/StorageContract.sol\":3343:3393  Devices[recoveredAddress].SensorInfo[_mac].created */\n      0x03\n      add\n      0x00\n      swap1\n      sload\n      swap1\n      0x0100\n      exp\n      swap1\n      div\n      0xff\n      and\n        /* \"contracts/StorageContract.sol\":3343:3401  Devices[recoveredAddress].SensorInfo[_mac].created == true */\n      iszero\n      iszero\n      eq\n        /* \"contracts/StorageContract.sol\":3335:3427  require(Devices[recoveredAddress].SensorInfo[_mac].created == true, \"Sensor doesn't exists\") */\n      tag_124\n      jumpi\n      mload(0x40)\n      0x08c379a000000000000000000000000000000000000000000000000000000000\n      dup2\n      mstore\n      0x04\n      add\n      tag_125\n      swap1\n      tag_126\n      jump\t// in\n    tag_125:\n      mload(0x40)\n      dup1\n      swap2\n      sub\n      swap1\n      revert\n    tag_124:\n        /* \"contracts/StorageContract.sol\":3498:3502  _cid */\n      dup8\n        /* \"contracts/StorageContract.sol\":3438:3445  Devices */\n      0x01\n        /* \"contracts/StorageContract.sol\":3438:3463  Devices[recoveredAddress] */\n      0x00\n        /* \"contracts/StorageContract.sol\":3446:3462  recoveredAddress */\n      dup4\n        /* \"contracts/StorageContract.sol\":3438:3463  Devices[recoveredAddress] */\n      0xffffffffffffffffffffffffffffffffffffffff\n      and\n      0xffffffffffffffffffffffffffffffffffffffff\n      and\n      dup2\n      mstore\n      0x20\n      add\n      swap1\n      dup2\n      mstore\n      0x20\n      add\n      0x00\n      keccak256\n        /* \"contracts/StorageContract.sol\":3438:3474  Devices[recoveredAddress].SensorInfo */\n      0x01\n      add\n        /* \"contracts/StorageContract.sol\":3475:3479  _mac */\n      dup11\n        /* \"contracts/StorageContract.sol\":3438:3480  Devices[recoveredAddress].SensorInfo[_mac] */\n      mload(0x40)\n      tag_127\n      swap2\n      swap1\n      tag_65\n      jump\t// in\n    tag_127:\n      swap1\n      dup2\n      mstore\n      0x20\n      add\n      mload(0x40)\n      dup1\n      swap2\n      sub\n      swap1\n      keccak256\n        /* \"contracts/StorageContract.sol\":3438:3485  Devices[recoveredAddress].SensorInfo[_mac].Data */\n      0x01\n      add\n        /* \"contracts/StorageContract.sol\":3486:3490  _cid */\n      dup10\n        /* \"contracts/StorageContract.sol\":3438:3491  Devices[recoveredAddress].SensorInfo[_mac].Data[_cid] */\n      mload(0x40)\n      tag_128\n      swap2\n      swap1\n      tag_65\n      jump\t// in\n    tag_128:\n      swap1\n      dup2\n      mstore\n      0x20\n      add\n      mload(0x40)\n      dup1\n      swap2\n      sub\n      swap1\n      keccak256\n        /* \"contracts/StorageContract.sol\":3438:3495  Devices[recoveredAddress].SensorInfo[_mac].Data[_cid].cid */\n      0x00\n      add\n        /* \"contracts/StorageContract.sol\":3438:3502  Devices[recoveredAddress].SensorInfo[_mac].Data[_cid].cid = _cid */\n      swap1\n      dup2\n      tag_129\n      swap2\n      swap1\n      tag_108\n      jump\t// in\n    tag_129:\n      pop\n        /* \"contracts/StorageContract.sol\":3572:3576  _url */\n      dup7\n        /* \"contracts/StorageContract.sol\":3512:3519  Devices */\n      0x01\n        /* \"contracts/StorageContract.sol\":3512:3537  Devices[recoveredAddress] */\n      0x00\n        /* \"contracts/StorageContract.sol\":3520:3536  recoveredAddress */\n      dup4\n        /* \"contracts/StorageContract.sol\":3512:3537  Devices[recoveredAddress] */\n      0xffffffffffffffffffffffffffffffffffffffff\n      and\n      0xffffffffffffffffffffffffffffffffffffffff\n      and\n      dup2\n      mstore\n      0x20\n      add\n      swap1\n      dup2\n      mstore\n      0x20\n      add\n      0x00\n      keccak256\n        /* \"contracts/StorageContract.sol\":3512:3548  Devices[recoveredAddress].SensorInfo */\n      0x01\n      add\n        /* \"contracts/StorageContract.sol\":3549:3553  _mac */\n      dup11\n        /* \"contracts/StorageContract.sol\":3512:3554  Devices[recoveredAddress].SensorInfo[_mac] */\n      mload(0x40)\n      tag_130\n      swap2\n      swap1\n      tag_65\n      jump\t// in\n    tag_130:\n      swap1\n      dup2\n      mstore\n      0x20\n      add\n      mload(0x40)\n      dup1\n      swap2\n      sub\n      swap1\n      keccak256\n        /* \"contracts/StorageContract.sol\":3512:3559  Devices[recoveredAddress].SensorInfo[_mac].Data */\n      0x01\n      add\n        /* \"contracts/StorageContract.sol\":3560:3564  _cid */\n      dup10\n        /* \"contracts/StorageContract.sol\":3512:3565  Devices[recoveredAddress].SensorInfo[_mac].Data[_cid] */\n      mload(0x40)\n      tag_131\n      swap2\n      swap1\n      tag_65\n      jump\t// in\n    tag_131:\n      swap1\n      dup2\n      mstore\n      0x20\n      add\n      mload(0x40)\n      dup1\n      swap2\n      sub\n      swap1\n      keccak256\n        /* \"contracts/StorageContract.sol\":3512:3569  Devices[recoveredAddress].SensorInfo[_mac].Data[_cid].url */\n      0x01\n      add\n        /* \"contracts/StorageContract.sol\":3512:3576  Devices[recoveredAddress].SensorInfo[_mac].Data[_cid].url = _url */\n      swap1\n      dup2\n      tag_132\n      swap2\n      swap1\n      tag_108\n      jump\t// in\n    tag_132:\n      pop\n        /* \"contracts/StorageContract.sol\":3652:3662  _timestamp */\n      dup6\n        /* \"contracts/StorageContract.sol\":3586:3593  Devices */\n      0x01\n        /* \"contracts/StorageContract.sol\":3586:3611  Devices[recoveredAddress] */\n      0x00\n        /* \"contracts/StorageContract.sol\":3594:3610  recoveredAddress */\n      dup4\n        /* \"contracts/StorageContract.sol\":3586:3611  Devices[recoveredAddress] */\n      0xffffffffffffffffffffffffffffffffffffffff\n      and\n      0xffffffffffffffffffffffffffffffffffffffff\n      and\n      dup2\n      mstore\n      0x20\n      add\n      swap1\n      dup2\n      mstore\n      0x20\n      add\n      0x00\n      keccak256\n        /* \"contracts/StorageContract.sol\":3586:3622  Devices[recoveredAddress].SensorInfo */\n      0x01\n      add\n        /* \"contracts/StorageContract.sol\":3623:3627  _mac */\n      dup11\n        /* \"contracts/StorageContract.sol\":3586:3628  Devices[recoveredAddress].SensorInfo[_mac] */\n      mload(0x40)\n      tag_133\n      swap2\n      swap1\n      tag_65\n      jump\t// in\n    tag_133:\n      swap1\n      dup2\n      mstore\n      0x20\n      add\n      mload(0x40)\n      dup1\n      swap2\n      sub\n      swap1\n      keccak256\n        /* \"contracts/StorageContract.sol\":3586:3633  Devices[recoveredAddress].SensorInfo[_mac].Data */\n      0x01\n      add\n        /* \"contracts/StorageContract.sol\":3634:3638  _cid */\n      dup10\n        /* \"contracts/StorageContract.sol\":3586:3639  Devices[recoveredAddress].SensorInfo[_mac].Data[_cid] */\n      mload(0x40)\n      tag_134\n      swap2\n      swap1\n      tag_65\n      jump\t// in\n    tag_134:\n      swap1\n      dup2\n      mstore\n      0x20\n      add\n      mload(0x40)\n      dup1\n      swap2\n      sub\n      swap1\n      keccak256\n        /* \"contracts/StorageContract.sol\":3586:3649  Devices[recoveredAddress].SensorInfo[_mac].Data[_cid].timestamp */\n      0x02\n      add\n        /* \"contracts/StorageContract.sol\":3586:3662  Devices[recoveredAddress].SensorInfo[_mac].Data[_cid].timestamp = _timestamp */\n      dup2\n      swap1\n      sstore\n      pop\n        /* \"contracts/StorageContract.sol\":3730:3732  _v */\n      dup5\n        /* \"contracts/StorageContract.sol\":3672:3679  Devices */\n      0x01\n        /* \"contracts/StorageContract.sol\":3672:3697  Devices[recoveredAddress] */\n      0x00\n        /* \"contracts/StorageContract.sol\":3680:3696  recoveredAddress */\n      dup4\n        /* \"contracts/StorageContract.sol\":3672:3697  Devices[recoveredAddress] */\n      0xffffffffffffffffffffffffffffffffffffffff\n      and\n      0xffffffffffffffffffffffffffffffffffffffff\n      and\n      dup2\n      mstore\n      0x20\n      add\n      swap1\n      dup2\n      mstore\n      0x20\n      add\n      0x00\n      keccak256\n        /* \"contracts/StorageContract.sol\":3672:3708  Devices[recoveredAddress].SensorInfo */\n      0x01\n      add\n        /* \"contracts/StorageContract.sol\":3709:3713  _mac */\n      dup11\n        /* \"contracts/StorageContract.sol\":3672:3714  Devices[recoveredAddress].SensorInfo[_mac] */\n      mload(0x40)\n      tag_135\n      swap2\n      swap1\n      tag_65\n      jump\t// in\n    tag_135:\n      swap1\n      dup2\n      mstore\n      0x20\n      add\n      mload(0x40)\n      dup1\n      swap2\n      sub\n      swap1\n      keccak256\n        /* \"contracts/StorageContract.sol\":3672:3719  Devices[recoveredAddress].SensorInfo[_mac].Data */\n      0x01\n      add\n        /* \"contracts/StorageContract.sol\":3720:3724  _cid */\n      dup10\n        /* \"contracts/StorageContract.sol\":3672:3725  Devices[recoveredAddress].SensorInfo[_mac].Data[_cid] */\n      mload(0x40)\n      tag_136\n      swap2\n      swap1\n      tag_65\n      jump\t// in\n    tag_136:\n      swap1\n      dup2\n      mstore\n      0x20\n      add\n      mload(0x40)\n      dup1\n      swap2\n      sub\n      swap1\n      keccak256\n        /* \"contracts/StorageContract.sol\":3672:3727  Devices[recoveredAddress].SensorInfo[_mac].Data[_cid].v */\n      0x03\n      add\n      0x00\n        /* \"contracts/StorageContract.sol\":3672:3732  Devices[recoveredAddress].SensorInfo[_mac].Data[_cid].v = _v */\n      0x0100\n      exp\n      dup2\n      sload\n      dup2\n      0xff\n      mul\n      not\n      and\n      swap1\n      dup4\n      0xff\n      and\n      mul\n      or\n      swap1\n      sstore\n      pop\n        /* \"contracts/StorageContract.sol\":3800:3802  _r */\n      dup4\n        /* \"contracts/StorageContract.sol\":3742:3749  Devices */\n      0x01\n        /* \"contracts/StorageContract.sol\":3742:3767  Devices[recoveredAddress] */\n      0x00\n        /* \"contracts/StorageContract.sol\":3750:3766  recoveredAddress */\n      dup4\n        /* \"contracts/StorageContract.sol\":3742:3767  Devices[recoveredAddress] */\n      0xffffffffffffffffffffffffffffffffffffffff\n      and\n      0xffffffffffffffffffffffffffffffffffffffff\n      and\n      dup2\n      mstore\n      0x20\n      add\n      swap1\n      dup2\n      mstore\n      0x20\n      add\n      0x00\n      keccak256\n        /* \"contracts/StorageContract.sol\":3742:3778  Devices[recoveredAddress].SensorInfo */\n      0x01\n      add\n        /* \"contracts/StorageContract.sol\":3779:3783  _mac */\n      dup11\n        /* \"contracts/StorageContract.sol\":3742:3784  Devices[recoveredAddress].SensorInfo[_mac] */\n      mload(0x40)\n      tag_137\n      swap2\n      swap1\n      tag_65\n      jump\t// in\n    tag_137:\n      swap1\n      dup2\n      mstore\n      0x20\n      add\n      mload(0x40)\n      dup1\n      swap2\n      sub\n      swap1\n      keccak256\n        /* \"contracts/StorageContract.sol\":3742:3789  Devices[recoveredAddress].SensorInfo[_mac].Data */\n      0x01\n      add\n        /* \"contracts/StorageContract.sol\":3790:3794  _cid */\n      dup10\n        /* \"contracts/StorageContract.sol\":3742:3795  Devices[recoveredAddress].SensorInfo[_mac].Data[_cid] */\n      mload(0x40)\n      tag_138\n      swap2\n      swap1\n      tag_65\n      jump\t// in\n    tag_138:\n      swap1\n      dup2\n      mstore\n      0x20\n      add\n      mload(0x40)\n      dup1\n      swap2\n      sub\n      swap1\n      keccak256\n        /* \"contracts/StorageContract.sol\":3742:3797  Devices[recoveredAddress].SensorInfo[_mac].Data[_cid].r */\n      0x04\n      add\n        /* \"contracts/StorageContract.sol\":3742:3802  Devices[recoveredAddress].SensorInfo[_mac].Data[_cid].r = _r */\n      dup2\n      swap1\n      sstore\n      pop\n        /* \"contracts/StorageContract.sol\":3870:3872  _s */\n      dup3\n        /* \"contracts/StorageContract.sol\":3812:3819  Devices */\n      0x01\n        /* \"contracts/StorageContract.sol\":3812:3837  Devices[recoveredAddress] */\n      0x00\n        /* \"contracts/StorageContract.sol\":3820:3836  recoveredAddress */\n      dup4\n        /* \"contracts/StorageContract.sol\":3812:3837  Devices[recoveredAddress] */\n      0xffffffffffffffffffffffffffffffffffffffff\n      and\n      0xffffffffffffffffffffffffffffffffffffffff\n      and\n      dup2\n      mstore\n      0x20\n      add\n      swap1\n      dup2\n      mstore\n      0x20\n      add\n      0x00\n      keccak256\n        /* \"contracts/StorageContract.sol\":3812:3848  Devices[recoveredAddress].SensorInfo */\n      0x01\n      add\n        /* \"contracts/StorageContract.sol\":3849:3853  _mac */\n      dup11\n        /* \"contracts/StorageContract.sol\":3812:3854  Devices[recoveredAddress].SensorInfo[_mac] */\n      mload(0x40)\n      tag_139\n      swap2\n      swap1\n      tag_65\n      jump\t// in\n    tag_139:\n      swap1\n      dup2\n      mstore\n      0x20\n      add\n      mload(0x40)\n      dup1\n      swap2\n      sub\n      swap1\n      keccak256\n        /* \"contracts/StorageContract.sol\":3812:3859  Devices[recoveredAddress].SensorInfo[_mac].Data */\n      0x01\n      add\n        /* \"contracts/StorageContract.sol\":3860:3864  _cid */\n      dup10\n        /* \"contracts/StorageContract.sol\":3812:3865  Devices[recoveredAddress].SensorInfo[_mac].Data[_cid] */\n      mload(0x40)\n      tag_140\n      swap2\n      swap1\n      tag_65\n      jump\t// in\n    tag_140:\n      swap1\n      dup2\n      mstore\n      0x20\n      add\n      mload(0x40)\n      dup1\n      swap2\n      sub\n      swap1\n      keccak256\n        /* \"contracts/StorageContract.sol\":3812:3867  Devices[recoveredAddress].SensorInfo[_mac].Data[_cid].s */\n      0x05\n      add\n        /* \"contracts/StorageContract.sol\":3812:3872  Devices[recoveredAddress].SensorInfo[_mac].Data[_cid].s = _s */\n      dup2\n      swap1\n      sstore\n      pop\n        /* \"contracts/StorageContract.sol\":3946:3950  true */\n      0x01\n        /* \"contracts/StorageContract.sol\":3882:3889  Devices */\n      dup1\n        /* \"contracts/StorageContract.sol\":3882:3907  Devices[recoveredAddress] */\n      0x00\n        /* \"contracts/StorageContract.sol\":3890:3906  recoveredAddress */\n      dup4\n        /* \"contracts/StorageContract.sol\":3882:3907  Devices[recoveredAddress] */\n      0xffffffffffffffffffffffffffffffffffffffff\n      and\n      0xffffffffffffffffffffffffffffffffffffffff\n      and\n      dup2\n      mstore\n      0x20\n      add\n      swap1\n      dup2\n      mstore\n      0x20\n      add\n      0x00\n      keccak256\n        /* \"contracts/StorageContract.sol\":3882:3918  Devices[recoveredAddress].SensorInfo */\n      0x01\n      add\n        /* \"contracts/StorageContract.sol\":3919:3923  _mac */\n      dup11\n        /* \"contracts/StorageContract.sol\":3882:3924  Devices[recoveredAddress].SensorInfo[_mac] */\n      mload(0x40)\n      tag_141\n      swap2\n      swap1\n      tag_65\n      jump\t// in\n    tag_141:\n      swap1\n      dup2\n      mstore\n      0x20\n      add\n      mload(0x40)\n      dup1\n      swap2\n      sub\n      swap1\n      keccak256\n        /* \"contracts/StorageContract.sol\":3882:3929  Devices[recoveredAddress].SensorInfo[_mac].Data */\n      0x01\n      add\n        /* \"contracts/StorageContract.sol\":3930:3934  _cid */\n      dup10\n        /* \"contracts/StorageContract.sol\":3882:3935  Devices[recoveredAddress].SensorInfo[_mac].Data[_cid] */\n      mload(0x40)\n      tag_142\n      swap2\n      swap1\n      tag_65\n      jump\t// in\n    tag_142:\n      swap1\n      dup2\n      mstore\n      0x20\n      add\n      mload(0x40)\n      dup1\n      swap2\n      sub\n      swap1\n      keccak256\n        /* \"contracts/StorageContract.sol\":3882:3943  Devices[recoveredAddress].SensorInfo[_mac].Data[_cid].created */\n      0x07\n      add\n      0x00\n        /* \"contracts/StorageContract.sol\":3882:3950  Devices[recoveredAddress].SensorInfo[_mac].Data[_cid].created = true */\n      0x0100\n      exp\n      dup2\n      sload\n      dup2\n      0xff\n      mul\n      not\n      and\n      swap1\n      dup4\n      iszero\n      iszero\n      mul\n      or\n      swap1\n      sstore\n      pop\n        /* \"contracts/StorageContract.sol\":3961:3968  Devices */\n      0x01\n        /* \"contracts/StorageContract.sol\":3961:3986  Devices[recoveredAddress] */\n      0x00\n        /* \"contracts/StorageContract.sol\":3969:3985  recoveredAddress */\n      dup3\n        /* \"contracts/StorageContract.sol\":3961:3986  Devices[recoveredAddress] */\n      0xffffffffffffffffffffffffffffffffffffffff\n      and\n      0xffffffffffffffffffffffffffffffffffffffff\n      and\n      dup2\n      mstore\n      0x20\n      add\n      swap1\n      dup2\n      mstore\n      0x20\n      add\n      0x00\n      keccak256\n        /* \"contracts/StorageContract.sol\":3961:3997  Devices[recoveredAddress].SensorInfo */\n      0x01\n      add\n        /* \"contracts/StorageContract.sol\":3998:4002  _mac */\n      dup10\n        /* \"contracts/StorageContract.sol\":3961:4003  Devices[recoveredAddress].SensorInfo[_mac] */\n      mload(0x40)\n      tag_143\n      swap2\n      swap1\n      tag_65\n      jump\t// in\n    tag_143:\n      swap1\n      dup2\n      mstore\n      0x20\n      add\n      mload(0x40)\n      dup1\n      swap2\n      sub\n      swap1\n      keccak256\n        /* \"contracts/StorageContract.sol\":3961:4018  Devices[recoveredAddress].SensorInfo[_mac].SensorDataList */\n      0x02\n      add\n        /* \"contracts/StorageContract.sol\":4024:4028  _cid */\n      dup9\n        /* \"contracts/StorageContract.sol\":3961:4029  Devices[recoveredAddress].SensorInfo[_mac].SensorDataList.push(_cid) */\n      swap1\n      dup1\n      0x01\n      dup2\n      sload\n      add\n      dup1\n      dup3\n      sstore\n      dup1\n      swap2\n      pop\n      pop\n      0x01\n      swap1\n      sub\n      swap1\n      0x00\n      mstore\n      keccak256(0x00, 0x20)\n      add\n      0x00\n      swap1\n      swap2\n      swap1\n      swap2\n      swap1\n      swap2\n      pop\n      swap1\n      dup2\n      tag_145\n      swap2\n      swap1\n      tag_108\n      jump\t// in\n    tag_145:\n      pop\n        /* \"contracts/StorageContract.sol\":4066:4082  recoveredAddress */\n      dup1\n        /* \"contracts/StorageContract.sol\":4045:4095  EventDataAdded(_cid, recoveredAddress, _mac, _url) */\n      0xffffffffffffffffffffffffffffffffffffffff\n      and\n        /* \"contracts/StorageContract.sol\":4060:4064  _cid */\n      dup9\n        /* \"contracts/StorageContract.sol\":4045:4095  EventDataAdded(_cid, recoveredAddress, _mac, _url) */\n      mload(0x40)\n      tag_146\n      swap2\n      swap1\n      tag_65\n      jump\t// in\n    tag_146:\n      mload(0x40)\n      dup1\n      swap2\n      sub\n      swap1\n      keccak256\n      0xa30fa568a3da991493dc4ffbb1e531dc3712025f0bc9570a32d8d28ce91b3eb0\n        /* \"contracts/StorageContract.sol\":4084:4088  _mac */\n      dup12\n        /* \"contracts/StorageContract.sol\":4090:4094  _url */\n      dup11\n        /* \"contracts/StorageContract.sol\":4045:4095  EventDataAdded(_cid, recoveredAddress, _mac, _url) */\n      mload(0x40)\n      tag_147\n      swap3\n      swap2\n      swap1\n      tag_148\n      jump\t// in\n    tag_147:\n      mload(0x40)\n      dup1\n      swap2\n      sub\n      swap1\n      log3\n        /* \"contracts/StorageContract.sol\":3068:4102  {... */\n      pop\n        /* \"contracts/StorageContract.sol\":2845:4102  function newData(... */\n      pop\n      pop\n      pop\n      pop\n      pop\n      pop\n      pop\n      pop\n      jump\t// out\n        /* \"contracts/StorageContract.sol\":4220:4458  function getMacList(address _provider_address) public view returns (string[] memory) {... */\n    tag_48:\n        /* \"contracts/StorageContract.sol\":4288:4303  string[] memory */\n      0x60\n        /* \"contracts/StorageContract.sol\":4361:4365  true */\n      0x01\n        /* \"contracts/StorageContract.sol\":4323:4365  Devices[_provider_address].created == true */\n      iszero\n      iszero\n        /* \"contracts/StorageContract.sol\":4323:4330  Devices */\n      0x01\n        /* \"contracts/StorageContract.sol\":4323:4349  Devices[_provider_address] */\n      0x00\n        /* \"contracts/StorageContract.sol\":4331:4348  _provider_address */\n      dup5\n        /* \"contracts/StorageContract.sol\":4323:4349  Devices[_provider_address] */\n      0xffffffffffffffffffffffffffffffffffffffff\n      and\n      0xffffffffffffffffffffffffffffffffffffffff\n      and\n      dup2\n      mstore\n      0x20\n      add\n      swap1\n      dup2\n      mstore\n      0x20\n      add\n      0x00\n      keccak256\n        /* \"contracts/StorageContract.sol\":4323:4357  Devices[_provider_address].created */\n      0x03\n      add\n      0x00\n      swap1\n      sload\n      swap1\n      0x0100\n      exp\n      swap1\n      div\n      0xff\n      and\n        /* \"contracts/StorageContract.sol\":4323:4365  Devices[_provider_address].created == true */\n      iszero\n      iszero\n      eq\n        /* \"contracts/StorageContract.sol\":4315:4393  require(Devices[_provider_address].created == true, \"Provider doesn't exists\") */\n      tag_150\n      jumpi\n      mload(0x40)\n      0x08c379a000000000000000000000000000000000000000000000000000000000\n      dup2\n      mstore\n      0x04\n      add\n      tag_151\n      swap1\n      tag_152\n      jump\t// in\n    tag_151:\n      mload(0x40)\n      dup1\n      swap2\n      sub\n      swap1\n      revert\n    tag_150:\n        /* \"contracts/StorageContract.sol\":4410:4417  Devices */\n      0x01\n        /* \"contracts/StorageContract.sol\":4410:4436  Devices[_provider_address] */\n      0x00\n        /* \"contracts/StorageContract.sol\":4418:4435  _provider_address */\n      dup4\n        /* \"contracts/StorageContract.sol\":4410:4436  Devices[_provider_address] */\n      0xffffffffffffffffffffffffffffffffffffffff\n      and\n      0xffffffffffffffffffffffffffffffffffffffff\n      and\n      dup2\n      mstore\n      0x20\n      add\n      swap1\n      dup2\n      mstore\n      0x20\n      add\n      0x00\n      keccak256\n        /* \"contracts/StorageContract.sol\":4410:4451  Devices[_provider_address].SensorInfoList */\n      0x02\n      add\n        /* \"contracts/StorageContract.sol\":4403:4451  return Devices[_provider_address].SensorInfoList */\n      dup1\n      sload\n      dup1\n      0x20\n      mul\n      0x20\n      add\n      mload(0x40)\n      swap1\n      dup2\n      add\n      0x40\n      mstore\n      dup1\n      swap3\n      swap2\n      swap1\n      dup2\n      dup2\n      mstore\n      0x20\n      add\n      0x00\n      swap1\n    tag_153:\n      dup3\n      dup3\n      lt\n      iszero\n      tag_154\n      jumpi\n      dup4\n      dup3\n      swap1\n      0x00\n      mstore\n      keccak256(0x00, 0x20)\n      add\n      dup1\n      sload\n      tag_156\n      swap1\n      tag_79\n      jump\t// in\n    tag_156:\n      dup1\n      0x1f\n      add\n      0x20\n      dup1\n      swap2\n      div\n      mul\n      0x20\n      add\n      mload(0x40)\n      swap1\n      dup2\n      add\n      0x40\n      mstore\n      dup1\n      swap3\n      swap2\n      swap1\n      dup2\n      dup2\n      mstore\n      0x20\n      add\n      dup3\n      dup1\n      sload\n      tag_157\n      swap1\n      tag_79\n      jump\t// in\n    tag_157:\n      dup1\n      iszero\n      tag_158\n      jumpi\n      dup1\n      0x1f\n      lt\n      tag_159\n      jumpi\n      0x0100\n      dup1\n      dup4\n      sload\n      div\n      mul\n      dup4\n      mstore\n      swap2\n      0x20\n      add\n      swap2\n      jump(tag_158)\n    tag_159:\n      dup3\n      add\n      swap2\n      swap1\n      0x00\n      mstore\n      keccak256(0x00, 0x20)\n      swap1\n    tag_160:\n      dup2\n      sload\n      dup2\n      mstore\n      swap1\n      0x01\n      add\n      swap1\n      0x20\n      add\n      dup1\n      dup4\n      gt\n      tag_160\n      jumpi\n      dup3\n      swap1\n      sub\n      0x1f\n      and\n      dup3\n      add\n      swap2\n    tag_158:\n      pop\n      pop\n      pop\n      pop\n      pop\n      dup2\n      mstore\n      0x20\n      add\n      swap1\n      0x01\n      add\n      swap1\n      jump(tag_153)\n    tag_154:\n      pop\n      pop\n      pop\n      pop\n      swap1\n      pop\n        /* \"contracts/StorageContract.sol\":4220:4458  function getMacList(address _provider_address) public view returns (string[] memory) {... */\n      swap2\n      swap1\n      pop\n      jump\t// out\n        /* \"contracts/StorageContract.sol\":5018:5762  function getAllCids(address _provider_address, string memory _mac) public view returns (string[] memory) {... */\n    tag_53:\n        /* \"contracts/StorageContract.sol\":5106:5121  string[] memory */\n      0x60\n        /* \"contracts/StorageContract.sol\":5179:5183  true */\n      0x01\n        /* \"contracts/StorageContract.sol\":5141:5183  Devices[_provider_address].created == true */\n      iszero\n      iszero\n        /* \"contracts/StorageContract.sol\":5141:5148  Devices */\n      0x01\n        /* \"contracts/StorageContract.sol\":5141:5167  Devices[_provider_address] */\n      0x00\n        /* \"contracts/StorageContract.sol\":5149:5166  _provider_address */\n      dup6\n        /* \"contracts/StorageContract.sol\":5141:5167  Devices[_provider_address] */\n      0xffffffffffffffffffffffffffffffffffffffff\n      and\n      0xffffffffffffffffffffffffffffffffffffffff\n      and\n      dup2\n      mstore\n      0x20\n      add\n      swap1\n      dup2\n      mstore\n      0x20\n      add\n      0x00\n      keccak256\n        /* \"contracts/StorageContract.sol\":5141:5175  Devices[_provider_address].created */\n      0x03\n      add\n      0x00\n      swap1\n      sload\n      swap1\n      0x0100\n      exp\n      swap1\n      div\n      0xff\n      and\n        /* \"contracts/StorageContract.sol\":5141:5183  Devices[_provider_address].created == true */\n      iszero\n      iszero\n      eq\n        /* \"contracts/StorageContract.sol\":5133:5212  require(Devices[_provider_address].created == true, \"Invalid provider address\") */\n      tag_162\n      jumpi\n      mload(0x40)\n      0x08c379a000000000000000000000000000000000000000000000000000000000\n      dup2\n      mstore\n      0x04\n      add\n      tag_163\n      swap1\n      tag_63\n      jump\t// in\n    tag_163:\n      mload(0x40)\n      dup1\n      swap2\n      sub\n      swap1\n      revert\n    tag_162:\n        /* \"contracts/StorageContract.sol\":5285:5289  true */\n      0x01\n        /* \"contracts/StorageContract.sol\":5230:5289  Devices[_provider_address].SensorInfo[_mac].created == true */\n      iszero\n      iszero\n        /* \"contracts/StorageContract.sol\":5230:5237  Devices */\n      0x01\n        /* \"contracts/StorageContract.sol\":5230:5256  Devices[_provider_address] */\n      0x00\n        /* \"contracts/StorageContract.sol\":5238:5255  _provider_address */\n      dup6\n        /* \"contracts/StorageContract.sol\":5230:5256  Devices[_provider_address] */\n      0xffffffffffffffffffffffffffffffffffffffff\n      and\n      0xffffffffffffffffffffffffffffffffffffffff\n      and\n      dup2\n      mstore\n      0x20\n      add\n      swap1\n      dup2\n      mstore\n      0x20\n      add\n      0x00\n      keccak256\n        /* \"contracts/StorageContract.sol\":5230:5267  Devices[_provider_address].SensorInfo */\n      0x01\n      add\n        /* \"contracts/StorageContract.sol\":5268:5272  _mac */\n      dup4\n        /* \"contracts/StorageContract.sol\":5230:5273  Devices[_provider_address].SensorInfo[_mac] */\n      mload(0x40)\n      tag_164\n      swap2\n      swap1\n      tag_65\n      jump\t// in\n    tag_164:\n      swap1\n      dup2\n      mstore\n      0x20\n      add\n      mload(0x40)\n      dup1\n      swap2\n      sub\n      swap1\n      keccak256\n        /* \"contracts/StorageContract.sol\":5230:5281  Devices[_provider_address].SensorInfo[_mac].created */\n      0x03\n      add\n      0x00\n      swap1\n      sload\n      swap1\n      0x0100\n      exp\n      swap1\n      div\n      0xff\n      and\n        /* \"contracts/StorageContract.sol\":5230:5289  Devices[_provider_address].SensorInfo[_mac].created == true */\n      iszero\n      iszero\n      eq\n        /* \"contracts/StorageContract.sol\":5222:5312  require(Devices[_provider_address].SensorInfo[_mac].created == true, \"Invalid sensor MAC\") */\n      tag_165\n      jumpi\n      mload(0x40)\n      0x08c379a000000000000000000000000000000000000000000000000000000000\n      dup2\n      mstore\n      0x04\n      add\n      tag_166\n      swap1\n      tag_68\n      jump\t// in\n    tag_166:\n      mload(0x40)\n      dup1\n      swap2\n      sub\n      swap1\n      revert\n    tag_165:\n        /* \"contracts/StorageContract.sol\":5323:5334  uint256 len */\n      0x00\n        /* \"contracts/StorageContract.sol\":5337:5344  Devices */\n      0x01\n        /* \"contracts/StorageContract.sol\":5337:5363  Devices[_provider_address] */\n      0x00\n        /* \"contracts/StorageContract.sol\":5345:5362  _provider_address */\n      dup6\n        /* \"contracts/StorageContract.sol\":5337:5363  Devices[_provider_address] */\n      0xffffffffffffffffffffffffffffffffffffffff\n      and\n      0xffffffffffffffffffffffffffffffffffffffff\n      and\n      dup2\n      mstore\n      0x20\n      add\n      swap1\n      dup2\n      mstore\n      0x20\n      add\n      0x00\n      keccak256\n        /* \"contracts/StorageContract.sol\":5337:5374  Devices[_provider_address].SensorInfo */\n      0x01\n      add\n        /* \"contracts/StorageContract.sol\":5375:5379  _mac */\n      dup4\n        /* \"contracts/StorageContract.sol\":5337:5380  Devices[_provider_address].SensorInfo[_mac] */\n      mload(0x40)\n      tag_167\n      swap2\n      swap1\n      tag_65\n      jump\t// in\n    tag_167:\n      swap1\n      dup2\n      mstore\n      0x20\n      add\n      mload(0x40)\n      dup1\n      swap2\n      sub\n      swap1\n      keccak256\n        /* \"contracts/StorageContract.sol\":5337:5395  Devices[_provider_address].SensorInfo[_mac].SensorDataList */\n      0x02\n      add\n        /* \"contracts/StorageContract.sol\":5337:5402  Devices[_provider_address].SensorInfo[_mac].SensorDataList.length */\n      dup1\n      sload\n      swap1\n      pop\n        /* \"contracts/StorageContract.sol\":5323:5402  uint256 len = Devices[_provider_address].SensorInfo[_mac].SensorDataList.length */\n      swap1\n      pop\n        /* \"contracts/StorageContract.sol\":5413:5433  string[] memory cids */\n      0x00\n        /* \"contracts/StorageContract.sol\":5449:5452  len */\n      dup2\n        /* \"contracts/StorageContract.sol\":5436:5453  new string[](len) */\n      0xffffffffffffffff\n      dup2\n      gt\n      iszero\n      tag_168\n      jumpi\n      tag_169\n      tag_170\n      jump\t// in\n    tag_169:\n    tag_168:\n      mload(0x40)\n      swap1\n      dup1\n      dup3\n      mstore\n      dup1\n      0x20\n      mul\n      0x20\n      add\n      dup3\n      add\n      0x40\n      mstore\n      dup1\n      iszero\n      tag_171\n      jumpi\n      dup2\n      0x20\n      add\n    tag_172:\n      0x60\n      dup2\n      mstore\n      0x20\n      add\n      swap1\n      0x01\n      swap1\n      sub\n      swap1\n      dup2\n      tag_172\n      jumpi\n      swap1\n      pop\n    tag_171:\n      pop\n        /* \"contracts/StorageContract.sol\":5413:5453  string[] memory cids = new string[](len) */\n      swap1\n      pop\n        /* \"contracts/StorageContract.sol\":5475:5476  0 */\n      0x00\n        /* \"contracts/StorageContract.sol\":5468:5471  len */\n      dup3\n        /* \"contracts/StorageContract.sol\":5468:5476  len == 0 */\n      sub\n        /* \"contracts/StorageContract.sol\":5464:5594  if (len == 0) {... */\n      tag_173\n      jumpi\n        /* \"contracts/StorageContract.sol\":5512:5513  1 */\n      0x01\n        /* \"contracts/StorageContract.sol\":5499:5514  new string[](1) */\n      0xffffffffffffffff\n      dup2\n      gt\n      iszero\n      tag_174\n      jumpi\n      tag_175\n      tag_170\n      jump\t// in\n    tag_175:\n    tag_174:\n      mload(0x40)\n      swap1\n      dup1\n      dup3\n      mstore\n      dup1\n      0x20\n      mul\n      0x20\n      add\n      dup3\n      add\n      0x40\n      mstore\n      dup1\n      iszero\n      tag_176\n      jumpi\n      dup2\n      0x20\n      add\n    tag_177:\n      0x60\n      dup2\n      mstore\n      0x20\n      add\n      swap1\n      0x01\n      swap1\n      sub\n      swap1\n      dup2\n      tag_177\n      jumpi\n      swap1\n      pop\n    tag_176:\n      pop\n        /* \"contracts/StorageContract.sol\":5492:5514  cids = new string[](1) */\n      swap1\n      pop\n        /* \"contracts/StorageContract.sol\":5528:5558  cids[0] = \"Sensor hasn't cids\" */\n      mload(0x40)\n      dup1\n      0x40\n      add\n      0x40\n      mstore\n      dup1\n      0x12\n      dup2\n      mstore\n      0x20\n      add\n      0x53656e736f72206861736e277420636964730000000000000000000000000000\n      dup2\n      mstore\n      pop\n        /* \"contracts/StorageContract.sol\":5528:5532  cids */\n      dup2\n        /* \"contracts/StorageContract.sol\":5533:5534  0 */\n      0x00\n        /* \"contracts/StorageContract.sol\":5528:5535  cids[0] */\n      dup2\n      mload\n      dup2\n      lt\n      tag_178\n      jumpi\n      tag_179\n      tag_76\n      jump\t// in\n    tag_179:\n    tag_178:\n      0x20\n      mul\n      0x20\n      add\n      add\n        /* \"contracts/StorageContract.sol\":5528:5558  cids[0] = \"Sensor hasn't cids\" */\n      dup2\n      swap1\n      mstore\n      pop\n        /* \"contracts/StorageContract.sol\":5579:5583  cids */\n      dup1\n        /* \"contracts/StorageContract.sol\":5572:5583  return cids */\n      swap3\n      pop\n      pop\n      pop\n      jump(tag_161)\n        /* \"contracts/StorageContract.sol\":5464:5594  if (len == 0) {... */\n    tag_173:\n        /* \"contracts/StorageContract.sol\":5609:5618  uint256 i */\n      0x00\n        /* \"contracts/StorageContract.sol\":5604:5734  for (uint256 i = 0; i < len; i++) {... */\n    tag_180:\n        /* \"contracts/StorageContract.sol\":5628:5631  len */\n      dup3\n        /* \"contracts/StorageContract.sol\":5624:5625  i */\n      dup2\n        /* \"contracts/StorageContract.sol\":5624:5631  i < len */\n      lt\n        /* \"contracts/StorageContract.sol\":5604:5734  for (uint256 i = 0; i < len; i++) {... */\n      iszero\n      tag_181\n      jumpi\n        /* \"contracts/StorageContract.sol\":5662:5669  Devices */\n      0x01\n        /* \"contracts/StorageContract.sol\":5662:5688  Devices[_provider_address] */\n      0x00\n        /* \"contracts/StorageContract.sol\":5670:5687  _provider_address */\n      dup8\n        /* \"contracts/StorageContract.sol\":5662:5688  Devices[_provider_address] */\n      0xffffffffffffffffffffffffffffffffffffffff\n      and\n      0xffffffffffffffffffffffffffffffffffffffff\n      and\n      dup2\n      mstore\n      0x20\n      add\n      swap1\n      dup2\n      mstore\n      0x20\n      add\n      0x00\n      keccak256\n        /* \"contracts/StorageContract.sol\":5662:5699  Devices[_provider_address].SensorInfo */\n      0x01\n      add\n        /* \"contracts/StorageContract.sol\":5700:5704  _mac */\n      dup6\n        /* \"contracts/StorageContract.sol\":5662:5705  Devices[_provider_address].SensorInfo[_mac] */\n      mload(0x40)\n      tag_183\n      swap2\n      swap1\n      tag_65\n      jump\t// in\n    tag_183:\n      swap1\n      dup2\n      mstore\n      0x20\n      add\n      mload(0x40)\n      dup1\n      swap2\n      sub\n      swap1\n      keccak256\n        /* \"contracts/StorageContract.sol\":5662:5720  Devices[_provider_address].SensorInfo[_mac].SensorDataList */\n      0x02\n      add\n        /* \"contracts/StorageContract.sol\":5721:5722  i */\n      dup2\n        /* \"contracts/StorageContract.sol\":5662:5723  Devices[_provider_address].SensorInfo[_mac].SensorDataList[i] */\n      dup2\n      sload\n      dup2\n      lt\n      tag_184\n      jumpi\n      tag_185\n      tag_76\n      jump\t// in\n    tag_185:\n    tag_184:\n      swap1\n      0x00\n      mstore\n      keccak256(0x00, 0x20)\n      add\n        /* \"contracts/StorageContract.sol\":5652:5723  cids[i] = Devices[_provider_address].SensorInfo[_mac].SensorDataList[i] */\n      dup1\n      sload\n      tag_187\n      swap1\n      tag_79\n      jump\t// in\n    tag_187:\n      dup1\n      0x1f\n      add\n      0x20\n      dup1\n      swap2\n      div\n      mul\n      0x20\n      add\n      mload(0x40)\n      swap1\n      dup2\n      add\n      0x40\n      mstore\n      dup1\n      swap3\n      swap2\n      swap1\n      dup2\n      dup2\n      mstore\n      0x20\n      add\n      dup3\n      dup1\n      sload\n      tag_188\n      swap1\n      tag_79\n      jump\t// in\n    tag_188:\n      dup1\n      iszero\n      tag_189\n      jumpi\n      dup1\n      0x1f\n      lt\n      tag_190\n      jumpi\n      0x0100\n      dup1\n      dup4\n      sload\n      div\n      mul\n      dup4\n      mstore\n      swap2\n      0x20\n      add\n      swap2\n      jump(tag_189)\n    tag_190:\n      dup3\n      add\n      swap2\n      swap1\n      0x00\n      mstore\n      keccak256(0x00, 0x20)\n      swap1\n    tag_191:\n      dup2\n      sload\n      dup2\n      mstore\n      swap1\n      0x01\n      add\n      swap1\n      0x20\n      add\n      dup1\n      dup4\n      gt\n      tag_191\n      jumpi\n      dup3\n      swap1\n      sub\n      0x1f\n      and\n      dup3\n      add\n      swap2\n    tag_189:\n      pop\n      pop\n      pop\n      pop\n      pop\n        /* \"contracts/StorageContract.sol\":5652:5656  cids */\n      dup3\n        /* \"contracts/StorageContract.sol\":5657:5658  i */\n      dup3\n        /* \"contracts/StorageContract.sol\":5652:5659  cids[i] */\n      dup2\n      mload\n      dup2\n      lt\n      tag_192\n      jumpi\n      tag_193\n      tag_76\n      jump\t// in\n    tag_193:\n    tag_192:\n      0x20\n      mul\n      0x20\n      add\n      add\n        /* \"contracts/StorageContract.sol\":5652:5723  cids[i] = Devices[_provider_address].SensorInfo[_mac].SensorDataList[i] */\n      dup2\n      swap1\n      mstore\n      pop\n        /* \"contracts/StorageContract.sol\":5633:5636  i++ */\n      dup1\n      dup1\n      tag_194\n      swap1\n      tag_195\n      jump\t// in\n    tag_194:\n      swap2\n      pop\n      pop\n        /* \"contracts/StorageContract.sol\":5604:5734  for (uint256 i = 0; i < len; i++) {... */\n      jump(tag_180)\n    tag_181:\n      pop\n        /* \"contracts/StorageContract.sol\":5751:5755  cids */\n      dup1\n        /* \"contracts/StorageContract.sol\":5744:5755  return cids */\n      swap3\n      pop\n      pop\n      pop\n        /* \"contracts/StorageContract.sol\":5018:5762  function getAllCids(address _provider_address, string memory _mac) public view returns (string[] memory) {... */\n    tag_161:\n      swap3\n      swap2\n      pop\n      pop\n      jump\t// out\n        /* \"#utility.yul\":7:82   */\n    tag_196:\n        /* \"#utility.yul\":40:46   */\n      0x00\n        /* \"#utility.yul\":73:75   */\n      0x40\n        /* \"#utility.yul\":67:76   */\n      mload\n        /* \"#utility.yul\":57:76   */\n      swap1\n      pop\n        /* \"#utility.yul\":7:82   */\n      swap1\n      jump\t// out\n        /* \"#utility.yul\":88:205   */\n    tag_197:\n        /* \"#utility.yul\":197:198   */\n      0x00\n        /* \"#utility.yul\":194:195   */\n      dup1\n        /* \"#utility.yul\":187:199   */\n      revert\n        /* \"#utility.yul\":211:328   */\n    tag_198:\n        /* \"#utility.yul\":320:321   */\n      0x00\n        /* \"#utility.yul\":317:318   */\n      dup1\n        /* \"#utility.yul\":310:322   */\n      revert\n        /* \"#utility.yul\":334:411   */\n    tag_199:\n        /* \"#utility.yul\":371:378   */\n      0x00\n        /* \"#utility.yul\":400:405   */\n      dup2\n        /* \"#utility.yul\":389:405   */\n      swap1\n      pop\n        /* \"#utility.yul\":334:411   */\n      swap2\n      swap1\n      pop\n      jump\t// out\n        /* \"#utility.yul\":417:539   */\n    tag_200:\n        /* \"#utility.yul\":490:514   */\n      tag_289\n        /* \"#utility.yul\":508:513   */\n      dup2\n        /* \"#utility.yul\":490:514   */\n      tag_199\n      jump\t// in\n    tag_289:\n        /* \"#utility.yul\":483:488   */\n      dup2\n        /* \"#utility.yul\":480:515   */\n      eq\n        /* \"#utility.yul\":470:533   */\n      tag_290\n      jumpi\n        /* \"#utility.yul\":529:530   */\n      0x00\n        /* \"#utility.yul\":526:527   */\n      dup1\n        /* \"#utility.yul\":519:531   */\n      revert\n        /* \"#utility.yul\":470:533   */\n    tag_290:\n        /* \"#utility.yul\":417:539   */\n      pop\n      jump\t// out\n        /* \"#utility.yul\":545:684   */\n    tag_201:\n        /* \"#utility.yul\":591:596   */\n      0x00\n        /* \"#utility.yul\":629:635   */\n      dup2\n        /* \"#utility.yul\":616:636   */\n      calldataload\n        /* \"#utility.yul\":607:636   */\n      swap1\n      pop\n        /* \"#utility.yul\":645:678   */\n      tag_292\n        /* \"#utility.yul\":672:677   */\n      dup2\n        /* \"#utility.yul\":645:678   */\n      tag_200\n      jump\t// in\n    tag_292:\n        /* \"#utility.yul\":545:684   */\n      swap3\n      swap2\n      pop\n      pop\n      jump\t// out\n        /* \"#utility.yul\":690:1019   */\n    tag_15:\n        /* \"#utility.yul\":749:755   */\n      0x00\n        /* \"#utility.yul\":798:800   */\n      0x20\n        /* \"#utility.yul\":786:795   */\n      dup3\n        /* \"#utility.yul\":777:784   */\n      dup5\n        /* \"#utility.yul\":773:796   */\n      sub\n        /* \"#utility.yul\":769:801   */\n      slt\n        /* \"#utility.yul\":766:885   */\n      iszero\n      tag_294\n      jumpi\n        /* \"#utility.yul\":804:883   */\n      tag_295\n      tag_197\n      jump\t// in\n    tag_295:\n        /* \"#utility.yul\":766:885   */\n    tag_294:\n        /* \"#utility.yul\":924:925   */\n      0x00\n        /* \"#utility.yul\":949:1002   */\n      tag_296\n        /* \"#utility.yul\":994:1001   */\n      dup5\n        /* \"#utility.yul\":985:991   */\n      dup3\n        /* \"#utility.yul\":974:983   */\n      dup6\n        /* \"#utility.yul\":970:992   */\n      add\n        /* \"#utility.yul\":949:1002   */\n      tag_201\n      jump\t// in\n    tag_296:\n        /* \"#utility.yul\":939:1002   */\n      swap2\n      pop\n        /* \"#utility.yul\":895:1012   */\n      pop\n        /* \"#utility.yul\":690:1019   */\n      swap3\n      swap2\n      pop\n      pop\n      jump\t// out\n        /* \"#utility.yul\":1025:1151   */\n    tag_202:\n        /* \"#utility.yul\":1062:1069   */\n      0x00\n        /* \"#utility.yul\":1102:1144   */\n      0xffffffffffffffffffffffffffffffffffffffff\n        /* \"#utility.yul\":1095:1100   */\n      dup3\n        /* \"#utility.yul\":1091:1145   */\n      and\n        /* \"#utility.yul\":1080:1145   */\n      swap1\n      pop\n        /* \"#utility.yul\":1025:1151   */\n      swap2\n      swap1\n      pop\n      jump\t// out\n        /* \"#utility.yul\":1157:1253   */\n    tag_203:\n        /* \"#utility.yul\":1194:1201   */\n      0x00\n        /* \"#utility.yul\":1223:1247   */\n      tag_299\n        /* \"#utility.yul\":1241:1246   */\n      dup3\n        /* \"#utility.yul\":1223:1247   */\n      tag_202\n      jump\t// in\n    tag_299:\n        /* \"#utility.yul\":1212:1247   */\n      swap1\n      pop\n        /* \"#utility.yul\":1157:1253   */\n      swap2\n      swap1\n      pop\n      jump\t// out\n        /* \"#utility.yul\":1259:1377   */\n    tag_204:\n        /* \"#utility.yul\":1346:1370   */\n      tag_301\n        /* \"#utility.yul\":1364:1369   */\n      dup2\n        /* \"#utility.yul\":1346:1370   */\n      tag_203\n      jump\t// in\n    tag_301:\n        /* \"#utility.yul\":1341:1344   */\n      dup3\n        /* \"#utility.yul\":1334:1371   */\n      mstore\n        /* \"#utility.yul\":1259:1377   */\n      pop\n      pop\n      jump\t// out\n        /* \"#utility.yul\":1383:1605   */\n    tag_18:\n        /* \"#utility.yul\":1476:1480   */\n      0x00\n        /* \"#utility.yul\":1514:1516   */\n      0x20\n        /* \"#utility.yul\":1503:1512   */\n      dup3\n        /* \"#utility.yul\":1499:1517   */\n      add\n        /* \"#utility.yul\":1491:1517   */\n      swap1\n      pop\n        /* \"#utility.yul\":1527:1598   */\n      tag_303\n        /* \"#utility.yul\":1595:1596   */\n      0x00\n        /* \"#utility.yul\":1584:1593   */\n      dup4\n        /* \"#utility.yul\":1580:1597   */\n      add\n        /* \"#utility.yul\":1571:1577   */\n      dup5\n        /* \"#utility.yul\":1527:1598   */\n      tag_204\n      jump\t// in\n    tag_303:\n        /* \"#utility.yul\":1383:1605   */\n      swap3\n      swap2\n      pop\n      pop\n      jump\t// out\n        /* \"#utility.yul\":1611:1725   */\n    tag_205:\n        /* \"#utility.yul\":1678:1684   */\n      0x00\n        /* \"#utility.yul\":1712:1717   */\n      dup2\n        /* \"#utility.yul\":1706:1718   */\n      mload\n        /* \"#utility.yul\":1696:1718   */\n      swap1\n      pop\n        /* \"#utility.yul\":1611:1725   */\n      swap2\n      swap1\n      pop\n      jump\t// out\n        /* \"#utility.yul\":1731:1915   */\n    tag_206:\n        /* \"#utility.yul\":1830:1841   */\n      0x00\n        /* \"#utility.yul\":1864:1870   */\n      dup3\n        /* \"#utility.yul\":1859:1862   */\n      dup3\n        /* \"#utility.yul\":1852:1871   */\n      mstore\n        /* \"#utility.yul\":1904:1908   */\n      0x20\n        /* \"#utility.yul\":1899:1902   */\n      dup3\n        /* \"#utility.yul\":1895:1909   */\n      add\n        /* \"#utility.yul\":1880:1909   */\n      swap1\n      pop\n        /* \"#utility.yul\":1731:1915   */\n      swap3\n      swap2\n      pop\n      pop\n      jump\t// out\n        /* \"#utility.yul\":1921:2053   */\n    tag_207:\n        /* \"#utility.yul\":1988:1992   */\n      0x00\n        /* \"#utility.yul\":2011:2014   */\n      dup2\n        /* \"#utility.yul\":2003:2014   */\n      swap1\n      pop\n        /* \"#utility.yul\":2041:2045   */\n      0x20\n        /* \"#utility.yul\":2036:2039   */\n      dup3\n        /* \"#utility.yul\":2032:2046   */\n      add\n        /* \"#utility.yul\":2024:2046   */\n      swap1\n      pop\n        /* \"#utility.yul\":1921:2053   */\n      swap2\n      swap1\n      pop\n      jump\t// out\n        /* \"#utility.yul\":2059:2167   */\n    tag_208:\n        /* \"#utility.yul\":2136:2160   */\n      tag_308\n        /* \"#utility.yul\":2154:2159   */\n      dup2\n        /* \"#utility.yul\":2136:2160   */\n      tag_203\n      jump\t// in\n    tag_308:\n        /* \"#utility.yul\":2131:2134   */\n      dup3\n        /* \"#utility.yul\":2124:2161   */\n      mstore\n        /* \"#utility.yul\":2059:2167   */\n      pop\n      pop\n      jump\t// out\n        /* \"#utility.yul\":2173:2352   */\n    tag_209:\n        /* \"#utility.yul\":2242:2252   */\n      0x00\n        /* \"#utility.yul\":2263:2309   */\n      tag_310\n        /* \"#utility.yul\":2305:2308   */\n      dup4\n        /* \"#utility.yul\":2297:2303   */\n      dup4\n        /* \"#utility.yul\":2263:2309   */\n      tag_208\n      jump\t// in\n    tag_310:\n        /* \"#utility.yul\":2341:2345   */\n      0x20\n        /* \"#utility.yul\":2336:2339   */\n      dup4\n        /* \"#utility.yul\":2332:2346   */\n      add\n        /* \"#utility.yul\":2318:2346   */\n      swap1\n      pop\n        /* \"#utility.yul\":2173:2352   */\n      swap3\n      swap2\n      pop\n      pop\n      jump\t// out\n        /* \"#utility.yul\":2358:2471   */\n    tag_210:\n        /* \"#utility.yul\":2428:2432   */\n      0x00\n        /* \"#utility.yul\":2460:2464   */\n      0x20\n        /* \"#utility.yul\":2455:2458   */\n      dup3\n        /* \"#utility.yul\":2451:2465   */\n      add\n        /* \"#utility.yul\":2443:2465   */\n      swap1\n      pop\n        /* \"#utility.yul\":2358:2471   */\n      swap2\n      swap1\n      pop\n      jump\t// out\n        /* \"#utility.yul\":2507:3239   */\n    tag_211:\n        /* \"#utility.yul\":2626:2629   */\n      0x00\n        /* \"#utility.yul\":2655:2709   */\n      tag_313\n        /* \"#utility.yul\":2703:2708   */\n      dup3\n        /* \"#utility.yul\":2655:2709   */\n      tag_205\n      jump\t// in\n    tag_313:\n        /* \"#utility.yul\":2725:2811   */\n      tag_314\n        /* \"#utility.yul\":2804:2810   */\n      dup2\n        /* \"#utility.yul\":2799:2802   */\n      dup6\n        /* \"#utility.yul\":2725:2811   */\n      tag_206\n      jump\t// in\n    tag_314:\n        /* \"#utility.yul\":2718:2811   */\n      swap4\n      pop\n        /* \"#utility.yul\":2835:2891   */\n      tag_315\n        /* \"#utility.yul\":2885:2890   */\n      dup4\n        /* \"#utility.yul\":2835:2891   */\n      tag_207\n      jump\t// in\n    tag_315:\n        /* \"#utility.yul\":2914:2921   */\n      dup1\n        /* \"#utility.yul\":2945:2946   */\n      0x00\n        /* \"#utility.yul\":2930:3214   */\n    tag_316:\n        /* \"#utility.yul\":2955:2961   */\n      dup4\n        /* \"#utility.yul\":2952:2953   */\n      dup2\n        /* \"#utility.yul\":2949:2962   */\n      lt\n        /* \"#utility.yul\":2930:3214   */\n      iszero\n      tag_318\n      jumpi\n        /* \"#utility.yul\":3031:3037   */\n      dup2\n        /* \"#utility.yul\":3025:3038   */\n      mload\n        /* \"#utility.yul\":3058:3121   */\n      tag_319\n        /* \"#utility.yul\":3117:3120   */\n      dup9\n        /* \"#utility.yul\":3102:3115   */\n      dup3\n        /* \"#utility.yul\":3058:3121   */\n      tag_209\n      jump\t// in\n    tag_319:\n        /* \"#utility.yul\":3051:3121   */\n      swap8\n      pop\n        /* \"#utility.yul\":3144:3204   */\n      tag_320\n        /* \"#utility.yul\":3197:3203   */\n      dup4\n        /* \"#utility.yul\":3144:3204   */\n      tag_210\n      jump\t// in\n    tag_320:\n        /* \"#utility.yul\":3134:3204   */\n      swap3\n      pop\n        /* \"#utility.yul\":2990:3214   */\n      pop\n        /* \"#utility.yul\":2977:2978   */\n      0x01\n        /* \"#utility.yul\":2974:2975   */\n      dup2\n        /* \"#utility.yul\":2970:2979   */\n      add\n        /* \"#utility.yul\":2965:2979   */\n      swap1\n      pop\n        /* \"#utility.yul\":2930:3214   */\n      jump(tag_316)\n    tag_318:\n        /* \"#utility.yul\":2934:2948   */\n      pop\n        /* \"#utility.yul\":3230:3233   */\n      dup6\n        /* \"#utility.yul\":3223:3233   */\n      swap4\n      pop\n        /* \"#utility.yul\":2631:3239   */\n      pop\n      pop\n      pop\n        /* \"#utility.yul\":2507:3239   */\n      swap3\n      swap2\n      pop\n      pop\n      jump\t// out\n        /* \"#utility.yul\":3245:3618   */\n    tag_22:\n        /* \"#utility.yul\":3388:3392   */\n      0x00\n        /* \"#utility.yul\":3426:3428   */\n      0x20\n        /* \"#utility.yul\":3415:3424   */\n      dup3\n        /* \"#utility.yul\":3411:3429   */\n      add\n        /* \"#utility.yul\":3403:3429   */\n      swap1\n      pop\n        /* \"#utility.yul\":3475:3484   */\n      dup2\n        /* \"#utility.yul\":3469:3473   */\n      dup2\n        /* \"#utility.yul\":3465:3485   */\n      sub\n        /* \"#utility.yul\":3461:3462   */\n      0x00\n        /* \"#utility.yul\":3450:3459   */\n      dup4\n        /* \"#utility.yul\":3446:3463   */\n      add\n        /* \"#utility.yul\":3439:3486   */\n      mstore\n        /* \"#utility.yul\":3503:3611   */\n      tag_322\n        /* \"#utility.yul\":3606:3610   */\n      dup2\n        /* \"#utility.yul\":3597:3603   */\n      dup5\n        /* \"#utility.yul\":3503:3611   */\n      tag_211\n      jump\t// in\n    tag_322:\n        /* \"#utility.yul\":3495:3611   */\n      swap1\n      pop\n        /* \"#utility.yul\":3245:3618   */\n      swap3\n      swap2\n      pop\n      pop\n      jump\t// out\n        /* \"#utility.yul\":3624:3746   */\n    tag_212:\n        /* \"#utility.yul\":3697:3721   */\n      tag_324\n        /* \"#utility.yul\":3715:3720   */\n      dup2\n        /* \"#utility.yul\":3697:3721   */\n      tag_203\n      jump\t// in\n    tag_324:\n        /* \"#utility.yul\":3690:3695   */\n      dup2\n        /* \"#utility.yul\":3687:3722   */\n      eq\n        /* \"#utility.yul\":3677:3740   */\n      tag_325\n      jumpi\n        /* \"#utility.yul\":3736:3737   */\n      0x00\n        /* \"#utility.yul\":3733:3734   */\n      dup1\n        /* \"#utility.yul\":3726:3738   */\n      revert\n        /* \"#utility.yul\":3677:3740   */\n    tag_325:\n        /* \"#utility.yul\":3624:3746   */\n      pop\n      jump\t// out\n        /* \"#utility.yul\":3752:3891   */\n    tag_213:\n        /* \"#utility.yul\":3798:3803   */\n      0x00\n        /* \"#utility.yul\":3836:3842   */\n      dup2\n        /* \"#utility.yul\":3823:3843   */\n      calldataload\n        /* \"#utility.yul\":3814:3843   */\n      swap1\n      pop\n        /* \"#utility.yul\":3852:3885   */\n      tag_327\n        /* \"#utility.yul\":3879:3884   */\n      dup2\n        /* \"#utility.yul\":3852:3885   */\n      tag_212\n      jump\t// in\n    tag_327:\n        /* \"#utility.yul\":3752:3891   */\n      swap3\n      swap2\n      pop\n      pop\n      jump\t// out\n        /* \"#utility.yul\":3897:4014   */\n    tag_214:\n        /* \"#utility.yul\":4006:4007   */\n      0x00\n        /* \"#utility.yul\":4003:4004   */\n      dup1\n        /* \"#utility.yul\":3996:4008   */\n      revert\n        /* \"#utility.yul\":4020:4137   */\n    tag_215:\n        /* \"#utility.yul\":4129:4130   */\n      0x00\n        /* \"#utility.yul\":4126:4127   */\n      dup1\n        /* \"#utility.yul\":4119:4131   */\n      revert\n        /* \"#utility.yul\":4143:4245   */\n    tag_216:\n        /* \"#utility.yul\":4184:4190   */\n      0x00\n        /* \"#utility.yul\":4235:4237   */\n      0x1f\n        /* \"#utility.yul\":4231:4238   */\n      not\n        /* \"#utility.yul\":4226:4228   */\n      0x1f\n        /* \"#utility.yul\":4219:4224   */\n      dup4\n        /* \"#utility.yul\":4215:4229   */\n      add\n        /* \"#utility.yul\":4211:4239   */\n      and\n        /* \"#utility.yul\":4201:4239   */\n      swap1\n      pop\n        /* \"#utility.yul\":4143:4245   */\n      swap2\n      swap1\n      pop\n      jump\t// out\n        /* \"#utility.yul\":4251:4431   */\n    tag_170:\n        /* \"#utility.yul\":4299:4376   */\n      0x4e487b7100000000000000000000000000000000000000000000000000000000\n        /* \"#utility.yul\":4296:4297   */\n      0x00\n        /* \"#utility.yul\":4289:4377   */\n      mstore\n        /* \"#utility.yul\":4396:4400   */\n      0x41\n        /* \"#utility.yul\":4393:4394   */\n      0x04\n        /* \"#utility.yul\":4386:4401   */\n      mstore\n        /* \"#utility.yul\":4420:4424   */\n      0x24\n        /* \"#utility.yul\":4417:4418   */\n      0x00\n        /* \"#utility.yul\":4410:4425   */\n      revert\n        /* \"#utility.yul\":4437:4718   */\n    tag_217:\n        /* \"#utility.yul\":4520:4547   */\n      tag_333\n        /* \"#utility.yul\":4542:4546   */\n      dup3\n        /* \"#utility.yul\":4520:4547   */\n      tag_216\n      jump\t// in\n    tag_333:\n        /* \"#utility.yul\":4512:4518   */\n      dup2\n        /* \"#utility.yul\":4508:4548   */\n      add\n        /* \"#utility.yul\":4650:4656   */\n      dup2\n        /* \"#utility.yul\":4638:4648   */\n      dup2\n        /* \"#utility.yul\":4635:4657   */\n      lt\n        /* \"#utility.yul\":4614:4632   */\n      0xffffffffffffffff\n        /* \"#utility.yul\":4602:4612   */\n      dup3\n        /* \"#utility.yul\":4599:4633   */\n      gt\n        /* \"#utility.yul\":4596:4658   */\n      or\n        /* \"#utility.yul\":4593:4681   */\n      iszero\n      tag_334\n      jumpi\n        /* \"#utility.yul\":4661:4679   */\n      tag_335\n      tag_170\n      jump\t// in\n    tag_335:\n        /* \"#utility.yul\":4593:4681   */\n    tag_334:\n        /* \"#utility.yul\":4701:4711   */\n      dup1\n        /* \"#utility.yul\":4697:4699   */\n      0x40\n        /* \"#utility.yul\":4690:4712   */\n      mstore\n        /* \"#utility.yul\":4480:4718   */\n      pop\n        /* \"#utility.yul\":4437:4718   */\n      pop\n      pop\n      jump\t// out\n        /* \"#utility.yul\":4724:4853   */\n    tag_218:\n        /* \"#utility.yul\":4758:4764   */\n      0x00\n        /* \"#utility.yul\":4785:4805   */\n      tag_337\n      tag_196\n      jump\t// in\n    tag_337:\n        /* \"#utility.yul\":4775:4805   */\n      swap1\n      pop\n        /* \"#utility.yul\":4814:4847   */\n      tag_338\n        /* \"#utility.yul\":4842:4846   */\n      dup3\n        /* \"#utility.yul\":4834:4840   */\n      dup3\n        /* \"#utility.yul\":4814:4847   */\n      tag_217\n      jump\t// in\n    tag_338:\n        /* \"#utility.yul\":4724:4853   */\n      swap2\n      swap1\n      pop\n      jump\t// out\n        /* \"#utility.yul\":4859:5167   */\n    tag_219:\n        /* \"#utility.yul\":4921:4925   */\n      0x00\n        /* \"#utility.yul\":5011:5029   */\n      0xffffffffffffffff\n        /* \"#utility.yul\":5003:5009   */\n      dup3\n        /* \"#utility.yul\":5000:5030   */\n      gt\n        /* \"#utility.yul\":4997:5053   */\n      iszero\n      tag_340\n      jumpi\n        /* \"#utility.yul\":5033:5051   */\n      tag_341\n      tag_170\n      jump\t// in\n    tag_341:\n        /* \"#utility.yul\":4997:5053   */\n    tag_340:\n        /* \"#utility.yul\":5071:5100   */\n      tag_342\n        /* \"#utility.yul\":5093:5099   */\n      dup3\n        /* \"#utility.yul\":5071:5100   */\n      tag_216\n      jump\t// in\n    tag_342:\n        /* \"#utility.yul\":5063:5100   */\n      swap1\n      pop\n        /* \"#utility.yul\":5155:5159   */\n      0x20\n        /* \"#utility.yul\":5149:5153   */\n      dup2\n        /* \"#utility.yul\":5145:5160   */\n      add\n        /* \"#utility.yul\":5137:5160   */\n      swap1\n      pop\n        /* \"#utility.yul\":4859:5167   */\n      swap2\n      swap1\n      pop\n      jump\t// out\n        /* \"#utility.yul\":5173:5319   */\n    tag_220:\n        /* \"#utility.yul\":5270:5276   */\n      dup3\n        /* \"#utility.yul\":5265:5268   */\n      dup2\n        /* \"#utility.yul\":5260:5263   */\n      dup4\n        /* \"#utility.yul\":5247:5277   */\n      calldatacopy\n        /* \"#utility.yul\":5311:5312   */\n      0x00\n        /* \"#utility.yul\":5302:5308   */\n      dup4\n        /* \"#utility.yul\":5297:5300   */\n      dup4\n        /* \"#utility.yul\":5293:5309   */\n      add\n        /* \"#utility.yul\":5286:5313   */\n      mstore\n        /* \"#utility.yul\":5173:5319   */\n      pop\n      pop\n      pop\n      jump\t// out\n        /* \"#utility.yul\":5325:5750   */\n    tag_221:\n        /* \"#utility.yul\":5403:5408   */\n      0x00\n        /* \"#utility.yul\":5428:5494   */\n      tag_345\n        /* \"#utility.yul\":5444:5493   */\n      tag_346\n        /* \"#utility.yul\":5486:5492   */\n      dup5\n        /* \"#utility.yul\":5444:5493   */\n      tag_219\n      jump\t// in\n    tag_346:\n        /* \"#utility.yul\":5428:5494   */\n      tag_218\n      jump\t// in\n    tag_345:\n        /* \"#utility.yul\":5419:5494   */\n      swap1\n      pop\n        /* \"#utility.yul\":5517:5523   */\n      dup3\n        /* \"#utility.yul\":5510:5515   */\n      dup2\n        /* \"#utility.yul\":5503:5524   */\n      mstore\n        /* \"#utility.yul\":5555:5559   */\n      0x20\n        /* \"#utility.yul\":5548:5553   */\n      dup2\n        /* \"#utility.yul\":5544:5560   */\n      add\n        /* \"#utility.yul\":5593:5596   */\n      dup5\n        /* \"#utility.yul\":5584:5590   */\n      dup5\n        /* \"#utility.yul\":5579:5582   */\n      dup5\n        /* \"#utility.yul\":5575:5591   */\n      add\n        /* \"#utility.yul\":5572:5597   */\n      gt\n        /* \"#utility.yul\":5569:5681   */\n      iszero\n      tag_347\n      jumpi\n        /* \"#utility.yul\":5600:5679   */\n      tag_348\n      tag_215\n      jump\t// in\n    tag_348:\n        /* \"#utility.yul\":5569:5681   */\n    tag_347:\n        /* \"#utility.yul\":5690:5744   */\n      tag_349\n        /* \"#utility.yul\":5737:5743   */\n      dup5\n        /* \"#utility.yul\":5732:5735   */\n      dup3\n        /* \"#utility.yul\":5727:5730   */\n      dup6\n        /* \"#utility.yul\":5690:5744   */\n      tag_220\n      jump\t// in\n    tag_349:\n        /* \"#utility.yul\":5409:5750   */\n      pop\n        /* \"#utility.yul\":5325:5750   */\n      swap4\n      swap3\n      pop\n      pop\n      pop\n      jump\t// out\n        /* \"#utility.yul\":5770:6110   */\n    tag_222:\n        /* \"#utility.yul\":5826:5831   */\n      0x00\n        /* \"#utility.yul\":5875:5878   */\n      dup3\n        /* \"#utility.yul\":5868:5872   */\n      0x1f\n        /* \"#utility.yul\":5860:5866   */\n      dup4\n        /* \"#utility.yul\":5856:5873   */\n      add\n        /* \"#utility.yul\":5852:5879   */\n      slt\n        /* \"#utility.yul\":5842:5964   */\n      tag_351\n      jumpi\n        /* \"#utility.yul\":5883:5962   */\n      tag_352\n      tag_214\n      jump\t// in\n    tag_352:\n        /* \"#utility.yul\":5842:5964   */\n    tag_351:\n        /* \"#utility.yul\":6000:6006   */\n      dup2\n        /* \"#utility.yul\":5987:6007   */\n      calldataload\n        /* \"#utility.yul\":6025:6104   */\n      tag_353\n        /* \"#utility.yul\":6100:6103   */\n      dup5\n        /* \"#utility.yul\":6092:6098   */\n      dup3\n        /* \"#utility.yul\":6085:6089   */\n      0x20\n        /* \"#utility.yul\":6077:6083   */\n      dup7\n        /* \"#utility.yul\":6073:6090   */\n      add\n        /* \"#utility.yul\":6025:6104   */\n      tag_221\n      jump\t// in\n    tag_353:\n        /* \"#utility.yul\":6016:6104   */\n      swap2\n      pop\n        /* \"#utility.yul\":5832:6110   */\n      pop\n        /* \"#utility.yul\":5770:6110   */\n      swap3\n      swap2\n      pop\n      pop\n      jump\t// out\n        /* \"#utility.yul\":6116:6770   */\n    tag_25:\n        /* \"#utility.yul\":6194:6200   */\n      0x00\n        /* \"#utility.yul\":6202:6208   */\n      dup1\n        /* \"#utility.yul\":6251:6253   */\n      0x40\n        /* \"#utility.yul\":6239:6248   */\n      dup4\n        /* \"#utility.yul\":6230:6237   */\n      dup6\n        /* \"#utility.yul\":6226:6249   */\n      sub\n        /* \"#utility.yul\":6222:6254   */\n      slt\n        /* \"#utility.yul\":6219:6338   */\n      iszero\n      tag_355\n      jumpi\n        /* \"#utility.yul\":6257:6336   */\n      tag_356\n      tag_197\n      jump\t// in\n    tag_356:\n        /* \"#utility.yul\":6219:6338   */\n    tag_355:\n        /* \"#utility.yul\":6377:6378   */\n      0x00\n        /* \"#utility.yul\":6402:6455   */\n      tag_357\n        /* \"#utility.yul\":6447:6454   */\n      dup6\n        /* \"#utility.yul\":6438:6444   */\n      dup3\n        /* \"#utility.yul\":6427:6436   */\n      dup7\n        /* \"#utility.yul\":6423:6445   */\n      add\n        /* \"#utility.yul\":6402:6455   */\n      tag_213\n      jump\t// in\n    tag_357:\n        /* \"#utility.yul\":6392:6455   */\n      swap3\n      pop\n        /* \"#utility.yul\":6348:6465   */\n      pop\n        /* \"#utility.yul\":6532:6534   */\n      0x20\n        /* \"#utility.yul\":6521:6530   */\n      dup4\n        /* \"#utility.yul\":6517:6535   */\n      add\n        /* \"#utility.yul\":6504:6536   */\n      calldataload\n        /* \"#utility.yul\":6563:6581   */\n      0xffffffffffffffff\n        /* \"#utility.yul\":6555:6561   */\n      dup2\n        /* \"#utility.yul\":6552:6582   */\n      gt\n        /* \"#utility.yul\":6549:6666   */\n      iszero\n      tag_358\n      jumpi\n        /* \"#utility.yul\":6585:6664   */\n      tag_359\n      tag_198\n      jump\t// in\n    tag_359:\n        /* \"#utility.yul\":6549:6666   */\n    tag_358:\n        /* \"#utility.yul\":6690:6753   */\n      tag_360\n        /* \"#utility.yul\":6745:6752   */\n      dup6\n        /* \"#utility.yul\":6736:6742   */\n      dup3\n        /* \"#utility.yul\":6725:6734   */\n      dup7\n        /* \"#utility.yul\":6721:6743   */\n      add\n        /* \"#utility.yul\":6690:6753   */\n      tag_222\n      jump\t// in\n    tag_360:\n        /* \"#utility.yul\":6680:6753   */\n      swap2\n      pop\n        /* \"#utility.yul\":6475:6763   */\n      pop\n        /* \"#utility.yul\":6116:6770   */\n      swap3\n      pop\n      swap3\n      swap1\n      pop\n      jump\t// out\n        /* \"#utility.yul\":6776:6875   */\n    tag_223:\n        /* \"#utility.yul\":6828:6834   */\n      0x00\n        /* \"#utility.yul\":6862:6867   */\n      dup2\n        /* \"#utility.yul\":6856:6868   */\n      mload\n        /* \"#utility.yul\":6846:6868   */\n      swap1\n      pop\n        /* \"#utility.yul\":6776:6875   */\n      swap2\n      swap1\n      pop\n      jump\t// out\n        /* \"#utility.yul\":6881:7050   */\n    tag_224:\n        /* \"#utility.yul\":6965:6976   */\n      0x00\n        /* \"#utility.yul\":6999:7005   */\n      dup3\n        /* \"#utility.yul\":6994:6997   */\n      dup3\n        /* \"#utility.yul\":6987:7006   */\n      mstore\n        /* \"#utility.yul\":7039:7043   */\n      0x20\n        /* \"#utility.yul\":7034:7037   */\n      dup3\n        /* \"#utility.yul\":7030:7044   */\n      add\n        /* \"#utility.yul\":7015:7044   */\n      swap1\n      pop\n        /* \"#utility.yul\":6881:7050   */\n      swap3\n      swap2\n      pop\n      pop\n      jump\t// out\n        /* \"#utility.yul\":7056:7302   */\n    tag_225:\n        /* \"#utility.yul\":7137:7138   */\n      0x00\n        /* \"#utility.yul\":7147:7260   */\n    tag_364:\n        /* \"#utility.yul\":7161:7167   */\n      dup4\n        /* \"#utility.yul\":7158:7159   */\n      dup2\n        /* \"#utility.yul\":7155:7168   */\n      lt\n        /* \"#utility.yul\":7147:7260   */\n      iszero\n      tag_366\n      jumpi\n        /* \"#utility.yul\":7246:7247   */\n      dup1\n        /* \"#utility.yul\":7241:7244   */\n      dup3\n        /* \"#utility.yul\":7237:7248   */\n      add\n        /* \"#utility.yul\":7231:7249   */\n      mload\n        /* \"#utility.yul\":7227:7228   */\n      dup2\n        /* \"#utility.yul\":7222:7225   */\n      dup5\n        /* \"#utility.yul\":7218:7229   */\n      add\n        /* \"#utility.yul\":7211:7250   */\n      mstore\n        /* \"#utility.yul\":7183:7185   */\n      0x20\n        /* \"#utility.yul\":7180:7181   */\n      dup2\n        /* \"#utility.yul\":7176:7186   */\n      add\n        /* \"#utility.yul\":7171:7186   */\n      swap1\n      pop\n        /* \"#utility.yul\":7147:7260   */\n      jump(tag_364)\n    tag_366:\n        /* \"#utility.yul\":7294:7295   */\n      0x00\n        /* \"#utility.yul\":7285:7291   */\n      dup5\n        /* \"#utility.yul\":7280:7283   */\n      dup5\n        /* \"#utility.yul\":7276:7292   */\n      add\n        /* \"#utility.yul\":7269:7296   */\n      mstore\n        /* \"#utility.yul\":7118:7302   */\n      pop\n        /* \"#utility.yul\":7056:7302   */\n      pop\n      pop\n      pop\n      jump\t// out\n        /* \"#utility.yul\":7308:7685   */\n    tag_226:\n        /* \"#utility.yul\":7396:7399   */\n      0x00\n        /* \"#utility.yul\":7424:7463   */\n      tag_368\n        /* \"#utility.yul\":7457:7462   */\n      dup3\n        /* \"#utility.yul\":7424:7463   */\n      tag_223\n      jump\t// in\n    tag_368:\n        /* \"#utility.yul\":7479:7550   */\n      tag_369\n        /* \"#utility.yul\":7543:7549   */\n      dup2\n        /* \"#utility.yul\":7538:7541   */\n      dup6\n        /* \"#utility.yul\":7479:7550   */\n      tag_224\n      jump\t// in\n    tag_369:\n        /* \"#utility.yul\":7472:7550   */\n      swap4\n      pop\n        /* \"#utility.yul\":7559:7624   */\n      tag_370\n        /* \"#utility.yul\":7617:7623   */\n      dup2\n        /* \"#utility.yul\":7612:7615   */\n      dup6\n        /* \"#utility.yul\":7605:7609   */\n      0x20\n        /* \"#utility.yul\":7598:7603   */\n      dup7\n        /* \"#utility.yul\":7594:7610   */\n      add\n        /* \"#utility.yul\":7559:7624   */\n      tag_225\n      jump\t// in\n    tag_370:\n        /* \"#utility.yul\":7649:7678   */\n      tag_371\n        /* \"#utility.yul\":7671:7677   */\n      dup2\n        /* \"#utility.yul\":7649:7678   */\n      tag_216\n      jump\t// in\n    tag_371:\n        /* \"#utility.yul\":7644:7647   */\n      dup5\n        /* \"#utility.yul\":7640:7679   */\n      add\n        /* \"#utility.yul\":7633:7679   */\n      swap2\n      pop\n        /* \"#utility.yul\":7400:7685   */\n      pop\n        /* \"#utility.yul\":7308:7685   */\n      swap3\n      swap2\n      pop\n      pop\n      jump\t// out\n        /* \"#utility.yul\":7691:8004   */\n    tag_28:\n        /* \"#utility.yul\":7804:7808   */\n      0x00\n        /* \"#utility.yul\":7842:7844   */\n      0x20\n        /* \"#utility.yul\":7831:7840   */\n      dup3\n        /* \"#utility.yul\":7827:7845   */\n      add\n        /* \"#utility.yul\":7819:7845   */\n      swap1\n      pop\n        /* \"#utility.yul\":7891:7900   */\n      dup2\n        /* \"#utility.yul\":7885:7889   */\n      dup2\n        /* \"#utility.yul\":7881:7901   */\n      sub\n        /* \"#utility.yul\":7877:7878   */\n      0x00\n        /* \"#utility.yul\":7866:7875   */\n      dup4\n        /* \"#utility.yul\":7862:7879   */\n      add\n        /* \"#utility.yul\":7855:7902   */\n      mstore\n        /* \"#utility.yul\":7919:7997   */\n      tag_373\n        /* \"#utility.yul\":7992:7996   */\n      dup2\n        /* \"#utility.yul\":7983:7989   */\n      dup5\n        /* \"#utility.yul\":7919:7997   */\n      tag_226\n      jump\t// in\n    tag_373:\n        /* \"#utility.yul\":7911:7997   */\n      swap1\n      pop\n        /* \"#utility.yul\":7691:8004   */\n      swap3\n      swap2\n      pop\n      pop\n      jump\t// out\n        /* \"#utility.yul\":8010:8339   */\n    tag_31:\n        /* \"#utility.yul\":8069:8075   */\n      0x00\n        /* \"#utility.yul\":8118:8120   */\n      0x20\n        /* \"#utility.yul\":8106:8115   */\n      dup3\n        /* \"#utility.yul\":8097:8104   */\n      dup5\n        /* \"#utility.yul\":8093:8116   */\n      sub\n        /* \"#utility.yul\":8089:8121   */\n      slt\n        /* \"#utility.yul\":8086:8205   */\n      iszero\n      tag_375\n      jumpi\n        /* \"#utility.yul\":8124:8203   */\n      tag_376\n      tag_197\n      jump\t// in\n    tag_376:\n        /* \"#utility.yul\":8086:8205   */\n    tag_375:\n        /* \"#utility.yul\":8244:8245   */\n      0x00\n        /* \"#utility.yul\":8269:8322   */\n      tag_377\n        /* \"#utility.yul\":8314:8321   */\n      dup5\n        /* \"#utility.yul\":8305:8311   */\n      dup3\n        /* \"#utility.yul\":8294:8303   */\n      dup6\n        /* \"#utility.yul\":8290:8312   */\n      add\n        /* \"#utility.yul\":8269:8322   */\n      tag_213\n      jump\t// in\n    tag_377:\n        /* \"#utility.yul\":8259:8322   */\n      swap2\n      pop\n        /* \"#utility.yul\":8215:8332   */\n      pop\n        /* \"#utility.yul\":8010:8339   */\n      swap3\n      swap2\n      pop\n      pop\n      jump\t// out\n        /* \"#utility.yul\":8345:8431   */\n    tag_227:\n        /* \"#utility.yul\":8380:8387   */\n      0x00\n        /* \"#utility.yul\":8420:8424   */\n      0xff\n        /* \"#utility.yul\":8413:8418   */\n      dup3\n        /* \"#utility.yul\":8409:8425   */\n      and\n        /* \"#utility.yul\":8398:8425   */\n      swap1\n      pop\n        /* \"#utility.yul\":8345:8431   */\n      swap2\n      swap1\n      pop\n      jump\t// out\n        /* \"#utility.yul\":8437:8555   */\n    tag_228:\n        /* \"#utility.yul\":8508:8530   */\n      tag_380\n        /* \"#utility.yul\":8524:8529   */\n      dup2\n        /* \"#utility.yul\":8508:8530   */\n      tag_227\n      jump\t// in\n    tag_380:\n        /* \"#utility.yul\":8501:8506   */\n      dup2\n        /* \"#utility.yul\":8498:8531   */\n      eq\n        /* \"#utility.yul\":8488:8549   */\n      tag_381\n      jumpi\n        /* \"#utility.yul\":8545:8546   */\n      0x00\n        /* \"#utility.yul\":8542:8543   */\n      dup1\n        /* \"#utility.yul\":8535:8547   */\n      revert\n        /* \"#utility.yul\":8488:8549   */\n    tag_381:\n        /* \"#utility.yul\":8437:8555   */\n      pop\n      jump\t// out\n        /* \"#utility.yul\":8561:8696   */\n    tag_229:\n        /* \"#utility.yul\":8605:8610   */\n      0x00\n        /* \"#utility.yul\":8643:8649   */\n      dup2\n        /* \"#utility.yul\":8630:8650   */\n      calldataload\n        /* \"#utility.yul\":8621:8650   */\n      swap1\n      pop\n        /* \"#utility.yul\":8659:8690   */\n      tag_383\n        /* \"#utility.yul\":8684:8689   */\n      dup2\n        /* \"#utility.yul\":8659:8690   */\n      tag_228\n      jump\t// in\n    tag_383:\n        /* \"#utility.yul\":8561:8696   */\n      swap3\n      swap2\n      pop\n      pop\n      jump\t// out\n        /* \"#utility.yul\":8702:8779   */\n    tag_230:\n        /* \"#utility.yul\":8739:8746   */\n      0x00\n        /* \"#utility.yul\":8768:8773   */\n      dup2\n        /* \"#utility.yul\":8757:8773   */\n      swap1\n      pop\n        /* \"#utility.yul\":8702:8779   */\n      swap2\n      swap1\n      pop\n      jump\t// out\n        /* \"#utility.yul\":8785:8907   */\n    tag_231:\n        /* \"#utility.yul\":8858:8882   */\n      tag_386\n        /* \"#utility.yul\":8876:8881   */\n      dup2\n        /* \"#utility.yul\":8858:8882   */\n      tag_230\n      jump\t// in\n    tag_386:\n        /* \"#utility.yul\":8851:8856   */\n      dup2\n        /* \"#utility.yul\":8848:8883   */\n      eq\n        /* \"#utility.yul\":8838:8901   */\n      tag_387\n      jumpi\n        /* \"#utility.yul\":8897:8898   */\n      0x00\n        /* \"#utility.yul\":8894:8895   */\n      dup1\n        /* \"#utility.yul\":8887:8899   */\n      revert\n        /* \"#utility.yul\":8838:8901   */\n    tag_387:\n        /* \"#utility.yul\":8785:8907   */\n      pop\n      jump\t// out\n        /* \"#utility.yul\":8913:9052   */\n    tag_232:\n        /* \"#utility.yul\":8959:8964   */\n      0x00\n        /* \"#utility.yul\":8997:9003   */\n      dup2\n        /* \"#utility.yul\":8984:9004   */\n      calldataload\n        /* \"#utility.yul\":8975:9004   */\n      swap1\n      pop\n        /* \"#utility.yul\":9013:9046   */\n      tag_389\n        /* \"#utility.yul\":9040:9045   */\n      dup2\n        /* \"#utility.yul\":9013:9046   */\n      tag_231\n      jump\t// in\n    tag_389:\n        /* \"#utility.yul\":8913:9052   */\n      swap3\n      swap2\n      pop\n      pop\n      jump\t// out\n        /* \"#utility.yul\":9058:10145   */\n    tag_35:\n        /* \"#utility.yul\":9161:9167   */\n      0x00\n        /* \"#utility.yul\":9169:9175   */\n      dup1\n        /* \"#utility.yul\":9177:9183   */\n      0x00\n        /* \"#utility.yul\":9185:9191   */\n      dup1\n        /* \"#utility.yul\":9193:9199   */\n      0x00\n        /* \"#utility.yul\":9242:9245   */\n      0xa0\n        /* \"#utility.yul\":9230:9239   */\n      dup7\n        /* \"#utility.yul\":9221:9228   */\n      dup9\n        /* \"#utility.yul\":9217:9240   */\n      sub\n        /* \"#utility.yul\":9213:9246   */\n      slt\n        /* \"#utility.yul\":9210:9330   */\n      iszero\n      tag_391\n      jumpi\n        /* \"#utility.yul\":9249:9328   */\n      tag_392\n      tag_197\n      jump\t// in\n    tag_392:\n        /* \"#utility.yul\":9210:9330   */\n    tag_391:\n        /* \"#utility.yul\":9397:9398   */\n      0x00\n        /* \"#utility.yul\":9386:9395   */\n      dup7\n        /* \"#utility.yul\":9382:9399   */\n      add\n        /* \"#utility.yul\":9369:9400   */\n      calldataload\n        /* \"#utility.yul\":9427:9445   */\n      0xffffffffffffffff\n        /* \"#utility.yul\":9419:9425   */\n      dup2\n        /* \"#utility.yul\":9416:9446   */\n      gt\n        /* \"#utility.yul\":9413:9530   */\n      iszero\n      tag_393\n      jumpi\n        /* \"#utility.yul\":9449:9528   */\n      tag_394\n      tag_198\n      jump\t// in\n    tag_394:\n        /* \"#utility.yul\":9413:9530   */\n    tag_393:\n        /* \"#utility.yul\":9554:9617   */\n      tag_395\n        /* \"#utility.yul\":9609:9616   */\n      dup9\n        /* \"#utility.yul\":9600:9606   */\n      dup3\n        /* \"#utility.yul\":9589:9598   */\n      dup10\n        /* \"#utility.yul\":9585:9607   */\n      add\n        /* \"#utility.yul\":9554:9617   */\n      tag_222\n      jump\t// in\n    tag_395:\n        /* \"#utility.yul\":9544:9617   */\n      swap6\n      pop\n        /* \"#utility.yul\":9340:9627   */\n      pop\n        /* \"#utility.yul\":9666:9668   */\n      0x20\n        /* \"#utility.yul\":9692:9743   */\n      tag_396\n        /* \"#utility.yul\":9735:9742   */\n      dup9\n        /* \"#utility.yul\":9726:9732   */\n      dup3\n        /* \"#utility.yul\":9715:9724   */\n      dup10\n        /* \"#utility.yul\":9711:9733   */\n      add\n        /* \"#utility.yul\":9692:9743   */\n      tag_229\n      jump\t// in\n    tag_396:\n        /* \"#utility.yul\":9682:9743   */\n      swap5\n      pop\n        /* \"#utility.yul\":9637:9753   */\n      pop\n        /* \"#utility.yul\":9792:9794   */\n      0x40\n        /* \"#utility.yul\":9818:9871   */\n      tag_397\n        /* \"#utility.yul\":9863:9870   */\n      dup9\n        /* \"#utility.yul\":9854:9860   */\n      dup3\n        /* \"#utility.yul\":9843:9852   */\n      dup10\n        /* \"#utility.yul\":9839:9861   */\n      add\n        /* \"#utility.yul\":9818:9871   */\n      tag_232\n      jump\t// in\n    tag_397:\n        /* \"#utility.yul\":9808:9871   */\n      swap4\n      pop\n        /* \"#utility.yul\":9763:9881   */\n      pop\n        /* \"#utility.yul\":9920:9922   */\n      0x60\n        /* \"#utility.yul\":9946:9999   */\n      tag_398\n        /* \"#utility.yul\":9991:9998   */\n      dup9\n        /* \"#utility.yul\":9982:9988   */\n      dup3\n        /* \"#utility.yul\":9971:9980   */\n      dup10\n        /* \"#utility.yul\":9967:9989   */\n      add\n        /* \"#utility.yul\":9946:9999   */\n      tag_232\n      jump\t// in\n    tag_398:\n        /* \"#utility.yul\":9936:9999   */\n      swap3\n      pop\n        /* \"#utility.yul\":9891:10009   */\n      pop\n        /* \"#utility.yul\":10048:10051   */\n      0x80\n        /* \"#utility.yul\":10075:10128   */\n      tag_399\n        /* \"#utility.yul\":10120:10127   */\n      dup9\n        /* \"#utility.yul\":10111:10117   */\n      dup3\n        /* \"#utility.yul\":10100:10109   */\n      dup10\n        /* \"#utility.yul\":10096:10118   */\n      add\n        /* \"#utility.yul\":10075:10128   */\n      tag_232\n      jump\t// in\n    tag_399:\n        /* \"#utility.yul\":10065:10128   */\n      swap2\n      pop\n        /* \"#utility.yul\":10019:10138   */\n      pop\n        /* \"#utility.yul\":9058:10145   */\n      swap3\n      swap6\n      pop\n      swap3\n      swap6\n      swap1\n      swap4\n      pop\n      jump\t// out\n        /* \"#utility.yul\":10151:10241   */\n    tag_233:\n        /* \"#utility.yul\":10185:10192   */\n      0x00\n        /* \"#utility.yul\":10228:10233   */\n      dup2\n        /* \"#utility.yul\":10221:10234   */\n      iszero\n        /* \"#utility.yul\":10214:10235   */\n      iszero\n        /* \"#utility.yul\":10203:10235   */\n      swap1\n      pop\n        /* \"#utility.yul\":10151:10241   */\n      swap2\n      swap1\n      pop\n      jump\t// out\n        /* \"#utility.yul\":10247:10356   */\n    tag_234:\n        /* \"#utility.yul\":10328:10349   */\n      tag_402\n        /* \"#utility.yul\":10343:10348   */\n      dup2\n        /* \"#utility.yul\":10328:10349   */\n      tag_233\n      jump\t// in\n    tag_402:\n        /* \"#utility.yul\":10323:10326   */\n      dup3\n        /* \"#utility.yul\":10316:10350   */\n      mstore\n        /* \"#utility.yul\":10247:10356   */\n      pop\n      pop\n      jump\t// out\n        /* \"#utility.yul\":10362:10682   */\n    tag_41:\n        /* \"#utility.yul\":10477:10481   */\n      0x00\n        /* \"#utility.yul\":10515:10517   */\n      0x40\n        /* \"#utility.yul\":10504:10513   */\n      dup3\n        /* \"#utility.yul\":10500:10518   */\n      add\n        /* \"#utility.yul\":10492:10518   */\n      swap1\n      pop\n        /* \"#utility.yul\":10528:10599   */\n      tag_404\n        /* \"#utility.yul\":10596:10597   */\n      0x00\n        /* \"#utility.yul\":10585:10594   */\n      dup4\n        /* \"#utility.yul\":10581:10598   */\n      add\n        /* \"#utility.yul\":10572:10578   */\n      dup6\n        /* \"#utility.yul\":10528:10599   */\n      tag_204\n      jump\t// in\n    tag_404:\n        /* \"#utility.yul\":10609:10675   */\n      tag_405\n        /* \"#utility.yul\":10671:10673   */\n      0x20\n        /* \"#utility.yul\":10660:10669   */\n      dup4\n        /* \"#utility.yul\":10656:10674   */\n      add\n        /* \"#utility.yul\":10647:10653   */\n      dup5\n        /* \"#utility.yul\":10609:10675   */\n      tag_234\n      jump\t// in\n    tag_405:\n        /* \"#utility.yul\":10362:10682   */\n      swap4\n      swap3\n      pop\n      pop\n      pop\n      jump\t// out\n        /* \"#utility.yul\":10688:12573   */\n    tag_44:\n        /* \"#utility.yul\":10838:10844   */\n      0x00\n        /* \"#utility.yul\":10846:10852   */\n      dup1\n        /* \"#utility.yul\":10854:10860   */\n      0x00\n        /* \"#utility.yul\":10862:10868   */\n      dup1\n        /* \"#utility.yul\":10870:10876   */\n      0x00\n        /* \"#utility.yul\":10878:10884   */\n      dup1\n        /* \"#utility.yul\":10886:10892   */\n      0x00\n        /* \"#utility.yul\":10894:10900   */\n      dup1\n        /* \"#utility.yul\":10943:10946   */\n      0x0100\n        /* \"#utility.yul\":10931:10940   */\n      dup10\n        /* \"#utility.yul\":10922:10929   */\n      dup12\n        /* \"#utility.yul\":10918:10941   */\n      sub\n        /* \"#utility.yul\":10914:10947   */\n      slt\n        /* \"#utility.yul\":10911:11031   */\n      iszero\n      tag_407\n      jumpi\n        /* \"#utility.yul\":10950:11029   */\n      tag_408\n      tag_197\n      jump\t// in\n    tag_408:\n        /* \"#utility.yul\":10911:11031   */\n    tag_407:\n        /* \"#utility.yul\":11098:11099   */\n      0x00\n        /* \"#utility.yul\":11087:11096   */\n      dup10\n        /* \"#utility.yul\":11083:11100   */\n      add\n        /* \"#utility.yul\":11070:11101   */\n      calldataload\n        /* \"#utility.yul\":11128:11146   */\n      0xffffffffffffffff\n        /* \"#utility.yul\":11120:11126   */\n      dup2\n        /* \"#utility.yul\":11117:11147   */\n      gt\n        /* \"#utility.yul\":11114:11231   */\n      iszero\n      tag_409\n      jumpi\n        /* \"#utility.yul\":11150:11229   */\n      tag_410\n      tag_198\n      jump\t// in\n    tag_410:\n        /* \"#utility.yul\":11114:11231   */\n    tag_409:\n        /* \"#utility.yul\":11255:11318   */\n      tag_411\n        /* \"#utility.yul\":11310:11317   */\n      dup12\n        /* \"#utility.yul\":11301:11307   */\n      dup3\n        /* \"#utility.yul\":11290:11299   */\n      dup13\n        /* \"#utility.yul\":11286:11308   */\n      add\n        /* \"#utility.yul\":11255:11318   */\n      tag_222\n      jump\t// in\n    tag_411:\n        /* \"#utility.yul\":11245:11318   */\n      swap9\n      pop\n        /* \"#utility.yul\":11041:11328   */\n      pop\n        /* \"#utility.yul\":11395:11397   */\n      0x20\n        /* \"#utility.yul\":11384:11393   */\n      dup10\n        /* \"#utility.yul\":11380:11398   */\n      add\n        /* \"#utility.yul\":11367:11399   */\n      calldataload\n        /* \"#utility.yul\":11426:11444   */\n      0xffffffffffffffff\n        /* \"#utility.yul\":11418:11424   */\n      dup2\n        /* \"#utility.yul\":11415:11445   */\n      gt\n        /* \"#utility.yul\":11412:11529   */\n      iszero\n      tag_412\n      jumpi\n        /* \"#utility.yul\":11448:11527   */\n      tag_413\n      tag_198\n      jump\t// in\n    tag_413:\n        /* \"#utility.yul\":11412:11529   */\n    tag_412:\n        /* \"#utility.yul\":11553:11616   */\n      tag_414\n        /* \"#utility.yul\":11608:11615   */\n      dup12\n        /* \"#utility.yul\":11599:11605   */\n      dup3\n        /* \"#utility.yul\":11588:11597   */\n      dup13\n        /* \"#utility.yul\":11584:11606   */\n      add\n        /* \"#utility.yul\":11553:11616   */\n      tag_222\n      jump\t// in\n    tag_414:\n        /* \"#utility.yul\":11543:11616   */\n      swap8\n      pop\n        /* \"#utility.yul\":11338:11626   */\n      pop\n        /* \"#utility.yul\":11693:11695   */\n      0x40\n        /* \"#utility.yul\":11682:11691   */\n      dup10\n        /* \"#utility.yul\":11678:11696   */\n      add\n        /* \"#utility.yul\":11665:11697   */\n      calldataload\n        /* \"#utility.yul\":11724:11742   */\n      0xffffffffffffffff\n        /* \"#utility.yul\":11716:11722   */\n      dup2\n        /* \"#utility.yul\":11713:11743   */\n      gt\n        /* \"#utility.yul\":11710:11827   */\n      iszero\n      tag_415\n      jumpi\n        /* \"#utility.yul\":11746:11825   */\n      tag_416\n      tag_198\n      jump\t// in\n    tag_416:\n        /* \"#utility.yul\":11710:11827   */\n    tag_415:\n        /* \"#utility.yul\":11851:11914   */\n      tag_417\n        /* \"#utility.yul\":11906:11913   */\n      dup12\n        /* \"#utility.yul\":11897:11903   */\n      dup3\n        /* \"#utility.yul\":11886:11895   */\n      dup13\n        /* \"#utility.yul\":11882:11904   */\n      add\n        /* \"#utility.yul\":11851:11914   */\n      tag_222\n      jump\t// in\n    tag_417:\n        /* \"#utility.yul\":11841:11914   */\n      swap7\n      pop\n        /* \"#utility.yul\":11636:11924   */\n      pop\n        /* \"#utility.yul\":11963:11965   */\n      0x60\n        /* \"#utility.yul\":11989:12042   */\n      tag_418\n        /* \"#utility.yul\":12034:12041   */\n      dup12\n        /* \"#utility.yul\":12025:12031   */\n      dup3\n        /* \"#utility.yul\":12014:12023   */\n      dup13\n        /* \"#utility.yul\":12010:12032   */\n      add\n        /* \"#utility.yul\":11989:12042   */\n      tag_201\n      jump\t// in\n    tag_418:\n        /* \"#utility.yul\":11979:12042   */\n      swap6\n      pop\n        /* \"#utility.yul\":11934:12052   */\n      pop\n        /* \"#utility.yul\":12091:12094   */\n      0x80\n        /* \"#utility.yul\":12118:12169   */\n      tag_419\n        /* \"#utility.yul\":12161:12168   */\n      dup12\n        /* \"#utility.yul\":12152:12158   */\n      dup3\n        /* \"#utility.yul\":12141:12150   */\n      dup13\n        /* \"#utility.yul\":12137:12159   */\n      add\n        /* \"#utility.yul\":12118:12169   */\n      tag_229\n      jump\t// in\n    tag_419:\n        /* \"#utility.yul\":12108:12169   */\n      swap5\n      pop\n        /* \"#utility.yul\":12062:12179   */\n      pop\n        /* \"#utility.yul\":12218:12221   */\n      0xa0\n        /* \"#utility.yul\":12245:12298   */\n      tag_420\n        /* \"#utility.yul\":12290:12297   */\n      dup12\n        /* \"#utility.yul\":12281:12287   */\n      dup3\n        /* \"#utility.yul\":12270:12279   */\n      dup13\n        /* \"#utility.yul\":12266:12288   */\n      add\n        /* \"#utility.yul\":12245:12298   */\n      tag_232\n      jump\t// in\n    tag_420:\n        /* \"#utility.yul\":12235:12298   */\n      swap4\n      pop\n        /* \"#utility.yul\":12189:12308   */\n      pop\n        /* \"#utility.yul\":12347:12350   */\n      0xc0\n        /* \"#utility.yul\":12374:12427   */\n      tag_421\n        /* \"#utility.yul\":12419:12426   */\n      dup12\n        /* \"#utility.yul\":12410:12416   */\n      dup3\n        /* \"#utility.yul\":12399:12408   */\n      dup13\n        /* \"#utility.yul\":12395:12417   */\n      add\n        /* \"#utility.yul\":12374:12427   */\n      tag_232\n      jump\t// in\n    tag_421:\n        /* \"#utility.yul\":12364:12427   */\n      swap3\n      pop\n        /* \"#utility.yul\":12318:12437   */\n      pop\n        /* \"#utility.yul\":12476:12479   */\n      0xe0\n        /* \"#utility.yul\":12503:12556   */\n      tag_422\n        /* \"#utility.yul\":12548:12555   */\n      dup12\n        /* \"#utility.yul\":12539:12545   */\n      dup3\n        /* \"#utility.yul\":12528:12537   */\n      dup13\n        /* \"#utility.yul\":12524:12546   */\n      add\n        /* \"#utility.yul\":12503:12556   */\n      tag_232\n      jump\t// in\n    tag_422:\n        /* \"#utility.yul\":12493:12556   */\n      swap2\n      pop\n        /* \"#utility.yul\":12447:12566   */\n      pop\n        /* \"#utility.yul\":10688:12573   */\n      swap3\n      swap6\n      swap9\n      pop\n      swap3\n      swap6\n      swap9\n      swap1\n      swap4\n      swap7\n      pop\n      jump\t// out\n        /* \"#utility.yul\":12579:12703   */\n    tag_235:\n        /* \"#utility.yul\":12656:12662   */\n      0x00\n        /* \"#utility.yul\":12690:12695   */\n      dup2\n        /* \"#utility.yul\":12684:12696   */\n      mload\n        /* \"#utility.yul\":12674:12696   */\n      swap1\n      pop\n        /* \"#utility.yul\":12579:12703   */\n      swap2\n      swap1\n      pop\n      jump\t// out\n        /* \"#utility.yul\":12709:12903   */\n    tag_236:\n        /* \"#utility.yul\":12818:12829   */\n      0x00\n        /* \"#utility.yul\":12852:12858   */\n      dup3\n        /* \"#utility.yul\":12847:12850   */\n      dup3\n        /* \"#utility.yul\":12840:12859   */\n      mstore\n        /* \"#utility.yul\":12892:12896   */\n      0x20\n        /* \"#utility.yul\":12887:12890   */\n      dup3\n        /* \"#utility.yul\":12883:12897   */\n      add\n        /* \"#utility.yul\":12868:12897   */\n      swap1\n      pop\n        /* \"#utility.yul\":12709:12903   */\n      swap3\n      swap2\n      pop\n      pop\n      jump\t// out\n        /* \"#utility.yul\":12909:13051   */\n    tag_237:\n        /* \"#utility.yul\":12986:12990   */\n      0x00\n        /* \"#utility.yul\":13009:13012   */\n      dup2\n        /* \"#utility.yul\":13001:13012   */\n      swap1\n      pop\n        /* \"#utility.yul\":13039:13043   */\n      0x20\n        /* \"#utility.yul\":13034:13037   */\n      dup3\n        /* \"#utility.yul\":13030:13044   */\n      add\n        /* \"#utility.yul\":13022:13044   */\n      swap1\n      pop\n        /* \"#utility.yul\":12909:13051   */\n      swap2\n      swap1\n      pop\n      jump\t// out\n        /* \"#utility.yul\":13057:13216   */\n    tag_238:\n        /* \"#utility.yul\":13131:13142   */\n      0x00\n        /* \"#utility.yul\":13165:13171   */\n      dup3\n        /* \"#utility.yul\":13160:13163   */\n      dup3\n        /* \"#utility.yul\":13153:13172   */\n      mstore\n        /* \"#utility.yul\":13205:13209   */\n      0x20\n        /* \"#utility.yul\":13200:13203   */\n      dup3\n        /* \"#utility.yul\":13196:13210   */\n      add\n        /* \"#utility.yul\":13181:13210   */\n      swap1\n      pop\n        /* \"#utility.yul\":13057:13216   */\n      swap3\n      swap2\n      pop\n      pop\n      jump\t// out\n        /* \"#utility.yul\":13222:13579   */\n    tag_239:\n        /* \"#utility.yul\":13300:13303   */\n      0x00\n        /* \"#utility.yul\":13328:13367   */\n      tag_428\n        /* \"#utility.yul\":13361:13366   */\n      dup3\n        /* \"#utility.yul\":13328:13367   */\n      tag_223\n      jump\t// in\n    tag_428:\n        /* \"#utility.yul\":13383:13444   */\n      tag_429\n        /* \"#utility.yul\":13437:13443   */\n      dup2\n        /* \"#utility.yul\":13432:13435   */\n      dup6\n        /* \"#utility.yul\":13383:13444   */\n      tag_238\n      jump\t// in\n    tag_429:\n        /* \"#utility.yul\":13376:13444   */\n      swap4\n      pop\n        /* \"#utility.yul\":13453:13518   */\n      tag_430\n        /* \"#utility.yul\":13511:13517   */\n      dup2\n        /* \"#utility.yul\":13506:13509   */\n      dup6\n        /* \"#utility.yul\":13499:13503   */\n      0x20\n        /* \"#utility.yul\":13492:13497   */\n      dup7\n        /* \"#utility.yul\":13488:13504   */\n      add\n        /* \"#utility.yul\":13453:13518   */\n      tag_225\n      jump\t// in\n    tag_430:\n        /* \"#utility.yul\":13543:13572   */\n      tag_431\n        /* \"#utility.yul\":13565:13571   */\n      dup2\n        /* \"#utility.yul\":13543:13572   */\n      tag_216\n      jump\t// in\n    tag_431:\n        /* \"#utility.yul\":13538:13541   */\n      dup5\n        /* \"#utility.yul\":13534:13573   */\n      add\n        /* \"#utility.yul\":13527:13573   */\n      swap2\n      pop\n        /* \"#utility.yul\":13304:13579   */\n      pop\n        /* \"#utility.yul\":13222:13579   */\n      swap3\n      swap2\n      pop\n      pop\n      jump\t// out\n        /* \"#utility.yul\":13585:13781   */\n    tag_240:\n        /* \"#utility.yul\":13674:13684   */\n      0x00\n        /* \"#utility.yul\":13709:13775   */\n      tag_433\n        /* \"#utility.yul\":13771:13774   */\n      dup4\n        /* \"#utility.yul\":13763:13769   */\n      dup4\n        /* \"#utility.yul\":13709:13775   */\n      tag_239\n      jump\t// in\n    tag_433:\n        /* \"#utility.yul\":13695:13775   */\n      swap1\n      pop\n        /* \"#utility.yul\":13585:13781   */\n      swap3\n      swap2\n      pop\n      pop\n      jump\t// out\n        /* \"#utility.yul\":13787:13910   */\n    tag_241:\n        /* \"#utility.yul\":13867:13871   */\n      0x00\n        /* \"#utility.yul\":13899:13903   */\n      0x20\n        /* \"#utility.yul\":13894:13897   */\n      dup3\n        /* \"#utility.yul\":13890:13904   */\n      add\n        /* \"#utility.yul\":13882:13904   */\n      swap1\n      pop\n        /* \"#utility.yul\":13787:13910   */\n      swap2\n      swap1\n      pop\n      jump\t// out\n        /* \"#utility.yul\":13944:14935   */\n    tag_242:\n        /* \"#utility.yul\":14083:14086   */\n      0x00\n        /* \"#utility.yul\":14112:14176   */\n      tag_436\n        /* \"#utility.yul\":14170:14175   */\n      dup3\n        /* \"#utility.yul\":14112:14176   */\n      tag_235\n      jump\t// in\n    tag_436:\n        /* \"#utility.yul\":14192:14288   */\n      tag_437\n        /* \"#utility.yul\":14281:14287   */\n      dup2\n        /* \"#utility.yul\":14276:14279   */\n      dup6\n        /* \"#utility.yul\":14192:14288   */\n      tag_236\n      jump\t// in\n    tag_437:\n        /* \"#utility.yul\":14185:14288   */\n      swap4\n      pop\n        /* \"#utility.yul\":14314:14317   */\n      dup4\n        /* \"#utility.yul\":14359:14363   */\n      0x20\n        /* \"#utility.yul\":14351:14357   */\n      dup3\n        /* \"#utility.yul\":14347:14364   */\n      mul\n        /* \"#utility.yul\":14342:14345   */\n      dup6\n        /* \"#utility.yul\":14338:14365   */\n      add\n        /* \"#utility.yul\":14389:14455   */\n      tag_438\n        /* \"#utility.yul\":14449:14454   */\n      dup6\n        /* \"#utility.yul\":14389:14455   */\n      tag_237\n      jump\t// in\n    tag_438:\n        /* \"#utility.yul\":14478:14485   */\n      dup1\n        /* \"#utility.yul\":14509:14510   */\n      0x00\n        /* \"#utility.yul\":14494:14890   */\n    tag_439:\n        /* \"#utility.yul\":14519:14525   */\n      dup6\n        /* \"#utility.yul\":14516:14517   */\n      dup2\n        /* \"#utility.yul\":14513:14526   */\n      lt\n        /* \"#utility.yul\":14494:14890   */\n      iszero\n      tag_441\n      jumpi\n        /* \"#utility.yul\":14590:14599   */\n      dup5\n        /* \"#utility.yul\":14584:14588   */\n      dup5\n        /* \"#utility.yul\":14580:14600   */\n      sub\n        /* \"#utility.yul\":14575:14578   */\n      dup10\n        /* \"#utility.yul\":14568:14601   */\n      mstore\n        /* \"#utility.yul\":14641:14647   */\n      dup2\n        /* \"#utility.yul\":14635:14648   */\n      mload\n        /* \"#utility.yul\":14669:14753   */\n      tag_442\n        /* \"#utility.yul\":14748:14752   */\n      dup6\n        /* \"#utility.yul\":14733:14746   */\n      dup3\n        /* \"#utility.yul\":14669:14753   */\n      tag_240\n      jump\t// in\n    tag_442:\n        /* \"#utility.yul\":14661:14753   */\n      swap5\n      pop\n        /* \"#utility.yul\":14776:14846   */\n      tag_443\n        /* \"#utility.yul\":14839:14845   */\n      dup4\n        /* \"#utility.yul\":14776:14846   */\n      tag_241\n      jump\t// in\n    tag_443:\n        /* \"#utility.yul\":14766:14846   */\n      swap3\n      pop\n        /* \"#utility.yul\":14875:14879   */\n      0x20\n        /* \"#utility.yul\":14870:14873   */\n      dup11\n        /* \"#utility.yul\":14866:14880   */\n      add\n        /* \"#utility.yul\":14859:14880   */\n      swap10\n      pop\n        /* \"#utility.yul\":14554:14890   */\n      pop\n        /* \"#utility.yul\":14541:14542   */\n      0x01\n        /* \"#utility.yul\":14538:14539   */\n      dup2\n        /* \"#utility.yul\":14534:14543   */\n      add\n        /* \"#utility.yul\":14529:14543   */\n      swap1\n      pop\n        /* \"#utility.yul\":14494:14890   */\n      jump(tag_439)\n    tag_441:\n        /* \"#utility.yul\":14498:14512   */\n      pop\n        /* \"#utility.yul\":14906:14910   */\n      dup3\n        /* \"#utility.yul\":14899:14910   */\n      swap8\n      pop\n        /* \"#utility.yul\":14926:14929   */\n      dup8\n        /* \"#utility.yul\":14919:14929   */\n      swap6\n      pop\n        /* \"#utility.yul\":14088:14935   */\n      pop\n      pop\n      pop\n      pop\n      pop\n        /* \"#utility.yul\":13944:14935   */\n      swap3\n      swap2\n      pop\n      pop\n      jump\t// out\n        /* \"#utility.yul\":14941:15354   */\n    tag_50:\n        /* \"#utility.yul\":15104:15108   */\n      0x00\n        /* \"#utility.yul\":15142:15144   */\n      0x20\n        /* \"#utility.yul\":15131:15140   */\n      dup3\n        /* \"#utility.yul\":15127:15145   */\n      add\n        /* \"#utility.yul\":15119:15145   */\n      swap1\n      pop\n        /* \"#utility.yul\":15191:15200   */\n      dup2\n        /* \"#utility.yul\":15185:15189   */\n      dup2\n        /* \"#utility.yul\":15181:15201   */\n      sub\n        /* \"#utility.yul\":15177:15178   */\n      0x00\n        /* \"#utility.yul\":15166:15175   */\n      dup4\n        /* \"#utility.yul\":15162:15179   */\n      add\n        /* \"#utility.yul\":15155:15202   */\n      mstore\n        /* \"#utility.yul\":15219:15347   */\n      tag_445\n        /* \"#utility.yul\":15342:15346   */\n      dup2\n        /* \"#utility.yul\":15333:15339   */\n      dup5\n        /* \"#utility.yul\":15219:15347   */\n      tag_242\n      jump\t// in\n    tag_445:\n        /* \"#utility.yul\":15211:15347   */\n      swap1\n      pop\n        /* \"#utility.yul\":14941:15354   */\n      swap3\n      swap2\n      pop\n      pop\n      jump\t// out\n        /* \"#utility.yul\":15360:15534   */\n    tag_243:\n        /* \"#utility.yul\":15500:15526   */\n      0x496e76616c69642070726f766964657220616464726573730000000000000000\n        /* \"#utility.yul\":15496:15497   */\n      0x00\n        /* \"#utility.yul\":15488:15494   */\n      dup3\n        /* \"#utility.yul\":15484:15498   */\n      add\n        /* \"#utility.yul\":15477:15527   */\n      mstore\n        /* \"#utility.yul\":15360:15534   */\n      pop\n      jump\t// out\n        /* \"#utility.yul\":15540:15906   */\n    tag_244:\n        /* \"#utility.yul\":15682:15685   */\n      0x00\n        /* \"#utility.yul\":15703:15770   */\n      tag_448\n        /* \"#utility.yul\":15767:15769   */\n      0x18\n        /* \"#utility.yul\":15762:15765   */\n      dup4\n        /* \"#utility.yul\":15703:15770   */\n      tag_224\n      jump\t// in\n    tag_448:\n        /* \"#utility.yul\":15696:15770   */\n      swap2\n      pop\n        /* \"#utility.yul\":15779:15872   */\n      tag_449\n        /* \"#utility.yul\":15868:15871   */\n      dup3\n        /* \"#utility.yul\":15779:15872   */\n      tag_243\n      jump\t// in\n    tag_449:\n        /* \"#utility.yul\":15897:15899   */\n      0x20\n        /* \"#utility.yul\":15892:15895   */\n      dup3\n        /* \"#utility.yul\":15888:15900   */\n      add\n        /* \"#utility.yul\":15881:15900   */\n      swap1\n      pop\n        /* \"#utility.yul\":15540:15906   */\n      swap2\n      swap1\n      pop\n      jump\t// out\n        /* \"#utility.yul\":15912:16331   */\n    tag_63:\n        /* \"#utility.yul\":16078:16082   */\n      0x00\n        /* \"#utility.yul\":16116:16118   */\n      0x20\n        /* \"#utility.yul\":16105:16114   */\n      dup3\n        /* \"#utility.yul\":16101:16119   */\n      add\n        /* \"#utility.yul\":16093:16119   */\n      swap1\n      pop\n        /* \"#utility.yul\":16165:16174   */\n      dup2\n        /* \"#utility.yul\":16159:16163   */\n      dup2\n        /* \"#utility.yul\":16155:16175   */\n      sub\n        /* \"#utility.yul\":16151:16152   */\n      0x00\n        /* \"#utility.yul\":16140:16149   */\n      dup4\n        /* \"#utility.yul\":16136:16153   */\n      add\n        /* \"#utility.yul\":16129:16176   */\n      mstore\n        /* \"#utility.yul\":16193:16324   */\n      tag_451\n        /* \"#utility.yul\":16319:16323   */\n      dup2\n        /* \"#utility.yul\":16193:16324   */\n      tag_244\n      jump\t// in\n    tag_451:\n        /* \"#utility.yul\":16185:16324   */\n      swap1\n      pop\n        /* \"#utility.yul\":15912:16331   */\n      swap2\n      swap1\n      pop\n      jump\t// out\n        /* \"#utility.yul\":16337:16485   */\n    tag_245:\n        /* \"#utility.yul\":16439:16450   */\n      0x00\n        /* \"#utility.yul\":16476:16479   */\n      dup2\n        /* \"#utility.yul\":16461:16479   */\n      swap1\n      pop\n        /* \"#utility.yul\":16337:16485   */\n      swap3\n      swap2\n      pop\n      pop\n      jump\t// out\n        /* \"#utility.yul\":16491:16881   */\n    tag_246:\n        /* \"#utility.yul\":16597:16600   */\n      0x00\n        /* \"#utility.yul\":16625:16664   */\n      tag_454\n        /* \"#utility.yul\":16658:16663   */\n      dup3\n        /* \"#utility.yul\":16625:16664   */\n      tag_223\n      jump\t// in\n    tag_454:\n        /* \"#utility.yul\":16680:16769   */\n      tag_455\n        /* \"#utility.yul\":16762:16768   */\n      dup2\n        /* \"#utility.yul\":16757:16760   */\n      dup6\n        /* \"#utility.yul\":16680:16769   */\n      tag_245\n      jump\t// in\n    tag_455:\n        /* \"#utility.yul\":16673:16769   */\n      swap4\n      pop\n        /* \"#utility.yul\":16778:16843   */\n      tag_456\n        /* \"#utility.yul\":16836:16842   */\n      dup2\n        /* \"#utility.yul\":16831:16834   */\n      dup6\n        /* \"#utility.yul\":16824:16828   */\n      0x20\n        /* \"#utility.yul\":16817:16822   */\n      dup7\n        /* \"#utility.yul\":16813:16829   */\n      add\n        /* \"#utility.yul\":16778:16843   */\n      tag_225\n      jump\t// in\n    tag_456:\n        /* \"#utility.yul\":16868:16874   */\n      dup1\n        /* \"#utility.yul\":16863:16866   */\n      dup5\n        /* \"#utility.yul\":16859:16875   */\n      add\n        /* \"#utility.yul\":16852:16875   */\n      swap2\n      pop\n        /* \"#utility.yul\":16601:16881   */\n      pop\n        /* \"#utility.yul\":16491:16881   */\n      swap3\n      swap2\n      pop\n      pop\n      jump\t// out\n        /* \"#utility.yul\":16887:17162   */\n    tag_65:\n        /* \"#utility.yul\":17019:17022   */\n      0x00\n        /* \"#utility.yul\":17041:17136   */\n      tag_458\n        /* \"#utility.yul\":17132:17135   */\n      dup3\n        /* \"#utility.yul\":17123:17129   */\n      dup5\n        /* \"#utility.yul\":17041:17136   */\n      tag_246\n      jump\t// in\n    tag_458:\n        /* \"#utility.yul\":17034:17136   */\n      swap2\n      pop\n        /* \"#utility.yul\":17153:17156   */\n      dup2\n        /* \"#utility.yul\":17146:17156   */\n      swap1\n      pop\n        /* \"#utility.yul\":16887:17162   */\n      swap3\n      swap2\n      pop\n      pop\n      jump\t// out\n        /* \"#utility.yul\":17168:17336   */\n    tag_247:\n        /* \"#utility.yul\":17308:17328   */\n      0x496e76616c69642073656e736f72204d41430000000000000000000000000000\n        /* \"#utility.yul\":17304:17305   */\n      0x00\n        /* \"#utility.yul\":17296:17302   */\n      dup3\n        /* \"#utility.yul\":17292:17306   */\n      add\n        /* \"#utility.yul\":17285:17329   */\n      mstore\n        /* \"#utility.yul\":17168:17336   */\n      pop\n      jump\t// out\n        /* \"#utility.yul\":17342:17708   */\n    tag_248:\n        /* \"#utility.yul\":17484:17487   */\n      0x00\n        /* \"#utility.yul\":17505:17572   */\n      tag_461\n        /* \"#utility.yul\":17569:17571   */\n      0x12\n        /* \"#utility.yul\":17564:17567   */\n      dup4\n        /* \"#utility.yul\":17505:17572   */\n      tag_224\n      jump\t// in\n    tag_461:\n        /* \"#utility.yul\":17498:17572   */\n      swap2\n      pop\n        /* \"#utility.yul\":17581:17674   */\n      tag_462\n        /* \"#utility.yul\":17670:17673   */\n      dup3\n        /* \"#utility.yul\":17581:17674   */\n      tag_247\n      jump\t// in\n    tag_462:\n        /* \"#utility.yul\":17699:17701   */\n      0x20\n        /* \"#utility.yul\":17694:17697   */\n      dup3\n        /* \"#utility.yul\":17690:17702   */\n      add\n        /* \"#utility.yul\":17683:17702   */\n      swap1\n      pop\n        /* \"#utility.yul\":17342:17708   */\n      swap2\n      swap1\n      pop\n      jump\t// out\n        /* \"#utility.yul\":17714:18133   */\n    tag_68:\n        /* \"#utility.yul\":17880:17884   */\n      0x00\n        /* \"#utility.yul\":17918:17920   */\n      0x20\n        /* \"#utility.yul\":17907:17916   */\n      dup3\n        /* \"#utility.yul\":17903:17921   */\n      add\n        /* \"#utility.yul\":17895:17921   */\n      swap1\n      pop\n        /* \"#utility.yul\":17967:17976   */\n      dup2\n        /* \"#utility.yul\":17961:17965   */\n      dup2\n        /* \"#utility.yul\":17957:17977   */\n      sub\n        /* \"#utility.yul\":17953:17954   */\n      0x00\n        /* \"#utility.yul\":17942:17951   */\n      dup4\n        /* \"#utility.yul\":17938:17955   */\n      add\n        /* \"#utility.yul\":17931:17978   */\n      mstore\n        /* \"#utility.yul\":17995:18126   */\n      tag_464\n        /* \"#utility.yul\":18121:18125   */\n      dup2\n        /* \"#utility.yul\":17995:18126   */\n      tag_248\n      jump\t// in\n    tag_464:\n        /* \"#utility.yul\":17987:18126   */\n      swap1\n      pop\n        /* \"#utility.yul\":17714:18133   */\n      swap2\n      swap1\n      pop\n      jump\t// out\n        /* \"#utility.yul\":18139:18319   */\n    tag_249:\n        /* \"#utility.yul\":18187:18264   */\n      0x4e487b7100000000000000000000000000000000000000000000000000000000\n        /* \"#utility.yul\":18184:18185   */\n      0x00\n        /* \"#utility.yul\":18177:18265   */\n      mstore\n        /* \"#utility.yul\":18284:18288   */\n      0x11\n        /* \"#utility.yul\":18281:18282   */\n      0x04\n        /* \"#utility.yul\":18274:18289   */\n      mstore\n        /* \"#utility.yul\":18308:18312   */\n      0x24\n        /* \"#utility.yul\":18305:18306   */\n      0x00\n        /* \"#utility.yul\":18298:18313   */\n      revert\n        /* \"#utility.yul\":18325:18519   */\n    tag_73:\n        /* \"#utility.yul\":18365:18369   */\n      0x00\n        /* \"#utility.yul\":18385:18405   */\n      tag_467\n        /* \"#utility.yul\":18403:18404   */\n      dup3\n        /* \"#utility.yul\":18385:18405   */\n      tag_199\n      jump\t// in\n    tag_467:\n        /* \"#utility.yul\":18380:18405   */\n      swap2\n      pop\n        /* \"#utility.yul\":18419:18439   */\n      tag_468\n        /* \"#utility.yul\":18437:18438   */\n      dup4\n        /* \"#utility.yul\":18419:18439   */\n      tag_199\n      jump\t// in\n    tag_468:\n        /* \"#utility.yul\":18414:18439   */\n      swap3\n      pop\n        /* \"#utility.yul\":18463:18464   */\n      dup3\n        /* \"#utility.yul\":18460:18461   */\n      dup3\n        /* \"#utility.yul\":18456:18465   */\n      sub\n        /* \"#utility.yul\":18448:18465   */\n      swap1\n      pop\n        /* \"#utility.yul\":18487:18488   */\n      dup2\n        /* \"#utility.yul\":18481:18485   */\n      dup2\n        /* \"#utility.yul\":18478:18489   */\n      gt\n        /* \"#utility.yul\":18475:18512   */\n      iszero\n      tag_469\n      jumpi\n        /* \"#utility.yul\":18492:18510   */\n      tag_470\n      tag_249\n      jump\t// in\n    tag_470:\n        /* \"#utility.yul\":18475:18512   */\n    tag_469:\n        /* \"#utility.yul\":18325:18519   */\n      swap3\n      swap2\n      pop\n      pop\n      jump\t// out\n        /* \"#utility.yul\":18525:18705   */\n    tag_76:\n        /* \"#utility.yul\":18573:18650   */\n      0x4e487b7100000000000000000000000000000000000000000000000000000000\n        /* \"#utility.yul\":18570:18571   */\n      0x00\n        /* \"#utility.yul\":18563:18651   */\n      mstore\n        /* \"#utility.yul\":18670:18674   */\n      0x32\n        /* \"#utility.yul\":18667:18668   */\n      0x04\n        /* \"#utility.yul\":18660:18675   */\n      mstore\n        /* \"#utility.yul\":18694:18698   */\n      0x24\n        /* \"#utility.yul\":18691:18692   */\n      0x00\n        /* \"#utility.yul\":18684:18699   */\n      revert\n        /* \"#utility.yul\":18711:18891   */\n    tag_250:\n        /* \"#utility.yul\":18759:18836   */\n      0x4e487b7100000000000000000000000000000000000000000000000000000000\n        /* \"#utility.yul\":18756:18757   */\n      0x00\n        /* \"#utility.yul\":18749:18837   */\n      mstore\n        /* \"#utility.yul\":18856:18860   */\n      0x22\n        /* \"#utility.yul\":18853:18854   */\n      0x04\n        /* \"#utility.yul\":18846:18861   */\n      mstore\n        /* \"#utility.yul\":18880:18884   */\n      0x24\n        /* \"#utility.yul\":18877:18878   */\n      0x00\n        /* \"#utility.yul\":18870:18885   */\n      revert\n        /* \"#utility.yul\":18897:19217   */\n    tag_79:\n        /* \"#utility.yul\":18941:18947   */\n      0x00\n        /* \"#utility.yul\":18978:18979   */\n      0x02\n        /* \"#utility.yul\":18972:18976   */\n      dup3\n        /* \"#utility.yul\":18968:18980   */\n      div\n        /* \"#utility.yul\":18958:18980   */\n      swap1\n      pop\n        /* \"#utility.yul\":19025:19026   */\n      0x01\n        /* \"#utility.yul\":19019:19023   */\n      dup3\n        /* \"#utility.yul\":19015:19027   */\n      and\n        /* \"#utility.yul\":19046:19064   */\n      dup1\n        /* \"#utility.yul\":19036:19117   */\n      tag_474\n      jumpi\n        /* \"#utility.yul\":19102:19106   */\n      0x7f\n        /* \"#utility.yul\":19094:19100   */\n      dup3\n        /* \"#utility.yul\":19090:19107   */\n      and\n        /* \"#utility.yul\":19080:19107   */\n      swap2\n      pop\n        /* \"#utility.yul\":19036:19117   */\n    tag_474:\n        /* \"#utility.yul\":19164:19166   */\n      0x20\n        /* \"#utility.yul\":19156:19162   */\n      dup3\n        /* \"#utility.yul\":19153:19167   */\n      lt\n        /* \"#utility.yul\":19133:19151   */\n      dup2\n        /* \"#utility.yul\":19130:19168   */\n      sub\n        /* \"#utility.yul\":19127:19211   */\n      tag_475\n      jumpi\n        /* \"#utility.yul\":19183:19201   */\n      tag_476\n      tag_250\n      jump\t// in\n    tag_476:\n        /* \"#utility.yul\":19127:19211   */\n    tag_475:\n        /* \"#utility.yul\":18948:19217   */\n      pop\n        /* \"#utility.yul\":18897:19217   */\n      swap2\n      swap1\n      pop\n      jump\t// out\n        /* \"#utility.yul\":19223:19450   */\n    tag_251:\n        /* \"#utility.yul\":19363:19397   */\n      0x4f6e6c7920636f6e74726163742773206f776e65722063616e20616464206120\n        /* \"#utility.yul\":19359:19360   */\n      0x00\n        /* \"#utility.yul\":19351:19357   */\n      dup3\n        /* \"#utility.yul\":19347:19361   */\n      add\n        /* \"#utility.yul\":19340:19398   */\n      mstore\n        /* \"#utility.yul\":19432:19442   */\n      0x70726f7669646572000000000000000000000000000000000000000000000000\n        /* \"#utility.yul\":19427:19429   */\n      0x20\n        /* \"#utility.yul\":19419:19425   */\n      dup3\n        /* \"#utility.yul\":19415:19430   */\n      add\n        /* \"#utility.yul\":19408:19443   */\n      mstore\n        /* \"#utility.yul\":19223:19450   */\n      pop\n      jump\t// out\n        /* \"#utility.yul\":19456:19822   */\n    tag_252:\n        /* \"#utility.yul\":19598:19601   */\n      0x00\n        /* \"#utility.yul\":19619:19686   */\n      tag_479\n        /* \"#utility.yul\":19683:19685   */\n      0x28\n        /* \"#utility.yul\":19678:19681   */\n      dup4\n        /* \"#utility.yul\":19619:19686   */\n      tag_224\n      jump\t// in\n    tag_479:\n        /* \"#utility.yul\":19612:19686   */\n      swap2\n      pop\n        /* \"#utility.yul\":19695:19788   */\n      tag_480\n        /* \"#utility.yul\":19784:19787   */\n      dup3\n        /* \"#utility.yul\":19695:19788   */\n      tag_251\n      jump\t// in\n    tag_480:\n        /* \"#utility.yul\":19813:19815   */\n      0x40\n        /* \"#utility.yul\":19808:19811   */\n      dup3\n        /* \"#utility.yul\":19804:19816   */\n      add\n        /* \"#utility.yul\":19797:19816   */\n      swap1\n      pop\n        /* \"#utility.yul\":19456:19822   */\n      swap2\n      swap1\n      pop\n      jump\t// out\n        /* \"#utility.yul\":19828:20247   */\n    tag_87:\n        /* \"#utility.yul\":19994:19998   */\n      0x00\n        /* \"#utility.yul\":20032:20034   */\n      0x20\n        /* \"#utility.yul\":20021:20030   */\n      dup3\n        /* \"#utility.yul\":20017:20035   */\n      add\n        /* \"#utility.yul\":20009:20035   */\n      swap1\n      pop\n        /* \"#utility.yul\":20081:20090   */\n      dup2\n        /* \"#utility.yul\":20075:20079   */\n      dup2\n        /* \"#utility.yul\":20071:20091   */\n      sub\n        /* \"#utility.yul\":20067:20068   */\n      0x00\n        /* \"#utility.yul\":20056:20065   */\n      dup4\n        /* \"#utility.yul\":20052:20069   */\n      add\n        /* \"#utility.yul\":20045:20092   */\n      mstore\n        /* \"#utility.yul\":20109:20240   */\n      tag_482\n        /* \"#utility.yul\":20235:20239   */\n      dup2\n        /* \"#utility.yul\":20109:20240   */\n      tag_252\n      jump\t// in\n    tag_482:\n        /* \"#utility.yul\":20101:20240   */\n      swap1\n      pop\n        /* \"#utility.yul\":19828:20247   */\n      swap2\n      swap1\n      pop\n      jump\t// out\n        /* \"#utility.yul\":20253:20429   */\n    tag_253:\n        /* \"#utility.yul\":20393:20421   */\n      0x50726f76696465722068617320616c7265616479206164646564000000000000\n        /* \"#utility.yul\":20389:20390   */\n      0x00\n        /* \"#utility.yul\":20381:20387   */\n      dup3\n        /* \"#utility.yul\":20377:20391   */\n      add\n        /* \"#utility.yul\":20370:20422   */\n      mstore\n        /* \"#utility.yul\":20253:20429   */\n      pop\n      jump\t// out\n        /* \"#utility.yul\":20435:20801   */\n    tag_254:\n        /* \"#utility.yul\":20577:20580   */\n      0x00\n        /* \"#utility.yul\":20598:20665   */\n      tag_485\n        /* \"#utility.yul\":20662:20664   */\n      0x1a\n        /* \"#utility.yul\":20657:20660   */\n      dup4\n        /* \"#utility.yul\":20598:20665   */\n      tag_224\n      jump\t// in\n    tag_485:\n        /* \"#utility.yul\":20591:20665   */\n      swap2\n      pop\n        /* \"#utility.yul\":20674:20767   */\n      tag_486\n        /* \"#utility.yul\":20763:20766   */\n      dup3\n        /* \"#utility.yul\":20674:20767   */\n      tag_253\n      jump\t// in\n    tag_486:\n        /* \"#utility.yul\":20792:20794   */\n      0x20\n        /* \"#utility.yul\":20787:20790   */\n      dup3\n        /* \"#utility.yul\":20783:20795   */\n      add\n        /* \"#utility.yul\":20776:20795   */\n      swap1\n      pop\n        /* \"#utility.yul\":20435:20801   */\n      swap2\n      swap1\n      pop\n      jump\t// out\n        /* \"#utility.yul\":20807:21226   */\n    tag_90:\n        /* \"#utility.yul\":20973:20977   */\n      0x00\n        /* \"#utility.yul\":21011:21013   */\n      0x20\n        /* \"#utility.yul\":21000:21009   */\n      dup3\n        /* \"#utility.yul\":20996:21014   */\n      add\n        /* \"#utility.yul\":20988:21014   */\n      swap1\n      pop\n        /* \"#utility.yul\":21060:21069   */\n      dup2\n        /* \"#utility.yul\":21054:21058   */\n      dup2\n        /* \"#utility.yul\":21050:21070   */\n      sub\n        /* \"#utility.yul\":21046:21047   */\n      0x00\n        /* \"#utility.yul\":21035:21044   */\n      dup4\n        /* \"#utility.yul\":21031:21048   */\n      add\n        /* \"#utility.yul\":21024:21071   */\n      mstore\n        /* \"#utility.yul\":21088:21219   */\n      tag_488\n        /* \"#utility.yul\":21214:21218   */\n      dup2\n        /* \"#utility.yul\":21088:21219   */\n      tag_254\n      jump\t// in\n    tag_488:\n        /* \"#utility.yul\":21080:21219   */\n      swap1\n      pop\n        /* \"#utility.yul\":20807:21226   */\n      swap2\n      swap1\n      pop\n      jump\t// out\n        /* \"#utility.yul\":21232:21350   */\n    tag_255:\n        /* \"#utility.yul\":21319:21343   */\n      tag_490\n        /* \"#utility.yul\":21337:21342   */\n      dup2\n        /* \"#utility.yul\":21319:21343   */\n      tag_199\n      jump\t// in\n    tag_490:\n        /* \"#utility.yul\":21314:21317   */\n      dup3\n        /* \"#utility.yul\":21307:21344   */\n      mstore\n        /* \"#utility.yul\":21232:21350   */\n      pop\n      pop\n      jump\t// out\n        /* \"#utility.yul\":21356:21578   */\n    tag_93:\n        /* \"#utility.yul\":21449:21453   */\n      0x00\n        /* \"#utility.yul\":21487:21489   */\n      0x20\n        /* \"#utility.yul\":21476:21485   */\n      dup3\n        /* \"#utility.yul\":21472:21490   */\n      add\n        /* \"#utility.yul\":21464:21490   */\n      swap1\n      pop\n        /* \"#utility.yul\":21500:21571   */\n      tag_492\n        /* \"#utility.yul\":21568:21569   */\n      0x00\n        /* \"#utility.yul\":21557:21566   */\n      dup4\n        /* \"#utility.yul\":21553:21570   */\n      add\n        /* \"#utility.yul\":21544:21550   */\n      dup5\n        /* \"#utility.yul\":21500:21571   */\n      tag_255\n      jump\t// in\n    tag_492:\n        /* \"#utility.yul\":21356:21578   */\n      swap3\n      swap2\n      pop\n      pop\n      jump\t// out\n        /* \"#utility.yul\":21584:21702   */\n    tag_256:\n        /* \"#utility.yul\":21671:21695   */\n      tag_494\n        /* \"#utility.yul\":21689:21694   */\n      dup2\n        /* \"#utility.yul\":21671:21695   */\n      tag_230\n      jump\t// in\n    tag_494:\n        /* \"#utility.yul\":21666:21669   */\n      dup3\n        /* \"#utility.yul\":21659:21696   */\n      mstore\n        /* \"#utility.yul\":21584:21702   */\n      pop\n      pop\n      jump\t// out\n        /* \"#utility.yul\":21708:21820   */\n    tag_257:\n        /* \"#utility.yul\":21791:21813   */\n      tag_496\n        /* \"#utility.yul\":21807:21812   */\n      dup2\n        /* \"#utility.yul\":21791:21813   */\n      tag_227\n      jump\t// in\n    tag_496:\n        /* \"#utility.yul\":21786:21789   */\n      dup3\n        /* \"#utility.yul\":21779:21814   */\n      mstore\n        /* \"#utility.yul\":21708:21820   */\n      pop\n      pop\n      jump\t// out\n        /* \"#utility.yul\":21826:22371   */\n    tag_96:\n        /* \"#utility.yul\":21999:22003   */\n      0x00\n        /* \"#utility.yul\":22037:22040   */\n      0x80\n        /* \"#utility.yul\":22026:22035   */\n      dup3\n        /* \"#utility.yul\":22022:22041   */\n      add\n        /* \"#utility.yul\":22014:22041   */\n      swap1\n      pop\n        /* \"#utility.yul\":22051:22122   */\n      tag_498\n        /* \"#utility.yul\":22119:22120   */\n      0x00\n        /* \"#utility.yul\":22108:22117   */\n      dup4\n        /* \"#utility.yul\":22104:22121   */\n      add\n        /* \"#utility.yul\":22095:22101   */\n      dup8\n        /* \"#utility.yul\":22051:22122   */\n      tag_256\n      jump\t// in\n    tag_498:\n        /* \"#utility.yul\":22132:22200   */\n      tag_499\n        /* \"#utility.yul\":22196:22198   */\n      0x20\n        /* \"#utility.yul\":22185:22194   */\n      dup4\n        /* \"#utility.yul\":22181:22199   */\n      add\n        /* \"#utility.yul\":22172:22178   */\n      dup7\n        /* \"#utility.yul\":22132:22200   */\n      tag_257\n      jump\t// in\n    tag_499:\n        /* \"#utility.yul\":22210:22282   */\n      tag_500\n        /* \"#utility.yul\":22278:22280   */\n      0x40\n        /* \"#utility.yul\":22267:22276   */\n      dup4\n        /* \"#utility.yul\":22263:22281   */\n      add\n        /* \"#utility.yul\":22254:22260   */\n      dup6\n        /* \"#utility.yul\":22210:22282   */\n      tag_256\n      jump\t// in\n    tag_500:\n        /* \"#utility.yul\":22292:22364   */\n      tag_501\n        /* \"#utility.yul\":22360:22362   */\n      0x60\n        /* \"#utility.yul\":22349:22358   */\n      dup4\n        /* \"#utility.yul\":22345:22363   */\n      add\n        /* \"#utility.yul\":22336:22342   */\n      dup5\n        /* \"#utility.yul\":22292:22364   */\n      tag_256\n      jump\t// in\n    tag_501:\n        /* \"#utility.yul\":21826:22371   */\n      swap6\n      swap5\n      pop\n      pop\n      pop\n      pop\n      pop\n      jump\t// out\n        /* \"#utility.yul\":22377:22606   */\n    tag_258:\n        /* \"#utility.yul\":22517:22551   */\n      0x496e76616c6964207369676e61747572652c2070726f766964657220646f6573\n        /* \"#utility.yul\":22513:22514   */\n      0x00\n        /* \"#utility.yul\":22505:22511   */\n      dup3\n        /* \"#utility.yul\":22501:22515   */\n      add\n        /* \"#utility.yul\":22494:22552   */\n      mstore\n        /* \"#utility.yul\":22586:22598   */\n      0x6e27742065786973747300000000000000000000000000000000000000000000\n        /* \"#utility.yul\":22581:22583   */\n      0x20\n        /* \"#utility.yul\":22573:22579   */\n      dup3\n        /* \"#utility.yul\":22569:22584   */\n      add\n        /* \"#utility.yul\":22562:22599   */\n      mstore\n        /* \"#utility.yul\":22377:22606   */\n      pop\n      jump\t// out\n        /* \"#utility.yul\":22612:22978   */\n    tag_259:\n        /* \"#utility.yul\":22754:22757   */\n      0x00\n        /* \"#utility.yul\":22775:22842   */\n      tag_504\n        /* \"#utility.yul\":22839:22841   */\n      0x2a\n        /* \"#utility.yul\":22834:22837   */\n      dup4\n        /* \"#utility.yul\":22775:22842   */\n      tag_224\n      jump\t// in\n    tag_504:\n        /* \"#utility.yul\":22768:22842   */\n      swap2\n      pop\n        /* \"#utility.yul\":22851:22944   */\n      tag_505\n        /* \"#utility.yul\":22940:22943   */\n      dup3\n        /* \"#utility.yul\":22851:22944   */\n      tag_258\n      jump\t// in\n    tag_505:\n        /* \"#utility.yul\":22969:22971   */\n      0x40\n        /* \"#utility.yul\":22964:22967   */\n      dup3\n        /* \"#utility.yul\":22960:22972   */\n      add\n        /* \"#utility.yul\":22953:22972   */\n      swap1\n      pop\n        /* \"#utility.yul\":22612:22978   */\n      swap2\n      swap1\n      pop\n      jump\t// out\n        /* \"#utility.yul\":22984:23403   */\n    tag_101:\n        /* \"#utility.yul\":23150:23154   */\n      0x00\n        /* \"#utility.yul\":23188:23190   */\n      0x20\n        /* \"#utility.yul\":23177:23186   */\n      dup3\n        /* \"#utility.yul\":23173:23191   */\n      add\n        /* \"#utility.yul\":23165:23191   */\n      swap1\n      pop\n        /* \"#utility.yul\":23237:23246   */\n      dup2\n        /* \"#utility.yul\":23231:23235   */\n      dup2\n        /* \"#utility.yul\":23227:23247   */\n      sub\n        /* \"#utility.yul\":23223:23224   */\n      0x00\n        /* \"#utility.yul\":23212:23221   */\n      dup4\n        /* \"#utility.yul\":23208:23225   */\n      add\n        /* \"#utility.yul\":23201:23248   */\n      mstore\n        /* \"#utility.yul\":23265:23396   */\n      tag_507\n        /* \"#utility.yul\":23391:23395   */\n      dup2\n        /* \"#utility.yul\":23265:23396   */\n      tag_259\n      jump\t// in\n    tag_507:\n        /* \"#utility.yul\":23257:23396   */\n      swap1\n      pop\n        /* \"#utility.yul\":22984:23403   */\n      swap2\n      swap1\n      pop\n      jump\t// out\n        /* \"#utility.yul\":23409:23583   */\n    tag_260:\n        /* \"#utility.yul\":23549:23575   */\n      0x53656e736f722068617320616c72656164792061646465640000000000000000\n        /* \"#utility.yul\":23545:23546   */\n      0x00\n        /* \"#utility.yul\":23537:23543   */\n      dup3\n        /* \"#utility.yul\":23533:23547   */\n      add\n        /* \"#utility.yul\":23526:23576   */\n      mstore\n        /* \"#utility.yul\":23409:23583   */\n      pop\n      jump\t// out\n        /* \"#utility.yul\":23589:23955   */\n    tag_261:\n        /* \"#utility.yul\":23731:23734   */\n      0x00\n        /* \"#utility.yul\":23752:23819   */\n      tag_510\n        /* \"#utility.yul\":23816:23818   */\n      0x18\n        /* \"#utility.yul\":23811:23814   */\n      dup4\n        /* \"#utility.yul\":23752:23819   */\n      tag_224\n      jump\t// in\n    tag_510:\n        /* \"#utility.yul\":23745:23819   */\n      swap2\n      pop\n        /* \"#utility.yul\":23828:23921   */\n      tag_511\n        /* \"#utility.yul\":23917:23920   */\n      dup3\n        /* \"#utility.yul\":23828:23921   */\n      tag_260\n      jump\t// in\n    tag_511:\n        /* \"#utility.yul\":23946:23948   */\n      0x20\n        /* \"#utility.yul\":23941:23944   */\n      dup3\n        /* \"#utility.yul\":23937:23949   */\n      add\n        /* \"#utility.yul\":23930:23949   */\n      swap1\n      pop\n        /* \"#utility.yul\":23589:23955   */\n      swap2\n      swap1\n      pop\n      jump\t// out\n        /* \"#utility.yul\":23961:24380   */\n    tag_105:\n        /* \"#utility.yul\":24127:24131   */\n      0x00\n        /* \"#utility.yul\":24165:24167   */\n      0x20\n        /* \"#utility.yul\":24154:24163   */\n      dup3\n        /* \"#utility.yul\":24150:24168   */\n      add\n        /* \"#utility.yul\":24142:24168   */\n      swap1\n      pop\n        /* \"#utility.yul\":24214:24223   */\n      dup2\n        /* \"#utility.yul\":24208:24212   */\n      dup2\n        /* \"#utility.yul\":24204:24224   */\n      sub\n        /* \"#utility.yul\":24200:24201   */\n      0x00\n        /* \"#utility.yul\":24189:24198   */\n      dup4\n        /* \"#utility.yul\":24185:24202   */\n      add\n        /* \"#utility.yul\":24178:24225   */\n      mstore\n        /* \"#utility.yul\":24242:24373   */\n      tag_513\n        /* \"#utility.yul\":24368:24372   */\n      dup2\n        /* \"#utility.yul\":24242:24373   */\n      tag_261\n      jump\t// in\n    tag_513:\n        /* \"#utility.yul\":24234:24373   */\n      swap1\n      pop\n        /* \"#utility.yul\":23961:24380   */\n      swap2\n      swap1\n      pop\n      jump\t// out\n        /* \"#utility.yul\":24386:24527   */\n    tag_262:\n        /* \"#utility.yul\":24435:24439   */\n      0x00\n        /* \"#utility.yul\":24458:24461   */\n      dup2\n        /* \"#utility.yul\":24450:24461   */\n      swap1\n      pop\n        /* \"#utility.yul\":24481:24484   */\n      dup2\n        /* \"#utility.yul\":24478:24479   */\n      0x00\n        /* \"#utility.yul\":24471:24485   */\n      mstore\n        /* \"#utility.yul\":24515:24519   */\n      0x20\n        /* \"#utility.yul\":24512:24513   */\n      0x00\n        /* \"#utility.yul\":24502:24520   */\n      keccak256\n        /* \"#utility.yul\":24494:24520   */\n      swap1\n      pop\n        /* \"#utility.yul\":24386:24527   */\n      swap2\n      swap1\n      pop\n      jump\t// out\n        /* \"#utility.yul\":24533:24626   */\n    tag_263:\n        /* \"#utility.yul\":24570:24576   */\n      0x00\n        /* \"#utility.yul\":24617:24619   */\n      0x20\n        /* \"#utility.yul\":24612:24614   */\n      0x1f\n        /* \"#utility.yul\":24605:24610   */\n      dup4\n        /* \"#utility.yul\":24601:24615   */\n      add\n        /* \"#utility.yul\":24597:24620   */\n      div\n        /* \"#utility.yul\":24587:24620   */\n      swap1\n      pop\n        /* \"#utility.yul\":24533:24626   */\n      swap2\n      swap1\n      pop\n      jump\t// out\n        /* \"#utility.yul\":24632:24739   */\n    tag_264:\n        /* \"#utility.yul\":24676:24684   */\n      0x00\n        /* \"#utility.yul\":24726:24731   */\n      dup3\n        /* \"#utility.yul\":24720:24724   */\n      dup3\n        /* \"#utility.yul\":24716:24732   */\n      shl\n        /* \"#utility.yul\":24695:24732   */\n      swap1\n      pop\n        /* \"#utility.yul\":24632:24739   */\n      swap3\n      swap2\n      pop\n      pop\n      jump\t// out\n        /* \"#utility.yul\":24745:25138   */\n    tag_265:\n        /* \"#utility.yul\":24814:24820   */\n      0x00\n        /* \"#utility.yul\":24864:24865   */\n      0x08\n        /* \"#utility.yul\":24852:24862   */\n      dup4\n        /* \"#utility.yul\":24848:24866   */\n      mul\n        /* \"#utility.yul\":24887:24984   */\n      tag_518\n        /* \"#utility.yul\":24917:24983   */\n      0xffffffffffffffffffffffffffffffffffffffffffffffffffffffffffffffff\n        /* \"#utility.yul\":24906:24915   */\n      dup3\n        /* \"#utility.yul\":24887:24984   */\n      tag_264\n      jump\t// in\n    tag_518:\n        /* \"#utility.yul\":25005:25044   */\n      tag_519\n        /* \"#utility.yul\":25035:25043   */\n      dup7\n        /* \"#utility.yul\":25024:25033   */\n      dup4\n        /* \"#utility.yul\":25005:25044   */\n      tag_264\n      jump\t// in\n    tag_519:\n        /* \"#utility.yul\":24993:25044   */\n      swap6\n      pop\n        /* \"#utility.yul\":25077:25081   */\n      dup1\n        /* \"#utility.yul\":25073:25082   */\n      not\n        /* \"#utility.yul\":25066:25071   */\n      dup5\n        /* \"#utility.yul\":25062:25083   */\n      and\n        /* \"#utility.yul\":25053:25083   */\n      swap4\n      pop\n        /* \"#utility.yul\":25126:25130   */\n      dup1\n        /* \"#utility.yul\":25116:25124   */\n      dup7\n        /* \"#utility.yul\":25112:25131   */\n      and\n        /* \"#utility.yul\":25105:25110   */\n      dup5\n        /* \"#utility.yul\":25102:25132   */\n      or\n        /* \"#utility.yul\":25092:25132   */\n      swap3\n      pop\n        /* \"#utility.yul\":24821:25138   */\n      pop\n      pop\n        /* \"#utility.yul\":24745:25138   */\n      swap4\n      swap3\n      pop\n      pop\n      pop\n      jump\t// out\n        /* \"#utility.yul\":25144:25204   */\n    tag_266:\n        /* \"#utility.yul\":25172:25175   */\n      0x00\n        /* \"#utility.yul\":25193:25198   */\n      dup2\n        /* \"#utility.yul\":25186:25198   */\n      swap1\n      pop\n        /* \"#utility.yul\":25144:25204   */\n      swap2\n      swap1\n      pop\n      jump\t// out\n        /* \"#utility.yul\":25210:25352   */\n    tag_267:\n        /* \"#utility.yul\":25260:25269   */\n      0x00\n        /* \"#utility.yul\":25293:25346   */\n      tag_522\n        /* \"#utility.yul\":25311:25345   */\n      tag_523\n        /* \"#utility.yul\":25320:25344   */\n      tag_524\n        /* \"#utility.yul\":25338:25343   */\n      dup5\n        /* \"#utility.yul\":25320:25344   */\n      tag_199\n      jump\t// in\n    tag_524:\n        /* \"#utility.yul\":25311:25345   */\n      tag_266\n      jump\t// in\n    tag_523:\n        /* \"#utility.yul\":25293:25346   */\n      tag_199\n      jump\t// in\n    tag_522:\n        /* \"#utility.yul\":25280:25346   */\n      swap1\n      pop\n        /* \"#utility.yul\":25210:25352   */\n      swap2\n      swap1\n      pop\n      jump\t// out\n        /* \"#utility.yul\":25358:25433   */\n    tag_268:\n        /* \"#utility.yul\":25401:25404   */\n      0x00\n        /* \"#utility.yul\":25422:25427   */\n      dup2\n        /* \"#utility.yul\":25415:25427   */\n      swap1\n      pop\n        /* \"#utility.yul\":25358:25433   */\n      swap2\n      swap1\n      pop\n      jump\t// out\n        /* \"#utility.yul\":25439:25708   */\n    tag_269:\n        /* \"#utility.yul\":25549:25588   */\n      tag_527\n        /* \"#utility.yul\":25580:25587   */\n      dup4\n        /* \"#utility.yul\":25549:25588   */\n      tag_267\n      jump\t// in\n    tag_527:\n        /* \"#utility.yul\":25610:25701   */\n      tag_528\n        /* \"#utility.yul\":25659:25700   */\n      tag_529\n        /* \"#utility.yul\":25683:25699   */\n      dup3\n        /* \"#utility.yul\":25659:25700   */\n      tag_268\n      jump\t// in\n    tag_529:\n        /* \"#utility.yul\":25651:25657   */\n      dup5\n        /* \"#utility.yul\":25644:25648   */\n      dup5\n        /* \"#utility.yul\":25638:25649   */\n      sload\n        /* \"#utility.yul\":25610:25701   */\n      tag_265\n      jump\t// in\n    tag_528:\n        /* \"#utility.yul\":25604:25608   */\n      dup3\n        /* \"#utility.yul\":25597:25702   */\n      sstore\n        /* \"#utility.yul\":25515:25708   */\n      pop\n        /* \"#utility.yul\":25439:25708   */\n      pop\n      pop\n      pop\n      jump\t// out\n        /* \"#utility.yul\":25714:25787   */\n    tag_270:\n        /* \"#utility.yul\":25759:25762   */\n      0x00\n        /* \"#utility.yul\":25714:25787   */\n      swap1\n      jump\t// out\n        /* \"#utility.yul\":25793:25982   */\n    tag_271:\n        /* \"#utility.yul\":25870:25902   */\n      tag_532\n      tag_270\n      jump\t// in\n    tag_532:\n        /* \"#utility.yul\":25911:25976   */\n      tag_533\n        /* \"#utility.yul\":25969:25975   */\n      dup2\n        /* \"#utility.yul\":25961:25967   */\n      dup5\n        /* \"#utility.yul\":25955:25959   */\n      dup5\n        /* \"#utility.yul\":25911:25976   */\n      tag_269\n      jump\t// in\n    tag_533:\n        /* \"#utility.yul\":25846:25982   */\n      pop\n        /* \"#utility.yul\":25793:25982   */\n      pop\n      pop\n      jump\t// out\n        /* \"#utility.yul\":25988:26174   */\n    tag_272:\n        /* \"#utility.yul\":26048:26168   */\n    tag_535:\n        /* \"#utility.yul\":26065:26068   */\n      dup2\n        /* \"#utility.yul\":26058:26063   */\n      dup2\n        /* \"#utility.yul\":26055:26069   */\n      lt\n        /* \"#utility.yul\":26048:26168   */\n      iszero\n      tag_537\n      jumpi\n        /* \"#utility.yul\":26119:26158   */\n      tag_538\n        /* \"#utility.yul\":26156:26157   */\n      0x00\n        /* \"#utility.yul\":26149:26154   */\n      dup3\n        /* \"#utility.yul\":26119:26158   */\n      tag_271\n      jump\t// in\n    tag_538:\n        /* \"#utility.yul\":26092:26093   */\n      0x01\n        /* \"#utility.yul\":26085:26090   */\n      dup2\n        /* \"#utility.yul\":26081:26094   */\n      add\n        /* \"#utility.yul\":26072:26094   */\n      swap1\n      pop\n        /* \"#utility.yul\":26048:26168   */\n      jump(tag_535)\n    tag_537:\n        /* \"#utility.yul\":25988:26174   */\n      pop\n      pop\n      jump\t// out\n        /* \"#utility.yul\":26180:26723   */\n    tag_273:\n        /* \"#utility.yul\":26281:26283   */\n      0x1f\n        /* \"#utility.yul\":26276:26279   */\n      dup3\n        /* \"#utility.yul\":26273:26284   */\n      gt\n        /* \"#utility.yul\":26270:26716   */\n      iszero\n      tag_540\n      jumpi\n        /* \"#utility.yul\":26315:26353   */\n      tag_541\n        /* \"#utility.yul\":26347:26352   */\n      dup2\n        /* \"#utility.yul\":26315:26353   */\n      tag_262\n      jump\t// in\n    tag_541:\n        /* \"#utility.yul\":26399:26428   */\n      tag_542\n        /* \"#utility.yul\":26417:26427   */\n      dup5\n        /* \"#utility.yul\":26399:26428   */\n      tag_263\n      jump\t// in\n    tag_542:\n        /* \"#utility.yul\":26389:26397   */\n      dup2\n        /* \"#utility.yul\":26385:26429   */\n      add\n        /* \"#utility.yul\":26582:26584   */\n      0x20\n        /* \"#utility.yul\":26570:26580   */\n      dup6\n        /* \"#utility.yul\":26567:26585   */\n      lt\n        /* \"#utility.yul\":26564:26613   */\n      iszero\n      tag_543\n      jumpi\n        /* \"#utility.yul\":26603:26611   */\n      dup2\n        /* \"#utility.yul\":26588:26611   */\n      swap1\n      pop\n        /* \"#utility.yul\":26564:26613   */\n    tag_543:\n        /* \"#utility.yul\":26626:26706   */\n      tag_544\n        /* \"#utility.yul\":26682:26704   */\n      tag_545\n        /* \"#utility.yul\":26700:26703   */\n      dup6\n        /* \"#utility.yul\":26682:26704   */\n      tag_263\n      jump\t// in\n    tag_545:\n        /* \"#utility.yul\":26672:26680   */\n      dup4\n        /* \"#utility.yul\":26668:26705   */\n      add\n        /* \"#utility.yul\":26655:26666   */\n      dup3\n        /* \"#utility.yul\":26626:26706   */\n      tag_272\n      jump\t// in\n    tag_544:\n        /* \"#utility.yul\":26285:26716   */\n      pop\n      pop\n        /* \"#utility.yul\":26270:26716   */\n    tag_540:\n        /* \"#utility.yul\":26180:26723   */\n      pop\n      pop\n      pop\n      jump\t// out\n        /* \"#utility.yul\":26729:26846   */\n    tag_274:\n        /* \"#utility.yul\":26783:26791   */\n      0x00\n        /* \"#utility.yul\":26833:26838   */\n      dup3\n        /* \"#utility.yul\":26827:26831   */\n      dup3\n        /* \"#utility.yul\":26823:26839   */\n      shr\n        /* \"#utility.yul\":26802:26839   */\n      swap1\n      pop\n        /* \"#utility.yul\":26729:26846   */\n      swap3\n      swap2\n      pop\n      pop\n      jump\t// out\n        /* \"#utility.yul\":26852:27021   */\n    tag_275:\n        /* \"#utility.yul\":26896:26902   */\n      0x00\n        /* \"#utility.yul\":26929:26980   */\n      tag_548\n        /* \"#utility.yul\":26977:26978   */\n      0x00\n        /* \"#utility.yul\":26973:26979   */\n      not\n        /* \"#utility.yul\":26965:26970   */\n      dup5\n        /* \"#utility.yul\":26962:26963   */\n      0x08\n        /* \"#utility.yul\":26958:26971   */\n      mul\n        /* \"#utility.yul\":26929:26980   */\n      tag_274\n      jump\t// in\n    tag_548:\n        /* \"#utility.yul\":26925:26981   */\n      not\n        /* \"#utility.yul\":27010:27014   */\n      dup1\n        /* \"#utility.yul\":27004:27008   */\n      dup4\n        /* \"#utility.yul\":27000:27015   */\n      and\n        /* \"#utility.yul\":26990:27015   */\n      swap2\n      pop\n        /* \"#utility.yul\":26903:27021   */\n      pop\n        /* \"#utility.yul\":26852:27021   */\n      swap3\n      swap2\n      pop\n      pop\n      jump\t// out\n        /* \"#utility.yul\":27026:27321   */\n    tag_276:\n        /* \"#utility.yul\":27102:27106   */\n      0x00\n        /* \"#utility.yul\":27248:27277   */\n      tag_550\n        /* \"#utility.yul\":27273:27276   */\n      dup4\n        /* \"#utility.yul\":27267:27271   */\n      dup4\n        /* \"#utility.yul\":27248:27277   */\n      tag_275\n      jump\t// in\n    tag_550:\n        /* \"#utility.yul\":27240:27277   */\n      swap2\n      pop\n        /* \"#utility.yul\":27310:27313   */\n      dup3\n        /* \"#utility.yul\":27307:27308   */\n      0x02\n        /* \"#utility.yul\":27303:27314   */\n      mul\n        /* \"#utility.yul\":27297:27301   */\n      dup3\n        /* \"#utility.yul\":27294:27315   */\n      or\n        /* \"#utility.yul\":27286:27315   */\n      swap1\n      pop\n        /* \"#utility.yul\":27026:27321   */\n      swap3\n      swap2\n      pop\n      pop\n      jump\t// out\n        /* \"#utility.yul\":27326:28721   */\n    tag_108:\n        /* \"#utility.yul\":27443:27480   */\n      tag_552\n        /* \"#utility.yul\":27476:27479   */\n      dup3\n        /* \"#utility.yul\":27443:27480   */\n      tag_223\n      jump\t// in\n    tag_552:\n        /* \"#utility.yul\":27545:27563   */\n      0xffffffffffffffff\n        /* \"#utility.yul\":27537:27543   */\n      dup2\n        /* \"#utility.yul\":27534:27564   */\n      gt\n        /* \"#utility.yul\":27531:27587   */\n      iszero\n      tag_553\n      jumpi\n        /* \"#utility.yul\":27567:27585   */\n      tag_554\n      tag_170\n      jump\t// in\n    tag_554:\n        /* \"#utility.yul\":27531:27587   */\n    tag_553:\n        /* \"#utility.yul\":27611:27649   */\n      tag_555\n        /* \"#utility.yul\":27643:27647   */\n      dup3\n        /* \"#utility.yul\":27637:27648   */\n      sload\n        /* \"#utility.yul\":27611:27649   */\n      tag_79\n      jump\t// in\n    tag_555:\n        /* \"#utility.yul\":27696:27763   */\n      tag_556\n        /* \"#utility.yul\":27756:27762   */\n      dup3\n        /* \"#utility.yul\":27748:27754   */\n      dup3\n        /* \"#utility.yul\":27742:27746   */\n      dup6\n        /* \"#utility.yul\":27696:27763   */\n      tag_273\n      jump\t// in\n    tag_556:\n        /* \"#utility.yul\":27790:27791   */\n      0x00\n        /* \"#utility.yul\":27814:27818   */\n      0x20\n        /* \"#utility.yul\":27801:27818   */\n      swap1\n      pop\n        /* \"#utility.yul\":27846:27848   */\n      0x1f\n        /* \"#utility.yul\":27838:27844   */\n      dup4\n        /* \"#utility.yul\":27835:27849   */\n      gt\n        /* \"#utility.yul\":27863:27864   */\n      0x01\n        /* \"#utility.yul\":27858:28476   */\n      dup2\n      eq\n      tag_558\n      jumpi\n        /* \"#utility.yul\":28520:28521   */\n      0x00\n        /* \"#utility.yul\":28537:28543   */\n      dup5\n        /* \"#utility.yul\":28534:28611   */\n      iszero\n      tag_559\n      jumpi\n        /* \"#utility.yul\":28586:28595   */\n      dup3\n        /* \"#utility.yul\":28581:28584   */\n      dup8\n        /* \"#utility.yul\":28577:28596   */\n      add\n        /* \"#utility.yul\":28571:28597   */\n      mload\n        /* \"#utility.yul\":28562:28597   */\n      swap1\n      pop\n        /* \"#utility.yul\":28534:28611   */\n    tag_559:\n        /* \"#utility.yul\":28637:28704   */\n      tag_560\n        /* \"#utility.yul\":28697:28703   */\n      dup6\n        /* \"#utility.yul\":28690:28695   */\n      dup3\n        /* \"#utility.yul\":28637:28704   */\n      tag_276\n      jump\t// in\n    tag_560:\n        /* \"#utility.yul\":28631:28635   */\n      dup7\n        /* \"#utility.yul\":28624:28705   */\n      sstore\n        /* \"#utility.yul\":28493:28715   */\n      pop\n        /* \"#utility.yul\":27828:28715   */\n      jump(tag_557)\n        /* \"#utility.yul\":27858:28476   */\n    tag_558:\n        /* \"#utility.yul\":27910:27914   */\n      0x1f\n        /* \"#utility.yul\":27906:27915   */\n      not\n        /* \"#utility.yul\":27898:27904   */\n      dup5\n        /* \"#utility.yul\":27894:27916   */\n      and\n        /* \"#utility.yul\":27944:27981   */\n      tag_561\n        /* \"#utility.yul\":27976:27980   */\n      dup7\n        /* \"#utility.yul\":27944:27981   */\n      tag_262\n      jump\t// in\n    tag_561:\n        /* \"#utility.yul\":28003:28004   */\n      0x00\n        /* \"#utility.yul\":28017:28225   */\n    tag_562:\n        /* \"#utility.yul\":28031:28038   */\n      dup3\n        /* \"#utility.yul\":28028:28029   */\n      dup2\n        /* \"#utility.yul\":28025:28039   */\n      lt\n        /* \"#utility.yul\":28017:28225   */\n      iszero\n      tag_564\n      jumpi\n        /* \"#utility.yul\":28110:28119   */\n      dup5\n        /* \"#utility.yul\":28105:28108   */\n      dup10\n        /* \"#utility.yul\":28101:28120   */\n      add\n        /* \"#utility.yul\":28095:28121   */\n      mload\n        /* \"#utility.yul\":28087:28093   */\n      dup3\n        /* \"#utility.yul\":28080:28122   */\n      sstore\n        /* \"#utility.yul\":28161:28162   */\n      0x01\n        /* \"#utility.yul\":28153:28159   */\n      dup3\n        /* \"#utility.yul\":28149:28163   */\n      add\n        /* \"#utility.yul\":28139:28163   */\n      swap2\n      pop\n        /* \"#utility.yul\":28208:28210   */\n      0x20\n        /* \"#utility.yul\":28197:28206   */\n      dup6\n        /* \"#utility.yul\":28193:28211   */\n      add\n        /* \"#utility.yul\":28180:28211   */\n      swap5\n      pop\n        /* \"#utility.yul\":28054:28058   */\n      0x20\n        /* \"#utility.yul\":28051:28052   */\n      dup2\n        /* \"#utility.yul\":28047:28059   */\n      add\n        /* \"#utility.yul\":28042:28059   */\n      swap1\n      pop\n        /* \"#utility.yul\":28017:28225   */\n      jump(tag_562)\n    tag_564:\n        /* \"#utility.yul\":28253:28259   */\n      dup7\n        /* \"#utility.yul\":28244:28251   */\n      dup4\n        /* \"#utility.yul\":28241:28260   */\n      lt\n        /* \"#utility.yul\":28238:28417   */\n      iszero\n      tag_565\n      jumpi\n        /* \"#utility.yul\":28311:28320   */\n      dup5\n        /* \"#utility.yul\":28306:28309   */\n      dup10\n        /* \"#utility.yul\":28302:28321   */\n      add\n        /* \"#utility.yul\":28296:28322   */\n      mload\n        /* \"#utility.yul\":28354:28402   */\n      tag_566\n        /* \"#utility.yul\":28396:28400   */\n      0x1f\n        /* \"#utility.yul\":28388:28394   */\n      dup10\n        /* \"#utility.yul\":28384:28401   */\n      and\n        /* \"#utility.yul\":28373:28382   */\n      dup3\n        /* \"#utility.yul\":28354:28402   */\n      tag_275\n      jump\t// in\n    tag_566:\n        /* \"#utility.yul\":28346:28352   */\n      dup4\n        /* \"#utility.yul\":28339:28403   */\n      sstore\n        /* \"#utility.yul\":28261:28417   */\n      pop\n        /* \"#utility.yul\":28238:28417   */\n    tag_565:\n        /* \"#utility.yul\":28463:28464   */\n      0x01\n        /* \"#utility.yul\":28459:28460   */\n      0x02\n        /* \"#utility.yul\":28451:28457   */\n      dup9\n        /* \"#utility.yul\":28447:28461   */\n      mul\n        /* \"#utility.yul\":28443:28465   */\n      add\n        /* \"#utility.yul\":28437:28441   */\n      dup9\n        /* \"#utility.yul\":28430:28466   */\n      sstore\n        /* \"#utility.yul\":27865:28476   */\n      pop\n      pop\n      pop\n        /* \"#utility.yul\":27828:28715   */\n    tag_557:\n      pop\n        /* \"#utility.yul\":27418:28721   */\n      pop\n      pop\n      pop\n        /* \"#utility.yul\":27326:28721   */\n      pop\n      pop\n      jump\t// out\n        /* \"#utility.yul\":28727:29150   */\n    tag_113:\n        /* \"#utility.yul\":28868:28872   */\n      0x00\n        /* \"#utility.yul\":28906:28908   */\n      0x40\n        /* \"#utility.yul\":28895:28904   */\n      dup3\n        /* \"#utility.yul\":28891:28909   */\n      add\n        /* \"#utility.yul\":28883:28909   */\n      swap1\n      pop\n        /* \"#utility.yul\":28955:28964   */\n      dup2\n        /* \"#utility.yul\":28949:28953   */\n      dup2\n        /* \"#utility.yul\":28945:28965   */\n      sub\n        /* \"#utility.yul\":28941:28942   */\n      0x00\n        /* \"#utility.yul\":28930:28939   */\n      dup4\n        /* \"#utility.yul\":28926:28943   */\n      add\n        /* \"#utility.yul\":28919:28966   */\n      mstore\n        /* \"#utility.yul\":28983:29061   */\n      tag_568\n        /* \"#utility.yul\":29056:29060   */\n      dup2\n        /* \"#utility.yul\":29047:29053   */\n      dup6\n        /* \"#utility.yul\":28983:29061   */\n      tag_226\n      jump\t// in\n    tag_568:\n        /* \"#utility.yul\":28975:29061   */\n      swap1\n      pop\n        /* \"#utility.yul\":29071:29143   */\n      tag_569\n        /* \"#utility.yul\":29139:29141   */\n      0x20\n        /* \"#utility.yul\":29128:29137   */\n      dup4\n        /* \"#utility.yul\":29124:29142   */\n      add\n        /* \"#utility.yul\":29115:29121   */\n      dup5\n        /* \"#utility.yul\":29071:29143   */\n      tag_255\n      jump\t// in\n    tag_569:\n        /* \"#utility.yul\":28727:29150   */\n      swap4\n      swap3\n      pop\n      pop\n      pop\n      jump\t// out\n        /* \"#utility.yul\":29156:29376   */\n    tag_277:\n        /* \"#utility.yul\":29296:29330   */\n      0x4f6e6c792070726f76696465722063616e2075706c6f6164206e657720646174\n        /* \"#utility.yul\":29292:29293   */\n      0x00\n        /* \"#utility.yul\":29284:29290   */\n      dup3\n        /* \"#utility.yul\":29280:29294   */\n      add\n        /* \"#utility.yul\":29273:29331   */\n      mstore\n        /* \"#utility.yul\":29365:29368   */\n      0x6100000000000000000000000000000000000000000000000000000000000000\n        /* \"#utility.yul\":29360:29362   */\n      0x20\n        /* \"#utility.yul\":29352:29358   */\n      dup3\n        /* \"#utility.yul\":29348:29363   */\n      add\n        /* \"#utility.yul\":29341:29369   */\n      mstore\n        /* \"#utility.yul\":29156:29376   */\n      pop\n      jump\t// out\n        /* \"#utility.yul\":29382:29748   */\n    tag_278:\n        /* \"#utility.yul\":29524:29527   */\n      0x00\n        /* \"#utility.yul\":29545:29612   */\n      tag_572\n        /* \"#utility.yul\":29609:29611   */\n      0x21\n        /* \"#utility.yul\":29604:29607   */\n      dup4\n        /* \"#utility.yul\":29545:29612   */\n      tag_224\n      jump\t// in\n    tag_572:\n        /* \"#utility.yul\":29538:29612   */\n      swap2\n      pop\n        /* \"#utility.yul\":29621:29714   */\n      tag_573\n        /* \"#utility.yul\":29710:29713   */\n      dup3\n        /* \"#utility.yul\":29621:29714   */\n      tag_277\n      jump\t// in\n    tag_573:\n        /* \"#utility.yul\":29739:29741   */\n      0x40\n        /* \"#utility.yul\":29734:29737   */\n      dup3\n        /* \"#utility.yul\":29730:29742   */\n      add\n        /* \"#utility.yul\":29723:29742   */\n      swap1\n      pop\n        /* \"#utility.yul\":29382:29748   */\n      swap2\n      swap1\n      pop\n      jump\t// out\n        /* \"#utility.yul\":29754:30173   */\n    tag_122:\n        /* \"#utility.yul\":29920:29924   */\n      0x00\n        /* \"#utility.yul\":29958:29960   */\n      0x20\n        /* \"#utility.yul\":29947:29956   */\n      dup3\n        /* \"#utility.yul\":29943:29961   */\n      add\n        /* \"#utility.yul\":29935:29961   */\n      swap1\n      pop\n        /* \"#utility.yul\":30007:30016   */\n      dup2\n        /* \"#utility.yul\":30001:30005   */\n      dup2\n        /* \"#utility.yul\":29997:30017   */\n      sub\n        /* \"#utility.yul\":29993:29994   */\n      0x00\n        /* \"#utility.yul\":29982:29991   */\n      dup4\n        /* \"#utility.yul\":29978:29995   */\n      add\n        /* \"#utility.yul\":29971:30018   */\n      mstore\n        /* \"#utility.yul\":30035:30166   */\n      tag_575\n        /* \"#utility.yul\":30161:30165   */\n      dup2\n        /* \"#utility.yul\":30035:30166   */\n      tag_278\n      jump\t// in\n    tag_575:\n        /* \"#utility.yul\":30027:30166   */\n      swap1\n      pop\n        /* \"#utility.yul\":29754:30173   */\n      swap2\n      swap1\n      pop\n      jump\t// out\n        /* \"#utility.yul\":30179:30350   */\n    tag_279:\n        /* \"#utility.yul\":30319:30342   */\n      0x53656e736f7220646f65736e2774206578697374730000000000000000000000\n        /* \"#utility.yul\":30315:30316   */\n      0x00\n        /* \"#utility.yul\":30307:30313   */\n      dup3\n        /* \"#utility.yul\":30303:30317   */\n      add\n        /* \"#utility.yul\":30296:30343   */\n      mstore\n        /* \"#utility.yul\":30179:30350   */\n      pop\n      jump\t// out\n        /* \"#utility.yul\":30356:30722   */\n    tag_280:\n        /* \"#utility.yul\":30498:30501   */\n      0x00\n        /* \"#utility.yul\":30519:30586   */\n      tag_578\n        /* \"#utility.yul\":30583:30585   */\n      0x15\n        /* \"#utility.yul\":30578:30581   */\n      dup4\n        /* \"#utility.yul\":30519:30586   */\n      tag_224\n      jump\t// in\n    tag_578:\n        /* \"#utility.yul\":30512:30586   */\n      swap2\n      pop\n        /* \"#utility.yul\":30595:30688   */\n      tag_579\n        /* \"#utility.yul\":30684:30687   */\n      dup3\n        /* \"#utility.yul\":30595:30688   */\n      tag_279\n      jump\t// in\n    tag_579:\n        /* \"#utility.yul\":30713:30715   */\n      0x20\n        /* \"#utility.yul\":30708:30711   */\n      dup3\n        /* \"#utility.yul\":30704:30716   */\n      add\n        /* \"#utility.yul\":30697:30716   */\n      swap1\n      pop\n        /* \"#utility.yul\":30356:30722   */\n      swap2\n      swap1\n      pop\n      jump\t// out\n        /* \"#utility.yul\":30728:31147   */\n    tag_126:\n        /* \"#utility.yul\":30894:30898   */\n      0x00\n        /* \"#utility.yul\":30932:30934   */\n      0x20\n        /* \"#utility.yul\":30921:30930   */\n      dup3\n        /* \"#utility.yul\":30917:30935   */\n      add\n        /* \"#utility.yul\":30909:30935   */\n      swap1\n      pop\n        /* \"#utility.yul\":30981:30990   */\n      dup2\n        /* \"#utility.yul\":30975:30979   */\n      dup2\n        /* \"#utility.yul\":30971:30991   */\n      sub\n        /* \"#utility.yul\":30967:30968   */\n      0x00\n        /* \"#utility.yul\":30956:30965   */\n      dup4\n        /* \"#utility.yul\":30952:30969   */\n      add\n        /* \"#utility.yul\":30945:30992   */\n      mstore\n        /* \"#utility.yul\":31009:31140   */\n      tag_581\n        /* \"#utility.yul\":31135:31139   */\n      dup2\n        /* \"#utility.yul\":31009:31140   */\n      tag_280\n      jump\t// in\n    tag_581:\n        /* \"#utility.yul\":31001:31140   */\n      swap1\n      pop\n        /* \"#utility.yul\":30728:31147   */\n      swap2\n      swap1\n      pop\n      jump\t// out\n        /* \"#utility.yul\":31153:31667   */\n    tag_148:\n        /* \"#utility.yul\":31314:31318   */\n      0x00\n        /* \"#utility.yul\":31352:31354   */\n      0x40\n        /* \"#utility.yul\":31341:31350   */\n      dup3\n        /* \"#utility.yul\":31337:31355   */\n      add\n        /* \"#utility.yul\":31329:31355   */\n      swap1\n      pop\n        /* \"#utility.yul\":31401:31410   */\n      dup2\n        /* \"#utility.yul\":31395:31399   */\n      dup2\n        /* \"#utility.yul\":31391:31411   */\n      sub\n        /* \"#utility.yul\":31387:31388   */\n      0x00\n        /* \"#utility.yul\":31376:31385   */\n      dup4\n        /* \"#utility.yul\":31372:31389   */\n      add\n        /* \"#utility.yul\":31365:31412   */\n      mstore\n        /* \"#utility.yul\":31429:31507   */\n      tag_583\n        /* \"#utility.yul\":31502:31506   */\n      dup2\n        /* \"#utility.yul\":31493:31499   */\n      dup6\n        /* \"#utility.yul\":31429:31507   */\n      tag_226\n      jump\t// in\n    tag_583:\n        /* \"#utility.yul\":31421:31507   */\n      swap1\n      pop\n        /* \"#utility.yul\":31554:31563   */\n      dup2\n        /* \"#utility.yul\":31548:31552   */\n      dup2\n        /* \"#utility.yul\":31544:31564   */\n      sub\n        /* \"#utility.yul\":31539:31541   */\n      0x20\n        /* \"#utility.yul\":31528:31537   */\n      dup4\n        /* \"#utility.yul\":31524:31542   */\n      add\n        /* \"#utility.yul\":31517:31565   */\n      mstore\n        /* \"#utility.yul\":31582:31660   */\n      tag_584\n        /* \"#utility.yul\":31655:31659   */\n      dup2\n        /* \"#utility.yul\":31646:31652   */\n      dup5\n        /* \"#utility.yul\":31582:31660   */\n      tag_226\n      jump\t// in\n    tag_584:\n        /* \"#utility.yul\":31574:31660   */\n      swap1\n      pop\n        /* \"#utility.yul\":31153:31667   */\n      swap4\n      swap3\n      pop\n      pop\n      pop\n      jump\t// out\n        /* \"#utility.yul\":31673:31846   */\n    tag_281:\n        /* \"#utility.yul\":31813:31838   */\n      0x50726f766964657220646f65736e277420657869737473000000000000000000\n        /* \"#utility.yul\":31809:31810   */\n      0x00\n        /* \"#utility.yul\":31801:31807   */\n      dup3\n        /* \"#utility.yul\":31797:31811   */\n      add\n        /* \"#utility.yul\":31790:31839   */\n      mstore\n        /* \"#utility.yul\":31673:31846   */\n      pop\n      jump\t// out\n        /* \"#utility.yul\":31852:32218   */\n    tag_282:\n        /* \"#utility.yul\":31994:31997   */\n      0x00\n        /* \"#utility.yul\":32015:32082   */\n      tag_587\n        /* \"#utility.yul\":32079:32081   */\n      0x17\n        /* \"#utility.yul\":32074:32077   */\n      dup4\n        /* \"#utility.yul\":32015:32082   */\n      tag_224\n      jump\t// in\n    tag_587:\n        /* \"#utility.yul\":32008:32082   */\n      swap2\n      pop\n        /* \"#utility.yul\":32091:32184   */\n      tag_588\n        /* \"#utility.yul\":32180:32183   */\n      dup3\n        /* \"#utility.yul\":32091:32184   */\n      tag_281\n      jump\t// in\n    tag_588:\n        /* \"#utility.yul\":32209:32211   */\n      0x20\n        /* \"#utility.yul\":32204:32207   */\n      dup3\n        /* \"#utility.yul\":32200:32212   */\n      add\n        /* \"#utility.yul\":32193:32212   */\n      swap1\n      pop\n        /* \"#utility.yul\":31852:32218   */\n      swap2\n      swap1\n      pop\n      jump\t// out\n        /* \"#utility.yul\":32224:32643   */\n    tag_152:\n        /* \"#utility.yul\":32390:32394   */\n      0x00\n        /* \"#utility.yul\":32428:32430   */\n      0x20\n        /* \"#utility.yul\":32417:32426   */\n      dup3\n        /* \"#utility.yul\":32413:32431   */\n      add\n        /* \"#utility.yul\":32405:32431   */\n      swap1\n      pop\n        /* \"#utility.yul\":32477:32486   */\n      dup2\n        /* \"#utility.yul\":32471:32475   */\n      dup2\n        /* \"#utility.yul\":32467:32487   */\n      sub\n        /* \"#utility.yul\":32463:32464   */\n      0x00\n        /* \"#utility.yul\":32452:32461   */\n      dup4\n        /* \"#utility.yul\":32448:32465   */\n      add\n        /* \"#utility.yul\":32441:32488   */\n      mstore\n        /* \"#utility.yul\":32505:32636   */\n      tag_590\n        /* \"#utility.yul\":32631:32635   */\n      dup2\n        /* \"#utility.yul\":32505:32636   */\n      tag_282\n      jump\t// in\n    tag_590:\n        /* \"#utility.yul\":32497:32636   */\n      swap1\n      pop\n        /* \"#utility.yul\":32224:32643   */\n      swap2\n      swap1\n      pop\n      jump\t// out\n        /* \"#utility.yul\":32649:32882   */\n    tag_195:\n        /* \"#utility.yul\":32688:32691   */\n      0x00\n        /* \"#utility.yul\":32711:32735   */\n      tag_592\n        /* \"#utility.yul\":32729:32734   */\n      dup3\n        /* \"#utility.yul\":32711:32735   */\n      tag_199\n      jump\t// in\n    tag_592:\n        /* \"#utility.yul\":32702:32735   */\n      swap2\n      pop\n        /* \"#utility.yul\":32757:32823   */\n      0xffffffffffffffffffffffffffffffffffffffffffffffffffffffffffffffff\n        /* \"#utility.yul\":32750:32755   */\n      dup3\n        /* \"#utility.yul\":32747:32824   */\n      sub\n        /* \"#utility.yul\":32744:32847   */\n      tag_593\n      jumpi\n        /* \"#utility.yul\":32827:32845   */\n      tag_594\n      tag_249\n      jump\t// in\n    tag_594:\n        /* \"#utility.yul\":32744:32847   */\n    tag_593:\n        /* \"#utility.yul\":32874:32875   */\n      0x01\n        /* \"#utility.yul\":32867:32872   */\n      dup3\n        /* \"#utility.yul\":32863:32876   */\n      add\n        /* \"#utility.yul\":32856:32876   */\n      swap1\n      pop\n        /* \"#utility.yul\":32649:32882   */\n      swap2\n      swap1\n      pop\n      jump\t// out\n\n    auxdata: 0xa2646970667358221220a7157555e373b68ee4fee194875ff70cd3b6620b08595fdb667ca39a27a4fddd64736f6c63430008120033\n}\n",
				"bytecode": {
					"linkReferences": {},
					"object": "608060405234801561001057600080fd5b50336000806101000a81548173ffffffffffffffffffffffffffffffffffffffff021916908373ffffffffffffffffffffffffffffffffffffffff160217905550612a28806100606000396000f3fe608060405234801561001057600080fd5b50600436106100935760003560e01c8063802e9cb911610066578063802e9cb9146101325780639790e96a1461014e578063d35309751461017f578063f5e757421461019b578063fe41576f146101cb57610093565b806331137090146100985780633bb4497c146100c85780634f65e878146100e65780635b485a1414610116575b600080fd5b6100b260048036038101906100ad919061192e565b6101fb565b6040516100bf919061199c565b60405180910390f35b6100d061023a565b6040516100dd9190611a75565b60405180910390f35b61010060048036038101906100fb9190611c09565b6102c8565b60405161010d9190611ce4565b60405180910390f35b610130600480360381019061012b9190611d06565b6105e0565b005b61014c60048036038101906101479190611da2565b610893565b005b61016860048036038101906101639190611d06565b610be6565b604051610176929190611e54565b60405180910390f35b61019960048036038101906101949190611e7d565b610c37565b005b6101b560048036038101906101b09190611d06565b611324565b6040516101c29190612093565b60405180910390f35b6101e560048036038101906101e09190611c09565b6114d5565b6040516101f29190612093565b60405180910390f35b6002818154811061020b57600080fd5b906000526020600020016000915054906101000a900473ffffffffffffffffffffffffffffffffffffffff1681565b606060028054806020026020016040519081016040528092919081815260200182805480156102be57602002820191906000526020600020905b8160009054906101000a900473ffffffffffffffffffffffffffffffffffffffff1673ffffffffffffffffffffffffffffffffffffffff1681526020019060010190808311610274575b5050505050905090565b606060011515600160008573ffffffffffffffffffffffffffffffffffffffff1673ffffffffffffffffffffffffffffffffffffffff16815260200190815260200160002060030160009054906101000a900460ff16151514610360576040517f08c379a000000000000000000000000000000000000000000000000000000000815260040161035790612101565b60405180910390fd5b60011515600160008573ffffffffffffffffffffffffffffffffffffffff1673ffffffffffffffffffffffffffffffffffffffff168152602001908152602001600020600101836040516103b4919061215d565b908152602001604051809103902060030160009054906101000a900460ff16151514610415576040517f08c379a000000000000000000000000000000000000000000000000000000000815260040161040c906121c0565b60405180910390fd5b6000600160008573ffffffffffffffffffffffffffffffffffffffff1673ffffffffffffffffffffffffffffffffffffffff16815260200190815260200160002060010183604051610467919061215d565b9081526020016040518091039020600201805490509050600081036104c4576040518060400160405280601281526020017f53656e736f72206861736e2774206369647300000000000000000000000000008152509150506105da565b600160008573ffffffffffffffffffffffffffffffffffffffff1673ffffffffffffffffffffffffffffffffffffffff16815260200190815260200160002060010183604051610514919061215d565b9081526020016040518091039020600201600182610532919061220f565b8154811061054357610542612243565b5b906000526020600020018054610558906122a1565b80601f0160208091040260200160405190810160405280929190818152602001828054610584906122a1565b80156105d15780601f106105a6576101008083540402835291602001916105d1565b820191906000526020600020905b8154815290600101906020018083116105b457829003601f168201915b50505050509150505b92915050565b60008054906101000a900473ffffffffffffffffffffffffffffffffffffffff1673ffffffffffffffffffffffffffffffffffffffff163373ffffffffffffffffffffffffffffffffffffffff161461066e576040517f08c379a000000000000000000000000000000000000000000000000000000000815260040161066590612344565b60405180910390fd5b60001515600160008373ffffffffffffffffffffffffffffffffffffffff1673ffffffffffffffffffffffffffffffffffffffff16815260200190815260200160002060030160009054906101000a900460ff16151514610704576040517f08c379a00000000000000000000000000000000000000000000000000000000081526004016106fb906123b0565b60405180910390fd5b80600160008373ffffffffffffffffffffffffffffffffffffffff1673ffffffffffffffffffffffffffffffffffffffff16815260200190815260200160002060000160006101000a81548173ffffffffffffffffffffffffffffffffffffffff021916908373ffffffffffffffffffffffffffffffffffffffff16021790555060018060008373ffffffffffffffffffffffffffffffffffffffff1673ffffffffffffffffffffffffffffffffffffffff16815260200190815260200160002060030160006101000a81548160ff0219169083151502179055506002819080600181540180825580915050600190039060005260206000200160009091909190916101000a81548173ffffffffffffffffffffffffffffffffffffffff021916908373ffffffffffffffffffffffffffffffffffffffff1602179055508073ffffffffffffffffffffffffffffffffffffffff167f1b8d6e7edd12ce9bf5cbe0cf36d5e75e86617a943f642908cb445fdadb4830514260405161088891906123df565b60405180910390a250565b6000600182868686604051600081526020016040526040516108b89493929190612418565b6020604051602081039080840390855afa1580156108da573d6000803e3d6000fd5b50505060206040510351905060011515600160008373ffffffffffffffffffffffffffffffffffffffff1673ffffffffffffffffffffffffffffffffffffffff16815260200190815260200160002060030160009054906101000a900460ff1615151461097c576040517f08c379a0000000000000000000000000000000000000000000000000000000008152600401610973906124cf565b60405180910390fd5b60001515600160008373ffffffffffffffffffffffffffffffffffffffff1673ffffffffffffffffffffffffffffffffffffffff168152602001908152602001600020600101876040516109d0919061215d565b908152602001604051809103902060030160009054906101000a900460ff16151514610a31576040517f08c379a0000000000000000000000000000000000000000000000000000000008152600401610a289061253b565b60405180910390fd5b85600160008373ffffffffffffffffffffffffffffffffffffffff1673ffffffffffffffffffffffffffffffffffffffff16815260200190815260200160002060010187604051610a82919061215d565b90815260200160405180910390206000019081610a9f9190612707565b5060018060008373ffffffffffffffffffffffffffffffffffffffff1673ffffffffffffffffffffffffffffffffffffffff16815260200190815260200160002060010187604051610af1919061215d565b908152602001604051809103902060030160006101000a81548160ff021916908315150217905550600160008273ffffffffffffffffffffffffffffffffffffffff1673ffffffffffffffffffffffffffffffffffffffff16815260200190815260200160002060020186908060018154018082558091505060019003906000526020600020016000909190919091509081610b8d9190612707565b508073ffffffffffffffffffffffffffffffffffffffff167f54c4764e35db3b768b99b60a6d4768f57731e91c4f672b4b8f19c366321528368742604051610bd69291906127d9565b60405180910390a2505050505050565b60016020528060005260406000206000915090508060000160009054906101000a900473ffffffffffffffffffffffffffffffffffffffff16908060030160009054906101000a900460ff16905082565b600060018286868660405160008152602001604052604051610c5c9493929190612418565b6020604051602081039080840390855afa158015610c7e573d6000803e3d6000fd5b50505060206040510351905060011515600160008373ffffffffffffffffffffffffffffffffffffffff1673ffffffffffffffffffffffffffffffffffffffff16815260200190815260200160002060030160009054906101000a900460ff16151514610d20576040517f08c379a0000000000000000000000000000000000000000000000000000000008152600401610d17906124cf565b60405180910390fd5b3373ffffffffffffffffffffffffffffffffffffffff168173ffffffffffffffffffffffffffffffffffffffff1614610d8e576040517f08c379a0000000000000000000000000000000000000000000000000000000008152600401610d859061287b565b60405180910390fd5b60011515600160008373ffffffffffffffffffffffffffffffffffffffff1673ffffffffffffffffffffffffffffffffffffffff1681526020019081526020016000206001018a604051610de2919061215d565b908152602001604051809103902060030160009054906101000a900460ff16151514610e43576040517f08c379a0000000000000000000000000000000000000000000000000000000008152600401610e3a906128e7565b60405180910390fd5b87600160008373ffffffffffffffffffffffffffffffffffffffff1673ffffffffffffffffffffffffffffffffffffffff1681526020019081526020016000206001018a604051610e94919061215d565b908152602001604051809103902060010189604051610eb3919061215d565b90815260200160405180910390206000019081610ed09190612707565b5086600160008373ffffffffffffffffffffffffffffffffffffffff1673ffffffffffffffffffffffffffffffffffffffff1681526020019081526020016000206001018a604051610f22919061215d565b908152602001604051809103902060010189604051610f41919061215d565b90815260200160405180910390206001019081610f5e9190612707565b5085600160008373ffffffffffffffffffffffffffffffffffffffff1673ffffffffffffffffffffffffffffffffffffffff1681526020019081526020016000206001018a604051610fb0919061215d565b908152602001604051809103902060010189604051610fcf919061215d565b90815260200160405180910390206002018190555084600160008373ffffffffffffffffffffffffffffffffffffffff1673ffffffffffffffffffffffffffffffffffffffff1681526020019081526020016000206001018a604051611035919061215d565b908152602001604051809103902060010189604051611054919061215d565b908152602001604051809103902060030160006101000a81548160ff021916908360ff16021790555083600160008373ffffffffffffffffffffffffffffffffffffffff1673ffffffffffffffffffffffffffffffffffffffff1681526020019081526020016000206001018a6040516110ce919061215d565b9081526020016040518091039020600101896040516110ed919061215d565b90815260200160405180910390206004018190555082600160008373ffffffffffffffffffffffffffffffffffffffff1673ffffffffffffffffffffffffffffffffffffffff1681526020019081526020016000206001018a604051611153919061215d565b908152602001604051809103902060010189604051611172919061215d565b90815260200160405180910390206005018190555060018060008373ffffffffffffffffffffffffffffffffffffffff1673ffffffffffffffffffffffffffffffffffffffff1681526020019081526020016000206001018a6040516111d8919061215d565b9081526020016040518091039020600101896040516111f7919061215d565b908152602001604051809103902060070160006101000a81548160ff021916908315150217905550600160008273ffffffffffffffffffffffffffffffffffffffff1673ffffffffffffffffffffffffffffffffffffffff1681526020019081526020016000206001018960405161126f919061215d565b9081526020016040518091039020600201889080600181540180825580915050600190039060005260206000200160009091909190915090816112b29190612707565b508073ffffffffffffffffffffffffffffffffffffffff16886040516112d8919061215d565b60405180910390207fa30fa568a3da991493dc4ffbb1e531dc3712025f0bc9570a32d8d28ce91b3eb08b8a604051611311929190612907565b60405180910390a3505050505050505050565b606060011515600160008473ffffffffffffffffffffffffffffffffffffffff1673ffffffffffffffffffffffffffffffffffffffff16815260200190815260200160002060030160009054906101000a900460ff161515146113bc576040517f08c379a00000000000000000000000000000000000000000000000000000000081526004016113b39061298a565b60405180910390fd5b600160008373ffffffffffffffffffffffffffffffffffffffff1673ffffffffffffffffffffffffffffffffffffffff168152602001908152602001600020600201805480602002602001604051908101604052809291908181526020016000905b828210156114ca57838290600052602060002001805461143d906122a1565b80601f0160208091040260200160405190810160405280929190818152602001828054611469906122a1565b80156114b65780601f1061148b576101008083540402835291602001916114b6565b820191906000526020600020905b81548152906001019060200180831161149957829003601f168201915b50505050508152602001906001019061141e565b505050509050919050565b606060011515600160008573ffffffffffffffffffffffffffffffffffffffff1673ffffffffffffffffffffffffffffffffffffffff16815260200190815260200160002060030160009054906101000a900460ff1615151461156d576040517f08c379a000000000000000000000000000000000000000000000000000000000815260040161156490612101565b60405180910390fd5b60011515600160008573ffffffffffffffffffffffffffffffffffffffff1673ffffffffffffffffffffffffffffffffffffffff168152602001908152602001600020600101836040516115c1919061215d565b908152602001604051809103902060030160009054906101000a900460ff16151514611622576040517f08c379a0000000000000000000000000000000000000000000000000000000008152600401611619906121c0565b60405180910390fd5b6000600160008573ffffffffffffffffffffffffffffffffffffffff1673ffffffffffffffffffffffffffffffffffffffff16815260200190815260200160002060010183604051611674919061215d565b908152602001604051809103902060020180549050905060008167ffffffffffffffff8111156116a7576116a6611ade565b5b6040519080825280602002602001820160405280156116da57816020015b60608152602001906001900390816116c55790505b5090506000820361179557600167ffffffffffffffff811115611700576116ff611ade565b5b60405190808252806020026020018201604052801561173357816020015b606081526020019060019003908161171e5790505b5090506040518060400160405280601281526020017f53656e736f72206861736e277420636964730000000000000000000000000000815250816000815181106117805761177f612243565b5b602002602001018190525080925050506118de565b60005b828110156118d757600160008773ffffffffffffffffffffffffffffffffffffffff1673ffffffffffffffffffffffffffffffffffffffff168152602001908152602001600020600101856040516117f0919061215d565b9081526020016040518091039020600201818154811061181357611812612243565b5b906000526020600020018054611828906122a1565b80601f0160208091040260200160405190810160405280929190818152602001828054611854906122a1565b80156118a15780601f10611876576101008083540402835291602001916118a1565b820191906000526020600020905b81548152906001019060200180831161188457829003601f168201915b50505050508282815181106118b9576118b8612243565b5b602002602001018190525080806118cf906129aa565b915050611798565b5080925050505b92915050565b6000604051905090565b600080fd5b600080fd5b6000819050919050565b61190b816118f8565b811461191657600080fd5b50565b60008135905061192881611902565b92915050565b600060208284031215611944576119436118ee565b5b600061195284828501611919565b91505092915050565b600073ffffffffffffffffffffffffffffffffffffffff82169050919050565b60006119868261195b565b9050919050565b6119968161197b565b82525050565b60006020820190506119b1600083018461198d565b92915050565b600081519050919050565b600082825260208201905092915050565b6000819050602082019050919050565b6119ec8161197b565b82525050565b60006119fe83836119e3565b60208301905092915050565b6000602082019050919050565b6000611a22826119b7565b611a2c81856119c2565b9350611a37836119d3565b8060005b83811015611a68578151611a4f88826119f2565b9750611a5a83611a0a565b925050600181019050611a3b565b5085935050505092915050565b60006020820190508181036000830152611a8f8184611a17565b905092915050565b611aa08161197b565b8114611aab57600080fd5b50565b600081359050611abd81611a97565b92915050565b600080fd5b600080fd5b6000601f19601f8301169050919050565b7f4e487b7100000000000000000000000000000000000000000000000000000000600052604160045260246000fd5b611b1682611acd565b810181811067ffffffffffffffff82111715611b3557611b34611ade565b5b80604052505050565b6000611b486118e4565b9050611b548282611b0d565b919050565b600067ffffffffffffffff821115611b7457611b73611ade565b5b611b7d82611acd565b9050602081019050919050565b82818337600083830152505050565b6000611bac611ba784611b59565b611b3e565b905082815260208101848484011115611bc857611bc7611ac8565b5b611bd3848285611b8a565b509392505050565b600082601f830112611bf057611bef611ac3565b5b8135611c00848260208601611b99565b91505092915050565b60008060408385031215611c2057611c1f6118ee565b5b6000611c2e85828601611aae565b925050602083013567ffffffffffffffff811115611c4f57611c4e6118f3565b5b611c5b85828601611bdb565b9150509250929050565b600081519050919050565b600082825260208201905092915050565b60005b83811015611c9f578082015181840152602081019050611c84565b60008484015250505050565b6000611cb682611c65565b611cc08185611c70565b9350611cd0818560208601611c81565b611cd981611acd565b840191505092915050565b60006020820190508181036000830152611cfe8184611cab565b905092915050565b600060208284031215611d1c57611d1b6118ee565b5b6000611d2a84828501611aae565b91505092915050565b600060ff82169050919050565b611d4981611d33565b8114611d5457600080fd5b50565b600081359050611d6681611d40565b92915050565b6000819050919050565b611d7f81611d6c565b8114611d8a57600080fd5b50565b600081359050611d9c81611d76565b92915050565b600080600080600060a08688031215611dbe57611dbd6118ee565b5b600086013567ffffffffffffffff811115611ddc57611ddb6118f3565b5b611de888828901611bdb565b9550506020611df988828901611d57565b9450506040611e0a88828901611d8d565b9350506060611e1b88828901611d8d565b9250506080611e2c88828901611d8d565b9150509295509295909350565b60008115159050919050565b611e4e81611e39565b82525050565b6000604082019050611e69600083018561198d565b611e766020830184611e45565b9392505050565b600080600080600080600080610100898b031215611e9e57611e9d6118ee565b5b600089013567ffffffffffffffff811115611ebc57611ebb6118f3565b5b611ec88b828c01611bdb565b985050602089013567ffffffffffffffff811115611ee957611ee86118f3565b5b611ef58b828c01611bdb565b975050604089013567ffffffffffffffff811115611f1657611f156118f3565b5b611f228b828c01611bdb565b9650506060611f338b828c01611919565b9550506080611f448b828c01611d57565b94505060a0611f558b828c01611d8d565b93505060c0611f668b828c01611d8d565b92505060e0611f778b828c01611d8d565b9150509295985092959890939650565b600081519050919050565b600082825260208201905092915050565b6000819050602082019050919050565b600082825260208201905092915050565b6000611fcf82611c65565b611fd98185611fb3565b9350611fe9818560208601611c81565b611ff281611acd565b840191505092915050565b60006120098383611fc4565b905092915050565b6000602082019050919050565b600061202982611f87565b6120338185611f92565b93508360208202850161204585611fa3565b8060005b8581101561208157848403895281516120628582611ffd565b945061206d83612011565b925060208a01995050600181019050612049565b50829750879550505050505092915050565b600060208201905081810360008301526120ad818461201e565b905092915050565b7f496e76616c69642070726f766964657220616464726573730000000000000000600082015250565b60006120eb601883611c70565b91506120f6826120b5565b602082019050919050565b6000602082019050818103600083015261211a816120de565b9050919050565b600081905092915050565b600061213782611c65565b6121418185612121565b9350612151818560208601611c81565b80840191505092915050565b6000612169828461212c565b915081905092915050565b7f496e76616c69642073656e736f72204d41430000000000000000000000000000600082015250565b60006121aa601283611c70565b91506121b582612174565b602082019050919050565b600060208201905081810360008301526121d98161219d565b9050919050565b7f4e487b7100000000000000000000000000000000000000000000000000000000600052601160045260246000fd5b600061221a826118f8565b9150612225836118f8565b925082820390508181111561223d5761223c6121e0565b5b92915050565b7f4e487b7100000000000000000000000000000000000000000000000000000000600052603260045260246000fd5b7f4e487b7100000000000000000000000000000000000000000000000000000000600052602260045260246000fd5b600060028204905060018216806122b957607f821691505b6020821081036122cc576122cb612272565b5b50919050565b7f4f6e6c7920636f6e74726163742773206f776e65722063616e2061646420612060008201527f70726f7669646572000000000000000000000000000000000000000000000000602082015250565b600061232e602883611c70565b9150612339826122d2565b604082019050919050565b6000602082019050818103600083015261235d81612321565b9050919050565b7f50726f76696465722068617320616c7265616479206164646564000000000000600082015250565b600061239a601a83611c70565b91506123a582612364565b602082019050919050565b600060208201905081810360008301526123c98161238d565b9050919050565b6123d9816118f8565b82525050565b60006020820190506123f460008301846123d0565b92915050565b61240381611d6c565b82525050565b61241281611d33565b82525050565b600060808201905061242d60008301876123fa565b61243a6020830186612409565b61244760408301856123fa565b61245460608301846123fa565b95945050505050565b7f496e76616c6964207369676e61747572652c2070726f766964657220646f657360008201527f6e27742065786973747300000000000000000000000000000000000000000000602082015250565b60006124b9602a83611c70565b91506124c48261245d565b604082019050919050565b600060208201905081810360008301526124e8816124ac565b9050919050565b7f53656e736f722068617320616c72656164792061646465640000000000000000600082015250565b6000612525601883611c70565b9150612530826124ef565b602082019050919050565b6000602082019050818103600083015261255481612518565b9050919050565b60008190508160005260206000209050919050565b60006020601f8301049050919050565b600082821b905092915050565b6000600883026125bd7fffffffffffffffffffffffffffffffffffffffffffffffffffffffffffffffff82612580565b6125c78683612580565b95508019841693508086168417925050509392505050565b6000819050919050565b60006126046125ff6125fa846118f8565b6125df565b6118f8565b9050919050565b6000819050919050565b61261e836125e9565b61263261262a8261260b565b84845461258d565b825550505050565b600090565b61264761263a565b612652818484612615565b505050565b5b818110156126765761266b60008261263f565b600181019050612658565b5050565b601f8211156126bb5761268c8161255b565b61269584612570565b810160208510156126a4578190505b6126b86126b085612570565b830182612657565b50505b505050565b600082821c905092915050565b60006126de600019846008026126c0565b1980831691505092915050565b60006126f783836126cd565b9150826002028217905092915050565b61271082611c65565b67ffffffffffffffff81111561272957612728611ade565b5b61273382546122a1565b61273e82828561267a565b600060209050601f831160018114612771576000841561275f578287015190505b61276985826126eb565b8655506127d1565b601f19841661277f8661255b565b60005b828110156127a757848901518255600182019150602085019450602081019050612782565b868310156127c457848901516127c0601f8916826126cd565b8355505b6001600288020188555050505b505050505050565b600060408201905081810360008301526127f38185611cab565b905061280260208301846123d0565b9392505050565b7f4f6e6c792070726f76696465722063616e2075706c6f6164206e65772064617460008201527f6100000000000000000000000000000000000000000000000000000000000000602082015250565b6000612865602183611c70565b915061287082612809565b604082019050919050565b6000602082019050818103600083015261289481612858565b9050919050565b7f53656e736f7220646f65736e2774206578697374730000000000000000000000600082015250565b60006128d1601583611c70565b91506128dc8261289b565b602082019050919050565b60006020820190508181036000830152612900816128c4565b9050919050565b600060408201905081810360008301526129218185611cab565b905081810360208301526129358184611cab565b90509392505050565b7f50726f766964657220646f65736e277420657869737473000000000000000000600082015250565b6000612974601783611c70565b915061297f8261293e565b602082019050919050565b600060208201905081810360008301526129a381612967565b9050919050565b60006129b5826118f8565b91507fffffffffffffffffffffffffffffffffffffffffffffffffffffffffffffffff82036129e7576129e66121e0565b5b60018201905091905056fea2646970667358221220a7157555e373b68ee4fee194875ff70cd3b6620b08595fdb667ca39a27a4fddd64736f6c63430008120033",
					"opcodes": "PUSH1 0x80 PUSH1 0x40 MSTORE CALLVALUE DUP1 ISZERO PUSH2 0x10 JUMPI PUSH1 0x0 DUP1 REVERT JUMPDEST POP CALLER PUSH1 0x0 DUP1 PUSH2 0x100 EXP DUP2 SLOAD DUP2 PUSH20 0xFFFFFFFFFFFFFFFFFFFFFFFFFFFFFFFFFFFFFFFF MUL NOT AND SWAP1 DUP4 PUSH20 0xFFFFFFFFFFFFFFFFFFFFFFFFFFFFFFFFFFFFFFFF AND MUL OR SWAP1 SSTORE POP PUSH2 0x2A28 DUP1 PUSH2 0x60 PUSH1 0x0 CODECOPY PUSH1 0x0 RETURN INVALID PUSH1 0x80 PUSH1 0x40 MSTORE CALLVALUE DUP1 ISZERO PUSH2 0x10 JUMPI PUSH1 0x0 DUP1 REVERT JUMPDEST POP PUSH1 0x4 CALLDATASIZE LT PUSH2 0x93 JUMPI PUSH1 0x0 CALLDATALOAD PUSH1 0xE0 SHR DUP1 PUSH4 0x802E9CB9 GT PUSH2 0x66 JUMPI DUP1 PUSH4 0x802E9CB9 EQ PUSH2 0x132 JUMPI DUP1 PUSH4 0x9790E96A EQ PUSH2 0x14E JUMPI DUP1 PUSH4 0xD3530975 EQ PUSH2 0x17F JUMPI DUP1 PUSH4 0xF5E75742 EQ PUSH2 0x19B JUMPI DUP1 PUSH4 0xFE41576F EQ PUSH2 0x1CB JUMPI PUSH2 0x93 JUMP JUMPDEST DUP1 PUSH4 0x31137090 EQ PUSH2 0x98 JUMPI DUP1 PUSH4 0x3BB4497C EQ PUSH2 0xC8 JUMPI DUP1 PUSH4 0x4F65E878 EQ PUSH2 0xE6 JUMPI DUP1 PUSH4 0x5B485A14 EQ PUSH2 0x116 JUMPI JUMPDEST PUSH1 0x0 DUP1 REVERT JUMPDEST PUSH2 0xB2 PUSH1 0x4 DUP1 CALLDATASIZE SUB DUP2 ADD SWAP1 PUSH2 0xAD SWAP2 SWAP1 PUSH2 0x192E JUMP JUMPDEST PUSH2 0x1FB JUMP JUMPDEST PUSH1 0x40 MLOAD PUSH2 0xBF SWAP2 SWAP1 PUSH2 0x199C JUMP JUMPDEST PUSH1 0x40 MLOAD DUP1 SWAP2 SUB SWAP1 RETURN JUMPDEST PUSH2 0xD0 PUSH2 0x23A JUMP JUMPDEST PUSH1 0x40 MLOAD PUSH2 0xDD SWAP2 SWAP1 PUSH2 0x1A75 JUMP JUMPDEST PUSH1 0x40 MLOAD DUP1 SWAP2 SUB SWAP1 RETURN JUMPDEST PUSH2 0x100 PUSH1 0x4 DUP1 CALLDATASIZE SUB DUP2 ADD SWAP1 PUSH2 0xFB SWAP2 SWAP1 PUSH2 0x1C09 JUMP JUMPDEST PUSH2 0x2C8 JUMP JUMPDEST PUSH1 0x40 MLOAD PUSH2 0x10D SWAP2 SWAP1 PUSH2 0x1CE4 JUMP JUMPDEST PUSH1 0x40 MLOAD DUP1 SWAP2 SUB SWAP1 RETURN JUMPDEST PUSH2 0x130 PUSH1 0x4 DUP1 CALLDATASIZE SUB DUP2 ADD SWAP1 PUSH2 0x12B SWAP2 SWAP1 PUSH2 0x1D06 JUMP JUMPDEST PUSH2 0x5E0 JUMP JUMPDEST STOP JUMPDEST PUSH2 0x14C PUSH1 0x4 DUP1 CALLDATASIZE SUB DUP2 ADD SWAP1 PUSH2 0x147 SWAP2 SWAP1 PUSH2 0x1DA2 JUMP JUMPDEST PUSH2 0x893 JUMP JUMPDEST STOP JUMPDEST PUSH2 0x168 PUSH1 0x4 DUP1 CALLDATASIZE SUB DUP2 ADD SWAP1 PUSH2 0x163 SWAP2 SWAP1 PUSH2 0x1D06 JUMP JUMPDEST PUSH2 0xBE6 JUMP JUMPDEST PUSH1 0x40 MLOAD PUSH2 0x176 SWAP3 SWAP2 SWAP1 PUSH2 0x1E54 JUMP JUMPDEST PUSH1 0x40 MLOAD DUP1 SWAP2 SUB SWAP1 RETURN JUMPDEST PUSH2 0x199 PUSH1 0x4 DUP1 CALLDATASIZE SUB DUP2 ADD SWAP1 PUSH2 0x194 SWAP2 SWAP1 PUSH2 0x1E7D JUMP JUMPDEST PUSH2 0xC37 JUMP JUMPDEST STOP JUMPDEST PUSH2 0x1B5 PUSH1 0x4 DUP1 CALLDATASIZE SUB DUP2 ADD SWAP1 PUSH2 0x1B0 SWAP2 SWAP1 PUSH2 0x1D06 JUMP JUMPDEST PUSH2 0x1324 JUMP JUMPDEST PUSH1 0x40 MLOAD PUSH2 0x1C2 SWAP2 SWAP1 PUSH2 0x2093 JUMP JUMPDEST PUSH1 0x40 MLOAD DUP1 SWAP2 SUB SWAP1 RETURN JUMPDEST PUSH2 0x1E5 PUSH1 0x4 DUP1 CALLDATASIZE SUB DUP2 ADD SWAP1 PUSH2 0x1E0 SWAP2 SWAP1 PUSH2 0x1C09 JUMP JUMPDEST PUSH2 0x14D5 JUMP JUMPDEST PUSH1 0x40 MLOAD PUSH2 0x1F2 SWAP2 SWAP1 PUSH2 0x2093 JUMP JUMPDEST PUSH1 0x40 MLOAD DUP1 SWAP2 SUB SWAP1 RETURN JUMPDEST PUSH1 0x2 DUP2 DUP2 SLOAD DUP2 LT PUSH2 0x20B JUMPI PUSH1 0x0 DUP1 REVERT JUMPDEST SWAP1 PUSH1 0x0 MSTORE PUSH1 0x20 PUSH1 0x0 KECCAK256 ADD PUSH1 0x0 SWAP2 POP SLOAD SWAP1 PUSH2 0x100 EXP SWAP1 DIV PUSH20 0xFFFFFFFFFFFFFFFFFFFFFFFFFFFFFFFFFFFFFFFF AND DUP2 JUMP JUMPDEST PUSH1 0x60 PUSH1 0x2 DUP1 SLOAD DUP1 PUSH1 0x20 MUL PUSH1 0x20 ADD PUSH1 0x40 MLOAD SWAP1 DUP2 ADD PUSH1 0x40 MSTORE DUP1 SWAP3 SWAP2 SWAP1 DUP2 DUP2 MSTORE PUSH1 0x20 ADD DUP3 DUP1 SLOAD DUP1 ISZERO PUSH2 0x2BE JUMPI PUSH1 0x20 MUL DUP3 ADD SWAP2 SWAP1 PUSH1 0x0 MSTORE PUSH1 0x20 PUSH1 0x0 KECCAK256 SWAP1 JUMPDEST DUP2 PUSH1 0x0 SWAP1 SLOAD SWAP1 PUSH2 0x100 EXP SWAP1 DIV PUSH20 0xFFFFFFFFFFFFFFFFFFFFFFFFFFFFFFFFFFFFFFFF AND PUSH20 0xFFFFFFFFFFFFFFFFFFFFFFFFFFFFFFFFFFFFFFFF AND DUP2 MSTORE PUSH1 0x20 ADD SWAP1 PUSH1 0x1 ADD SWAP1 DUP1 DUP4 GT PUSH2 0x274 JUMPI JUMPDEST POP POP POP POP POP SWAP1 POP SWAP1 JUMP JUMPDEST PUSH1 0x60 PUSH1 0x1 ISZERO ISZERO PUSH1 0x1 PUSH1 0x0 DUP6 PUSH20 0xFFFFFFFFFFFFFFFFFFFFFFFFFFFFFFFFFFFFFFFF AND PUSH20 0xFFFFFFFFFFFFFFFFFFFFFFFFFFFFFFFFFFFFFFFF AND DUP2 MSTORE PUSH1 0x20 ADD SWAP1 DUP2 MSTORE PUSH1 0x20 ADD PUSH1 0x0 KECCAK256 PUSH1 0x3 ADD PUSH1 0x0 SWAP1 SLOAD SWAP1 PUSH2 0x100 EXP SWAP1 DIV PUSH1 0xFF AND ISZERO ISZERO EQ PUSH2 0x360 JUMPI PUSH1 0x40 MLOAD PUSH32 0x8C379A000000000000000000000000000000000000000000000000000000000 DUP2 MSTORE PUSH1 0x4 ADD PUSH2 0x357 SWAP1 PUSH2 0x2101 JUMP JUMPDEST PUSH1 0x40 MLOAD DUP1 SWAP2 SUB SWAP1 REVERT JUMPDEST PUSH1 0x1 ISZERO ISZERO PUSH1 0x1 PUSH1 0x0 DUP6 PUSH20 0xFFFFFFFFFFFFFFFFFFFFFFFFFFFFFFFFFFFFFFFF AND PUSH20 0xFFFFFFFFFFFFFFFFFFFFFFFFFFFFFFFFFFFFFFFF AND DUP2 MSTORE PUSH1 0x20 ADD SWAP1 DUP2 MSTORE PUSH1 0x20 ADD PUSH1 0x0 KECCAK256 PUSH1 0x1 ADD DUP4 PUSH1 0x40 MLOAD PUSH2 0x3B4 SWAP2 SWAP1 PUSH2 0x215D JUMP JUMPDEST SWAP1 DUP2 MSTORE PUSH1 0x20 ADD PUSH1 0x40 MLOAD DUP1 SWAP2 SUB SWAP1 KECCAK256 PUSH1 0x3 ADD PUSH1 0x0 SWAP1 SLOAD SWAP1 PUSH2 0x100 EXP SWAP1 DIV PUSH1 0xFF AND ISZERO ISZERO EQ PUSH2 0x415 JUMPI PUSH1 0x40 MLOAD PUSH32 0x8C379A000000000000000000000000000000000000000000000000000000000 DUP2 MSTORE PUSH1 0x4 ADD PUSH2 0x40C SWAP1 PUSH2 0x21C0 JUMP JUMPDEST PUSH1 0x40 MLOAD DUP1 SWAP2 SUB SWAP1 REVERT JUMPDEST PUSH1 0x0 PUSH1 0x1 PUSH1 0x0 DUP6 PUSH20 0xFFFFFFFFFFFFFFFFFFFFFFFFFFFFFFFFFFFFFFFF AND PUSH20 0xFFFFFFFFFFFFFFFFFFFFFFFFFFFFFFFFFFFFFFFF AND DUP2 MSTORE PUSH1 0x20 ADD SWAP1 DUP2 MSTORE PUSH1 0x20 ADD PUSH1 0x0 KECCAK256 PUSH1 0x1 ADD DUP4 PUSH1 0x40 MLOAD PUSH2 0x467 SWAP2 SWAP1 PUSH2 0x215D JUMP JUMPDEST SWAP1 DUP2 MSTORE PUSH1 0x20 ADD PUSH1 0x40 MLOAD DUP1 SWAP2 SUB SWAP1 KECCAK256 PUSH1 0x2 ADD DUP1 SLOAD SWAP1 POP SWAP1 POP PUSH1 0x0 DUP2 SUB PUSH2 0x4C4 JUMPI PUSH1 0x40 MLOAD DUP1 PUSH1 0x40 ADD PUSH1 0x40 MSTORE DUP1 PUSH1 0x12 DUP2 MSTORE PUSH1 0x20 ADD PUSH32 0x53656E736F72206861736E277420636964730000000000000000000000000000 DUP2 MSTORE POP SWAP2 POP POP PUSH2 0x5DA JUMP JUMPDEST PUSH1 0x1 PUSH1 0x0 DUP6 PUSH20 0xFFFFFFFFFFFFFFFFFFFFFFFFFFFFFFFFFFFFFFFF AND PUSH20 0xFFFFFFFFFFFFFFFFFFFFFFFFFFFFFFFFFFFFFFFF AND DUP2 MSTORE PUSH1 0x20 ADD SWAP1 DUP2 MSTORE PUSH1 0x20 ADD PUSH1 0x0 KECCAK256 PUSH1 0x1 ADD DUP4 PUSH1 0x40 MLOAD PUSH2 0x514 SWAP2 SWAP1 PUSH2 0x215D JUMP JUMPDEST SWAP1 DUP2 MSTORE PUSH1 0x20 ADD PUSH1 0x40 MLOAD DUP1 SWAP2 SUB SWAP1 KECCAK256 PUSH1 0x2 ADD PUSH1 0x1 DUP3 PUSH2 0x532 SWAP2 SWAP1 PUSH2 0x220F JUMP JUMPDEST DUP2 SLOAD DUP2 LT PUSH2 0x543 JUMPI PUSH2 0x542 PUSH2 0x2243 JUMP JUMPDEST JUMPDEST SWAP1 PUSH1 0x0 MSTORE PUSH1 0x20 PUSH1 0x0 KECCAK256 ADD DUP1 SLOAD PUSH2 0x558 SWAP1 PUSH2 0x22A1 JUMP JUMPDEST DUP1 PUSH1 0x1F ADD PUSH1 0x20 DUP1 SWAP2 DIV MUL PUSH1 0x20 ADD PUSH1 0x40 MLOAD SWAP1 DUP2 ADD PUSH1 0x40 MSTORE DUP1 SWAP3 SWAP2 SWAP1 DUP2 DUP2 MSTORE PUSH1 0x20 ADD DUP3 DUP1 SLOAD PUSH2 0x584 SWAP1 PUSH2 0x22A1 JUMP JUMPDEST DUP1 ISZERO PUSH2 0x5D1 JUMPI DUP1 PUSH1 0x1F LT PUSH2 0x5A6 JUMPI PUSH2 0x100 DUP1 DUP4 SLOAD DIV MUL DUP4 MSTORE SWAP2 PUSH1 0x20 ADD SWAP2 PUSH2 0x5D1 JUMP JUMPDEST DUP3 ADD SWAP2 SWAP1 PUSH1 0x0 MSTORE PUSH1 0x20 PUSH1 0x0 KECCAK256 SWAP1 JUMPDEST DUP2 SLOAD DUP2 MSTORE SWAP1 PUSH1 0x1 ADD SWAP1 PUSH1 0x20 ADD DUP1 DUP4 GT PUSH2 0x5B4 JUMPI DUP3 SWAP1 SUB PUSH1 0x1F AND DUP3 ADD SWAP2 JUMPDEST POP POP POP POP POP SWAP2 POP POP JUMPDEST SWAP3 SWAP2 POP POP JUMP JUMPDEST PUSH1 0x0 DUP1 SLOAD SWAP1 PUSH2 0x100 EXP SWAP1 DIV PUSH20 0xFFFFFFFFFFFFFFFFFFFFFFFFFFFFFFFFFFFFFFFF AND PUSH20 0xFFFFFFFFFFFFFFFFFFFFFFFFFFFFFFFFFFFFFFFF AND CALLER PUSH20 0xFFFFFFFFFFFFFFFFFFFFFFFFFFFFFFFFFFFFFFFF AND EQ PUSH2 0x66E JUMPI PUSH1 0x40 MLOAD PUSH32 0x8C379A000000000000000000000000000000000000000000000000000000000 DUP2 MSTORE PUSH1 0x4 ADD PUSH2 0x665 SWAP1 PUSH2 0x2344 JUMP JUMPDEST PUSH1 0x40 MLOAD DUP1 SWAP2 SUB SWAP1 REVERT JUMPDEST PUSH1 0x0 ISZERO ISZERO PUSH1 0x1 PUSH1 0x0 DUP4 PUSH20 0xFFFFFFFFFFFFFFFFFFFFFFFFFFFFFFFFFFFFFFFF AND PUSH20 0xFFFFFFFFFFFFFFFFFFFFFFFFFFFFFFFFFFFFFFFF AND DUP2 MSTORE PUSH1 0x20 ADD SWAP1 DUP2 MSTORE PUSH1 0x20 ADD PUSH1 0x0 KECCAK256 PUSH1 0x3 ADD PUSH1 0x0 SWAP1 SLOAD SWAP1 PUSH2 0x100 EXP SWAP1 DIV PUSH1 0xFF AND ISZERO ISZERO EQ PUSH2 0x704 JUMPI PUSH1 0x40 MLOAD PUSH32 0x8C379A000000000000000000000000000000000000000000000000000000000 DUP2 MSTORE PUSH1 0x4 ADD PUSH2 0x6FB SWAP1 PUSH2 0x23B0 JUMP JUMPDEST PUSH1 0x40 MLOAD DUP1 SWAP2 SUB SWAP1 REVERT JUMPDEST DUP1 PUSH1 0x1 PUSH1 0x0 DUP4 PUSH20 0xFFFFFFFFFFFFFFFFFFFFFFFFFFFFFFFFFFFFFFFF AND PUSH20 0xFFFFFFFFFFFFFFFFFFFFFFFFFFFFFFFFFFFFFFFF AND DUP2 MSTORE PUSH1 0x20 ADD SWAP1 DUP2 MSTORE PUSH1 0x20 ADD PUSH1 0x0 KECCAK256 PUSH1 0x0 ADD PUSH1 0x0 PUSH2 0x100 EXP DUP2 SLOAD DUP2 PUSH20 0xFFFFFFFFFFFFFFFFFFFFFFFFFFFFFFFFFFFFFFFF MUL NOT AND SWAP1 DUP4 PUSH20 0xFFFFFFFFFFFFFFFFFFFFFFFFFFFFFFFFFFFFFFFF AND MUL OR SWAP1 SSTORE POP PUSH1 0x1 DUP1 PUSH1 0x0 DUP4 PUSH20 0xFFFFFFFFFFFFFFFFFFFFFFFFFFFFFFFFFFFFFFFF AND PUSH20 0xFFFFFFFFFFFFFFFFFFFFFFFFFFFFFFFFFFFFFFFF AND DUP2 MSTORE PUSH1 0x20 ADD SWAP1 DUP2 MSTORE PUSH1 0x20 ADD PUSH1 0x0 KECCAK256 PUSH1 0x3 ADD PUSH1 0x0 PUSH2 0x100 EXP DUP2 SLOAD DUP2 PUSH1 0xFF MUL NOT AND SWAP1 DUP4 ISZERO ISZERO MUL OR SWAP1 SSTORE POP PUSH1 0x2 DUP2 SWAP1 DUP1 PUSH1 0x1 DUP2 SLOAD ADD DUP1 DUP3 SSTORE DUP1 SWAP2 POP POP PUSH1 0x1 SWAP1 SUB SWAP1 PUSH1 0x0 MSTORE PUSH1 0x20 PUSH1 0x0 KECCAK256 ADD PUSH1 0x0 SWAP1 SWAP2 SWAP1 SWAP2 SWAP1 SWAP2 PUSH2 0x100 EXP DUP2 SLOAD DUP2 PUSH20 0xFFFFFFFFFFFFFFFFFFFFFFFFFFFFFFFFFFFFFFFF MUL NOT AND SWAP1 DUP4 PUSH20 0xFFFFFFFFFFFFFFFFFFFFFFFFFFFFFFFFFFFFFFFF AND MUL OR SWAP1 SSTORE POP DUP1 PUSH20 0xFFFFFFFFFFFFFFFFFFFFFFFFFFFFFFFFFFFFFFFF AND PUSH32 0x1B8D6E7EDD12CE9BF5CBE0CF36D5E75E86617A943F642908CB445FDADB483051 TIMESTAMP PUSH1 0x40 MLOAD PUSH2 0x888 SWAP2 SWAP1 PUSH2 0x23DF JUMP JUMPDEST PUSH1 0x40 MLOAD DUP1 SWAP2 SUB SWAP1 LOG2 POP JUMP JUMPDEST PUSH1 0x0 PUSH1 0x1 DUP3 DUP7 DUP7 DUP7 PUSH1 0x40 MLOAD PUSH1 0x0 DUP2 MSTORE PUSH1 0x20 ADD PUSH1 0x40 MSTORE PUSH1 0x40 MLOAD PUSH2 0x8B8 SWAP5 SWAP4 SWAP3 SWAP2 SWAP1 PUSH2 0x2418 JUMP JUMPDEST PUSH1 0x20 PUSH1 0x40 MLOAD PUSH1 0x20 DUP2 SUB SWAP1 DUP1 DUP5 SUB SWAP1 DUP6 GAS STATICCALL ISZERO DUP1 ISZERO PUSH2 0x8DA JUMPI RETURNDATASIZE PUSH1 0x0 DUP1 RETURNDATACOPY RETURNDATASIZE PUSH1 0x0 REVERT JUMPDEST POP POP POP PUSH1 0x20 PUSH1 0x40 MLOAD SUB MLOAD SWAP1 POP PUSH1 0x1 ISZERO ISZERO PUSH1 0x1 PUSH1 0x0 DUP4 PUSH20 0xFFFFFFFFFFFFFFFFFFFFFFFFFFFFFFFFFFFFFFFF AND PUSH20 0xFFFFFFFFFFFFFFFFFFFFFFFFFFFFFFFFFFFFFFFF AND DUP2 MSTORE PUSH1 0x20 ADD SWAP1 DUP2 MSTORE PUSH1 0x20 ADD PUSH1 0x0 KECCAK256 PUSH1 0x3 ADD PUSH1 0x0 SWAP1 SLOAD SWAP1 PUSH2 0x100 EXP SWAP1 DIV PUSH1 0xFF AND ISZERO ISZERO EQ PUSH2 0x97C JUMPI PUSH1 0x40 MLOAD PUSH32 0x8C379A000000000000000000000000000000000000000000000000000000000 DUP2 MSTORE PUSH1 0x4 ADD PUSH2 0x973 SWAP1 PUSH2 0x24CF JUMP JUMPDEST PUSH1 0x40 MLOAD DUP1 SWAP2 SUB SWAP1 REVERT JUMPDEST PUSH1 0x0 ISZERO ISZERO PUSH1 0x1 PUSH1 0x0 DUP4 PUSH20 0xFFFFFFFFFFFFFFFFFFFFFFFFFFFFFFFFFFFFFFFF AND PUSH20 0xFFFFFFFFFFFFFFFFFFFFFFFFFFFFFFFFFFFFFFFF AND DUP2 MSTORE PUSH1 0x20 ADD SWAP1 DUP2 MSTORE PUSH1 0x20 ADD PUSH1 0x0 KECCAK256 PUSH1 0x1 ADD DUP8 PUSH1 0x40 MLOAD PUSH2 0x9D0 SWAP2 SWAP1 PUSH2 0x215D JUMP JUMPDEST SWAP1 DUP2 MSTORE PUSH1 0x20 ADD PUSH1 0x40 MLOAD DUP1 SWAP2 SUB SWAP1 KECCAK256 PUSH1 0x3 ADD PUSH1 0x0 SWAP1 SLOAD SWAP1 PUSH2 0x100 EXP SWAP1 DIV PUSH1 0xFF AND ISZERO ISZERO EQ PUSH2 0xA31 JUMPI PUSH1 0x40 MLOAD PUSH32 0x8C379A000000000000000000000000000000000000000000000000000000000 DUP2 MSTORE PUSH1 0x4 ADD PUSH2 0xA28 SWAP1 PUSH2 0x253B JUMP JUMPDEST PUSH1 0x40 MLOAD DUP1 SWAP2 SUB SWAP1 REVERT JUMPDEST DUP6 PUSH1 0x1 PUSH1 0x0 DUP4 PUSH20 0xFFFFFFFFFFFFFFFFFFFFFFFFFFFFFFFFFFFFFFFF AND PUSH20 0xFFFFFFFFFFFFFFFFFFFFFFFFFFFFFFFFFFFFFFFF AND DUP2 MSTORE PUSH1 0x20 ADD SWAP1 DUP2 MSTORE PUSH1 0x20 ADD PUSH1 0x0 KECCAK256 PUSH1 0x1 ADD DUP8 PUSH1 0x40 MLOAD PUSH2 0xA82 SWAP2 SWAP1 PUSH2 0x215D JUMP JUMPDEST SWAP1 DUP2 MSTORE PUSH1 0x20 ADD PUSH1 0x40 MLOAD DUP1 SWAP2 SUB SWAP1 KECCAK256 PUSH1 0x0 ADD SWAP1 DUP2 PUSH2 0xA9F SWAP2 SWAP1 PUSH2 0x2707 JUMP JUMPDEST POP PUSH1 0x1 DUP1 PUSH1 0x0 DUP4 PUSH20 0xFFFFFFFFFFFFFFFFFFFFFFFFFFFFFFFFFFFFFFFF AND PUSH20 0xFFFFFFFFFFFFFFFFFFFFFFFFFFFFFFFFFFFFFFFF AND DUP2 MSTORE PUSH1 0x20 ADD SWAP1 DUP2 MSTORE PUSH1 0x20 ADD PUSH1 0x0 KECCAK256 PUSH1 0x1 ADD DUP8 PUSH1 0x40 MLOAD PUSH2 0xAF1 SWAP2 SWAP1 PUSH2 0x215D JUMP JUMPDEST SWAP1 DUP2 MSTORE PUSH1 0x20 ADD PUSH1 0x40 MLOAD DUP1 SWAP2 SUB SWAP1 KECCAK256 PUSH1 0x3 ADD PUSH1 0x0 PUSH2 0x100 EXP DUP2 SLOAD DUP2 PUSH1 0xFF MUL NOT AND SWAP1 DUP4 ISZERO ISZERO MUL OR SWAP1 SSTORE POP PUSH1 0x1 PUSH1 0x0 DUP3 PUSH20 0xFFFFFFFFFFFFFFFFFFFFFFFFFFFFFFFFFFFFFFFF AND PUSH20 0xFFFFFFFFFFFFFFFFFFFFFFFFFFFFFFFFFFFFFFFF AND DUP2 MSTORE PUSH1 0x20 ADD SWAP1 DUP2 MSTORE PUSH1 0x20 ADD PUSH1 0x0 KECCAK256 PUSH1 0x2 ADD DUP7 SWAP1 DUP1 PUSH1 0x1 DUP2 SLOAD ADD DUP1 DUP3 SSTORE DUP1 SWAP2 POP POP PUSH1 0x1 SWAP1 SUB SWAP1 PUSH1 0x0 MSTORE PUSH1 0x20 PUSH1 0x0 KECCAK256 ADD PUSH1 0x0 SWAP1 SWAP2 SWAP1 SWAP2 SWAP1 SWAP2 POP SWAP1 DUP2 PUSH2 0xB8D SWAP2 SWAP1 PUSH2 0x2707 JUMP JUMPDEST POP DUP1 PUSH20 0xFFFFFFFFFFFFFFFFFFFFFFFFFFFFFFFFFFFFFFFF AND PUSH32 0x54C4764E35DB3B768B99B60A6D4768F57731E91C4F672B4B8F19C36632152836 DUP8 TIMESTAMP PUSH1 0x40 MLOAD PUSH2 0xBD6 SWAP3 SWAP2 SWAP1 PUSH2 0x27D9 JUMP JUMPDEST PUSH1 0x40 MLOAD DUP1 SWAP2 SUB SWAP1 LOG2 POP POP POP POP POP POP JUMP JUMPDEST PUSH1 0x1 PUSH1 0x20 MSTORE DUP1 PUSH1 0x0 MSTORE PUSH1 0x40 PUSH1 0x0 KECCAK256 PUSH1 0x0 SWAP2 POP SWAP1 POP DUP1 PUSH1 0x0 ADD PUSH1 0x0 SWAP1 SLOAD SWAP1 PUSH2 0x100 EXP SWAP1 DIV PUSH20 0xFFFFFFFFFFFFFFFFFFFFFFFFFFFFFFFFFFFFFFFF AND SWAP1 DUP1 PUSH1 0x3 ADD PUSH1 0x0 SWAP1 SLOAD SWAP1 PUSH2 0x100 EXP SWAP1 DIV PUSH1 0xFF AND SWAP1 POP DUP3 JUMP JUMPDEST PUSH1 0x0 PUSH1 0x1 DUP3 DUP7 DUP7 DUP7 PUSH1 0x40 MLOAD PUSH1 0x0 DUP2 MSTORE PUSH1 0x20 ADD PUSH1 0x40 MSTORE PUSH1 0x40 MLOAD PUSH2 0xC5C SWAP5 SWAP4 SWAP3 SWAP2 SWAP1 PUSH2 0x2418 JUMP JUMPDEST PUSH1 0x20 PUSH1 0x40 MLOAD PUSH1 0x20 DUP2 SUB SWAP1 DUP1 DUP5 SUB SWAP1 DUP6 GAS STATICCALL ISZERO DUP1 ISZERO PUSH2 0xC7E JUMPI RETURNDATASIZE PUSH1 0x0 DUP1 RETURNDATACOPY RETURNDATASIZE PUSH1 0x0 REVERT JUMPDEST POP POP POP PUSH1 0x20 PUSH1 0x40 MLOAD SUB MLOAD SWAP1 POP PUSH1 0x1 ISZERO ISZERO PUSH1 0x1 PUSH1 0x0 DUP4 PUSH20 0xFFFFFFFFFFFFFFFFFFFFFFFFFFFFFFFFFFFFFFFF AND PUSH20 0xFFFFFFFFFFFFFFFFFFFFFFFFFFFFFFFFFFFFFFFF AND DUP2 MSTORE PUSH1 0x20 ADD SWAP1 DUP2 MSTORE PUSH1 0x20 ADD PUSH1 0x0 KECCAK256 PUSH1 0x3 ADD PUSH1 0x0 SWAP1 SLOAD SWAP1 PUSH2 0x100 EXP SWAP1 DIV PUSH1 0xFF AND ISZERO ISZERO EQ PUSH2 0xD20 JUMPI PUSH1 0x40 MLOAD PUSH32 0x8C379A000000000000000000000000000000000000000000000000000000000 DUP2 MSTORE PUSH1 0x4 ADD PUSH2 0xD17 SWAP1 PUSH2 0x24CF JUMP JUMPDEST PUSH1 0x40 MLOAD DUP1 SWAP2 SUB SWAP1 REVERT JUMPDEST CALLER PUSH20 0xFFFFFFFFFFFFFFFFFFFFFFFFFFFFFFFFFFFFFFFF AND DUP2 PUSH20 0xFFFFFFFFFFFFFFFFFFFFFFFFFFFFFFFFFFFFFFFF AND EQ PUSH2 0xD8E JUMPI PUSH1 0x40 MLOAD PUSH32 0x8C379A000000000000000000000000000000000000000000000000000000000 DUP2 MSTORE PUSH1 0x4 ADD PUSH2 0xD85 SWAP1 PUSH2 0x287B JUMP JUMPDEST PUSH1 0x40 MLOAD DUP1 SWAP2 SUB SWAP1 REVERT JUMPDEST PUSH1 0x1 ISZERO ISZERO PUSH1 0x1 PUSH1 0x0 DUP4 PUSH20 0xFFFFFFFFFFFFFFFFFFFFFFFFFFFFFFFFFFFFFFFF AND PUSH20 0xFFFFFFFFFFFFFFFFFFFFFFFFFFFFFFFFFFFFFFFF AND DUP2 MSTORE PUSH1 0x20 ADD SWAP1 DUP2 MSTORE PUSH1 0x20 ADD PUSH1 0x0 KECCAK256 PUSH1 0x1 ADD DUP11 PUSH1 0x40 MLOAD PUSH2 0xDE2 SWAP2 SWAP1 PUSH2 0x215D JUMP JUMPDEST SWAP1 DUP2 MSTORE PUSH1 0x20 ADD PUSH1 0x40 MLOAD DUP1 SWAP2 SUB SWAP1 KECCAK256 PUSH1 0x3 ADD PUSH1 0x0 SWAP1 SLOAD SWAP1 PUSH2 0x100 EXP SWAP1 DIV PUSH1 0xFF AND ISZERO ISZERO EQ PUSH2 0xE43 JUMPI PUSH1 0x40 MLOAD PUSH32 0x8C379A000000000000000000000000000000000000000000000000000000000 DUP2 MSTORE PUSH1 0x4 ADD PUSH2 0xE3A SWAP1 PUSH2 0x28E7 JUMP JUMPDEST PUSH1 0x40 MLOAD DUP1 SWAP2 SUB SWAP1 REVERT JUMPDEST DUP8 PUSH1 0x1 PUSH1 0x0 DUP4 PUSH20 0xFFFFFFFFFFFFFFFFFFFFFFFFFFFFFFFFFFFFFFFF AND PUSH20 0xFFFFFFFFFFFFFFFFFFFFFFFFFFFFFFFFFFFFFFFF AND DUP2 MSTORE PUSH1 0x20 ADD SWAP1 DUP2 MSTORE PUSH1 0x20 ADD PUSH1 0x0 KECCAK256 PUSH1 0x1 ADD DUP11 PUSH1 0x40 MLOAD PUSH2 0xE94 SWAP2 SWAP1 PUSH2 0x215D JUMP JUMPDEST SWAP1 DUP2 MSTORE PUSH1 0x20 ADD PUSH1 0x40 MLOAD DUP1 SWAP2 SUB SWAP1 KECCAK256 PUSH1 0x1 ADD DUP10 PUSH1 0x40 MLOAD PUSH2 0xEB3 SWAP2 SWAP1 PUSH2 0x215D JUMP JUMPDEST SWAP1 DUP2 MSTORE PUSH1 0x20 ADD PUSH1 0x40 MLOAD DUP1 SWAP2 SUB SWAP1 KECCAK256 PUSH1 0x0 ADD SWAP1 DUP2 PUSH2 0xED0 SWAP2 SWAP1 PUSH2 0x2707 JUMP JUMPDEST POP DUP7 PUSH1 0x1 PUSH1 0x0 DUP4 PUSH20 0xFFFFFFFFFFFFFFFFFFFFFFFFFFFFFFFFFFFFFFFF AND PUSH20 0xFFFFFFFFFFFFFFFFFFFFFFFFFFFFFFFFFFFFFFFF AND DUP2 MSTORE PUSH1 0x20 ADD SWAP1 DUP2 MSTORE PUSH1 0x20 ADD PUSH1 0x0 KECCAK256 PUSH1 0x1 ADD DUP11 PUSH1 0x40 MLOAD PUSH2 0xF22 SWAP2 SWAP1 PUSH2 0x215D JUMP JUMPDEST SWAP1 DUP2 MSTORE PUSH1 0x20 ADD PUSH1 0x40 MLOAD DUP1 SWAP2 SUB SWAP1 KECCAK256 PUSH1 0x1 ADD DUP10 PUSH1 0x40 MLOAD PUSH2 0xF41 SWAP2 SWAP1 PUSH2 0x215D JUMP JUMPDEST SWAP1 DUP2 MSTORE PUSH1 0x20 ADD PUSH1 0x40 MLOAD DUP1 SWAP2 SUB SWAP1 KECCAK256 PUSH1 0x1 ADD SWAP1 DUP2 PUSH2 0xF5E SWAP2 SWAP1 PUSH2 0x2707 JUMP JUMPDEST POP DUP6 PUSH1 0x1 PUSH1 0x0 DUP4 PUSH20 0xFFFFFFFFFFFFFFFFFFFFFFFFFFFFFFFFFFFFFFFF AND PUSH20 0xFFFFFFFFFFFFFFFFFFFFFFFFFFFFFFFFFFFFFFFF AND DUP2 MSTORE PUSH1 0x20 ADD SWAP1 DUP2 MSTORE PUSH1 0x20 ADD PUSH1 0x0 KECCAK256 PUSH1 0x1 ADD DUP11 PUSH1 0x40 MLOAD PUSH2 0xFB0 SWAP2 SWAP1 PUSH2 0x215D JUMP JUMPDEST SWAP1 DUP2 MSTORE PUSH1 0x20 ADD PUSH1 0x40 MLOAD DUP1 SWAP2 SUB SWAP1 KECCAK256 PUSH1 0x1 ADD DUP10 PUSH1 0x40 MLOAD PUSH2 0xFCF SWAP2 SWAP1 PUSH2 0x215D JUMP JUMPDEST SWAP1 DUP2 MSTORE PUSH1 0x20 ADD PUSH1 0x40 MLOAD DUP1 SWAP2 SUB SWAP1 KECCAK256 PUSH1 0x2 ADD DUP2 SWAP1 SSTORE POP DUP5 PUSH1 0x1 PUSH1 0x0 DUP4 PUSH20 0xFFFFFFFFFFFFFFFFFFFFFFFFFFFFFFFFFFFFFFFF AND PUSH20 0xFFFFFFFFFFFFFFFFFFFFFFFFFFFFFFFFFFFFFFFF AND DUP2 MSTORE PUSH1 0x20 ADD SWAP1 DUP2 MSTORE PUSH1 0x20 ADD PUSH1 0x0 KECCAK256 PUSH1 0x1 ADD DUP11 PUSH1 0x40 MLOAD PUSH2 0x1035 SWAP2 SWAP1 PUSH2 0x215D JUMP JUMPDEST SWAP1 DUP2 MSTORE PUSH1 0x20 ADD PUSH1 0x40 MLOAD DUP1 SWAP2 SUB SWAP1 KECCAK256 PUSH1 0x1 ADD DUP10 PUSH1 0x40 MLOAD PUSH2 0x1054 SWAP2 SWAP1 PUSH2 0x215D JUMP JUMPDEST SWAP1 DUP2 MSTORE PUSH1 0x20 ADD PUSH1 0x40 MLOAD DUP1 SWAP2 SUB SWAP1 KECCAK256 PUSH1 0x3 ADD PUSH1 0x0 PUSH2 0x100 EXP DUP2 SLOAD DUP2 PUSH1 0xFF MUL NOT AND SWAP1 DUP4 PUSH1 0xFF AND MUL OR SWAP1 SSTORE POP DUP4 PUSH1 0x1 PUSH1 0x0 DUP4 PUSH20 0xFFFFFFFFFFFFFFFFFFFFFFFFFFFFFFFFFFFFFFFF AND PUSH20 0xFFFFFFFFFFFFFFFFFFFFFFFFFFFFFFFFFFFFFFFF AND DUP2 MSTORE PUSH1 0x20 ADD SWAP1 DUP2 MSTORE PUSH1 0x20 ADD PUSH1 0x0 KECCAK256 PUSH1 0x1 ADD DUP11 PUSH1 0x40 MLOAD PUSH2 0x10CE SWAP2 SWAP1 PUSH2 0x215D JUMP JUMPDEST SWAP1 DUP2 MSTORE PUSH1 0x20 ADD PUSH1 0x40 MLOAD DUP1 SWAP2 SUB SWAP1 KECCAK256 PUSH1 0x1 ADD DUP10 PUSH1 0x40 MLOAD PUSH2 0x10ED SWAP2 SWAP1 PUSH2 0x215D JUMP JUMPDEST SWAP1 DUP2 MSTORE PUSH1 0x20 ADD PUSH1 0x40 MLOAD DUP1 SWAP2 SUB SWAP1 KECCAK256 PUSH1 0x4 ADD DUP2 SWAP1 SSTORE POP DUP3 PUSH1 0x1 PUSH1 0x0 DUP4 PUSH20 0xFFFFFFFFFFFFFFFFFFFFFFFFFFFFFFFFFFFFFFFF AND PUSH20 0xFFFFFFFFFFFFFFFFFFFFFFFFFFFFFFFFFFFFFFFF AND DUP2 MSTORE PUSH1 0x20 ADD SWAP1 DUP2 MSTORE PUSH1 0x20 ADD PUSH1 0x0 KECCAK256 PUSH1 0x1 ADD DUP11 PUSH1 0x40 MLOAD PUSH2 0x1153 SWAP2 SWAP1 PUSH2 0x215D JUMP JUMPDEST SWAP1 DUP2 MSTORE PUSH1 0x20 ADD PUSH1 0x40 MLOAD DUP1 SWAP2 SUB SWAP1 KECCAK256 PUSH1 0x1 ADD DUP10 PUSH1 0x40 MLOAD PUSH2 0x1172 SWAP2 SWAP1 PUSH2 0x215D JUMP JUMPDEST SWAP1 DUP2 MSTORE PUSH1 0x20 ADD PUSH1 0x40 MLOAD DUP1 SWAP2 SUB SWAP1 KECCAK256 PUSH1 0x5 ADD DUP2 SWAP1 SSTORE POP PUSH1 0x1 DUP1 PUSH1 0x0 DUP4 PUSH20 0xFFFFFFFFFFFFFFFFFFFFFFFFFFFFFFFFFFFFFFFF AND PUSH20 0xFFFFFFFFFFFFFFFFFFFFFFFFFFFFFFFFFFFFFFFF AND DUP2 MSTORE PUSH1 0x20 ADD SWAP1 DUP2 MSTORE PUSH1 0x20 ADD PUSH1 0x0 KECCAK256 PUSH1 0x1 ADD DUP11 PUSH1 0x40 MLOAD PUSH2 0x11D8 SWAP2 SWAP1 PUSH2 0x215D JUMP JUMPDEST SWAP1 DUP2 MSTORE PUSH1 0x20 ADD PUSH1 0x40 MLOAD DUP1 SWAP2 SUB SWAP1 KECCAK256 PUSH1 0x1 ADD DUP10 PUSH1 0x40 MLOAD PUSH2 0x11F7 SWAP2 SWAP1 PUSH2 0x215D JUMP JUMPDEST SWAP1 DUP2 MSTORE PUSH1 0x20 ADD PUSH1 0x40 MLOAD DUP1 SWAP2 SUB SWAP1 KECCAK256 PUSH1 0x7 ADD PUSH1 0x0 PUSH2 0x100 EXP DUP2 SLOAD DUP2 PUSH1 0xFF MUL NOT AND SWAP1 DUP4 ISZERO ISZERO MUL OR SWAP1 SSTORE POP PUSH1 0x1 PUSH1 0x0 DUP3 PUSH20 0xFFFFFFFFFFFFFFFFFFFFFFFFFFFFFFFFFFFFFFFF AND PUSH20 0xFFFFFFFFFFFFFFFFFFFFFFFFFFFFFFFFFFFFFFFF AND DUP2 MSTORE PUSH1 0x20 ADD SWAP1 DUP2 MSTORE PUSH1 0x20 ADD PUSH1 0x0 KECCAK256 PUSH1 0x1 ADD DUP10 PUSH1 0x40 MLOAD PUSH2 0x126F SWAP2 SWAP1 PUSH2 0x215D JUMP JUMPDEST SWAP1 DUP2 MSTORE PUSH1 0x20 ADD PUSH1 0x40 MLOAD DUP1 SWAP2 SUB SWAP1 KECCAK256 PUSH1 0x2 ADD DUP9 SWAP1 DUP1 PUSH1 0x1 DUP2 SLOAD ADD DUP1 DUP3 SSTORE DUP1 SWAP2 POP POP PUSH1 0x1 SWAP1 SUB SWAP1 PUSH1 0x0 MSTORE PUSH1 0x20 PUSH1 0x0 KECCAK256 ADD PUSH1 0x0 SWAP1 SWAP2 SWAP1 SWAP2 SWAP1 SWAP2 POP SWAP1 DUP2 PUSH2 0x12B2 SWAP2 SWAP1 PUSH2 0x2707 JUMP JUMPDEST POP DUP1 PUSH20 0xFFFFFFFFFFFFFFFFFFFFFFFFFFFFFFFFFFFFFFFF AND DUP9 PUSH1 0x40 MLOAD PUSH2 0x12D8 SWAP2 SWAP1 PUSH2 0x215D JUMP JUMPDEST PUSH1 0x40 MLOAD DUP1 SWAP2 SUB SWAP1 KECCAK256 PUSH32 0xA30FA568A3DA991493DC4FFBB1E531DC3712025F0BC9570A32D8D28CE91B3EB0 DUP12 DUP11 PUSH1 0x40 MLOAD PUSH2 0x1311 SWAP3 SWAP2 SWAP1 PUSH2 0x2907 JUMP JUMPDEST PUSH1 0x40 MLOAD DUP1 SWAP2 SUB SWAP1 LOG3 POP POP POP POP POP POP POP POP POP JUMP JUMPDEST PUSH1 0x60 PUSH1 0x1 ISZERO ISZERO PUSH1 0x1 PUSH1 0x0 DUP5 PUSH20 0xFFFFFFFFFFFFFFFFFFFFFFFFFFFFFFFFFFFFFFFF AND PUSH20 0xFFFFFFFFFFFFFFFFFFFFFFFFFFFFFFFFFFFFFFFF AND DUP2 MSTORE PUSH1 0x20 ADD SWAP1 DUP2 MSTORE PUSH1 0x20 ADD PUSH1 0x0 KECCAK256 PUSH1 0x3 ADD PUSH1 0x0 SWAP1 SLOAD SWAP1 PUSH2 0x100 EXP SWAP1 DIV PUSH1 0xFF AND ISZERO ISZERO EQ PUSH2 0x13BC JUMPI PUSH1 0x40 MLOAD PUSH32 0x8C379A000000000000000000000000000000000000000000000000000000000 DUP2 MSTORE PUSH1 0x4 ADD PUSH2 0x13B3 SWAP1 PUSH2 0x298A JUMP JUMPDEST PUSH1 0x40 MLOAD DUP1 SWAP2 SUB SWAP1 REVERT JUMPDEST PUSH1 0x1 PUSH1 0x0 DUP4 PUSH20 0xFFFFFFFFFFFFFFFFFFFFFFFFFFFFFFFFFFFFFFFF AND PUSH20 0xFFFFFFFFFFFFFFFFFFFFFFFFFFFFFFFFFFFFFFFF AND DUP2 MSTORE PUSH1 0x20 ADD SWAP1 DUP2 MSTORE PUSH1 0x20 ADD PUSH1 0x0 KECCAK256 PUSH1 0x2 ADD DUP1 SLOAD DUP1 PUSH1 0x20 MUL PUSH1 0x20 ADD PUSH1 0x40 MLOAD SWAP1 DUP2 ADD PUSH1 0x40 MSTORE DUP1 SWAP3 SWAP2 SWAP1 DUP2 DUP2 MSTORE PUSH1 0x20 ADD PUSH1 0x0 SWAP1 JUMPDEST DUP3 DUP3 LT ISZERO PUSH2 0x14CA JUMPI DUP4 DUP3 SWAP1 PUSH1 0x0 MSTORE PUSH1 0x20 PUSH1 0x0 KECCAK256 ADD DUP1 SLOAD PUSH2 0x143D SWAP1 PUSH2 0x22A1 JUMP JUMPDEST DUP1 PUSH1 0x1F ADD PUSH1 0x20 DUP1 SWAP2 DIV MUL PUSH1 0x20 ADD PUSH1 0x40 MLOAD SWAP1 DUP2 ADD PUSH1 0x40 MSTORE DUP1 SWAP3 SWAP2 SWAP1 DUP2 DUP2 MSTORE PUSH1 0x20 ADD DUP3 DUP1 SLOAD PUSH2 0x1469 SWAP1 PUSH2 0x22A1 JUMP JUMPDEST DUP1 ISZERO PUSH2 0x14B6 JUMPI DUP1 PUSH1 0x1F LT PUSH2 0x148B JUMPI PUSH2 0x100 DUP1 DUP4 SLOAD DIV MUL DUP4 MSTORE SWAP2 PUSH1 0x20 ADD SWAP2 PUSH2 0x14B6 JUMP JUMPDEST DUP3 ADD SWAP2 SWAP1 PUSH1 0x0 MSTORE PUSH1 0x20 PUSH1 0x0 KECCAK256 SWAP1 JUMPDEST DUP2 SLOAD DUP2 MSTORE SWAP1 PUSH1 0x1 ADD SWAP1 PUSH1 0x20 ADD DUP1 DUP4 GT PUSH2 0x1499 JUMPI DUP3 SWAP1 SUB PUSH1 0x1F AND DUP3 ADD SWAP2 JUMPDEST POP POP POP POP POP DUP2 MSTORE PUSH1 0x20 ADD SWAP1 PUSH1 0x1 ADD SWAP1 PUSH2 0x141E JUMP JUMPDEST POP POP POP POP SWAP1 POP SWAP2 SWAP1 POP JUMP JUMPDEST PUSH1 0x60 PUSH1 0x1 ISZERO ISZERO PUSH1 0x1 PUSH1 0x0 DUP6 PUSH20 0xFFFFFFFFFFFFFFFFFFFFFFFFFFFFFFFFFFFFFFFF AND PUSH20 0xFFFFFFFFFFFFFFFFFFFFFFFFFFFFFFFFFFFFFFFF AND DUP2 MSTORE PUSH1 0x20 ADD SWAP1 DUP2 MSTORE PUSH1 0x20 ADD PUSH1 0x0 KECCAK256 PUSH1 0x3 ADD PUSH1 0x0 SWAP1 SLOAD SWAP1 PUSH2 0x100 EXP SWAP1 DIV PUSH1 0xFF AND ISZERO ISZERO EQ PUSH2 0x156D JUMPI PUSH1 0x40 MLOAD PUSH32 0x8C379A000000000000000000000000000000000000000000000000000000000 DUP2 MSTORE PUSH1 0x4 ADD PUSH2 0x1564 SWAP1 PUSH2 0x2101 JUMP JUMPDEST PUSH1 0x40 MLOAD DUP1 SWAP2 SUB SWAP1 REVERT JUMPDEST PUSH1 0x1 ISZERO ISZERO PUSH1 0x1 PUSH1 0x0 DUP6 PUSH20 0xFFFFFFFFFFFFFFFFFFFFFFFFFFFFFFFFFFFFFFFF AND PUSH20 0xFFFFFFFFFFFFFFFFFFFFFFFFFFFFFFFFFFFFFFFF AND DUP2 MSTORE PUSH1 0x20 ADD SWAP1 DUP2 MSTORE PUSH1 0x20 ADD PUSH1 0x0 KECCAK256 PUSH1 0x1 ADD DUP4 PUSH1 0x40 MLOAD PUSH2 0x15C1 SWAP2 SWAP1 PUSH2 0x215D JUMP JUMPDEST SWAP1 DUP2 MSTORE PUSH1 0x20 ADD PUSH1 0x40 MLOAD DUP1 SWAP2 SUB SWAP1 KECCAK256 PUSH1 0x3 ADD PUSH1 0x0 SWAP1 SLOAD SWAP1 PUSH2 0x100 EXP SWAP1 DIV PUSH1 0xFF AND ISZERO ISZERO EQ PUSH2 0x1622 JUMPI PUSH1 0x40 MLOAD PUSH32 0x8C379A000000000000000000000000000000000000000000000000000000000 DUP2 MSTORE PUSH1 0x4 ADD PUSH2 0x1619 SWAP1 PUSH2 0x21C0 JUMP JUMPDEST PUSH1 0x40 MLOAD DUP1 SWAP2 SUB SWAP1 REVERT JUMPDEST PUSH1 0x0 PUSH1 0x1 PUSH1 0x0 DUP6 PUSH20 0xFFFFFFFFFFFFFFFFFFFFFFFFFFFFFFFFFFFFFFFF AND PUSH20 0xFFFFFFFFFFFFFFFFFFFFFFFFFFFFFFFFFFFFFFFF AND DUP2 MSTORE PUSH1 0x20 ADD SWAP1 DUP2 MSTORE PUSH1 0x20 ADD PUSH1 0x0 KECCAK256 PUSH1 0x1 ADD DUP4 PUSH1 0x40 MLOAD PUSH2 0x1674 SWAP2 SWAP1 PUSH2 0x215D JUMP JUMPDEST SWAP1 DUP2 MSTORE PUSH1 0x20 ADD PUSH1 0x40 MLOAD DUP1 SWAP2 SUB SWAP1 KECCAK256 PUSH1 0x2 ADD DUP1 SLOAD SWAP1 POP SWAP1 POP PUSH1 0x0 DUP2 PUSH8 0xFFFFFFFFFFFFFFFF DUP2 GT ISZERO PUSH2 0x16A7 JUMPI PUSH2 0x16A6 PUSH2 0x1ADE JUMP JUMPDEST JUMPDEST PUSH1 0x40 MLOAD SWAP1 DUP1 DUP3 MSTORE DUP1 PUSH1 0x20 MUL PUSH1 0x20 ADD DUP3 ADD PUSH1 0x40 MSTORE DUP1 ISZERO PUSH2 0x16DA JUMPI DUP2 PUSH1 0x20 ADD JUMPDEST PUSH1 0x60 DUP2 MSTORE PUSH1 0x20 ADD SWAP1 PUSH1 0x1 SWAP1 SUB SWAP1 DUP2 PUSH2 0x16C5 JUMPI SWAP1 POP JUMPDEST POP SWAP1 POP PUSH1 0x0 DUP3 SUB PUSH2 0x1795 JUMPI PUSH1 0x1 PUSH8 0xFFFFFFFFFFFFFFFF DUP2 GT ISZERO PUSH2 0x1700 JUMPI PUSH2 0x16FF PUSH2 0x1ADE JUMP JUMPDEST JUMPDEST PUSH1 0x40 MLOAD SWAP1 DUP1 DUP3 MSTORE DUP1 PUSH1 0x20 MUL PUSH1 0x20 ADD DUP3 ADD PUSH1 0x40 MSTORE DUP1 ISZERO PUSH2 0x1733 JUMPI DUP2 PUSH1 0x20 ADD JUMPDEST PUSH1 0x60 DUP2 MSTORE PUSH1 0x20 ADD SWAP1 PUSH1 0x1 SWAP1 SUB SWAP1 DUP2 PUSH2 0x171E JUMPI SWAP1 POP JUMPDEST POP SWAP1 POP PUSH1 0x40 MLOAD DUP1 PUSH1 0x40 ADD PUSH1 0x40 MSTORE DUP1 PUSH1 0x12 DUP2 MSTORE PUSH1 0x20 ADD PUSH32 0x53656E736F72206861736E277420636964730000000000000000000000000000 DUP2 MSTORE POP DUP2 PUSH1 0x0 DUP2 MLOAD DUP2 LT PUSH2 0x1780 JUMPI PUSH2 0x177F PUSH2 0x2243 JUMP JUMPDEST JUMPDEST PUSH1 0x20 MUL PUSH1 0x20 ADD ADD DUP2 SWAP1 MSTORE POP DUP1 SWAP3 POP POP POP PUSH2 0x18DE JUMP JUMPDEST PUSH1 0x0 JUMPDEST DUP3 DUP2 LT ISZERO PUSH2 0x18D7 JUMPI PUSH1 0x1 PUSH1 0x0 DUP8 PUSH20 0xFFFFFFFFFFFFFFFFFFFFFFFFFFFFFFFFFFFFFFFF AND PUSH20 0xFFFFFFFFFFFFFFFFFFFFFFFFFFFFFFFFFFFFFFFF AND DUP2 MSTORE PUSH1 0x20 ADD SWAP1 DUP2 MSTORE PUSH1 0x20 ADD PUSH1 0x0 KECCAK256 PUSH1 0x1 ADD DUP6 PUSH1 0x40 MLOAD PUSH2 0x17F0 SWAP2 SWAP1 PUSH2 0x215D JUMP JUMPDEST SWAP1 DUP2 MSTORE PUSH1 0x20 ADD PUSH1 0x40 MLOAD DUP1 SWAP2 SUB SWAP1 KECCAK256 PUSH1 0x2 ADD DUP2 DUP2 SLOAD DUP2 LT PUSH2 0x1813 JUMPI PUSH2 0x1812 PUSH2 0x2243 JUMP JUMPDEST JUMPDEST SWAP1 PUSH1 0x0 MSTORE PUSH1 0x20 PUSH1 0x0 KECCAK256 ADD DUP1 SLOAD PUSH2 0x1828 SWAP1 PUSH2 0x22A1 JUMP JUMPDEST DUP1 PUSH1 0x1F ADD PUSH1 0x20 DUP1 SWAP2 DIV MUL PUSH1 0x20 ADD PUSH1 0x40 MLOAD SWAP1 DUP2 ADD PUSH1 0x40 MSTORE DUP1 SWAP3 SWAP2 SWAP1 DUP2 DUP2 MSTORE PUSH1 0x20 ADD DUP3 DUP1 SLOAD PUSH2 0x1854 SWAP1 PUSH2 0x22A1 JUMP JUMPDEST DUP1 ISZERO PUSH2 0x18A1 JUMPI DUP1 PUSH1 0x1F LT PUSH2 0x1876 JUMPI PUSH2 0x100 DUP1 DUP4 SLOAD DIV MUL DUP4 MSTORE SWAP2 PUSH1 0x20 ADD SWAP2 PUSH2 0x18A1 JUMP JUMPDEST DUP3 ADD SWAP2 SWAP1 PUSH1 0x0 MSTORE PUSH1 0x20 PUSH1 0x0 KECCAK256 SWAP1 JUMPDEST DUP2 SLOAD DUP2 MSTORE SWAP1 PUSH1 0x1 ADD SWAP1 PUSH1 0x20 ADD DUP1 DUP4 GT PUSH2 0x1884 JUMPI DUP3 SWAP1 SUB PUSH1 0x1F AND DUP3 ADD SWAP2 JUMPDEST POP POP POP POP POP DUP3 DUP3 DUP2 MLOAD DUP2 LT PUSH2 0x18B9 JUMPI PUSH2 0x18B8 PUSH2 0x2243 JUMP JUMPDEST JUMPDEST PUSH1 0x20 MUL PUSH1 0x20 ADD ADD DUP2 SWAP1 MSTORE POP DUP1 DUP1 PUSH2 0x18CF SWAP1 PUSH2 0x29AA JUMP JUMPDEST SWAP2 POP POP PUSH2 0x1798 JUMP JUMPDEST POP DUP1 SWAP3 POP POP POP JUMPDEST SWAP3 SWAP2 POP POP JUMP JUMPDEST PUSH1 0x0 PUSH1 0x40 MLOAD SWAP1 POP SWAP1 JUMP JUMPDEST PUSH1 0x0 DUP1 REVERT JUMPDEST PUSH1 0x0 DUP1 REVERT JUMPDEST PUSH1 0x0 DUP2 SWAP1 POP SWAP2 SWAP1 POP JUMP JUMPDEST PUSH2 0x190B DUP2 PUSH2 0x18F8 JUMP JUMPDEST DUP2 EQ PUSH2 0x1916 JUMPI PUSH1 0x0 DUP1 REVERT JUMPDEST POP JUMP JUMPDEST PUSH1 0x0 DUP2 CALLDATALOAD SWAP1 POP PUSH2 0x1928 DUP2 PUSH2 0x1902 JUMP JUMPDEST SWAP3 SWAP2 POP POP JUMP JUMPDEST PUSH1 0x0 PUSH1 0x20 DUP3 DUP5 SUB SLT ISZERO PUSH2 0x1944 JUMPI PUSH2 0x1943 PUSH2 0x18EE JUMP JUMPDEST JUMPDEST PUSH1 0x0 PUSH2 0x1952 DUP5 DUP3 DUP6 ADD PUSH2 0x1919 JUMP JUMPDEST SWAP2 POP POP SWAP3 SWAP2 POP POP JUMP JUMPDEST PUSH1 0x0 PUSH20 0xFFFFFFFFFFFFFFFFFFFFFFFFFFFFFFFFFFFFFFFF DUP3 AND SWAP1 POP SWAP2 SWAP1 POP JUMP JUMPDEST PUSH1 0x0 PUSH2 0x1986 DUP3 PUSH2 0x195B JUMP JUMPDEST SWAP1 POP SWAP2 SWAP1 POP JUMP JUMPDEST PUSH2 0x1996 DUP2 PUSH2 0x197B JUMP JUMPDEST DUP3 MSTORE POP POP JUMP JUMPDEST PUSH1 0x0 PUSH1 0x20 DUP3 ADD SWAP1 POP PUSH2 0x19B1 PUSH1 0x0 DUP4 ADD DUP5 PUSH2 0x198D JUMP JUMPDEST SWAP3 SWAP2 POP POP JUMP JUMPDEST PUSH1 0x0 DUP2 MLOAD SWAP1 POP SWAP2 SWAP1 POP JUMP JUMPDEST PUSH1 0x0 DUP3 DUP3 MSTORE PUSH1 0x20 DUP3 ADD SWAP1 POP SWAP3 SWAP2 POP POP JUMP JUMPDEST PUSH1 0x0 DUP2 SWAP1 POP PUSH1 0x20 DUP3 ADD SWAP1 POP SWAP2 SWAP1 POP JUMP JUMPDEST PUSH2 0x19EC DUP2 PUSH2 0x197B JUMP JUMPDEST DUP3 MSTORE POP POP JUMP JUMPDEST PUSH1 0x0 PUSH2 0x19FE DUP4 DUP4 PUSH2 0x19E3 JUMP JUMPDEST PUSH1 0x20 DUP4 ADD SWAP1 POP SWAP3 SWAP2 POP POP JUMP JUMPDEST PUSH1 0x0 PUSH1 0x20 DUP3 ADD SWAP1 POP SWAP2 SWAP1 POP JUMP JUMPDEST PUSH1 0x0 PUSH2 0x1A22 DUP3 PUSH2 0x19B7 JUMP JUMPDEST PUSH2 0x1A2C DUP2 DUP6 PUSH2 0x19C2 JUMP JUMPDEST SWAP4 POP PUSH2 0x1A37 DUP4 PUSH2 0x19D3 JUMP JUMPDEST DUP1 PUSH1 0x0 JUMPDEST DUP4 DUP2 LT ISZERO PUSH2 0x1A68 JUMPI DUP2 MLOAD PUSH2 0x1A4F DUP9 DUP3 PUSH2 0x19F2 JUMP JUMPDEST SWAP8 POP PUSH2 0x1A5A DUP4 PUSH2 0x1A0A JUMP JUMPDEST SWAP3 POP POP PUSH1 0x1 DUP2 ADD SWAP1 POP PUSH2 0x1A3B JUMP JUMPDEST POP DUP6 SWAP4 POP POP POP POP SWAP3 SWAP2 POP POP JUMP JUMPDEST PUSH1 0x0 PUSH1 0x20 DUP3 ADD SWAP1 POP DUP2 DUP2 SUB PUSH1 0x0 DUP4 ADD MSTORE PUSH2 0x1A8F DUP2 DUP5 PUSH2 0x1A17 JUMP JUMPDEST SWAP1 POP SWAP3 SWAP2 POP POP JUMP JUMPDEST PUSH2 0x1AA0 DUP2 PUSH2 0x197B JUMP JUMPDEST DUP2 EQ PUSH2 0x1AAB JUMPI PUSH1 0x0 DUP1 REVERT JUMPDEST POP JUMP JUMPDEST PUSH1 0x0 DUP2 CALLDATALOAD SWAP1 POP PUSH2 0x1ABD DUP2 PUSH2 0x1A97 JUMP JUMPDEST SWAP3 SWAP2 POP POP JUMP JUMPDEST PUSH1 0x0 DUP1 REVERT JUMPDEST PUSH1 0x0 DUP1 REVERT JUMPDEST PUSH1 0x0 PUSH1 0x1F NOT PUSH1 0x1F DUP4 ADD AND SWAP1 POP SWAP2 SWAP1 POP JUMP JUMPDEST PUSH32 0x4E487B7100000000000000000000000000000000000000000000000000000000 PUSH1 0x0 MSTORE PUSH1 0x41 PUSH1 0x4 MSTORE PUSH1 0x24 PUSH1 0x0 REVERT JUMPDEST PUSH2 0x1B16 DUP3 PUSH2 0x1ACD JUMP JUMPDEST DUP2 ADD DUP2 DUP2 LT PUSH8 0xFFFFFFFFFFFFFFFF DUP3 GT OR ISZERO PUSH2 0x1B35 JUMPI PUSH2 0x1B34 PUSH2 0x1ADE JUMP JUMPDEST JUMPDEST DUP1 PUSH1 0x40 MSTORE POP POP POP JUMP JUMPDEST PUSH1 0x0 PUSH2 0x1B48 PUSH2 0x18E4 JUMP JUMPDEST SWAP1 POP PUSH2 0x1B54 DUP3 DUP3 PUSH2 0x1B0D JUMP JUMPDEST SWAP2 SWAP1 POP JUMP JUMPDEST PUSH1 0x0 PUSH8 0xFFFFFFFFFFFFFFFF DUP3 GT ISZERO PUSH2 0x1B74 JUMPI PUSH2 0x1B73 PUSH2 0x1ADE JUMP JUMPDEST JUMPDEST PUSH2 0x1B7D DUP3 PUSH2 0x1ACD JUMP JUMPDEST SWAP1 POP PUSH1 0x20 DUP2 ADD SWAP1 POP SWAP2 SWAP1 POP JUMP JUMPDEST DUP3 DUP2 DUP4 CALLDATACOPY PUSH1 0x0 DUP4 DUP4 ADD MSTORE POP POP POP JUMP JUMPDEST PUSH1 0x0 PUSH2 0x1BAC PUSH2 0x1BA7 DUP5 PUSH2 0x1B59 JUMP JUMPDEST PUSH2 0x1B3E JUMP JUMPDEST SWAP1 POP DUP3 DUP2 MSTORE PUSH1 0x20 DUP2 ADD DUP5 DUP5 DUP5 ADD GT ISZERO PUSH2 0x1BC8 JUMPI PUSH2 0x1BC7 PUSH2 0x1AC8 JUMP JUMPDEST JUMPDEST PUSH2 0x1BD3 DUP5 DUP3 DUP6 PUSH2 0x1B8A JUMP JUMPDEST POP SWAP4 SWAP3 POP POP POP JUMP JUMPDEST PUSH1 0x0 DUP3 PUSH1 0x1F DUP4 ADD SLT PUSH2 0x1BF0 JUMPI PUSH2 0x1BEF PUSH2 0x1AC3 JUMP JUMPDEST JUMPDEST DUP2 CALLDATALOAD PUSH2 0x1C00 DUP5 DUP3 PUSH1 0x20 DUP7 ADD PUSH2 0x1B99 JUMP JUMPDEST SWAP2 POP POP SWAP3 SWAP2 POP POP JUMP JUMPDEST PUSH1 0x0 DUP1 PUSH1 0x40 DUP4 DUP6 SUB SLT ISZERO PUSH2 0x1C20 JUMPI PUSH2 0x1C1F PUSH2 0x18EE JUMP JUMPDEST JUMPDEST PUSH1 0x0 PUSH2 0x1C2E DUP6 DUP3 DUP7 ADD PUSH2 0x1AAE JUMP JUMPDEST SWAP3 POP POP PUSH1 0x20 DUP4 ADD CALLDATALOAD PUSH8 0xFFFFFFFFFFFFFFFF DUP2 GT ISZERO PUSH2 0x1C4F JUMPI PUSH2 0x1C4E PUSH2 0x18F3 JUMP JUMPDEST JUMPDEST PUSH2 0x1C5B DUP6 DUP3 DUP7 ADD PUSH2 0x1BDB JUMP JUMPDEST SWAP2 POP POP SWAP3 POP SWAP3 SWAP1 POP JUMP JUMPDEST PUSH1 0x0 DUP2 MLOAD SWAP1 POP SWAP2 SWAP1 POP JUMP JUMPDEST PUSH1 0x0 DUP3 DUP3 MSTORE PUSH1 0x20 DUP3 ADD SWAP1 POP SWAP3 SWAP2 POP POP JUMP JUMPDEST PUSH1 0x0 JUMPDEST DUP4 DUP2 LT ISZERO PUSH2 0x1C9F JUMPI DUP1 DUP3 ADD MLOAD DUP2 DUP5 ADD MSTORE PUSH1 0x20 DUP2 ADD SWAP1 POP PUSH2 0x1C84 JUMP JUMPDEST PUSH1 0x0 DUP5 DUP5 ADD MSTORE POP POP POP POP JUMP JUMPDEST PUSH1 0x0 PUSH2 0x1CB6 DUP3 PUSH2 0x1C65 JUMP JUMPDEST PUSH2 0x1CC0 DUP2 DUP6 PUSH2 0x1C70 JUMP JUMPDEST SWAP4 POP PUSH2 0x1CD0 DUP2 DUP6 PUSH1 0x20 DUP7 ADD PUSH2 0x1C81 JUMP JUMPDEST PUSH2 0x1CD9 DUP2 PUSH2 0x1ACD JUMP JUMPDEST DUP5 ADD SWAP2 POP POP SWAP3 SWAP2 POP POP JUMP JUMPDEST PUSH1 0x0 PUSH1 0x20 DUP3 ADD SWAP1 POP DUP2 DUP2 SUB PUSH1 0x0 DUP4 ADD MSTORE PUSH2 0x1CFE DUP2 DUP5 PUSH2 0x1CAB JUMP JUMPDEST SWAP1 POP SWAP3 SWAP2 POP POP JUMP JUMPDEST PUSH1 0x0 PUSH1 0x20 DUP3 DUP5 SUB SLT ISZERO PUSH2 0x1D1C JUMPI PUSH2 0x1D1B PUSH2 0x18EE JUMP JUMPDEST JUMPDEST PUSH1 0x0 PUSH2 0x1D2A DUP5 DUP3 DUP6 ADD PUSH2 0x1AAE JUMP JUMPDEST SWAP2 POP POP SWAP3 SWAP2 POP POP JUMP JUMPDEST PUSH1 0x0 PUSH1 0xFF DUP3 AND SWAP1 POP SWAP2 SWAP1 POP JUMP JUMPDEST PUSH2 0x1D49 DUP2 PUSH2 0x1D33 JUMP JUMPDEST DUP2 EQ PUSH2 0x1D54 JUMPI PUSH1 0x0 DUP1 REVERT JUMPDEST POP JUMP JUMPDEST PUSH1 0x0 DUP2 CALLDATALOAD SWAP1 POP PUSH2 0x1D66 DUP2 PUSH2 0x1D40 JUMP JUMPDEST SWAP3 SWAP2 POP POP JUMP JUMPDEST PUSH1 0x0 DUP2 SWAP1 POP SWAP2 SWAP1 POP JUMP JUMPDEST PUSH2 0x1D7F DUP2 PUSH2 0x1D6C JUMP JUMPDEST DUP2 EQ PUSH2 0x1D8A JUMPI PUSH1 0x0 DUP1 REVERT JUMPDEST POP JUMP JUMPDEST PUSH1 0x0 DUP2 CALLDATALOAD SWAP1 POP PUSH2 0x1D9C DUP2 PUSH2 0x1D76 JUMP JUMPDEST SWAP3 SWAP2 POP POP JUMP JUMPDEST PUSH1 0x0 DUP1 PUSH1 0x0 DUP1 PUSH1 0x0 PUSH1 0xA0 DUP7 DUP9 SUB SLT ISZERO PUSH2 0x1DBE JUMPI PUSH2 0x1DBD PUSH2 0x18EE JUMP JUMPDEST JUMPDEST PUSH1 0x0 DUP7 ADD CALLDATALOAD PUSH8 0xFFFFFFFFFFFFFFFF DUP2 GT ISZERO PUSH2 0x1DDC JUMPI PUSH2 0x1DDB PUSH2 0x18F3 JUMP JUMPDEST JUMPDEST PUSH2 0x1DE8 DUP9 DUP3 DUP10 ADD PUSH2 0x1BDB JUMP JUMPDEST SWAP6 POP POP PUSH1 0x20 PUSH2 0x1DF9 DUP9 DUP3 DUP10 ADD PUSH2 0x1D57 JUMP JUMPDEST SWAP5 POP POP PUSH1 0x40 PUSH2 0x1E0A DUP9 DUP3 DUP10 ADD PUSH2 0x1D8D JUMP JUMPDEST SWAP4 POP POP PUSH1 0x60 PUSH2 0x1E1B DUP9 DUP3 DUP10 ADD PUSH2 0x1D8D JUMP JUMPDEST SWAP3 POP POP PUSH1 0x80 PUSH2 0x1E2C DUP9 DUP3 DUP10 ADD PUSH2 0x1D8D JUMP JUMPDEST SWAP2 POP POP SWAP3 SWAP6 POP SWAP3 SWAP6 SWAP1 SWAP4 POP JUMP JUMPDEST PUSH1 0x0 DUP2 ISZERO ISZERO SWAP1 POP SWAP2 SWAP1 POP JUMP JUMPDEST PUSH2 0x1E4E DUP2 PUSH2 0x1E39 JUMP JUMPDEST DUP3 MSTORE POP POP JUMP JUMPDEST PUSH1 0x0 PUSH1 0x40 DUP3 ADD SWAP1 POP PUSH2 0x1E69 PUSH1 0x0 DUP4 ADD DUP6 PUSH2 0x198D JUMP JUMPDEST PUSH2 0x1E76 PUSH1 0x20 DUP4 ADD DUP5 PUSH2 0x1E45 JUMP JUMPDEST SWAP4 SWAP3 POP POP POP JUMP JUMPDEST PUSH1 0x0 DUP1 PUSH1 0x0 DUP1 PUSH1 0x0 DUP1 PUSH1 0x0 DUP1 PUSH2 0x100 DUP10 DUP12 SUB SLT ISZERO PUSH2 0x1E9E JUMPI PUSH2 0x1E9D PUSH2 0x18EE JUMP JUMPDEST JUMPDEST PUSH1 0x0 DUP10 ADD CALLDATALOAD PUSH8 0xFFFFFFFFFFFFFFFF DUP2 GT ISZERO PUSH2 0x1EBC JUMPI PUSH2 0x1EBB PUSH2 0x18F3 JUMP JUMPDEST JUMPDEST PUSH2 0x1EC8 DUP12 DUP3 DUP13 ADD PUSH2 0x1BDB JUMP JUMPDEST SWAP9 POP POP PUSH1 0x20 DUP10 ADD CALLDATALOAD PUSH8 0xFFFFFFFFFFFFFFFF DUP2 GT ISZERO PUSH2 0x1EE9 JUMPI PUSH2 0x1EE8 PUSH2 0x18F3 JUMP JUMPDEST JUMPDEST PUSH2 0x1EF5 DUP12 DUP3 DUP13 ADD PUSH2 0x1BDB JUMP JUMPDEST SWAP8 POP POP PUSH1 0x40 DUP10 ADD CALLDATALOAD PUSH8 0xFFFFFFFFFFFFFFFF DUP2 GT ISZERO PUSH2 0x1F16 JUMPI PUSH2 0x1F15 PUSH2 0x18F3 JUMP JUMPDEST JUMPDEST PUSH2 0x1F22 DUP12 DUP3 DUP13 ADD PUSH2 0x1BDB JUMP JUMPDEST SWAP7 POP POP PUSH1 0x60 PUSH2 0x1F33 DUP12 DUP3 DUP13 ADD PUSH2 0x1919 JUMP JUMPDEST SWAP6 POP POP PUSH1 0x80 PUSH2 0x1F44 DUP12 DUP3 DUP13 ADD PUSH2 0x1D57 JUMP JUMPDEST SWAP5 POP POP PUSH1 0xA0 PUSH2 0x1F55 DUP12 DUP3 DUP13 ADD PUSH2 0x1D8D JUMP JUMPDEST SWAP4 POP POP PUSH1 0xC0 PUSH2 0x1F66 DUP12 DUP3 DUP13 ADD PUSH2 0x1D8D JUMP JUMPDEST SWAP3 POP POP PUSH1 0xE0 PUSH2 0x1F77 DUP12 DUP3 DUP13 ADD PUSH2 0x1D8D JUMP JUMPDEST SWAP2 POP POP SWAP3 SWAP6 SWAP9 POP SWAP3 SWAP6 SWAP9 SWAP1 SWAP4 SWAP7 POP JUMP JUMPDEST PUSH1 0x0 DUP2 MLOAD SWAP1 POP SWAP2 SWAP1 POP JUMP JUMPDEST PUSH1 0x0 DUP3 DUP3 MSTORE PUSH1 0x20 DUP3 ADD SWAP1 POP SWAP3 SWAP2 POP POP JUMP JUMPDEST PUSH1 0x0 DUP2 SWAP1 POP PUSH1 0x20 DUP3 ADD SWAP1 POP SWAP2 SWAP1 POP JUMP JUMPDEST PUSH1 0x0 DUP3 DUP3 MSTORE PUSH1 0x20 DUP3 ADD SWAP1 POP SWAP3 SWAP2 POP POP JUMP JUMPDEST PUSH1 0x0 PUSH2 0x1FCF DUP3 PUSH2 0x1C65 JUMP JUMPDEST PUSH2 0x1FD9 DUP2 DUP6 PUSH2 0x1FB3 JUMP JUMPDEST SWAP4 POP PUSH2 0x1FE9 DUP2 DUP6 PUSH1 0x20 DUP7 ADD PUSH2 0x1C81 JUMP JUMPDEST PUSH2 0x1FF2 DUP2 PUSH2 0x1ACD JUMP JUMPDEST DUP5 ADD SWAP2 POP POP SWAP3 SWAP2 POP POP JUMP JUMPDEST PUSH1 0x0 PUSH2 0x2009 DUP4 DUP4 PUSH2 0x1FC4 JUMP JUMPDEST SWAP1 POP SWAP3 SWAP2 POP POP JUMP JUMPDEST PUSH1 0x0 PUSH1 0x20 DUP3 ADD SWAP1 POP SWAP2 SWAP1 POP JUMP JUMPDEST PUSH1 0x0 PUSH2 0x2029 DUP3 PUSH2 0x1F87 JUMP JUMPDEST PUSH2 0x2033 DUP2 DUP6 PUSH2 0x1F92 JUMP JUMPDEST SWAP4 POP DUP4 PUSH1 0x20 DUP3 MUL DUP6 ADD PUSH2 0x2045 DUP6 PUSH2 0x1FA3 JUMP JUMPDEST DUP1 PUSH1 0x0 JUMPDEST DUP6 DUP2 LT ISZERO PUSH2 0x2081 JUMPI DUP5 DUP5 SUB DUP10 MSTORE DUP2 MLOAD PUSH2 0x2062 DUP6 DUP3 PUSH2 0x1FFD JUMP JUMPDEST SWAP5 POP PUSH2 0x206D DUP4 PUSH2 0x2011 JUMP JUMPDEST SWAP3 POP PUSH1 0x20 DUP11 ADD SWAP10 POP POP PUSH1 0x1 DUP2 ADD SWAP1 POP PUSH2 0x2049 JUMP JUMPDEST POP DUP3 SWAP8 POP DUP8 SWAP6 POP POP POP POP POP POP SWAP3 SWAP2 POP POP JUMP JUMPDEST PUSH1 0x0 PUSH1 0x20 DUP3 ADD SWAP1 POP DUP2 DUP2 SUB PUSH1 0x0 DUP4 ADD MSTORE PUSH2 0x20AD DUP2 DUP5 PUSH2 0x201E JUMP JUMPDEST SWAP1 POP SWAP3 SWAP2 POP POP JUMP JUMPDEST PUSH32 0x496E76616C69642070726F766964657220616464726573730000000000000000 PUSH1 0x0 DUP3 ADD MSTORE POP JUMP JUMPDEST PUSH1 0x0 PUSH2 0x20EB PUSH1 0x18 DUP4 PUSH2 0x1C70 JUMP JUMPDEST SWAP2 POP PUSH2 0x20F6 DUP3 PUSH2 0x20B5 JUMP JUMPDEST PUSH1 0x20 DUP3 ADD SWAP1 POP SWAP2 SWAP1 POP JUMP JUMPDEST PUSH1 0x0 PUSH1 0x20 DUP3 ADD SWAP1 POP DUP2 DUP2 SUB PUSH1 0x0 DUP4 ADD MSTORE PUSH2 0x211A DUP2 PUSH2 0x20DE JUMP JUMPDEST SWAP1 POP SWAP2 SWAP1 POP JUMP JUMPDEST PUSH1 0x0 DUP2 SWAP1 POP SWAP3 SWAP2 POP POP JUMP JUMPDEST PUSH1 0x0 PUSH2 0x2137 DUP3 PUSH2 0x1C65 JUMP JUMPDEST PUSH2 0x2141 DUP2 DUP6 PUSH2 0x2121 JUMP JUMPDEST SWAP4 POP PUSH2 0x2151 DUP2 DUP6 PUSH1 0x20 DUP7 ADD PUSH2 0x1C81 JUMP JUMPDEST DUP1 DUP5 ADD SWAP2 POP POP SWAP3 SWAP2 POP POP JUMP JUMPDEST PUSH1 0x0 PUSH2 0x2169 DUP3 DUP5 PUSH2 0x212C JUMP JUMPDEST SWAP2 POP DUP2 SWAP1 POP SWAP3 SWAP2 POP POP JUMP JUMPDEST PUSH32 0x496E76616C69642073656E736F72204D41430000000000000000000000000000 PUSH1 0x0 DUP3 ADD MSTORE POP JUMP JUMPDEST PUSH1 0x0 PUSH2 0x21AA PUSH1 0x12 DUP4 PUSH2 0x1C70 JUMP JUMPDEST SWAP2 POP PUSH2 0x21B5 DUP3 PUSH2 0x2174 JUMP JUMPDEST PUSH1 0x20 DUP3 ADD SWAP1 POP SWAP2 SWAP1 POP JUMP JUMPDEST PUSH1 0x0 PUSH1 0x20 DUP3 ADD SWAP1 POP DUP2 DUP2 SUB PUSH1 0x0 DUP4 ADD MSTORE PUSH2 0x21D9 DUP2 PUSH2 0x219D JUMP JUMPDEST SWAP1 POP SWAP2 SWAP1 POP JUMP JUMPDEST PUSH32 0x4E487B7100000000000000000000000000000000000000000000000000000000 PUSH1 0x0 MSTORE PUSH1 0x11 PUSH1 0x4 MSTORE PUSH1 0x24 PUSH1 0x0 REVERT JUMPDEST PUSH1 0x0 PUSH2 0x221A DUP3 PUSH2 0x18F8 JUMP JUMPDEST SWAP2 POP PUSH2 0x2225 DUP4 PUSH2 0x18F8 JUMP JUMPDEST SWAP3 POP DUP3 DUP3 SUB SWAP1 POP DUP2 DUP2 GT ISZERO PUSH2 0x223D JUMPI PUSH2 0x223C PUSH2 0x21E0 JUMP JUMPDEST JUMPDEST SWAP3 SWAP2 POP POP JUMP JUMPDEST PUSH32 0x4E487B7100000000000000000000000000000000000000000000000000000000 PUSH1 0x0 MSTORE PUSH1 0x32 PUSH1 0x4 MSTORE PUSH1 0x24 PUSH1 0x0 REVERT JUMPDEST PUSH32 0x4E487B7100000000000000000000000000000000000000000000000000000000 PUSH1 0x0 MSTORE PUSH1 0x22 PUSH1 0x4 MSTORE PUSH1 0x24 PUSH1 0x0 REVERT JUMPDEST PUSH1 0x0 PUSH1 0x2 DUP3 DIV SWAP1 POP PUSH1 0x1 DUP3 AND DUP1 PUSH2 0x22B9 JUMPI PUSH1 0x7F DUP3 AND SWAP2 POP JUMPDEST PUSH1 0x20 DUP3 LT DUP2 SUB PUSH2 0x22CC JUMPI PUSH2 0x22CB PUSH2 0x2272 JUMP JUMPDEST JUMPDEST POP SWAP2 SWAP1 POP JUMP JUMPDEST PUSH32 0x4F6E6C7920636F6E74726163742773206F776E65722063616E20616464206120 PUSH1 0x0 DUP3 ADD MSTORE PUSH32 0x70726F7669646572000000000000000000000000000000000000000000000000 PUSH1 0x20 DUP3 ADD MSTORE POP JUMP JUMPDEST PUSH1 0x0 PUSH2 0x232E PUSH1 0x28 DUP4 PUSH2 0x1C70 JUMP JUMPDEST SWAP2 POP PUSH2 0x2339 DUP3 PUSH2 0x22D2 JUMP JUMPDEST PUSH1 0x40 DUP3 ADD SWAP1 POP SWAP2 SWAP1 POP JUMP JUMPDEST PUSH1 0x0 PUSH1 0x20 DUP3 ADD SWAP1 POP DUP2 DUP2 SUB PUSH1 0x0 DUP4 ADD MSTORE PUSH2 0x235D DUP2 PUSH2 0x2321 JUMP JUMPDEST SWAP1 POP SWAP2 SWAP1 POP JUMP JUMPDEST PUSH32 0x50726F76696465722068617320616C7265616479206164646564000000000000 PUSH1 0x0 DUP3 ADD MSTORE POP JUMP JUMPDEST PUSH1 0x0 PUSH2 0x239A PUSH1 0x1A DUP4 PUSH2 0x1C70 JUMP JUMPDEST SWAP2 POP PUSH2 0x23A5 DUP3 PUSH2 0x2364 JUMP JUMPDEST PUSH1 0x20 DUP3 ADD SWAP1 POP SWAP2 SWAP1 POP JUMP JUMPDEST PUSH1 0x0 PUSH1 0x20 DUP3 ADD SWAP1 POP DUP2 DUP2 SUB PUSH1 0x0 DUP4 ADD MSTORE PUSH2 0x23C9 DUP2 PUSH2 0x238D JUMP JUMPDEST SWAP1 POP SWAP2 SWAP1 POP JUMP JUMPDEST PUSH2 0x23D9 DUP2 PUSH2 0x18F8 JUMP JUMPDEST DUP3 MSTORE POP POP JUMP JUMPDEST PUSH1 0x0 PUSH1 0x20 DUP3 ADD SWAP1 POP PUSH2 0x23F4 PUSH1 0x0 DUP4 ADD DUP5 PUSH2 0x23D0 JUMP JUMPDEST SWAP3 SWAP2 POP POP JUMP JUMPDEST PUSH2 0x2403 DUP2 PUSH2 0x1D6C JUMP JUMPDEST DUP3 MSTORE POP POP JUMP JUMPDEST PUSH2 0x2412 DUP2 PUSH2 0x1D33 JUMP JUMPDEST DUP3 MSTORE POP POP JUMP JUMPDEST PUSH1 0x0 PUSH1 0x80 DUP3 ADD SWAP1 POP PUSH2 0x242D PUSH1 0x0 DUP4 ADD DUP8 PUSH2 0x23FA JUMP JUMPDEST PUSH2 0x243A PUSH1 0x20 DUP4 ADD DUP7 PUSH2 0x2409 JUMP JUMPDEST PUSH2 0x2447 PUSH1 0x40 DUP4 ADD DUP6 PUSH2 0x23FA JUMP JUMPDEST PUSH2 0x2454 PUSH1 0x60 DUP4 ADD DUP5 PUSH2 0x23FA JUMP JUMPDEST SWAP6 SWAP5 POP POP POP POP POP JUMP JUMPDEST PUSH32 0x496E76616C6964207369676E61747572652C2070726F766964657220646F6573 PUSH1 0x0 DUP3 ADD MSTORE PUSH32 0x6E27742065786973747300000000000000000000000000000000000000000000 PUSH1 0x20 DUP3 ADD MSTORE POP JUMP JUMPDEST PUSH1 0x0 PUSH2 0x24B9 PUSH1 0x2A DUP4 PUSH2 0x1C70 JUMP JUMPDEST SWAP2 POP PUSH2 0x24C4 DUP3 PUSH2 0x245D JUMP JUMPDEST PUSH1 0x40 DUP3 ADD SWAP1 POP SWAP2 SWAP1 POP JUMP JUMPDEST PUSH1 0x0 PUSH1 0x20 DUP3 ADD SWAP1 POP DUP2 DUP2 SUB PUSH1 0x0 DUP4 ADD MSTORE PUSH2 0x24E8 DUP2 PUSH2 0x24AC JUMP JUMPDEST SWAP1 POP SWAP2 SWAP1 POP JUMP JUMPDEST PUSH32 0x53656E736F722068617320616C72656164792061646465640000000000000000 PUSH1 0x0 DUP3 ADD MSTORE POP JUMP JUMPDEST PUSH1 0x0 PUSH2 0x2525 PUSH1 0x18 DUP4 PUSH2 0x1C70 JUMP JUMPDEST SWAP2 POP PUSH2 0x2530 DUP3 PUSH2 0x24EF JUMP JUMPDEST PUSH1 0x20 DUP3 ADD SWAP1 POP SWAP2 SWAP1 POP JUMP JUMPDEST PUSH1 0x0 PUSH1 0x20 DUP3 ADD SWAP1 POP DUP2 DUP2 SUB PUSH1 0x0 DUP4 ADD MSTORE PUSH2 0x2554 DUP2 PUSH2 0x2518 JUMP JUMPDEST SWAP1 POP SWAP2 SWAP1 POP JUMP JUMPDEST PUSH1 0x0 DUP2 SWAP1 POP DUP2 PUSH1 0x0 MSTORE PUSH1 0x20 PUSH1 0x0 KECCAK256 SWAP1 POP SWAP2 SWAP1 POP JUMP JUMPDEST PUSH1 0x0 PUSH1 0x20 PUSH1 0x1F DUP4 ADD DIV SWAP1 POP SWAP2 SWAP1 POP JUMP JUMPDEST PUSH1 0x0 DUP3 DUP3 SHL SWAP1 POP SWAP3 SWAP2 POP POP JUMP JUMPDEST PUSH1 0x0 PUSH1 0x8 DUP4 MUL PUSH2 0x25BD PUSH32 0xFFFFFFFFFFFFFFFFFFFFFFFFFFFFFFFFFFFFFFFFFFFFFFFFFFFFFFFFFFFFFFFF DUP3 PUSH2 0x2580 JUMP JUMPDEST PUSH2 0x25C7 DUP7 DUP4 PUSH2 0x2580 JUMP JUMPDEST SWAP6 POP DUP1 NOT DUP5 AND SWAP4 POP DUP1 DUP7 AND DUP5 OR SWAP3 POP POP POP SWAP4 SWAP3 POP POP POP JUMP JUMPDEST PUSH1 0x0 DUP2 SWAP1 POP SWAP2 SWAP1 POP JUMP JUMPDEST PUSH1 0x0 PUSH2 0x2604 PUSH2 0x25FF PUSH2 0x25FA DUP5 PUSH2 0x18F8 JUMP JUMPDEST PUSH2 0x25DF JUMP JUMPDEST PUSH2 0x18F8 JUMP JUMPDEST SWAP1 POP SWAP2 SWAP1 POP JUMP JUMPDEST PUSH1 0x0 DUP2 SWAP1 POP SWAP2 SWAP1 POP JUMP JUMPDEST PUSH2 0x261E DUP4 PUSH2 0x25E9 JUMP JUMPDEST PUSH2 0x2632 PUSH2 0x262A DUP3 PUSH2 0x260B JUMP JUMPDEST DUP5 DUP5 SLOAD PUSH2 0x258D JUMP JUMPDEST DUP3 SSTORE POP POP POP POP JUMP JUMPDEST PUSH1 0x0 SWAP1 JUMP JUMPDEST PUSH2 0x2647 PUSH2 0x263A JUMP JUMPDEST PUSH2 0x2652 DUP2 DUP5 DUP5 PUSH2 0x2615 JUMP JUMPDEST POP POP POP JUMP JUMPDEST JUMPDEST DUP2 DUP2 LT ISZERO PUSH2 0x2676 JUMPI PUSH2 0x266B PUSH1 0x0 DUP3 PUSH2 0x263F JUMP JUMPDEST PUSH1 0x1 DUP2 ADD SWAP1 POP PUSH2 0x2658 JUMP JUMPDEST POP POP JUMP JUMPDEST PUSH1 0x1F DUP3 GT ISZERO PUSH2 0x26BB JUMPI PUSH2 0x268C DUP2 PUSH2 0x255B JUMP JUMPDEST PUSH2 0x2695 DUP5 PUSH2 0x2570 JUMP JUMPDEST DUP2 ADD PUSH1 0x20 DUP6 LT ISZERO PUSH2 0x26A4 JUMPI DUP2 SWAP1 POP JUMPDEST PUSH2 0x26B8 PUSH2 0x26B0 DUP6 PUSH2 0x2570 JUMP JUMPDEST DUP4 ADD DUP3 PUSH2 0x2657 JUMP JUMPDEST POP POP JUMPDEST POP POP POP JUMP JUMPDEST PUSH1 0x0 DUP3 DUP3 SHR SWAP1 POP SWAP3 SWAP2 POP POP JUMP JUMPDEST PUSH1 0x0 PUSH2 0x26DE PUSH1 0x0 NOT DUP5 PUSH1 0x8 MUL PUSH2 0x26C0 JUMP JUMPDEST NOT DUP1 DUP4 AND SWAP2 POP POP SWAP3 SWAP2 POP POP JUMP JUMPDEST PUSH1 0x0 PUSH2 0x26F7 DUP4 DUP4 PUSH2 0x26CD JUMP JUMPDEST SWAP2 POP DUP3 PUSH1 0x2 MUL DUP3 OR SWAP1 POP SWAP3 SWAP2 POP POP JUMP JUMPDEST PUSH2 0x2710 DUP3 PUSH2 0x1C65 JUMP JUMPDEST PUSH8 0xFFFFFFFFFFFFFFFF DUP2 GT ISZERO PUSH2 0x2729 JUMPI PUSH2 0x2728 PUSH2 0x1ADE JUMP JUMPDEST JUMPDEST PUSH2 0x2733 DUP3 SLOAD PUSH2 0x22A1 JUMP JUMPDEST PUSH2 0x273E DUP3 DUP3 DUP6 PUSH2 0x267A JUMP JUMPDEST PUSH1 0x0 PUSH1 0x20 SWAP1 POP PUSH1 0x1F DUP4 GT PUSH1 0x1 DUP2 EQ PUSH2 0x2771 JUMPI PUSH1 0x0 DUP5 ISZERO PUSH2 0x275F JUMPI DUP3 DUP8 ADD MLOAD SWAP1 POP JUMPDEST PUSH2 0x2769 DUP6 DUP3 PUSH2 0x26EB JUMP JUMPDEST DUP7 SSTORE POP PUSH2 0x27D1 JUMP JUMPDEST PUSH1 0x1F NOT DUP5 AND PUSH2 0x277F DUP7 PUSH2 0x255B JUMP JUMPDEST PUSH1 0x0 JUMPDEST DUP3 DUP2 LT ISZERO PUSH2 0x27A7 JUMPI DUP5 DUP10 ADD MLOAD DUP3 SSTORE PUSH1 0x1 DUP3 ADD SWAP2 POP PUSH1 0x20 DUP6 ADD SWAP5 POP PUSH1 0x20 DUP2 ADD SWAP1 POP PUSH2 0x2782 JUMP JUMPDEST DUP7 DUP4 LT ISZERO PUSH2 0x27C4 JUMPI DUP5 DUP10 ADD MLOAD PUSH2 0x27C0 PUSH1 0x1F DUP10 AND DUP3 PUSH2 0x26CD JUMP JUMPDEST DUP4 SSTORE POP JUMPDEST PUSH1 0x1 PUSH1 0x2 DUP9 MUL ADD DUP9 SSTORE POP POP POP JUMPDEST POP POP POP POP POP POP JUMP JUMPDEST PUSH1 0x0 PUSH1 0x40 DUP3 ADD SWAP1 POP DUP2 DUP2 SUB PUSH1 0x0 DUP4 ADD MSTORE PUSH2 0x27F3 DUP2 DUP6 PUSH2 0x1CAB JUMP JUMPDEST SWAP1 POP PUSH2 0x2802 PUSH1 0x20 DUP4 ADD DUP5 PUSH2 0x23D0 JUMP JUMPDEST SWAP4 SWAP3 POP POP POP JUMP JUMPDEST PUSH32 0x4F6E6C792070726F76696465722063616E2075706C6F6164206E657720646174 PUSH1 0x0 DUP3 ADD MSTORE PUSH32 0x6100000000000000000000000000000000000000000000000000000000000000 PUSH1 0x20 DUP3 ADD MSTORE POP JUMP JUMPDEST PUSH1 0x0 PUSH2 0x2865 PUSH1 0x21 DUP4 PUSH2 0x1C70 JUMP JUMPDEST SWAP2 POP PUSH2 0x2870 DUP3 PUSH2 0x2809 JUMP JUMPDEST PUSH1 0x40 DUP3 ADD SWAP1 POP SWAP2 SWAP1 POP JUMP JUMPDEST PUSH1 0x0 PUSH1 0x20 DUP3 ADD SWAP1 POP DUP2 DUP2 SUB PUSH1 0x0 DUP4 ADD MSTORE PUSH2 0x2894 DUP2 PUSH2 0x2858 JUMP JUMPDEST SWAP1 POP SWAP2 SWAP1 POP JUMP JUMPDEST PUSH32 0x53656E736F7220646F65736E2774206578697374730000000000000000000000 PUSH1 0x0 DUP3 ADD MSTORE POP JUMP JUMPDEST PUSH1 0x0 PUSH2 0x28D1 PUSH1 0x15 DUP4 PUSH2 0x1C70 JUMP JUMPDEST SWAP2 POP PUSH2 0x28DC DUP3 PUSH2 0x289B JUMP JUMPDEST PUSH1 0x20 DUP3 ADD SWAP1 POP SWAP2 SWAP1 POP JUMP JUMPDEST PUSH1 0x0 PUSH1 0x20 DUP3 ADD SWAP1 POP DUP2 DUP2 SUB PUSH1 0x0 DUP4 ADD MSTORE PUSH2 0x2900 DUP2 PUSH2 0x28C4 JUMP JUMPDEST SWAP1 POP SWAP2 SWAP1 POP JUMP JUMPDEST PUSH1 0x0 PUSH1 0x40 DUP3 ADD SWAP1 POP DUP2 DUP2 SUB PUSH1 0x0 DUP4 ADD MSTORE PUSH2 0x2921 DUP2 DUP6 PUSH2 0x1CAB JUMP JUMPDEST SWAP1 POP DUP2 DUP2 SUB PUSH1 0x20 DUP4 ADD MSTORE PUSH2 0x2935 DUP2 DUP5 PUSH2 0x1CAB JUMP JUMPDEST SWAP1 POP SWAP4 SWAP3 POP POP POP JUMP JUMPDEST PUSH32 0x50726F766964657220646F65736E277420657869737473000000000000000000 PUSH1 0x0 DUP3 ADD MSTORE POP JUMP JUMPDEST PUSH1 0x0 PUSH2 0x2974 PUSH1 0x17 DUP4 PUSH2 0x1C70 JUMP JUMPDEST SWAP2 POP PUSH2 0x297F DUP3 PUSH2 0x293E JUMP JUMPDEST PUSH1 0x20 DUP3 ADD SWAP1 POP SWAP2 SWAP1 POP JUMP JUMPDEST PUSH1 0x0 PUSH1 0x20 DUP3 ADD SWAP1 POP DUP2 DUP2 SUB PUSH1 0x0 DUP4 ADD MSTORE PUSH2 0x29A3 DUP2 PUSH2 0x2967 JUMP JUMPDEST SWAP1 POP SWAP2 SWAP1 POP JUMP JUMPDEST PUSH1 0x0 PUSH2 0x29B5 DUP3 PUSH2 0x18F8 JUMP JUMPDEST SWAP2 POP PUSH32 0xFFFFFFFFFFFFFFFFFFFFFFFFFFFFFFFFFFFFFFFFFFFFFFFFFFFFFFFFFFFFFFFF DUP3 SUB PUSH2 0x29E7 JUMPI PUSH2 0x29E6 PUSH2 0x21E0 JUMP JUMPDEST JUMPDEST PUSH1 0x1 DUP3 ADD SWAP1 POP SWAP2 SWAP1 POP JUMP INVALID LOG2 PUSH5 0x6970667358 0x22 SLT KECCAK256 0xA7 ISZERO PUSH22 0x55E373B68EE4FEE194875FF70CD3B6620B08595FDB66 PUSH29 0xA39A27A4FDDD64736F6C63430008120033000000000000000000000000 "
				},
				"gasEstimates": {
					"creation": {
						"codeDepositCost": "2158400",
						"executionCost": "26568",
						"totalCost": "2184968"
					},
					"external": {
						"DataProviderList(uint256)": "4957",
						"Devices(address)": "infinite",
						"getAllCids(address,string)": "infinite",
						"getAllProviders()": "infinite",
						"getLastCID(address,string)": "infinite",
						"getMacList(address)": "infinite",
						"newData(string,string,string,uint256,uint8,bytes32,bytes32,bytes32)": "infinite",
						"newProvider(address)": "103835",
						"newSensor(string,uint8,bytes32,bytes32,bytes32)": "infinite"
					}
				},
				"methodIdentifiers": {
					"DataProviderList(uint256)": "31137090",
					"Devices(address)": "9790e96a",
					"getAllCids(address,string)": "fe41576f",
					"getAllProviders()": "3bb4497c",
					"getLastCID(address,string)": "4f65e878",
					"getMacList(address)": "f5e75742",
					"newData(string,string,string,uint256,uint8,bytes32,bytes32,bytes32)": "d3530975",
					"newProvider(address)": "5b485a14",
					"newSensor(string,uint8,bytes32,bytes32,bytes32)": "802e9cb9"
				}
			},
			"storageLayout": {
				"storage": [
					{
						"astId": 3,
						"contract": "contracts/StorageContract.sol:StorageContract",
						"label": "owner",
						"offset": 0,
						"slot": "0",
						"type": "t_address_payable"
					},
					{
						"astId": 51,
						"contract": "contracts/StorageContract.sol:StorageContract",
						"label": "Devices",
						"offset": 0,
						"slot": "1",
						"type": "t_mapping(t_address,t_struct(DataProvider)46_storage)"
					},
					{
						"astId": 54,
						"contract": "contracts/StorageContract.sol:StorageContract",
						"label": "DataProviderList",
						"offset": 0,
						"slot": "2",
						"type": "t_array(t_address)dyn_storage"
					}
				],
				"types": {
					"t_address": {
						"encoding": "inplace",
						"label": "address",
						"numberOfBytes": "20"
					},
					"t_address_payable": {
						"encoding": "inplace",
						"label": "address payable",
						"numberOfBytes": "20"
					},
					"t_array(t_address)dyn_storage": {
						"base": "t_address",
						"encoding": "dynamic_array",
						"label": "address[]",
						"numberOfBytes": "32"
					},
					"t_array(t_string_storage)dyn_storage": {
						"base": "t_string_storage",
						"encoding": "dynamic_array",
						"label": "string[]",
						"numberOfBytes": "32"
					},
					"t_bool": {
						"encoding": "inplace",
						"label": "bool",
						"numberOfBytes": "1"
					},
					"t_bytes32": {
						"encoding": "inplace",
						"label": "bytes32",
						"numberOfBytes": "32"
					},
					"t_mapping(t_address,t_struct(DataProvider)46_storage)": {
						"encoding": "mapping",
						"key": "t_address",
						"label": "mapping(address => struct StorageContract.DataProvider)",
						"numberOfBytes": "32",
						"value": "t_struct(DataProvider)46_storage"
					},
					"t_mapping(t_string_memory_ptr,t_struct(Sensor)33_storage)": {
						"encoding": "mapping",
						"key": "t_string_memory_ptr",
						"label": "mapping(string => struct StorageContract.Sensor)",
						"numberOfBytes": "32",
						"value": "t_struct(Sensor)33_storage"
					},
					"t_mapping(t_string_memory_ptr,t_struct(SensorData)20_storage)": {
						"encoding": "mapping",
						"key": "t_string_memory_ptr",
						"label": "mapping(string => struct StorageContract.SensorData)",
						"numberOfBytes": "32",
						"value": "t_struct(SensorData)20_storage"
					},
					"t_string_memory_ptr": {
						"encoding": "bytes",
						"label": "string",
						"numberOfBytes": "32"
					},
					"t_string_storage": {
						"encoding": "bytes",
						"label": "string",
						"numberOfBytes": "32"
					},
					"t_struct(DataProvider)46_storage": {
						"encoding": "inplace",
						"label": "struct StorageContract.DataProvider",
						"members": [
							{
								"astId": 35,
								"contract": "contracts/StorageContract.sol:StorageContract",
								"label": "provider_address",
								"offset": 0,
								"slot": "0",
								"type": "t_address"
							},
							{
								"astId": 40,
								"contract": "contracts/StorageContract.sol:StorageContract",
								"label": "SensorInfo",
								"offset": 0,
								"slot": "1",
								"type": "t_mapping(t_string_memory_ptr,t_struct(Sensor)33_storage)"
							},
							{
								"astId": 43,
								"contract": "contracts/StorageContract.sol:StorageContract",
								"label": "SensorInfoList",
								"offset": 0,
								"slot": "2",
								"type": "t_array(t_string_storage)dyn_storage"
							},
							{
								"astId": 45,
								"contract": "contracts/StorageContract.sol:StorageContract",
								"label": "created",
								"offset": 0,
								"slot": "3",
								"type": "t_bool"
							}
						],
						"numberOfBytes": "128"
					},
					"t_struct(Sensor)33_storage": {
						"encoding": "inplace",
						"label": "struct StorageContract.Sensor",
						"members": [
							{
								"astId": 22,
								"contract": "contracts/StorageContract.sol:StorageContract",
								"label": "mac",
								"offset": 0,
								"slot": "0",
								"type": "t_string_storage"
							},
							{
								"astId": 27,
								"contract": "contracts/StorageContract.sol:StorageContract",
								"label": "Data",
								"offset": 0,
								"slot": "1",
								"type": "t_mapping(t_string_memory_ptr,t_struct(SensorData)20_storage)"
							},
							{
								"astId": 30,
								"contract": "contracts/StorageContract.sol:StorageContract",
								"label": "SensorDataList",
								"offset": 0,
								"slot": "2",
								"type": "t_array(t_string_storage)dyn_storage"
							},
							{
								"astId": 32,
								"contract": "contracts/StorageContract.sol:StorageContract",
								"label": "created",
								"offset": 0,
								"slot": "3",
								"type": "t_bool"
							}
						],
						"numberOfBytes": "128"
					},
					"t_struct(SensorData)20_storage": {
						"encoding": "inplace",
						"label": "struct StorageContract.SensorData",
						"members": [
							{
								"astId": 5,
								"contract": "contracts/StorageContract.sol:StorageContract",
								"label": "cid",
								"offset": 0,
								"slot": "0",
								"type": "t_string_storage"
							},
							{
								"astId": 7,
								"contract": "contracts/StorageContract.sol:StorageContract",
								"label": "url",
								"offset": 0,
								"slot": "1",
								"type": "t_string_storage"
							},
							{
								"astId": 9,
								"contract": "contracts/StorageContract.sol:StorageContract",
								"label": "timestamp",
								"offset": 0,
								"slot": "2",
								"type": "t_uint256"
							},
							{
								"astId": 11,
								"contract": "contracts/StorageContract.sol:StorageContract",
								"label": "v",
								"offset": 0,
								"slot": "3",
								"type": "t_uint8"
							},
							{
								"astId": 13,
								"contract": "contracts/StorageContract.sol:StorageContract",
								"label": "r",
								"offset": 0,
								"slot": "4",
								"type": "t_bytes32"
							},
							{
								"astId": 15,
								"contract": "contracts/StorageContract.sol:StorageContract",
								"label": "s",
								"offset": 0,
								"slot": "5",
								"type": "t_bytes32"
							},
							{
								"astId": 17,
								"contract": "contracts/StorageContract.sol:StorageContract",
								"label": "hash",
								"offset": 0,
								"slot": "6",
								"type": "t_bytes32"
							},
							{
								"astId": 19,
								"contract": "contracts/StorageContract.sol:StorageContract",
								"label": "created",
								"offset": 0,
								"slot": "7",
								"type": "t_bool"
							}
						],
						"numberOfBytes": "256"
					},
					"t_uint256": {
						"encoding": "inplace",
						"label": "uint256",
						"numberOfBytes": "32"
					},
					"t_uint8": {
						"encoding": "inplace",
						"label": "uint8",
						"numberOfBytes": "1"
					}
				}
			},
			"userdoc": {
				"kind": "user",
				"methods": {},
				"version": 1
			}
		}
	}
}