{
	"StorageContract.sol": {
		"StorageContract": {
			"abi": [
				{
					"inputs": [],
					"stateMutability": "nonpayable",
					"type": "constructor"
				},
				{
					"inputs": [
						{
							"internalType": "bytes",
							"name": "",
							"type": "bytes"
						}
					],
					"name": "Devices",
					"outputs": [
						{
							"internalType": "bytes",
							"name": "public_key",
							"type": "bytes"
						},
						{
							"internalType": "bool",
							"name": "created",
							"type": "bool"
						}
					],
					"stateMutability": "view",
					"type": "function"
				},
				{
					"inputs": [
						{
							"internalType": "uint256",
							"name": "",
							"type": "uint256"
						}
					],
					"name": "SensorDeviceList",
					"outputs": [
						{
							"internalType": "bytes",
							"name": "",
							"type": "bytes"
						}
					],
					"stateMutability": "view",
					"type": "function"
				},
				{
					"inputs": [
						{
							"internalType": "bytes32",
							"name": "_cid",
							"type": "bytes32"
						},
						{
							"internalType": "bytes32",
							"name": "_url",
							"type": "bytes32"
						},
						{
							"internalType": "bytes32",
							"name": "_timestamp",
							"type": "bytes32"
						},
						{
							"internalType": "bytes",
							"name": "_signature",
							"type": "bytes"
						},
						{
							"internalType": "bytes",
							"name": "_public_key",
							"type": "bytes"
						}
					],
					"name": "newData",
					"outputs": [],
					"stateMutability": "nonpayable",
					"type": "function"
				},
				{
					"inputs": [
						{
							"internalType": "bytes",
							"name": "_public_key",
							"type": "bytes"
						}
					],
					"name": "newSensor",
					"outputs": [],
					"stateMutability": "nonpayable",
					"type": "function"
				}
			],
			"devdoc": {
				"kind": "dev",
				"methods": {},
				"version": 1
			},
			"evm": {
				"assembly": "    /* \"StorageContract.sol\":61:2754  contract StorageContract{ ... */\n  mstore(0x40, 0x80)\n    /* \"StorageContract.sol\":584:642  constructor() {... */\n  callvalue\n  dup1\n  iszero\n  tag_1\n  jumpi\n  0x00\n  dup1\n  revert\ntag_1:\n  pop\n    /* \"StorageContract.sol\":624:634  msg.sender */\n  caller\n    /* \"StorageContract.sol\":608:613  owner */\n  0x00\n  dup1\n    /* \"StorageContract.sol\":608:635  owner = payable(msg.sender) */\n  0x0100\n  exp\n  dup2\n  sload\n  dup2\n  0xffffffffffffffffffffffffffffffffffffffff\n  mul\n  not\n  and\n  swap1\n  dup4\n  0xffffffffffffffffffffffffffffffffffffffff\n  and\n  mul\n  or\n  swap1\n  sstore\n  pop\n    /* \"StorageContract.sol\":61:2754  contract StorageContract{ ... */\n  dataSize(sub_0)\n  dup1\n  dataOffset(sub_0)\n  0x00\n  codecopy\n  0x00\n  return\nstop\n\nsub_0: assembly {\n        /* \"StorageContract.sol\":61:2754  contract StorageContract{ ... */\n      mstore(0x40, 0x80)\n      callvalue\n      dup1\n      iszero\n      tag_1\n      jumpi\n      0x00\n      dup1\n      revert\n    tag_1:\n      pop\n      jumpi(tag_2, lt(calldatasize, 0x04))\n      shr(0xe0, calldataload(0x00))\n      dup1\n      0x4262a742\n      eq\n      tag_3\n      jumpi\n      dup1\n      0x69fe6de1\n      eq\n      tag_4\n      jumpi\n      dup1\n      0x7736ca6f\n      eq\n      tag_5\n      jumpi\n      dup1\n      0x8c89f6fc\n      eq\n      tag_6\n      jumpi\n    tag_2:\n      0x00\n      dup1\n      revert\n        /* \"StorageContract.sol\":495:540  mapping(bytes => SensorDevice) public Devices */\n    tag_3:\n      tag_7\n      0x04\n      dup1\n      calldatasize\n      sub\n      dup2\n      add\n      swap1\n      tag_8\n      swap2\n      swap1\n      tag_9\n      jump\t// in\n    tag_8:\n      tag_10\n      jump\t// in\n    tag_7:\n      mload(0x40)\n      tag_11\n      swap3\n      swap2\n      swap1\n      tag_12\n      jump\t// in\n    tag_11:\n      mload(0x40)\n      dup1\n      swap2\n      sub\n      swap1\n      return\n        /* \"StorageContract.sol\":1049:1767  function newData (... */\n    tag_4:\n      tag_13\n      0x04\n      dup1\n      calldatasize\n      sub\n      dup2\n      add\n      swap1\n      tag_14\n      swap2\n      swap1\n      tag_15\n      jump\t// in\n    tag_14:\n      tag_16\n      jump\t// in\n    tag_13:\n      stop\n        /* \"StorageContract.sol\":546:577  bytes[] public SensorDeviceList */\n    tag_5:\n      tag_17\n      0x04\n      dup1\n      calldatasize\n      sub\n      dup2\n      add\n      swap1\n      tag_18\n      swap2\n      swap1\n      tag_19\n      jump\t// in\n    tag_18:\n      tag_20\n      jump\t// in\n    tag_17:\n      mload(0x40)\n      tag_21\n      swap2\n      swap1\n      tag_22\n      jump\t// in\n    tag_21:\n      mload(0x40)\n      dup1\n      swap2\n      sub\n      swap1\n      return\n        /* \"StorageContract.sol\":648:1043  function newSensor (... */\n    tag_6:\n      tag_23\n      0x04\n      dup1\n      calldatasize\n      sub\n      dup2\n      add\n      swap1\n      tag_24\n      swap2\n      swap1\n      tag_9\n      jump\t// in\n    tag_24:\n      tag_25\n      jump\t// in\n    tag_23:\n      stop\n        /* \"StorageContract.sol\":495:540  mapping(bytes => SensorDevice) public Devices */\n    tag_10:\n      0x01\n      dup2\n      dup1\n      mload\n      0x20\n      dup2\n      add\n      dup3\n      add\n      dup1\n      mload\n      dup5\n      dup3\n      mstore\n      0x20\n      dup4\n      add\n      0x20\n      dup6\n      add\n      keccak256\n      dup2\n      dup4\n      mstore\n      dup1\n      swap6\n      pop\n      pop\n      pop\n      pop\n      pop\n      pop\n      0x00\n      swap2\n      pop\n      swap1\n      pop\n      dup1\n      0x00\n      add\n      dup1\n      sload\n      tag_26\n      swap1\n      tag_27\n      jump\t// in\n    tag_26:\n      dup1\n      0x1f\n      add\n      0x20\n      dup1\n      swap2\n      div\n      mul\n      0x20\n      add\n      mload(0x40)\n      swap1\n      dup2\n      add\n      0x40\n      mstore\n      dup1\n      swap3\n      swap2\n      swap1\n      dup2\n      dup2\n      mstore\n      0x20\n      add\n      dup3\n      dup1\n      sload\n      tag_28\n      swap1\n      tag_27\n      jump\t// in\n    tag_28:\n      dup1\n      iszero\n      tag_29\n      jumpi\n      dup1\n      0x1f\n      lt\n      tag_30\n      jumpi\n      0x0100\n      dup1\n      dup4\n      sload\n      div\n      mul\n      dup4\n      mstore\n      swap2\n      0x20\n      add\n      swap2\n      jump(tag_29)\n    tag_30:\n      dup3\n      add\n      swap2\n      swap1\n      0x00\n      mstore\n      keccak256(0x00, 0x20)\n      swap1\n    tag_31:\n      dup2\n      sload\n      dup2\n      mstore\n      swap1\n      0x01\n      add\n      swap1\n      0x20\n      add\n      dup1\n      dup4\n      gt\n      tag_31\n      jumpi\n      dup3\n      swap1\n      sub\n      0x1f\n      and\n      dup3\n      add\n      swap2\n    tag_29:\n      pop\n      pop\n      pop\n      pop\n      pop\n      swap1\n      dup1\n      0x03\n      add\n      0x00\n      swap1\n      sload\n      swap1\n      0x0100\n      exp\n      swap1\n      div\n      0xff\n      and\n      swap1\n      pop\n      dup3\n      jump\t// out\n        /* \"StorageContract.sol\":1049:1767  function newData (... */\n    tag_16:\n        /* \"StorageContract.sol\":1264:1269  owner */\n      0x00\n      dup1\n      sload\n      swap1\n      0x0100\n      exp\n      swap1\n      div\n      0xffffffffffffffffffffffffffffffffffffffff\n      and\n        /* \"StorageContract.sol\":1241:1269  payable(msg.sender) == owner */\n      0xffffffffffffffffffffffffffffffffffffffff\n      and\n        /* \"StorageContract.sol\":1249:1259  msg.sender */\n      caller\n        /* \"StorageContract.sol\":1241:1269  payable(msg.sender) == owner */\n      0xffffffffffffffffffffffffffffffffffffffff\n      and\n      eq\n        /* \"StorageContract.sol\":1233:1308  require(payable(msg.sender) == owner, \"Only contract's owner can add data\") */\n      tag_33\n      jumpi\n      mload(0x40)\n      0x08c379a000000000000000000000000000000000000000000000000000000000\n      dup2\n      mstore\n      0x04\n      add\n      tag_34\n      swap1\n      tag_35\n      jump\t// in\n    tag_34:\n      mload(0x40)\n      dup1\n      swap2\n      sub\n      swap1\n      revert\n    tag_33:\n        /* \"StorageContract.sol\":1327:1334  Devices */\n      0x01\n        /* \"StorageContract.sol\":1335:1346  _public_key */\n      dup2\n        /* \"StorageContract.sol\":1327:1347  Devices[_public_key] */\n      mload(0x40)\n      tag_36\n      swap2\n      swap1\n      tag_37\n      jump\t// in\n    tag_36:\n      swap1\n      dup2\n      mstore\n      0x20\n      add\n      mload(0x40)\n      dup1\n      swap2\n      sub\n      swap1\n      keccak256\n        /* \"StorageContract.sol\":1327:1355  Devices[_public_key].created */\n      0x03\n      add\n      0x00\n      swap1\n      sload\n      swap1\n      0x0100\n      exp\n      swap1\n      div\n      0xff\n      and\n        /* \"StorageContract.sol\":1326:1355  !Devices[_public_key].created */\n      iszero\n        /* \"StorageContract.sol\":1318:1415  require(!Devices[_public_key].created, \"A sensor was already registred with the same public key\") */\n      tag_38\n      jumpi\n      mload(0x40)\n      0x08c379a000000000000000000000000000000000000000000000000000000000\n      dup2\n      mstore\n      0x04\n      add\n      tag_39\n      swap1\n      tag_40\n      jump\t// in\n    tag_39:\n      mload(0x40)\n      dup1\n      swap2\n      sub\n      swap1\n      revert\n    tag_38:\n        /* \"StorageContract.sol\":1464:1468  _cid */\n      dup5\n        /* \"StorageContract.sol\":1426:1433  Devices */\n      0x01\n        /* \"StorageContract.sol\":1434:1445  _public_key */\n      dup3\n        /* \"StorageContract.sol\":1426:1446  Devices[_public_key] */\n      mload(0x40)\n      tag_41\n      swap2\n      swap1\n      tag_37\n      jump\t// in\n    tag_41:\n      swap1\n      dup2\n      mstore\n      0x20\n      add\n      mload(0x40)\n      dup1\n      swap2\n      sub\n      swap1\n      keccak256\n        /* \"StorageContract.sol\":1426:1451  Devices[_public_key].Data */\n      0x01\n      add\n        /* \"StorageContract.sol\":1426:1457  Devices[_public_key].Data[_cid] */\n      0x00\n        /* \"StorageContract.sol\":1452:1456  _cid */\n      dup8\n        /* \"StorageContract.sol\":1426:1457  Devices[_public_key].Data[_cid] */\n      dup2\n      mstore\n      0x20\n      add\n      swap1\n      dup2\n      mstore\n      0x20\n      add\n      0x00\n      keccak256\n        /* \"StorageContract.sol\":1426:1461  Devices[_public_key].Data[_cid].cid */\n      0x00\n      add\n        /* \"StorageContract.sol\":1426:1468  Devices[_public_key].Data[_cid].cid = _cid */\n      dup2\n      swap1\n      sstore\n      pop\n        /* \"StorageContract.sol\":1516:1520  _url */\n      dup4\n        /* \"StorageContract.sol\":1478:1485  Devices */\n      0x01\n        /* \"StorageContract.sol\":1486:1497  _public_key */\n      dup3\n        /* \"StorageContract.sol\":1478:1498  Devices[_public_key] */\n      mload(0x40)\n      tag_42\n      swap2\n      swap1\n      tag_37\n      jump\t// in\n    tag_42:\n      swap1\n      dup2\n      mstore\n      0x20\n      add\n      mload(0x40)\n      dup1\n      swap2\n      sub\n      swap1\n      keccak256\n        /* \"StorageContract.sol\":1478:1503  Devices[_public_key].Data */\n      0x01\n      add\n        /* \"StorageContract.sol\":1478:1509  Devices[_public_key].Data[_cid] */\n      0x00\n        /* \"StorageContract.sol\":1504:1508  _cid */\n      dup8\n        /* \"StorageContract.sol\":1478:1509  Devices[_public_key].Data[_cid] */\n      dup2\n      mstore\n      0x20\n      add\n      swap1\n      dup2\n      mstore\n      0x20\n      add\n      0x00\n      keccak256\n        /* \"StorageContract.sol\":1478:1513  Devices[_public_key].Data[_cid].url */\n      0x01\n      add\n        /* \"StorageContract.sol\":1478:1520  Devices[_public_key].Data[_cid].url = _url */\n      dup2\n      swap1\n      sstore\n      pop\n        /* \"StorageContract.sol\":1573:1583  _timestamp */\n      dup3\n        /* \"StorageContract.sol\":1530:1537  Devices */\n      0x01\n        /* \"StorageContract.sol\":1538:1549  _public_key */\n      dup3\n        /* \"StorageContract.sol\":1530:1550  Devices[_public_key] */\n      mload(0x40)\n      tag_43\n      swap2\n      swap1\n      tag_37\n      jump\t// in\n    tag_43:\n      swap1\n      dup2\n      mstore\n      0x20\n      add\n      mload(0x40)\n      dup1\n      swap2\n      sub\n      swap1\n      keccak256\n        /* \"StorageContract.sol\":1530:1555  Devices[_public_key].Data */\n      0x01\n      add\n        /* \"StorageContract.sol\":1530:1561  Devices[_public_key].Data[_cid] */\n      0x00\n        /* \"StorageContract.sol\":1556:1560  _cid */\n      dup8\n        /* \"StorageContract.sol\":1530:1561  Devices[_public_key].Data[_cid] */\n      dup2\n      mstore\n      0x20\n      add\n      swap1\n      dup2\n      mstore\n      0x20\n      add\n      0x00\n      keccak256\n        /* \"StorageContract.sol\":1530:1571  Devices[_public_key].Data[_cid].timestamp */\n      0x02\n      add\n        /* \"StorageContract.sol\":1530:1583  Devices[_public_key].Data[_cid].timestamp= _timestamp */\n      dup2\n      swap1\n      sstore\n      pop\n        /* \"StorageContract.sol\":1637:1647  _signature */\n      dup2\n        /* \"StorageContract.sol\":1593:1600  Devices */\n      0x01\n        /* \"StorageContract.sol\":1601:1612  _public_key */\n      dup3\n        /* \"StorageContract.sol\":1593:1613  Devices[_public_key] */\n      mload(0x40)\n      tag_44\n      swap2\n      swap1\n      tag_37\n      jump\t// in\n    tag_44:\n      swap1\n      dup2\n      mstore\n      0x20\n      add\n      mload(0x40)\n      dup1\n      swap2\n      sub\n      swap1\n      keccak256\n        /* \"StorageContract.sol\":1593:1618  Devices[_public_key].Data */\n      0x01\n      add\n        /* \"StorageContract.sol\":1593:1624  Devices[_public_key].Data[_cid] */\n      0x00\n        /* \"StorageContract.sol\":1619:1623  _cid */\n      dup8\n        /* \"StorageContract.sol\":1593:1624  Devices[_public_key].Data[_cid] */\n      dup2\n      mstore\n      0x20\n      add\n      swap1\n      dup2\n      mstore\n      0x20\n      add\n      0x00\n      keccak256\n        /* \"StorageContract.sol\":1593:1634  Devices[_public_key].Data[_cid].signature */\n      0x03\n      add\n        /* \"StorageContract.sol\":1593:1647  Devices[_public_key].Data[_cid].signature = _signature */\n      swap1\n      dup1\n      mload\n      swap1\n      0x20\n      add\n      swap1\n      tag_45\n      swap3\n      swap2\n      swap1\n      tag_46\n      jump\t// in\n    tag_45:\n      pop\n        /* \"StorageContract.sol\":1699:1703  true */\n      0x01\n        /* \"StorageContract.sol\":1657:1664  Devices */\n      dup1\n        /* \"StorageContract.sol\":1665:1676  _public_key */\n      dup3\n        /* \"StorageContract.sol\":1657:1677  Devices[_public_key] */\n      mload(0x40)\n      tag_47\n      swap2\n      swap1\n      tag_37\n      jump\t// in\n    tag_47:\n      swap1\n      dup2\n      mstore\n      0x20\n      add\n      mload(0x40)\n      dup1\n      swap2\n      sub\n      swap1\n      keccak256\n        /* \"StorageContract.sol\":1657:1682  Devices[_public_key].Data */\n      0x01\n      add\n        /* \"StorageContract.sol\":1657:1688  Devices[_public_key].Data[_cid] */\n      0x00\n        /* \"StorageContract.sol\":1683:1687  _cid */\n      dup8\n        /* \"StorageContract.sol\":1657:1688  Devices[_public_key].Data[_cid] */\n      dup2\n      mstore\n      0x20\n      add\n      swap1\n      dup2\n      mstore\n      0x20\n      add\n      0x00\n      keccak256\n        /* \"StorageContract.sol\":1657:1696  Devices[_public_key].Data[_cid].created */\n      0x04\n      add\n      0x00\n        /* \"StorageContract.sol\":1657:1703  Devices[_public_key].Data[_cid].created = true */\n      0x0100\n      exp\n      dup2\n      sload\n      dup2\n      0xff\n      mul\n      not\n      and\n      swap1\n      dup4\n      iszero\n      iszero\n      mul\n      or\n      swap1\n      sstore\n      pop\n        /* \"StorageContract.sol\":1714:1721  Devices */\n      0x01\n        /* \"StorageContract.sol\":1722:1733  _public_key */\n      dup2\n        /* \"StorageContract.sol\":1714:1734  Devices[_public_key] */\n      mload(0x40)\n      tag_48\n      swap2\n      swap1\n      tag_37\n      jump\t// in\n    tag_48:\n      swap1\n      dup2\n      mstore\n      0x20\n      add\n      mload(0x40)\n      dup1\n      swap2\n      sub\n      swap1\n      keccak256\n        /* \"StorageContract.sol\":1714:1749  Devices[_public_key].SensorDataList */\n      0x02\n      add\n        /* \"StorageContract.sol\":1755:1759  _cid */\n      dup6\n        /* \"StorageContract.sol\":1714:1760  Devices[_public_key].SensorDataList.push(_cid) */\n      swap1\n      dup1\n      0x01\n      dup2\n      sload\n      add\n      dup1\n      dup3\n      sstore\n      dup1\n      swap2\n      pop\n      pop\n      0x01\n      swap1\n      sub\n      swap1\n      0x00\n      mstore\n      keccak256(0x00, 0x20)\n      add\n      0x00\n      swap1\n      swap2\n      swap1\n      swap2\n      swap1\n      swap2\n      pop\n      sstore\n        /* \"StorageContract.sol\":1049:1767  function newData (... */\n      pop\n      pop\n      pop\n      pop\n      pop\n      jump\t// out\n        /* \"StorageContract.sol\":546:577  bytes[] public SensorDeviceList */\n    tag_20:\n      0x02\n      dup2\n      dup2\n      sload\n      dup2\n      lt\n      tag_50\n      jumpi\n      0x00\n      dup1\n      revert\n    tag_50:\n      swap1\n      0x00\n      mstore\n      keccak256(0x00, 0x20)\n      add\n      0x00\n      swap2\n      pop\n      swap1\n      pop\n      dup1\n      sload\n      tag_52\n      swap1\n      tag_27\n      jump\t// in\n    tag_52:\n      dup1\n      0x1f\n      add\n      0x20\n      dup1\n      swap2\n      div\n      mul\n      0x20\n      add\n      mload(0x40)\n      swap1\n      dup2\n      add\n      0x40\n      mstore\n      dup1\n      swap3\n      swap2\n      swap1\n      dup2\n      dup2\n      mstore\n      0x20\n      add\n      dup3\n      dup1\n      sload\n      tag_53\n      swap1\n      tag_27\n      jump\t// in\n    tag_53:\n      dup1\n      iszero\n      tag_54\n      jumpi\n      dup1\n      0x1f\n      lt\n      tag_55\n      jumpi\n      0x0100\n      dup1\n      dup4\n      sload\n      div\n      mul\n      dup4\n      mstore\n      swap2\n      0x20\n      add\n      swap2\n      jump(tag_54)\n    tag_55:\n      dup3\n      add\n      swap2\n      swap1\n      0x00\n      mstore\n      keccak256(0x00, 0x20)\n      swap1\n    tag_56:\n      dup2\n      sload\n      dup2\n      mstore\n      swap1\n      0x01\n      add\n      swap1\n      0x20\n      add\n      dup1\n      dup4\n      gt\n      tag_56\n      jumpi\n      dup3\n      swap1\n      sub\n      0x1f\n      and\n      dup3\n      add\n      swap2\n    tag_54:\n      pop\n      pop\n      pop\n      pop\n      pop\n      dup2\n      jump\t// out\n        /* \"StorageContract.sol\":648:1043  function newSensor (... */\n    tag_25:\n        /* \"StorageContract.sol\":760:765  owner */\n      0x00\n      dup1\n      sload\n      swap1\n      0x0100\n      exp\n      swap1\n      div\n      0xffffffffffffffffffffffffffffffffffffffff\n      and\n        /* \"StorageContract.sol\":737:765  payable(msg.sender) == owner */\n      0xffffffffffffffffffffffffffffffffffffffff\n      and\n        /* \"StorageContract.sol\":745:755  msg.sender */\n      caller\n        /* \"StorageContract.sol\":737:765  payable(msg.sender) == owner */\n      0xffffffffffffffffffffffffffffffffffffffff\n      and\n      eq\n        /* \"StorageContract.sol\":729:808  require(payable(msg.sender) == owner, \"Only contract's owner can add a sensor\") */\n      tag_58\n      jumpi\n      mload(0x40)\n      0x08c379a000000000000000000000000000000000000000000000000000000000\n      dup2\n      mstore\n      0x04\n      add\n      tag_59\n      swap1\n      tag_60\n      jump\t// in\n    tag_59:\n      mload(0x40)\n      dup1\n      swap2\n      sub\n      swap1\n      revert\n    tag_58:\n        /* \"StorageContract.sol\":858:862  true */\n      0x01\n        /* \"StorageContract.sol\":826:862  Devices[_public_key].created == true */\n      iszero\n      iszero\n        /* \"StorageContract.sol\":826:833  Devices */\n      0x01\n        /* \"StorageContract.sol\":834:845  _public_key */\n      dup3\n        /* \"StorageContract.sol\":826:846  Devices[_public_key] */\n      mload(0x40)\n      tag_61\n      swap2\n      swap1\n      tag_37\n      jump\t// in\n    tag_61:\n      swap1\n      dup2\n      mstore\n      0x20\n      add\n      mload(0x40)\n      dup1\n      swap2\n      sub\n      swap1\n      keccak256\n        /* \"StorageContract.sol\":826:854  Devices[_public_key].created */\n      0x03\n      add\n      0x00\n      swap1\n      sload\n      swap1\n      0x0100\n      exp\n      swap1\n      div\n      0xff\n      and\n        /* \"StorageContract.sol\":826:862  Devices[_public_key].created == true */\n      iszero\n      iszero\n      eq\n        /* \"StorageContract.sol\":818:891  require(Devices[_public_key].created == true, \"Sensor has already added\") */\n      tag_62\n      jumpi\n      mload(0x40)\n      0x08c379a000000000000000000000000000000000000000000000000000000000\n      dup2\n      mstore\n      0x04\n      add\n      tag_63\n      swap1\n      tag_64\n      jump\t// in\n    tag_63:\n      mload(0x40)\n      dup1\n      swap2\n      sub\n      swap1\n      revert\n    tag_62:\n        /* \"StorageContract.sol\":936:947  _public_key */\n      dup1\n        /* \"StorageContract.sol\":902:909  Devices */\n      0x01\n        /* \"StorageContract.sol\":910:921  _public_key */\n      dup3\n        /* \"StorageContract.sol\":902:922  Devices[_public_key] */\n      mload(0x40)\n      tag_65\n      swap2\n      swap1\n      tag_37\n      jump\t// in\n    tag_65:\n      swap1\n      dup2\n      mstore\n      0x20\n      add\n      mload(0x40)\n      dup1\n      swap2\n      sub\n      swap1\n      keccak256\n        /* \"StorageContract.sol\":902:933  Devices[_public_key].public_key */\n      0x00\n      add\n        /* \"StorageContract.sol\":902:947  Devices[_public_key].public_key = _public_key */\n      swap1\n      dup1\n      mload\n      swap1\n      0x20\n      add\n      swap1\n      tag_66\n      swap3\n      swap2\n      swap1\n      tag_46\n      jump\t// in\n    tag_66:\n      pop\n        /* \"StorageContract.sol\":988:992  true */\n      0x01\n        /* \"StorageContract.sol\":957:964  Devices */\n      dup1\n        /* \"StorageContract.sol\":965:976  _public_key */\n      dup3\n        /* \"StorageContract.sol\":957:977  Devices[_public_key] */\n      mload(0x40)\n      tag_67\n      swap2\n      swap1\n      tag_37\n      jump\t// in\n    tag_67:\n      swap1\n      dup2\n      mstore\n      0x20\n      add\n      mload(0x40)\n      dup1\n      swap2\n      sub\n      swap1\n      keccak256\n        /* \"StorageContract.sol\":957:985  Devices[_public_key].created */\n      0x03\n      add\n      0x00\n        /* \"StorageContract.sol\":957:992  Devices[_public_key].created = true */\n      0x0100\n      exp\n      dup2\n      sload\n      dup2\n      0xff\n      mul\n      not\n      and\n      swap1\n      dup4\n      iszero\n      iszero\n      mul\n      or\n      swap1\n      sstore\n      pop\n        /* \"StorageContract.sol\":1002:1018  SensorDeviceList */\n      0x02\n        /* \"StorageContract.sol\":1024:1035  _public_key */\n      dup2\n        /* \"StorageContract.sol\":1002:1036  SensorDeviceList.push(_public_key) */\n      swap1\n      dup1\n      0x01\n      dup2\n      sload\n      add\n      dup1\n      dup3\n      sstore\n      dup1\n      swap2\n      pop\n      pop\n      0x01\n      swap1\n      sub\n      swap1\n      0x00\n      mstore\n      keccak256(0x00, 0x20)\n      add\n      0x00\n      swap1\n      swap2\n      swap1\n      swap2\n      swap1\n      swap2\n      pop\n      swap1\n      dup1\n      mload\n      swap1\n      0x20\n      add\n      swap1\n      tag_69\n      swap3\n      swap2\n      swap1\n      tag_46\n      jump\t// in\n    tag_69:\n      pop\n        /* \"StorageContract.sol\":648:1043  function newSensor (... */\n      pop\n      jump\t// out\n    tag_46:\n      dup3\n      dup1\n      sload\n      tag_70\n      swap1\n      tag_27\n      jump\t// in\n    tag_70:\n      swap1\n      0x00\n      mstore\n      keccak256(0x00, 0x20)\n      swap1\n      0x1f\n      add\n      0x20\n      swap1\n      div\n      dup2\n      add\n      swap3\n      dup3\n      tag_72\n      jumpi\n      0x00\n      dup6\n      sstore\n      jump(tag_71)\n    tag_72:\n      dup3\n      0x1f\n      lt\n      tag_73\n      jumpi\n      dup1\n      mload\n      not(0xff)\n      and\n      dup4\n      dup1\n      add\n      or\n      dup6\n      sstore\n      jump(tag_71)\n    tag_73:\n      dup3\n      dup1\n      add\n      0x01\n      add\n      dup6\n      sstore\n      dup3\n      iszero\n      tag_71\n      jumpi\n      swap2\n      dup3\n      add\n    tag_74:\n      dup3\n      dup2\n      gt\n      iszero\n      tag_75\n      jumpi\n      dup3\n      mload\n      dup3\n      sstore\n      swap2\n      0x20\n      add\n      swap2\n      swap1\n      0x01\n      add\n      swap1\n      jump(tag_74)\n    tag_75:\n    tag_71:\n      pop\n      swap1\n      pop\n      tag_76\n      swap2\n      swap1\n      tag_77\n      jump\t// in\n    tag_76:\n      pop\n      swap1\n      jump\t// out\n    tag_77:\n    tag_78:\n      dup1\n      dup3\n      gt\n      iszero\n      tag_79\n      jumpi\n      0x00\n      dup2\n      0x00\n      swap1\n      sstore\n      pop\n      0x01\n      add\n      jump(tag_78)\n    tag_79:\n      pop\n      swap1\n      jump\t// out\n        /* \"#utility.yul\":7:82   */\n    tag_80:\n        /* \"#utility.yul\":40:46   */\n      0x00\n        /* \"#utility.yul\":73:75   */\n      0x40\n        /* \"#utility.yul\":67:76   */\n      mload\n        /* \"#utility.yul\":57:76   */\n      swap1\n      pop\n        /* \"#utility.yul\":7:82   */\n      swap1\n      jump\t// out\n        /* \"#utility.yul\":88:205   */\n    tag_81:\n        /* \"#utility.yul\":197:198   */\n      0x00\n        /* \"#utility.yul\":194:195   */\n      dup1\n        /* \"#utility.yul\":187:199   */\n      revert\n        /* \"#utility.yul\":211:328   */\n    tag_82:\n        /* \"#utility.yul\":320:321   */\n      0x00\n        /* \"#utility.yul\":317:318   */\n      dup1\n        /* \"#utility.yul\":310:322   */\n      revert\n        /* \"#utility.yul\":334:451   */\n    tag_83:\n        /* \"#utility.yul\":443:444   */\n      0x00\n        /* \"#utility.yul\":440:441   */\n      dup1\n        /* \"#utility.yul\":433:445   */\n      revert\n        /* \"#utility.yul\":457:574   */\n    tag_84:\n        /* \"#utility.yul\":566:567   */\n      0x00\n        /* \"#utility.yul\":563:564   */\n      dup1\n        /* \"#utility.yul\":556:568   */\n      revert\n        /* \"#utility.yul\":580:682   */\n    tag_85:\n        /* \"#utility.yul\":621:627   */\n      0x00\n        /* \"#utility.yul\":672:674   */\n      0x1f\n        /* \"#utility.yul\":668:675   */\n      not\n        /* \"#utility.yul\":663:665   */\n      0x1f\n        /* \"#utility.yul\":656:661   */\n      dup4\n        /* \"#utility.yul\":652:666   */\n      add\n        /* \"#utility.yul\":648:676   */\n      and\n        /* \"#utility.yul\":638:676   */\n      swap1\n      pop\n        /* \"#utility.yul\":580:682   */\n      swap2\n      swap1\n      pop\n      jump\t// out\n        /* \"#utility.yul\":688:868   */\n    tag_86:\n        /* \"#utility.yul\":736:813   */\n      0x4e487b7100000000000000000000000000000000000000000000000000000000\n        /* \"#utility.yul\":733:734   */\n      0x00\n        /* \"#utility.yul\":726:814   */\n      mstore\n        /* \"#utility.yul\":833:837   */\n      0x41\n        /* \"#utility.yul\":830:831   */\n      0x04\n        /* \"#utility.yul\":823:838   */\n      mstore\n        /* \"#utility.yul\":857:861   */\n      0x24\n        /* \"#utility.yul\":854:855   */\n      0x00\n        /* \"#utility.yul\":847:862   */\n      revert\n        /* \"#utility.yul\":874:1155   */\n    tag_87:\n        /* \"#utility.yul\":957:984   */\n      tag_126\n        /* \"#utility.yul\":979:983   */\n      dup3\n        /* \"#utility.yul\":957:984   */\n      tag_85\n      jump\t// in\n    tag_126:\n        /* \"#utility.yul\":949:955   */\n      dup2\n        /* \"#utility.yul\":945:985   */\n      add\n        /* \"#utility.yul\":1087:1093   */\n      dup2\n        /* \"#utility.yul\":1075:1085   */\n      dup2\n        /* \"#utility.yul\":1072:1094   */\n      lt\n        /* \"#utility.yul\":1051:1069   */\n      0xffffffffffffffff\n        /* \"#utility.yul\":1039:1049   */\n      dup3\n        /* \"#utility.yul\":1036:1070   */\n      gt\n        /* \"#utility.yul\":1033:1095   */\n      or\n        /* \"#utility.yul\":1030:1118   */\n      iszero\n      tag_127\n      jumpi\n        /* \"#utility.yul\":1098:1116   */\n      tag_128\n      tag_86\n      jump\t// in\n    tag_128:\n        /* \"#utility.yul\":1030:1118   */\n    tag_127:\n        /* \"#utility.yul\":1138:1148   */\n      dup1\n        /* \"#utility.yul\":1134:1136   */\n      0x40\n        /* \"#utility.yul\":1127:1149   */\n      mstore\n        /* \"#utility.yul\":917:1155   */\n      pop\n        /* \"#utility.yul\":874:1155   */\n      pop\n      pop\n      jump\t// out\n        /* \"#utility.yul\":1161:1290   */\n    tag_88:\n        /* \"#utility.yul\":1195:1201   */\n      0x00\n        /* \"#utility.yul\":1222:1242   */\n      tag_130\n      tag_80\n      jump\t// in\n    tag_130:\n        /* \"#utility.yul\":1212:1242   */\n      swap1\n      pop\n        /* \"#utility.yul\":1251:1284   */\n      tag_131\n        /* \"#utility.yul\":1279:1283   */\n      dup3\n        /* \"#utility.yul\":1271:1277   */\n      dup3\n        /* \"#utility.yul\":1251:1284   */\n      tag_87\n      jump\t// in\n    tag_131:\n        /* \"#utility.yul\":1161:1290   */\n      swap2\n      swap1\n      pop\n      jump\t// out\n        /* \"#utility.yul\":1296:1603   */\n    tag_89:\n        /* \"#utility.yul\":1357:1361   */\n      0x00\n        /* \"#utility.yul\":1447:1465   */\n      0xffffffffffffffff\n        /* \"#utility.yul\":1439:1445   */\n      dup3\n        /* \"#utility.yul\":1436:1466   */\n      gt\n        /* \"#utility.yul\":1433:1489   */\n      iszero\n      tag_133\n      jumpi\n        /* \"#utility.yul\":1469:1487   */\n      tag_134\n      tag_86\n      jump\t// in\n    tag_134:\n        /* \"#utility.yul\":1433:1489   */\n    tag_133:\n        /* \"#utility.yul\":1507:1536   */\n      tag_135\n        /* \"#utility.yul\":1529:1535   */\n      dup3\n        /* \"#utility.yul\":1507:1536   */\n      tag_85\n      jump\t// in\n    tag_135:\n        /* \"#utility.yul\":1499:1536   */\n      swap1\n      pop\n        /* \"#utility.yul\":1591:1595   */\n      0x20\n        /* \"#utility.yul\":1585:1589   */\n      dup2\n        /* \"#utility.yul\":1581:1596   */\n      add\n        /* \"#utility.yul\":1573:1596   */\n      swap1\n      pop\n        /* \"#utility.yul\":1296:1603   */\n      swap2\n      swap1\n      pop\n      jump\t// out\n        /* \"#utility.yul\":1609:1763   */\n    tag_90:\n        /* \"#utility.yul\":1693:1699   */\n      dup3\n        /* \"#utility.yul\":1688:1691   */\n      dup2\n        /* \"#utility.yul\":1683:1686   */\n      dup4\n        /* \"#utility.yul\":1670:1700   */\n      calldatacopy\n        /* \"#utility.yul\":1755:1756   */\n      0x00\n        /* \"#utility.yul\":1746:1752   */\n      dup4\n        /* \"#utility.yul\":1741:1744   */\n      dup4\n        /* \"#utility.yul\":1737:1753   */\n      add\n        /* \"#utility.yul\":1730:1757   */\n      mstore\n        /* \"#utility.yul\":1609:1763   */\n      pop\n      pop\n      pop\n      jump\t// out\n        /* \"#utility.yul\":1769:2179   */\n    tag_91:\n        /* \"#utility.yul\":1846:1851   */\n      0x00\n        /* \"#utility.yul\":1871:1936   */\n      tag_138\n        /* \"#utility.yul\":1887:1935   */\n      tag_139\n        /* \"#utility.yul\":1928:1934   */\n      dup5\n        /* \"#utility.yul\":1887:1935   */\n      tag_89\n      jump\t// in\n    tag_139:\n        /* \"#utility.yul\":1871:1936   */\n      tag_88\n      jump\t// in\n    tag_138:\n        /* \"#utility.yul\":1862:1936   */\n      swap1\n      pop\n        /* \"#utility.yul\":1959:1965   */\n      dup3\n        /* \"#utility.yul\":1952:1957   */\n      dup2\n        /* \"#utility.yul\":1945:1966   */\n      mstore\n        /* \"#utility.yul\":1997:2001   */\n      0x20\n        /* \"#utility.yul\":1990:1995   */\n      dup2\n        /* \"#utility.yul\":1986:2002   */\n      add\n        /* \"#utility.yul\":2035:2038   */\n      dup5\n        /* \"#utility.yul\":2026:2032   */\n      dup5\n        /* \"#utility.yul\":2021:2024   */\n      dup5\n        /* \"#utility.yul\":2017:2033   */\n      add\n        /* \"#utility.yul\":2014:2039   */\n      gt\n        /* \"#utility.yul\":2011:2123   */\n      iszero\n      tag_140\n      jumpi\n        /* \"#utility.yul\":2042:2121   */\n      tag_141\n      tag_84\n      jump\t// in\n    tag_141:\n        /* \"#utility.yul\":2011:2123   */\n    tag_140:\n        /* \"#utility.yul\":2132:2173   */\n      tag_142\n        /* \"#utility.yul\":2166:2172   */\n      dup5\n        /* \"#utility.yul\":2161:2164   */\n      dup3\n        /* \"#utility.yul\":2156:2159   */\n      dup6\n        /* \"#utility.yul\":2132:2173   */\n      tag_90\n      jump\t// in\n    tag_142:\n        /* \"#utility.yul\":1852:2179   */\n      pop\n        /* \"#utility.yul\":1769:2179   */\n      swap4\n      swap3\n      pop\n      pop\n      pop\n      jump\t// out\n        /* \"#utility.yul\":2198:2536   */\n    tag_92:\n        /* \"#utility.yul\":2253:2258   */\n      0x00\n        /* \"#utility.yul\":2302:2305   */\n      dup3\n        /* \"#utility.yul\":2295:2299   */\n      0x1f\n        /* \"#utility.yul\":2287:2293   */\n      dup4\n        /* \"#utility.yul\":2283:2300   */\n      add\n        /* \"#utility.yul\":2279:2306   */\n      slt\n        /* \"#utility.yul\":2269:2391   */\n      tag_144\n      jumpi\n        /* \"#utility.yul\":2310:2389   */\n      tag_145\n      tag_83\n      jump\t// in\n    tag_145:\n        /* \"#utility.yul\":2269:2391   */\n    tag_144:\n        /* \"#utility.yul\":2427:2433   */\n      dup2\n        /* \"#utility.yul\":2414:2434   */\n      calldataload\n        /* \"#utility.yul\":2452:2530   */\n      tag_146\n        /* \"#utility.yul\":2526:2529   */\n      dup5\n        /* \"#utility.yul\":2518:2524   */\n      dup3\n        /* \"#utility.yul\":2511:2515   */\n      0x20\n        /* \"#utility.yul\":2503:2509   */\n      dup7\n        /* \"#utility.yul\":2499:2516   */\n      add\n        /* \"#utility.yul\":2452:2530   */\n      tag_91\n      jump\t// in\n    tag_146:\n        /* \"#utility.yul\":2443:2530   */\n      swap2\n      pop\n        /* \"#utility.yul\":2259:2536   */\n      pop\n        /* \"#utility.yul\":2198:2536   */\n      swap3\n      swap2\n      pop\n      pop\n      jump\t// out\n        /* \"#utility.yul\":2542:3049   */\n    tag_9:\n        /* \"#utility.yul\":2610:2616   */\n      0x00\n        /* \"#utility.yul\":2659:2661   */\n      0x20\n        /* \"#utility.yul\":2647:2656   */\n      dup3\n        /* \"#utility.yul\":2638:2645   */\n      dup5\n        /* \"#utility.yul\":2634:2657   */\n      sub\n        /* \"#utility.yul\":2630:2662   */\n      slt\n        /* \"#utility.yul\":2627:2746   */\n      iszero\n      tag_148\n      jumpi\n        /* \"#utility.yul\":2665:2744   */\n      tag_149\n      tag_81\n      jump\t// in\n    tag_149:\n        /* \"#utility.yul\":2627:2746   */\n    tag_148:\n        /* \"#utility.yul\":2813:2814   */\n      0x00\n        /* \"#utility.yul\":2802:2811   */\n      dup3\n        /* \"#utility.yul\":2798:2815   */\n      add\n        /* \"#utility.yul\":2785:2816   */\n      calldataload\n        /* \"#utility.yul\":2843:2861   */\n      0xffffffffffffffff\n        /* \"#utility.yul\":2835:2841   */\n      dup2\n        /* \"#utility.yul\":2832:2862   */\n      gt\n        /* \"#utility.yul\":2829:2946   */\n      iszero\n      tag_150\n      jumpi\n        /* \"#utility.yul\":2865:2944   */\n      tag_151\n      tag_82\n      jump\t// in\n    tag_151:\n        /* \"#utility.yul\":2829:2946   */\n    tag_150:\n        /* \"#utility.yul\":2970:3032   */\n      tag_152\n        /* \"#utility.yul\":3024:3031   */\n      dup5\n        /* \"#utility.yul\":3015:3021   */\n      dup3\n        /* \"#utility.yul\":3004:3013   */\n      dup6\n        /* \"#utility.yul\":3000:3022   */\n      add\n        /* \"#utility.yul\":2970:3032   */\n      tag_92\n      jump\t// in\n    tag_152:\n        /* \"#utility.yul\":2960:3032   */\n      swap2\n      pop\n        /* \"#utility.yul\":2756:3042   */\n      pop\n        /* \"#utility.yul\":2542:3049   */\n      swap3\n      swap2\n      pop\n      pop\n      jump\t// out\n        /* \"#utility.yul\":3055:3153   */\n    tag_93:\n        /* \"#utility.yul\":3106:3112   */\n      0x00\n        /* \"#utility.yul\":3140:3145   */\n      dup2\n        /* \"#utility.yul\":3134:3146   */\n      mload\n        /* \"#utility.yul\":3124:3146   */\n      swap1\n      pop\n        /* \"#utility.yul\":3055:3153   */\n      swap2\n      swap1\n      pop\n      jump\t// out\n        /* \"#utility.yul\":3159:3327   */\n    tag_94:\n        /* \"#utility.yul\":3242:3253   */\n      0x00\n        /* \"#utility.yul\":3276:3282   */\n      dup3\n        /* \"#utility.yul\":3271:3274   */\n      dup3\n        /* \"#utility.yul\":3264:3283   */\n      mstore\n        /* \"#utility.yul\":3316:3320   */\n      0x20\n        /* \"#utility.yul\":3311:3314   */\n      dup3\n        /* \"#utility.yul\":3307:3321   */\n      add\n        /* \"#utility.yul\":3292:3321   */\n      swap1\n      pop\n        /* \"#utility.yul\":3159:3327   */\n      swap3\n      swap2\n      pop\n      pop\n      jump\t// out\n        /* \"#utility.yul\":3333:3640   */\n    tag_95:\n        /* \"#utility.yul\":3401:3402   */\n      0x00\n        /* \"#utility.yul\":3411:3524   */\n    tag_156:\n        /* \"#utility.yul\":3425:3431   */\n      dup4\n        /* \"#utility.yul\":3422:3423   */\n      dup2\n        /* \"#utility.yul\":3419:3432   */\n      lt\n        /* \"#utility.yul\":3411:3524   */\n      iszero\n      tag_158\n      jumpi\n        /* \"#utility.yul\":3510:3511   */\n      dup1\n        /* \"#utility.yul\":3505:3508   */\n      dup3\n        /* \"#utility.yul\":3501:3512   */\n      add\n        /* \"#utility.yul\":3495:3513   */\n      mload\n        /* \"#utility.yul\":3491:3492   */\n      dup2\n        /* \"#utility.yul\":3486:3489   */\n      dup5\n        /* \"#utility.yul\":3482:3493   */\n      add\n        /* \"#utility.yul\":3475:3514   */\n      mstore\n        /* \"#utility.yul\":3447:3449   */\n      0x20\n        /* \"#utility.yul\":3444:3445   */\n      dup2\n        /* \"#utility.yul\":3440:3450   */\n      add\n        /* \"#utility.yul\":3435:3450   */\n      swap1\n      pop\n        /* \"#utility.yul\":3411:3524   */\n      jump(tag_156)\n    tag_158:\n        /* \"#utility.yul\":3542:3548   */\n      dup4\n        /* \"#utility.yul\":3539:3540   */\n      dup2\n        /* \"#utility.yul\":3536:3549   */\n      gt\n        /* \"#utility.yul\":3533:3634   */\n      iszero\n      tag_159\n      jumpi\n        /* \"#utility.yul\":3622:3623   */\n      0x00\n        /* \"#utility.yul\":3613:3619   */\n      dup5\n        /* \"#utility.yul\":3608:3611   */\n      dup5\n        /* \"#utility.yul\":3604:3620   */\n      add\n        /* \"#utility.yul\":3597:3624   */\n      mstore\n        /* \"#utility.yul\":3533:3634   */\n    tag_159:\n        /* \"#utility.yul\":3382:3640   */\n      pop\n        /* \"#utility.yul\":3333:3640   */\n      pop\n      pop\n      pop\n      jump\t// out\n        /* \"#utility.yul\":3646:4006   */\n    tag_96:\n        /* \"#utility.yul\":3732:3735   */\n      0x00\n        /* \"#utility.yul\":3760:3798   */\n      tag_161\n        /* \"#utility.yul\":3792:3797   */\n      dup3\n        /* \"#utility.yul\":3760:3798   */\n      tag_93\n      jump\t// in\n    tag_161:\n        /* \"#utility.yul\":3814:3884   */\n      tag_162\n        /* \"#utility.yul\":3877:3883   */\n      dup2\n        /* \"#utility.yul\":3872:3875   */\n      dup6\n        /* \"#utility.yul\":3814:3884   */\n      tag_94\n      jump\t// in\n    tag_162:\n        /* \"#utility.yul\":3807:3884   */\n      swap4\n      pop\n        /* \"#utility.yul\":3893:3945   */\n      tag_163\n        /* \"#utility.yul\":3938:3944   */\n      dup2\n        /* \"#utility.yul\":3933:3936   */\n      dup6\n        /* \"#utility.yul\":3926:3930   */\n      0x20\n        /* \"#utility.yul\":3919:3924   */\n      dup7\n        /* \"#utility.yul\":3915:3931   */\n      add\n        /* \"#utility.yul\":3893:3945   */\n      tag_95\n      jump\t// in\n    tag_163:\n        /* \"#utility.yul\":3970:3999   */\n      tag_164\n        /* \"#utility.yul\":3992:3998   */\n      dup2\n        /* \"#utility.yul\":3970:3999   */\n      tag_85\n      jump\t// in\n    tag_164:\n        /* \"#utility.yul\":3965:3968   */\n      dup5\n        /* \"#utility.yul\":3961:4000   */\n      add\n        /* \"#utility.yul\":3954:4000   */\n      swap2\n      pop\n        /* \"#utility.yul\":3736:4006   */\n      pop\n        /* \"#utility.yul\":3646:4006   */\n      swap3\n      swap2\n      pop\n      pop\n      jump\t// out\n        /* \"#utility.yul\":4012:4102   */\n    tag_97:\n        /* \"#utility.yul\":4046:4053   */\n      0x00\n        /* \"#utility.yul\":4089:4094   */\n      dup2\n        /* \"#utility.yul\":4082:4095   */\n      iszero\n        /* \"#utility.yul\":4075:4096   */\n      iszero\n        /* \"#utility.yul\":4064:4096   */\n      swap1\n      pop\n        /* \"#utility.yul\":4012:4102   */\n      swap2\n      swap1\n      pop\n      jump\t// out\n        /* \"#utility.yul\":4108:4217   */\n    tag_98:\n        /* \"#utility.yul\":4189:4210   */\n      tag_167\n        /* \"#utility.yul\":4204:4209   */\n      dup2\n        /* \"#utility.yul\":4189:4210   */\n      tag_97\n      jump\t// in\n    tag_167:\n        /* \"#utility.yul\":4184:4187   */\n      dup3\n        /* \"#utility.yul\":4177:4211   */\n      mstore\n        /* \"#utility.yul\":4108:4217   */\n      pop\n      pop\n      jump\t// out\n        /* \"#utility.yul\":4223:4630   */\n    tag_12:\n        /* \"#utility.yul\":4356:4360   */\n      0x00\n        /* \"#utility.yul\":4394:4396   */\n      0x40\n        /* \"#utility.yul\":4383:4392   */\n      dup3\n        /* \"#utility.yul\":4379:4397   */\n      add\n        /* \"#utility.yul\":4371:4397   */\n      swap1\n      pop\n        /* \"#utility.yul\":4443:4452   */\n      dup2\n        /* \"#utility.yul\":4437:4441   */\n      dup2\n        /* \"#utility.yul\":4433:4453   */\n      sub\n        /* \"#utility.yul\":4429:4430   */\n      0x00\n        /* \"#utility.yul\":4418:4427   */\n      dup4\n        /* \"#utility.yul\":4414:4431   */\n      add\n        /* \"#utility.yul\":4407:4454   */\n      mstore\n        /* \"#utility.yul\":4471:4547   */\n      tag_169\n        /* \"#utility.yul\":4542:4546   */\n      dup2\n        /* \"#utility.yul\":4533:4539   */\n      dup6\n        /* \"#utility.yul\":4471:4547   */\n      tag_96\n      jump\t// in\n    tag_169:\n        /* \"#utility.yul\":4463:4547   */\n      swap1\n      pop\n        /* \"#utility.yul\":4557:4623   */\n      tag_170\n        /* \"#utility.yul\":4619:4621   */\n      0x20\n        /* \"#utility.yul\":4608:4617   */\n      dup4\n        /* \"#utility.yul\":4604:4622   */\n      add\n        /* \"#utility.yul\":4595:4601   */\n      dup5\n        /* \"#utility.yul\":4557:4623   */\n      tag_98\n      jump\t// in\n    tag_170:\n        /* \"#utility.yul\":4223:4630   */\n      swap4\n      swap3\n      pop\n      pop\n      pop\n      jump\t// out\n        /* \"#utility.yul\":4636:4713   */\n    tag_99:\n        /* \"#utility.yul\":4673:4680   */\n      0x00\n        /* \"#utility.yul\":4702:4707   */\n      dup2\n        /* \"#utility.yul\":4691:4707   */\n      swap1\n      pop\n        /* \"#utility.yul\":4636:4713   */\n      swap2\n      swap1\n      pop\n      jump\t// out\n        /* \"#utility.yul\":4719:4841   */\n    tag_100:\n        /* \"#utility.yul\":4792:4816   */\n      tag_173\n        /* \"#utility.yul\":4810:4815   */\n      dup2\n        /* \"#utility.yul\":4792:4816   */\n      tag_99\n      jump\t// in\n    tag_173:\n        /* \"#utility.yul\":4785:4790   */\n      dup2\n        /* \"#utility.yul\":4782:4817   */\n      eq\n        /* \"#utility.yul\":4772:4835   */\n      tag_174\n      jumpi\n        /* \"#utility.yul\":4831:4832   */\n      0x00\n        /* \"#utility.yul\":4828:4829   */\n      dup1\n        /* \"#utility.yul\":4821:4833   */\n      revert\n        /* \"#utility.yul\":4772:4835   */\n    tag_174:\n        /* \"#utility.yul\":4719:4841   */\n      pop\n      jump\t// out\n        /* \"#utility.yul\":4847:4986   */\n    tag_101:\n        /* \"#utility.yul\":4893:4898   */\n      0x00\n        /* \"#utility.yul\":4931:4937   */\n      dup2\n        /* \"#utility.yul\":4918:4938   */\n      calldataload\n        /* \"#utility.yul\":4909:4938   */\n      swap1\n      pop\n        /* \"#utility.yul\":4947:4980   */\n      tag_176\n        /* \"#utility.yul\":4974:4979   */\n      dup2\n        /* \"#utility.yul\":4947:4980   */\n      tag_100\n      jump\t// in\n    tag_176:\n        /* \"#utility.yul\":4847:4986   */\n      swap3\n      swap2\n      pop\n      pop\n      jump\t// out\n        /* \"#utility.yul\":4992:6259   */\n    tag_15:\n        /* \"#utility.yul\":5105:5111   */\n      0x00\n        /* \"#utility.yul\":5113:5119   */\n      dup1\n        /* \"#utility.yul\":5121:5127   */\n      0x00\n        /* \"#utility.yul\":5129:5135   */\n      dup1\n        /* \"#utility.yul\":5137:5143   */\n      0x00\n        /* \"#utility.yul\":5186:5189   */\n      0xa0\n        /* \"#utility.yul\":5174:5183   */\n      dup7\n        /* \"#utility.yul\":5165:5172   */\n      dup9\n        /* \"#utility.yul\":5161:5184   */\n      sub\n        /* \"#utility.yul\":5157:5190   */\n      slt\n        /* \"#utility.yul\":5154:5274   */\n      iszero\n      tag_178\n      jumpi\n        /* \"#utility.yul\":5193:5272   */\n      tag_179\n      tag_81\n      jump\t// in\n    tag_179:\n        /* \"#utility.yul\":5154:5274   */\n    tag_178:\n        /* \"#utility.yul\":5313:5314   */\n      0x00\n        /* \"#utility.yul\":5338:5391   */\n      tag_180\n        /* \"#utility.yul\":5383:5390   */\n      dup9\n        /* \"#utility.yul\":5374:5380   */\n      dup3\n        /* \"#utility.yul\":5363:5372   */\n      dup10\n        /* \"#utility.yul\":5359:5381   */\n      add\n        /* \"#utility.yul\":5338:5391   */\n      tag_101\n      jump\t// in\n    tag_180:\n        /* \"#utility.yul\":5328:5391   */\n      swap6\n      pop\n        /* \"#utility.yul\":5284:5401   */\n      pop\n        /* \"#utility.yul\":5440:5442   */\n      0x20\n        /* \"#utility.yul\":5466:5519   */\n      tag_181\n        /* \"#utility.yul\":5511:5518   */\n      dup9\n        /* \"#utility.yul\":5502:5508   */\n      dup3\n        /* \"#utility.yul\":5491:5500   */\n      dup10\n        /* \"#utility.yul\":5487:5509   */\n      add\n        /* \"#utility.yul\":5466:5519   */\n      tag_101\n      jump\t// in\n    tag_181:\n        /* \"#utility.yul\":5456:5519   */\n      swap5\n      pop\n        /* \"#utility.yul\":5411:5529   */\n      pop\n        /* \"#utility.yul\":5568:5570   */\n      0x40\n        /* \"#utility.yul\":5594:5647   */\n      tag_182\n        /* \"#utility.yul\":5639:5646   */\n      dup9\n        /* \"#utility.yul\":5630:5636   */\n      dup3\n        /* \"#utility.yul\":5619:5628   */\n      dup10\n        /* \"#utility.yul\":5615:5637   */\n      add\n        /* \"#utility.yul\":5594:5647   */\n      tag_101\n      jump\t// in\n    tag_182:\n        /* \"#utility.yul\":5584:5647   */\n      swap4\n      pop\n        /* \"#utility.yul\":5539:5657   */\n      pop\n        /* \"#utility.yul\":5724:5726   */\n      0x60\n        /* \"#utility.yul\":5713:5722   */\n      dup7\n        /* \"#utility.yul\":5709:5727   */\n      add\n        /* \"#utility.yul\":5696:5728   */\n      calldataload\n        /* \"#utility.yul\":5755:5773   */\n      0xffffffffffffffff\n        /* \"#utility.yul\":5747:5753   */\n      dup2\n        /* \"#utility.yul\":5744:5774   */\n      gt\n        /* \"#utility.yul\":5741:5858   */\n      iszero\n      tag_183\n      jumpi\n        /* \"#utility.yul\":5777:5856   */\n      tag_184\n      tag_82\n      jump\t// in\n    tag_184:\n        /* \"#utility.yul\":5741:5858   */\n    tag_183:\n        /* \"#utility.yul\":5882:5944   */\n      tag_185\n        /* \"#utility.yul\":5936:5943   */\n      dup9\n        /* \"#utility.yul\":5927:5933   */\n      dup3\n        /* \"#utility.yul\":5916:5925   */\n      dup10\n        /* \"#utility.yul\":5912:5934   */\n      add\n        /* \"#utility.yul\":5882:5944   */\n      tag_92\n      jump\t// in\n    tag_185:\n        /* \"#utility.yul\":5872:5944   */\n      swap3\n      pop\n        /* \"#utility.yul\":5667:5954   */\n      pop\n        /* \"#utility.yul\":6021:6024   */\n      0x80\n        /* \"#utility.yul\":6010:6019   */\n      dup7\n        /* \"#utility.yul\":6006:6025   */\n      add\n        /* \"#utility.yul\":5993:6026   */\n      calldataload\n        /* \"#utility.yul\":6053:6071   */\n      0xffffffffffffffff\n        /* \"#utility.yul\":6045:6051   */\n      dup2\n        /* \"#utility.yul\":6042:6072   */\n      gt\n        /* \"#utility.yul\":6039:6156   */\n      iszero\n      tag_186\n      jumpi\n        /* \"#utility.yul\":6075:6154   */\n      tag_187\n      tag_82\n      jump\t// in\n    tag_187:\n        /* \"#utility.yul\":6039:6156   */\n    tag_186:\n        /* \"#utility.yul\":6180:6242   */\n      tag_188\n        /* \"#utility.yul\":6234:6241   */\n      dup9\n        /* \"#utility.yul\":6225:6231   */\n      dup3\n        /* \"#utility.yul\":6214:6223   */\n      dup10\n        /* \"#utility.yul\":6210:6232   */\n      add\n        /* \"#utility.yul\":6180:6242   */\n      tag_92\n      jump\t// in\n    tag_188:\n        /* \"#utility.yul\":6170:6242   */\n      swap2\n      pop\n        /* \"#utility.yul\":5964:6252   */\n      pop\n        /* \"#utility.yul\":4992:6259   */\n      swap3\n      swap6\n      pop\n      swap3\n      swap6\n      swap1\n      swap4\n      pop\n      jump\t// out\n        /* \"#utility.yul\":6265:6342   */\n    tag_102:\n        /* \"#utility.yul\":6302:6309   */\n      0x00\n        /* \"#utility.yul\":6331:6336   */\n      dup2\n        /* \"#utility.yul\":6320:6336   */\n      swap1\n      pop\n        /* \"#utility.yul\":6265:6342   */\n      swap2\n      swap1\n      pop\n      jump\t// out\n        /* \"#utility.yul\":6348:6470   */\n    tag_103:\n        /* \"#utility.yul\":6421:6445   */\n      tag_191\n        /* \"#utility.yul\":6439:6444   */\n      dup2\n        /* \"#utility.yul\":6421:6445   */\n      tag_102\n      jump\t// in\n    tag_191:\n        /* \"#utility.yul\":6414:6419   */\n      dup2\n        /* \"#utility.yul\":6411:6446   */\n      eq\n        /* \"#utility.yul\":6401:6464   */\n      tag_192\n      jumpi\n        /* \"#utility.yul\":6460:6461   */\n      0x00\n        /* \"#utility.yul\":6457:6458   */\n      dup1\n        /* \"#utility.yul\":6450:6462   */\n      revert\n        /* \"#utility.yul\":6401:6464   */\n    tag_192:\n        /* \"#utility.yul\":6348:6470   */\n      pop\n      jump\t// out\n        /* \"#utility.yul\":6476:6615   */\n    tag_104:\n        /* \"#utility.yul\":6522:6527   */\n      0x00\n        /* \"#utility.yul\":6560:6566   */\n      dup2\n        /* \"#utility.yul\":6547:6567   */\n      calldataload\n        /* \"#utility.yul\":6538:6567   */\n      swap1\n      pop\n        /* \"#utility.yul\":6576:6609   */\n      tag_194\n        /* \"#utility.yul\":6603:6608   */\n      dup2\n        /* \"#utility.yul\":6576:6609   */\n      tag_103\n      jump\t// in\n    tag_194:\n        /* \"#utility.yul\":6476:6615   */\n      swap3\n      swap2\n      pop\n      pop\n      jump\t// out\n        /* \"#utility.yul\":6621:6950   */\n    tag_19:\n        /* \"#utility.yul\":6680:6686   */\n      0x00\n        /* \"#utility.yul\":6729:6731   */\n      0x20\n        /* \"#utility.yul\":6717:6726   */\n      dup3\n        /* \"#utility.yul\":6708:6715   */\n      dup5\n        /* \"#utility.yul\":6704:6727   */\n      sub\n        /* \"#utility.yul\":6700:6732   */\n      slt\n        /* \"#utility.yul\":6697:6816   */\n      iszero\n      tag_196\n      jumpi\n        /* \"#utility.yul\":6735:6814   */\n      tag_197\n      tag_81\n      jump\t// in\n    tag_197:\n        /* \"#utility.yul\":6697:6816   */\n    tag_196:\n        /* \"#utility.yul\":6855:6856   */\n      0x00\n        /* \"#utility.yul\":6880:6933   */\n      tag_198\n        /* \"#utility.yul\":6925:6932   */\n      dup5\n        /* \"#utility.yul\":6916:6922   */\n      dup3\n        /* \"#utility.yul\":6905:6914   */\n      dup6\n        /* \"#utility.yul\":6901:6923   */\n      add\n        /* \"#utility.yul\":6880:6933   */\n      tag_104\n      jump\t// in\n    tag_198:\n        /* \"#utility.yul\":6870:6933   */\n      swap2\n      pop\n        /* \"#utility.yul\":6826:6943   */\n      pop\n        /* \"#utility.yul\":6621:6950   */\n      swap3\n      swap2\n      pop\n      pop\n      jump\t// out\n        /* \"#utility.yul\":6956:7265   */\n    tag_22:\n        /* \"#utility.yul\":7067:7071   */\n      0x00\n        /* \"#utility.yul\":7105:7107   */\n      0x20\n        /* \"#utility.yul\":7094:7103   */\n      dup3\n        /* \"#utility.yul\":7090:7108   */\n      add\n        /* \"#utility.yul\":7082:7108   */\n      swap1\n      pop\n        /* \"#utility.yul\":7154:7163   */\n      dup2\n        /* \"#utility.yul\":7148:7152   */\n      dup2\n        /* \"#utility.yul\":7144:7164   */\n      sub\n        /* \"#utility.yul\":7140:7141   */\n      0x00\n        /* \"#utility.yul\":7129:7138   */\n      dup4\n        /* \"#utility.yul\":7125:7142   */\n      add\n        /* \"#utility.yul\":7118:7165   */\n      mstore\n        /* \"#utility.yul\":7182:7258   */\n      tag_200\n        /* \"#utility.yul\":7253:7257   */\n      dup2\n        /* \"#utility.yul\":7244:7250   */\n      dup5\n        /* \"#utility.yul\":7182:7258   */\n      tag_96\n      jump\t// in\n    tag_200:\n        /* \"#utility.yul\":7174:7258   */\n      swap1\n      pop\n        /* \"#utility.yul\":6956:7265   */\n      swap3\n      swap2\n      pop\n      pop\n      jump\t// out\n        /* \"#utility.yul\":7271:7451   */\n    tag_105:\n        /* \"#utility.yul\":7319:7396   */\n      0x4e487b7100000000000000000000000000000000000000000000000000000000\n        /* \"#utility.yul\":7316:7317   */\n      0x00\n        /* \"#utility.yul\":7309:7397   */\n      mstore\n        /* \"#utility.yul\":7416:7420   */\n      0x22\n        /* \"#utility.yul\":7413:7414   */\n      0x04\n        /* \"#utility.yul\":7406:7421   */\n      mstore\n        /* \"#utility.yul\":7440:7444   */\n      0x24\n        /* \"#utility.yul\":7437:7438   */\n      0x00\n        /* \"#utility.yul\":7430:7445   */\n      revert\n        /* \"#utility.yul\":7457:7777   */\n    tag_27:\n        /* \"#utility.yul\":7501:7507   */\n      0x00\n        /* \"#utility.yul\":7538:7539   */\n      0x02\n        /* \"#utility.yul\":7532:7536   */\n      dup3\n        /* \"#utility.yul\":7528:7540   */\n      div\n        /* \"#utility.yul\":7518:7540   */\n      swap1\n      pop\n        /* \"#utility.yul\":7585:7586   */\n      0x01\n        /* \"#utility.yul\":7579:7583   */\n      dup3\n        /* \"#utility.yul\":7575:7587   */\n      and\n        /* \"#utility.yul\":7606:7624   */\n      dup1\n        /* \"#utility.yul\":7596:7677   */\n      tag_203\n      jumpi\n        /* \"#utility.yul\":7662:7666   */\n      0x7f\n        /* \"#utility.yul\":7654:7660   */\n      dup3\n        /* \"#utility.yul\":7650:7667   */\n      and\n        /* \"#utility.yul\":7640:7667   */\n      swap2\n      pop\n        /* \"#utility.yul\":7596:7677   */\n    tag_203:\n        /* \"#utility.yul\":7724:7726   */\n      0x20\n        /* \"#utility.yul\":7716:7722   */\n      dup3\n        /* \"#utility.yul\":7713:7727   */\n      lt\n        /* \"#utility.yul\":7693:7711   */\n      dup2\n        /* \"#utility.yul\":7690:7728   */\n      eq\n        /* \"#utility.yul\":7687:7771   */\n      iszero\n      tag_204\n      jumpi\n        /* \"#utility.yul\":7743:7761   */\n      tag_205\n      tag_105\n      jump\t// in\n    tag_205:\n        /* \"#utility.yul\":7687:7771   */\n    tag_204:\n        /* \"#utility.yul\":7508:7777   */\n      pop\n        /* \"#utility.yul\":7457:7777   */\n      swap2\n      swap1\n      pop\n      jump\t// out\n        /* \"#utility.yul\":7783:7952   */\n    tag_106:\n        /* \"#utility.yul\":7867:7878   */\n      0x00\n        /* \"#utility.yul\":7901:7907   */\n      dup3\n        /* \"#utility.yul\":7896:7899   */\n      dup3\n        /* \"#utility.yul\":7889:7908   */\n      mstore\n        /* \"#utility.yul\":7941:7945   */\n      0x20\n        /* \"#utility.yul\":7936:7939   */\n      dup3\n        /* \"#utility.yul\":7932:7946   */\n      add\n        /* \"#utility.yul\":7917:7946   */\n      swap1\n      pop\n        /* \"#utility.yul\":7783:7952   */\n      swap3\n      swap2\n      pop\n      pop\n      jump\t// out\n        /* \"#utility.yul\":7958:8179   */\n    tag_107:\n        /* \"#utility.yul\":8098:8132   */\n      0x4f6e6c7920636f6e74726163742773206f776e65722063616e20616464206461\n        /* \"#utility.yul\":8094:8095   */\n      0x00\n        /* \"#utility.yul\":8086:8092   */\n      dup3\n        /* \"#utility.yul\":8082:8096   */\n      add\n        /* \"#utility.yul\":8075:8133   */\n      mstore\n        /* \"#utility.yul\":8167:8171   */\n      0x7461000000000000000000000000000000000000000000000000000000000000\n        /* \"#utility.yul\":8162:8164   */\n      0x20\n        /* \"#utility.yul\":8154:8160   */\n      dup3\n        /* \"#utility.yul\":8150:8165   */\n      add\n        /* \"#utility.yul\":8143:8172   */\n      mstore\n        /* \"#utility.yul\":7958:8179   */\n      pop\n      jump\t// out\n        /* \"#utility.yul\":8185:8551   */\n    tag_108:\n        /* \"#utility.yul\":8327:8330   */\n      0x00\n        /* \"#utility.yul\":8348:8415   */\n      tag_209\n        /* \"#utility.yul\":8412:8414   */\n      0x22\n        /* \"#utility.yul\":8407:8410   */\n      dup4\n        /* \"#utility.yul\":8348:8415   */\n      tag_106\n      jump\t// in\n    tag_209:\n        /* \"#utility.yul\":8341:8415   */\n      swap2\n      pop\n        /* \"#utility.yul\":8424:8517   */\n      tag_210\n        /* \"#utility.yul\":8513:8516   */\n      dup3\n        /* \"#utility.yul\":8424:8517   */\n      tag_107\n      jump\t// in\n    tag_210:\n        /* \"#utility.yul\":8542:8544   */\n      0x40\n        /* \"#utility.yul\":8537:8540   */\n      dup3\n        /* \"#utility.yul\":8533:8545   */\n      add\n        /* \"#utility.yul\":8526:8545   */\n      swap1\n      pop\n        /* \"#utility.yul\":8185:8551   */\n      swap2\n      swap1\n      pop\n      jump\t// out\n        /* \"#utility.yul\":8557:8976   */\n    tag_35:\n        /* \"#utility.yul\":8723:8727   */\n      0x00\n        /* \"#utility.yul\":8761:8763   */\n      0x20\n        /* \"#utility.yul\":8750:8759   */\n      dup3\n        /* \"#utility.yul\":8746:8764   */\n      add\n        /* \"#utility.yul\":8738:8764   */\n      swap1\n      pop\n        /* \"#utility.yul\":8810:8819   */\n      dup2\n        /* \"#utility.yul\":8804:8808   */\n      dup2\n        /* \"#utility.yul\":8800:8820   */\n      sub\n        /* \"#utility.yul\":8796:8797   */\n      0x00\n        /* \"#utility.yul\":8785:8794   */\n      dup4\n        /* \"#utility.yul\":8781:8798   */\n      add\n        /* \"#utility.yul\":8774:8821   */\n      mstore\n        /* \"#utility.yul\":8838:8969   */\n      tag_212\n        /* \"#utility.yul\":8964:8968   */\n      dup2\n        /* \"#utility.yul\":8838:8969   */\n      tag_108\n      jump\t// in\n    tag_212:\n        /* \"#utility.yul\":8830:8969   */\n      swap1\n      pop\n        /* \"#utility.yul\":8557:8976   */\n      swap2\n      swap1\n      pop\n      jump\t// out\n        /* \"#utility.yul\":8982:9129   */\n    tag_109:\n        /* \"#utility.yul\":9083:9094   */\n      0x00\n        /* \"#utility.yul\":9120:9123   */\n      dup2\n        /* \"#utility.yul\":9105:9123   */\n      swap1\n      pop\n        /* \"#utility.yul\":8982:9129   */\n      swap3\n      swap2\n      pop\n      pop\n      jump\t// out\n        /* \"#utility.yul\":9135:9508   */\n    tag_110:\n        /* \"#utility.yul\":9239:9242   */\n      0x00\n        /* \"#utility.yul\":9267:9305   */\n      tag_215\n        /* \"#utility.yul\":9299:9304   */\n      dup3\n        /* \"#utility.yul\":9267:9305   */\n      tag_93\n      jump\t// in\n    tag_215:\n        /* \"#utility.yul\":9321:9409   */\n      tag_216\n        /* \"#utility.yul\":9402:9408   */\n      dup2\n        /* \"#utility.yul\":9397:9400   */\n      dup6\n        /* \"#utility.yul\":9321:9409   */\n      tag_109\n      jump\t// in\n    tag_216:\n        /* \"#utility.yul\":9314:9409   */\n      swap4\n      pop\n        /* \"#utility.yul\":9418:9470   */\n      tag_217\n        /* \"#utility.yul\":9463:9469   */\n      dup2\n        /* \"#utility.yul\":9458:9461   */\n      dup6\n        /* \"#utility.yul\":9451:9455   */\n      0x20\n        /* \"#utility.yul\":9444:9449   */\n      dup7\n        /* \"#utility.yul\":9440:9456   */\n      add\n        /* \"#utility.yul\":9418:9470   */\n      tag_95\n      jump\t// in\n    tag_217:\n        /* \"#utility.yul\":9495:9501   */\n      dup1\n        /* \"#utility.yul\":9490:9493   */\n      dup5\n        /* \"#utility.yul\":9486:9502   */\n      add\n        /* \"#utility.yul\":9479:9502   */\n      swap2\n      pop\n        /* \"#utility.yul\":9243:9508   */\n      pop\n        /* \"#utility.yul\":9135:9508   */\n      swap3\n      swap2\n      pop\n      pop\n      jump\t// out\n        /* \"#utility.yul\":9514:9785   */\n    tag_37:\n        /* \"#utility.yul\":9644:9647   */\n      0x00\n        /* \"#utility.yul\":9666:9759   */\n      tag_219\n        /* \"#utility.yul\":9755:9758   */\n      dup3\n        /* \"#utility.yul\":9746:9752   */\n      dup5\n        /* \"#utility.yul\":9666:9759   */\n      tag_110\n      jump\t// in\n    tag_219:\n        /* \"#utility.yul\":9659:9759   */\n      swap2\n      pop\n        /* \"#utility.yul\":9776:9779   */\n      dup2\n        /* \"#utility.yul\":9769:9779   */\n      swap1\n      pop\n        /* \"#utility.yul\":9514:9785   */\n      swap3\n      swap2\n      pop\n      pop\n      jump\t// out\n        /* \"#utility.yul\":9791:10033   */\n    tag_111:\n        /* \"#utility.yul\":9931:9965   */\n      0x412073656e736f722077617320616c7265616479207265676973747265642077\n        /* \"#utility.yul\":9927:9928   */\n      0x00\n        /* \"#utility.yul\":9919:9925   */\n      dup3\n        /* \"#utility.yul\":9915:9929   */\n      add\n        /* \"#utility.yul\":9908:9966   */\n      mstore\n        /* \"#utility.yul\":10000:10025   */\n      0x697468207468652073616d65207075626c6963206b6579000000000000000000\n        /* \"#utility.yul\":9995:9997   */\n      0x20\n        /* \"#utility.yul\":9987:9993   */\n      dup3\n        /* \"#utility.yul\":9983:9998   */\n      add\n        /* \"#utility.yul\":9976:10026   */\n      mstore\n        /* \"#utility.yul\":9791:10033   */\n      pop\n      jump\t// out\n        /* \"#utility.yul\":10039:10405   */\n    tag_112:\n        /* \"#utility.yul\":10181:10184   */\n      0x00\n        /* \"#utility.yul\":10202:10269   */\n      tag_222\n        /* \"#utility.yul\":10266:10268   */\n      0x37\n        /* \"#utility.yul\":10261:10264   */\n      dup4\n        /* \"#utility.yul\":10202:10269   */\n      tag_106\n      jump\t// in\n    tag_222:\n        /* \"#utility.yul\":10195:10269   */\n      swap2\n      pop\n        /* \"#utility.yul\":10278:10371   */\n      tag_223\n        /* \"#utility.yul\":10367:10370   */\n      dup3\n        /* \"#utility.yul\":10278:10371   */\n      tag_111\n      jump\t// in\n    tag_223:\n        /* \"#utility.yul\":10396:10398   */\n      0x40\n        /* \"#utility.yul\":10391:10394   */\n      dup3\n        /* \"#utility.yul\":10387:10399   */\n      add\n        /* \"#utility.yul\":10380:10399   */\n      swap1\n      pop\n        /* \"#utility.yul\":10039:10405   */\n      swap2\n      swap1\n      pop\n      jump\t// out\n        /* \"#utility.yul\":10411:10830   */\n    tag_40:\n        /* \"#utility.yul\":10577:10581   */\n      0x00\n        /* \"#utility.yul\":10615:10617   */\n      0x20\n        /* \"#utility.yul\":10604:10613   */\n      dup3\n        /* \"#utility.yul\":10600:10618   */\n      add\n        /* \"#utility.yul\":10592:10618   */\n      swap1\n      pop\n        /* \"#utility.yul\":10664:10673   */\n      dup2\n        /* \"#utility.yul\":10658:10662   */\n      dup2\n        /* \"#utility.yul\":10654:10674   */\n      sub\n        /* \"#utility.yul\":10650:10651   */\n      0x00\n        /* \"#utility.yul\":10639:10648   */\n      dup4\n        /* \"#utility.yul\":10635:10652   */\n      add\n        /* \"#utility.yul\":10628:10675   */\n      mstore\n        /* \"#utility.yul\":10692:10823   */\n      tag_225\n        /* \"#utility.yul\":10818:10822   */\n      dup2\n        /* \"#utility.yul\":10692:10823   */\n      tag_112\n      jump\t// in\n    tag_225:\n        /* \"#utility.yul\":10684:10823   */\n      swap1\n      pop\n        /* \"#utility.yul\":10411:10830   */\n      swap2\n      swap1\n      pop\n      jump\t// out\n        /* \"#utility.yul\":10836:11061   */\n    tag_113:\n        /* \"#utility.yul\":10976:11010   */\n      0x4f6e6c7920636f6e74726163742773206f776e65722063616e20616464206120\n        /* \"#utility.yul\":10972:10973   */\n      0x00\n        /* \"#utility.yul\":10964:10970   */\n      dup3\n        /* \"#utility.yul\":10960:10974   */\n      add\n        /* \"#utility.yul\":10953:11011   */\n      mstore\n        /* \"#utility.yul\":11045:11053   */\n      0x73656e736f720000000000000000000000000000000000000000000000000000\n        /* \"#utility.yul\":11040:11042   */\n      0x20\n        /* \"#utility.yul\":11032:11038   */\n      dup3\n        /* \"#utility.yul\":11028:11043   */\n      add\n        /* \"#utility.yul\":11021:11054   */\n      mstore\n        /* \"#utility.yul\":10836:11061   */\n      pop\n      jump\t// out\n        /* \"#utility.yul\":11067:11433   */\n    tag_114:\n        /* \"#utility.yul\":11209:11212   */\n      0x00\n        /* \"#utility.yul\":11230:11297   */\n      tag_228\n        /* \"#utility.yul\":11294:11296   */\n      0x26\n        /* \"#utility.yul\":11289:11292   */\n      dup4\n        /* \"#utility.yul\":11230:11297   */\n      tag_106\n      jump\t// in\n    tag_228:\n        /* \"#utility.yul\":11223:11297   */\n      swap2\n      pop\n        /* \"#utility.yul\":11306:11399   */\n      tag_229\n        /* \"#utility.yul\":11395:11398   */\n      dup3\n        /* \"#utility.yul\":11306:11399   */\n      tag_113\n      jump\t// in\n    tag_229:\n        /* \"#utility.yul\":11424:11426   */\n      0x40\n        /* \"#utility.yul\":11419:11422   */\n      dup3\n        /* \"#utility.yul\":11415:11427   */\n      add\n        /* \"#utility.yul\":11408:11427   */\n      swap1\n      pop\n        /* \"#utility.yul\":11067:11433   */\n      swap2\n      swap1\n      pop\n      jump\t// out\n        /* \"#utility.yul\":11439:11858   */\n    tag_60:\n        /* \"#utility.yul\":11605:11609   */\n      0x00\n        /* \"#utility.yul\":11643:11645   */\n      0x20\n        /* \"#utility.yul\":11632:11641   */\n      dup3\n        /* \"#utility.yul\":11628:11646   */\n      add\n        /* \"#utility.yul\":11620:11646   */\n      swap1\n      pop\n        /* \"#utility.yul\":11692:11701   */\n      dup2\n        /* \"#utility.yul\":11686:11690   */\n      dup2\n        /* \"#utility.yul\":11682:11702   */\n      sub\n        /* \"#utility.yul\":11678:11679   */\n      0x00\n        /* \"#utility.yul\":11667:11676   */\n      dup4\n        /* \"#utility.yul\":11663:11680   */\n      add\n        /* \"#utility.yul\":11656:11703   */\n      mstore\n        /* \"#utility.yul\":11720:11851   */\n      tag_231\n        /* \"#utility.yul\":11846:11850   */\n      dup2\n        /* \"#utility.yul\":11720:11851   */\n      tag_114\n      jump\t// in\n    tag_231:\n        /* \"#utility.yul\":11712:11851   */\n      swap1\n      pop\n        /* \"#utility.yul\":11439:11858   */\n      swap2\n      swap1\n      pop\n      jump\t// out\n        /* \"#utility.yul\":11864:12038   */\n    tag_115:\n        /* \"#utility.yul\":12004:12030   */\n      0x53656e736f722068617320616c72656164792061646465640000000000000000\n        /* \"#utility.yul\":12000:12001   */\n      0x00\n        /* \"#utility.yul\":11992:11998   */\n      dup3\n        /* \"#utility.yul\":11988:12002   */\n      add\n        /* \"#utility.yul\":11981:12031   */\n      mstore\n        /* \"#utility.yul\":11864:12038   */\n      pop\n      jump\t// out\n        /* \"#utility.yul\":12044:12410   */\n    tag_116:\n        /* \"#utility.yul\":12186:12189   */\n      0x00\n        /* \"#utility.yul\":12207:12274   */\n      tag_234\n        /* \"#utility.yul\":12271:12273   */\n      0x18\n        /* \"#utility.yul\":12266:12269   */\n      dup4\n        /* \"#utility.yul\":12207:12274   */\n      tag_106\n      jump\t// in\n    tag_234:\n        /* \"#utility.yul\":12200:12274   */\n      swap2\n      pop\n        /* \"#utility.yul\":12283:12376   */\n      tag_235\n        /* \"#utility.yul\":12372:12375   */\n      dup3\n        /* \"#utility.yul\":12283:12376   */\n      tag_115\n      jump\t// in\n    tag_235:\n        /* \"#utility.yul\":12401:12403   */\n      0x20\n        /* \"#utility.yul\":12396:12399   */\n      dup3\n        /* \"#utility.yul\":12392:12404   */\n      add\n        /* \"#utility.yul\":12385:12404   */\n      swap1\n      pop\n        /* \"#utility.yul\":12044:12410   */\n      swap2\n      swap1\n      pop\n      jump\t// out\n        /* \"#utility.yul\":12416:12835   */\n    tag_64:\n        /* \"#utility.yul\":12582:12586   */\n      0x00\n        /* \"#utility.yul\":12620:12622   */\n      0x20\n        /* \"#utility.yul\":12609:12618   */\n      dup3\n        /* \"#utility.yul\":12605:12623   */\n      add\n        /* \"#utility.yul\":12597:12623   */\n      swap1\n      pop\n        /* \"#utility.yul\":12669:12678   */\n      dup2\n        /* \"#utility.yul\":12663:12667   */\n      dup2\n        /* \"#utility.yul\":12659:12679   */\n      sub\n        /* \"#utility.yul\":12655:12656   */\n      0x00\n        /* \"#utility.yul\":12644:12653   */\n      dup4\n        /* \"#utility.yul\":12640:12657   */\n      add\n        /* \"#utility.yul\":12633:12680   */\n      mstore\n        /* \"#utility.yul\":12697:12828   */\n      tag_237\n        /* \"#utility.yul\":12823:12827   */\n      dup2\n        /* \"#utility.yul\":12697:12828   */\n      tag_116\n      jump\t// in\n    tag_237:\n        /* \"#utility.yul\":12689:12828   */\n      swap1\n      pop\n        /* \"#utility.yul\":12416:12835   */\n      swap2\n      swap1\n      pop\n      jump\t// out\n\n    auxdata: 0xa2646970667358221220022db324f9c097d5b27207a1f81a70aa477828ce73e3fe92dbd531a33f263e2364736f6c63430008090033\n}\n",
				"bytecode": {
					"linkReferences": {},
					"object": "608060405234801561001057600080fd5b50336000806101000a81548173ffffffffffffffffffffffffffffffffffffffff021916908373ffffffffffffffffffffffffffffffffffffffff160217905550610e4b806100606000396000f3fe608060405234801561001057600080fd5b506004361061004c5760003560e01c80634262a7421461005157806369fe6de1146100825780637736ca6f1461009e5780638c89f6fc146100ce575b600080fd5b61006b600480360381019061006691906108a4565b6100ea565b604051610079929190610990565b60405180910390f35b61009c600480360381019061009791906109f6565b6101b9565b005b6100b860048036038101906100b39190610adf565b61044a565b6040516100c59190610b0c565b60405180910390f35b6100e860048036038101906100e391906108a4565b6104f6565b005b60018180516020810182018051848252602083016020850120818352809550505050505060009150905080600001805461012390610b5d565b80601f016020809104026020016040519081016040528092919081815260200182805461014f90610b5d565b801561019c5780601f106101715761010080835404028352916020019161019c565b820191906000526020600020905b81548152906001019060200180831161017f57829003601f168201915b5050505050908060030160009054906101000a900460ff16905082565b60008054906101000a900473ffffffffffffffffffffffffffffffffffffffff1673ffffffffffffffffffffffffffffffffffffffff163373ffffffffffffffffffffffffffffffffffffffff1614610247576040517f08c379a000000000000000000000000000000000000000000000000000000000815260040161023e90610c12565b60405180910390fd5b6001816040516102579190610c6e565b908152602001604051809103902060030160009054906101000a900460ff16156102b6576040517f08c379a00000000000000000000000000000000000000000000000000000000081526004016102ad90610cf7565b60405180910390fd5b846001826040516102c79190610c6e565b9081526020016040518091039020600101600087815260200190815260200160002060000181905550836001826040516103019190610c6e565b90815260200160405180910390206001016000878152602001908152602001600020600101819055508260018260405161033b9190610c6e565b9081526020016040518091039020600101600087815260200190815260200160002060020181905550816001826040516103759190610c6e565b9081526020016040518091039020600101600087815260200190815260200160002060030190805190602001906103ad9291906106a7565b50600180826040516103bf9190610c6e565b9081526020016040518091039020600101600087815260200190815260200160002060040160006101000a81548160ff02191690831515021790555060018160405161040b9190610c6e565b90815260200160405180910390206002018590806001815401808255809150506001900390600052602060002001600090919091909150555050505050565b6002818154811061045a57600080fd5b90600052602060002001600091509050805461047590610b5d565b80601f01602080910402602001604051908101604052809291908181526020018280546104a190610b5d565b80156104ee5780601f106104c3576101008083540402835291602001916104ee565b820191906000526020600020905b8154815290600101906020018083116104d157829003601f168201915b505050505081565b60008054906101000a900473ffffffffffffffffffffffffffffffffffffffff1673ffffffffffffffffffffffffffffffffffffffff163373ffffffffffffffffffffffffffffffffffffffff1614610584576040517f08c379a000000000000000000000000000000000000000000000000000000000815260040161057b90610d89565b60405180910390fd5b600115156001826040516105989190610c6e565b908152602001604051809103902060030160009054906101000a900460ff161515146105f9576040517f08c379a00000000000000000000000000000000000000000000000000000000081526004016105f090610df5565b60405180910390fd5b8060018260405161060a9190610c6e565b9081526020016040518091039020600001908051906020019061062e9291906106a7565b50600180826040516106409190610c6e565b908152602001604051809103902060030160006101000a81548160ff0219169083151502179055506002819080600181540180825580915050600190039060005260206000200160009091909190915090805190602001906106a39291906106a7565b5050565b8280546106b390610b5d565b90600052602060002090601f0160209004810192826106d5576000855561071c565b82601f106106ee57805160ff191683800117855561071c565b8280016001018555821561071c579182015b8281111561071b578251825591602001919060010190610700565b5b509050610729919061072d565b5090565b5b8082111561074657600081600090555060010161072e565b5090565b6000604051905090565b600080fd5b600080fd5b600080fd5b600080fd5b6000601f19601f8301169050919050565b7f4e487b7100000000000000000000000000000000000000000000000000000000600052604160045260246000fd5b6107b182610768565b810181811067ffffffffffffffff821117156107d0576107cf610779565b5b80604052505050565b60006107e361074a565b90506107ef82826107a8565b919050565b600067ffffffffffffffff82111561080f5761080e610779565b5b61081882610768565b9050602081019050919050565b82818337600083830152505050565b6000610847610842846107f4565b6107d9565b90508281526020810184848401111561086357610862610763565b5b61086e848285610825565b509392505050565b600082601f83011261088b5761088a61075e565b5b813561089b848260208601610834565b91505092915050565b6000602082840312156108ba576108b9610754565b5b600082013567ffffffffffffffff8111156108d8576108d7610759565b5b6108e484828501610876565b91505092915050565b600081519050919050565b600082825260208201905092915050565b60005b8381101561092757808201518184015260208101905061090c565b83811115610936576000848401525b50505050565b6000610947826108ed565b61095181856108f8565b9350610961818560208601610909565b61096a81610768565b840191505092915050565b60008115159050919050565b61098a81610975565b82525050565b600060408201905081810360008301526109aa818561093c565b90506109b96020830184610981565b9392505050565b6000819050919050565b6109d3816109c0565b81146109de57600080fd5b50565b6000813590506109f0816109ca565b92915050565b600080600080600060a08688031215610a1257610a11610754565b5b6000610a20888289016109e1565b9550506020610a31888289016109e1565b9450506040610a42888289016109e1565b935050606086013567ffffffffffffffff811115610a6357610a62610759565b5b610a6f88828901610876565b925050608086013567ffffffffffffffff811115610a9057610a8f610759565b5b610a9c88828901610876565b9150509295509295909350565b6000819050919050565b610abc81610aa9565b8114610ac757600080fd5b50565b600081359050610ad981610ab3565b92915050565b600060208284031215610af557610af4610754565b5b6000610b0384828501610aca565b91505092915050565b60006020820190508181036000830152610b26818461093c565b905092915050565b7f4e487b7100000000000000000000000000000000000000000000000000000000600052602260045260246000fd5b60006002820490506001821680610b7557607f821691505b60208210811415610b8957610b88610b2e565b5b50919050565b600082825260208201905092915050565b7f4f6e6c7920636f6e74726163742773206f776e65722063616e2061646420646160008201527f7461000000000000000000000000000000000000000000000000000000000000602082015250565b6000610bfc602283610b8f565b9150610c0782610ba0565b604082019050919050565b60006020820190508181036000830152610c2b81610bef565b9050919050565b600081905092915050565b6000610c48826108ed565b610c528185610c32565b9350610c62818560208601610909565b80840191505092915050565b6000610c7a8284610c3d565b915081905092915050565b7f412073656e736f722077617320616c726561647920726567697374726564207760008201527f697468207468652073616d65207075626c6963206b6579000000000000000000602082015250565b6000610ce1603783610b8f565b9150610cec82610c85565b604082019050919050565b60006020820190508181036000830152610d1081610cd4565b9050919050565b7f4f6e6c7920636f6e74726163742773206f776e65722063616e2061646420612060008201527f73656e736f720000000000000000000000000000000000000000000000000000602082015250565b6000610d73602683610b8f565b9150610d7e82610d17565b604082019050919050565b60006020820190508181036000830152610da281610d66565b9050919050565b7f53656e736f722068617320616c72656164792061646465640000000000000000600082015250565b6000610ddf601883610b8f565b9150610dea82610da9565b602082019050919050565b60006020820190508181036000830152610e0e81610dd2565b905091905056fea2646970667358221220022db324f9c097d5b27207a1f81a70aa477828ce73e3fe92dbd531a33f263e2364736f6c63430008090033",
					"opcodes": "PUSH1 0x80 PUSH1 0x40 MSTORE CALLVALUE DUP1 ISZERO PUSH2 0x10 JUMPI PUSH1 0x0 DUP1 REVERT JUMPDEST POP CALLER PUSH1 0x0 DUP1 PUSH2 0x100 EXP DUP2 SLOAD DUP2 PUSH20 0xFFFFFFFFFFFFFFFFFFFFFFFFFFFFFFFFFFFFFFFF MUL NOT AND SWAP1 DUP4 PUSH20 0xFFFFFFFFFFFFFFFFFFFFFFFFFFFFFFFFFFFFFFFF AND MUL OR SWAP1 SSTORE POP PUSH2 0xE4B DUP1 PUSH2 0x60 PUSH1 0x0 CODECOPY PUSH1 0x0 RETURN INVALID PUSH1 0x80 PUSH1 0x40 MSTORE CALLVALUE DUP1 ISZERO PUSH2 0x10 JUMPI PUSH1 0x0 DUP1 REVERT JUMPDEST POP PUSH1 0x4 CALLDATASIZE LT PUSH2 0x4C JUMPI PUSH1 0x0 CALLDATALOAD PUSH1 0xE0 SHR DUP1 PUSH4 0x4262A742 EQ PUSH2 0x51 JUMPI DUP1 PUSH4 0x69FE6DE1 EQ PUSH2 0x82 JUMPI DUP1 PUSH4 0x7736CA6F EQ PUSH2 0x9E JUMPI DUP1 PUSH4 0x8C89F6FC EQ PUSH2 0xCE JUMPI JUMPDEST PUSH1 0x0 DUP1 REVERT JUMPDEST PUSH2 0x6B PUSH1 0x4 DUP1 CALLDATASIZE SUB DUP2 ADD SWAP1 PUSH2 0x66 SWAP2 SWAP1 PUSH2 0x8A4 JUMP JUMPDEST PUSH2 0xEA JUMP JUMPDEST PUSH1 0x40 MLOAD PUSH2 0x79 SWAP3 SWAP2 SWAP1 PUSH2 0x990 JUMP JUMPDEST PUSH1 0x40 MLOAD DUP1 SWAP2 SUB SWAP1 RETURN JUMPDEST PUSH2 0x9C PUSH1 0x4 DUP1 CALLDATASIZE SUB DUP2 ADD SWAP1 PUSH2 0x97 SWAP2 SWAP1 PUSH2 0x9F6 JUMP JUMPDEST PUSH2 0x1B9 JUMP JUMPDEST STOP JUMPDEST PUSH2 0xB8 PUSH1 0x4 DUP1 CALLDATASIZE SUB DUP2 ADD SWAP1 PUSH2 0xB3 SWAP2 SWAP1 PUSH2 0xADF JUMP JUMPDEST PUSH2 0x44A JUMP JUMPDEST PUSH1 0x40 MLOAD PUSH2 0xC5 SWAP2 SWAP1 PUSH2 0xB0C JUMP JUMPDEST PUSH1 0x40 MLOAD DUP1 SWAP2 SUB SWAP1 RETURN JUMPDEST PUSH2 0xE8 PUSH1 0x4 DUP1 CALLDATASIZE SUB DUP2 ADD SWAP1 PUSH2 0xE3 SWAP2 SWAP1 PUSH2 0x8A4 JUMP JUMPDEST PUSH2 0x4F6 JUMP JUMPDEST STOP JUMPDEST PUSH1 0x1 DUP2 DUP1 MLOAD PUSH1 0x20 DUP2 ADD DUP3 ADD DUP1 MLOAD DUP5 DUP3 MSTORE PUSH1 0x20 DUP4 ADD PUSH1 0x20 DUP6 ADD KECCAK256 DUP2 DUP4 MSTORE DUP1 SWAP6 POP POP POP POP POP POP PUSH1 0x0 SWAP2 POP SWAP1 POP DUP1 PUSH1 0x0 ADD DUP1 SLOAD PUSH2 0x123 SWAP1 PUSH2 0xB5D JUMP JUMPDEST DUP1 PUSH1 0x1F ADD PUSH1 0x20 DUP1 SWAP2 DIV MUL PUSH1 0x20 ADD PUSH1 0x40 MLOAD SWAP1 DUP2 ADD PUSH1 0x40 MSTORE DUP1 SWAP3 SWAP2 SWAP1 DUP2 DUP2 MSTORE PUSH1 0x20 ADD DUP3 DUP1 SLOAD PUSH2 0x14F SWAP1 PUSH2 0xB5D JUMP JUMPDEST DUP1 ISZERO PUSH2 0x19C JUMPI DUP1 PUSH1 0x1F LT PUSH2 0x171 JUMPI PUSH2 0x100 DUP1 DUP4 SLOAD DIV MUL DUP4 MSTORE SWAP2 PUSH1 0x20 ADD SWAP2 PUSH2 0x19C JUMP JUMPDEST DUP3 ADD SWAP2 SWAP1 PUSH1 0x0 MSTORE PUSH1 0x20 PUSH1 0x0 KECCAK256 SWAP1 JUMPDEST DUP2 SLOAD DUP2 MSTORE SWAP1 PUSH1 0x1 ADD SWAP1 PUSH1 0x20 ADD DUP1 DUP4 GT PUSH2 0x17F JUMPI DUP3 SWAP1 SUB PUSH1 0x1F AND DUP3 ADD SWAP2 JUMPDEST POP POP POP POP POP SWAP1 DUP1 PUSH1 0x3 ADD PUSH1 0x0 SWAP1 SLOAD SWAP1 PUSH2 0x100 EXP SWAP1 DIV PUSH1 0xFF AND SWAP1 POP DUP3 JUMP JUMPDEST PUSH1 0x0 DUP1 SLOAD SWAP1 PUSH2 0x100 EXP SWAP1 DIV PUSH20 0xFFFFFFFFFFFFFFFFFFFFFFFFFFFFFFFFFFFFFFFF AND PUSH20 0xFFFFFFFFFFFFFFFFFFFFFFFFFFFFFFFFFFFFFFFF AND CALLER PUSH20 0xFFFFFFFFFFFFFFFFFFFFFFFFFFFFFFFFFFFFFFFF AND EQ PUSH2 0x247 JUMPI PUSH1 0x40 MLOAD PUSH32 0x8C379A000000000000000000000000000000000000000000000000000000000 DUP2 MSTORE PUSH1 0x4 ADD PUSH2 0x23E SWAP1 PUSH2 0xC12 JUMP JUMPDEST PUSH1 0x40 MLOAD DUP1 SWAP2 SUB SWAP1 REVERT JUMPDEST PUSH1 0x1 DUP2 PUSH1 0x40 MLOAD PUSH2 0x257 SWAP2 SWAP1 PUSH2 0xC6E JUMP JUMPDEST SWAP1 DUP2 MSTORE PUSH1 0x20 ADD PUSH1 0x40 MLOAD DUP1 SWAP2 SUB SWAP1 KECCAK256 PUSH1 0x3 ADD PUSH1 0x0 SWAP1 SLOAD SWAP1 PUSH2 0x100 EXP SWAP1 DIV PUSH1 0xFF AND ISZERO PUSH2 0x2B6 JUMPI PUSH1 0x40 MLOAD PUSH32 0x8C379A000000000000000000000000000000000000000000000000000000000 DUP2 MSTORE PUSH1 0x4 ADD PUSH2 0x2AD SWAP1 PUSH2 0xCF7 JUMP JUMPDEST PUSH1 0x40 MLOAD DUP1 SWAP2 SUB SWAP1 REVERT JUMPDEST DUP5 PUSH1 0x1 DUP3 PUSH1 0x40 MLOAD PUSH2 0x2C7 SWAP2 SWAP1 PUSH2 0xC6E JUMP JUMPDEST SWAP1 DUP2 MSTORE PUSH1 0x20 ADD PUSH1 0x40 MLOAD DUP1 SWAP2 SUB SWAP1 KECCAK256 PUSH1 0x1 ADD PUSH1 0x0 DUP8 DUP2 MSTORE PUSH1 0x20 ADD SWAP1 DUP2 MSTORE PUSH1 0x20 ADD PUSH1 0x0 KECCAK256 PUSH1 0x0 ADD DUP2 SWAP1 SSTORE POP DUP4 PUSH1 0x1 DUP3 PUSH1 0x40 MLOAD PUSH2 0x301 SWAP2 SWAP1 PUSH2 0xC6E JUMP JUMPDEST SWAP1 DUP2 MSTORE PUSH1 0x20 ADD PUSH1 0x40 MLOAD DUP1 SWAP2 SUB SWAP1 KECCAK256 PUSH1 0x1 ADD PUSH1 0x0 DUP8 DUP2 MSTORE PUSH1 0x20 ADD SWAP1 DUP2 MSTORE PUSH1 0x20 ADD PUSH1 0x0 KECCAK256 PUSH1 0x1 ADD DUP2 SWAP1 SSTORE POP DUP3 PUSH1 0x1 DUP3 PUSH1 0x40 MLOAD PUSH2 0x33B SWAP2 SWAP1 PUSH2 0xC6E JUMP JUMPDEST SWAP1 DUP2 MSTORE PUSH1 0x20 ADD PUSH1 0x40 MLOAD DUP1 SWAP2 SUB SWAP1 KECCAK256 PUSH1 0x1 ADD PUSH1 0x0 DUP8 DUP2 MSTORE PUSH1 0x20 ADD SWAP1 DUP2 MSTORE PUSH1 0x20 ADD PUSH1 0x0 KECCAK256 PUSH1 0x2 ADD DUP2 SWAP1 SSTORE POP DUP2 PUSH1 0x1 DUP3 PUSH1 0x40 MLOAD PUSH2 0x375 SWAP2 SWAP1 PUSH2 0xC6E JUMP JUMPDEST SWAP1 DUP2 MSTORE PUSH1 0x20 ADD PUSH1 0x40 MLOAD DUP1 SWAP2 SUB SWAP1 KECCAK256 PUSH1 0x1 ADD PUSH1 0x0 DUP8 DUP2 MSTORE PUSH1 0x20 ADD SWAP1 DUP2 MSTORE PUSH1 0x20 ADD PUSH1 0x0 KECCAK256 PUSH1 0x3 ADD SWAP1 DUP1 MLOAD SWAP1 PUSH1 0x20 ADD SWAP1 PUSH2 0x3AD SWAP3 SWAP2 SWAP1 PUSH2 0x6A7 JUMP JUMPDEST POP PUSH1 0x1 DUP1 DUP3 PUSH1 0x40 MLOAD PUSH2 0x3BF SWAP2 SWAP1 PUSH2 0xC6E JUMP JUMPDEST SWAP1 DUP2 MSTORE PUSH1 0x20 ADD PUSH1 0x40 MLOAD DUP1 SWAP2 SUB SWAP1 KECCAK256 PUSH1 0x1 ADD PUSH1 0x0 DUP8 DUP2 MSTORE PUSH1 0x20 ADD SWAP1 DUP2 MSTORE PUSH1 0x20 ADD PUSH1 0x0 KECCAK256 PUSH1 0x4 ADD PUSH1 0x0 PUSH2 0x100 EXP DUP2 SLOAD DUP2 PUSH1 0xFF MUL NOT AND SWAP1 DUP4 ISZERO ISZERO MUL OR SWAP1 SSTORE POP PUSH1 0x1 DUP2 PUSH1 0x40 MLOAD PUSH2 0x40B SWAP2 SWAP1 PUSH2 0xC6E JUMP JUMPDEST SWAP1 DUP2 MSTORE PUSH1 0x20 ADD PUSH1 0x40 MLOAD DUP1 SWAP2 SUB SWAP1 KECCAK256 PUSH1 0x2 ADD DUP6 SWAP1 DUP1 PUSH1 0x1 DUP2 SLOAD ADD DUP1 DUP3 SSTORE DUP1 SWAP2 POP POP PUSH1 0x1 SWAP1 SUB SWAP1 PUSH1 0x0 MSTORE PUSH1 0x20 PUSH1 0x0 KECCAK256 ADD PUSH1 0x0 SWAP1 SWAP2 SWAP1 SWAP2 SWAP1 SWAP2 POP SSTORE POP POP POP POP POP JUMP JUMPDEST PUSH1 0x2 DUP2 DUP2 SLOAD DUP2 LT PUSH2 0x45A JUMPI PUSH1 0x0 DUP1 REVERT JUMPDEST SWAP1 PUSH1 0x0 MSTORE PUSH1 0x20 PUSH1 0x0 KECCAK256 ADD PUSH1 0x0 SWAP2 POP SWAP1 POP DUP1 SLOAD PUSH2 0x475 SWAP1 PUSH2 0xB5D JUMP JUMPDEST DUP1 PUSH1 0x1F ADD PUSH1 0x20 DUP1 SWAP2 DIV MUL PUSH1 0x20 ADD PUSH1 0x40 MLOAD SWAP1 DUP2 ADD PUSH1 0x40 MSTORE DUP1 SWAP3 SWAP2 SWAP1 DUP2 DUP2 MSTORE PUSH1 0x20 ADD DUP3 DUP1 SLOAD PUSH2 0x4A1 SWAP1 PUSH2 0xB5D JUMP JUMPDEST DUP1 ISZERO PUSH2 0x4EE JUMPI DUP1 PUSH1 0x1F LT PUSH2 0x4C3 JUMPI PUSH2 0x100 DUP1 DUP4 SLOAD DIV MUL DUP4 MSTORE SWAP2 PUSH1 0x20 ADD SWAP2 PUSH2 0x4EE JUMP JUMPDEST DUP3 ADD SWAP2 SWAP1 PUSH1 0x0 MSTORE PUSH1 0x20 PUSH1 0x0 KECCAK256 SWAP1 JUMPDEST DUP2 SLOAD DUP2 MSTORE SWAP1 PUSH1 0x1 ADD SWAP1 PUSH1 0x20 ADD DUP1 DUP4 GT PUSH2 0x4D1 JUMPI DUP3 SWAP1 SUB PUSH1 0x1F AND DUP3 ADD SWAP2 JUMPDEST POP POP POP POP POP DUP2 JUMP JUMPDEST PUSH1 0x0 DUP1 SLOAD SWAP1 PUSH2 0x100 EXP SWAP1 DIV PUSH20 0xFFFFFFFFFFFFFFFFFFFFFFFFFFFFFFFFFFFFFFFF AND PUSH20 0xFFFFFFFFFFFFFFFFFFFFFFFFFFFFFFFFFFFFFFFF AND CALLER PUSH20 0xFFFFFFFFFFFFFFFFFFFFFFFFFFFFFFFFFFFFFFFF AND EQ PUSH2 0x584 JUMPI PUSH1 0x40 MLOAD PUSH32 0x8C379A000000000000000000000000000000000000000000000000000000000 DUP2 MSTORE PUSH1 0x4 ADD PUSH2 0x57B SWAP1 PUSH2 0xD89 JUMP JUMPDEST PUSH1 0x40 MLOAD DUP1 SWAP2 SUB SWAP1 REVERT JUMPDEST PUSH1 0x1 ISZERO ISZERO PUSH1 0x1 DUP3 PUSH1 0x40 MLOAD PUSH2 0x598 SWAP2 SWAP1 PUSH2 0xC6E JUMP JUMPDEST SWAP1 DUP2 MSTORE PUSH1 0x20 ADD PUSH1 0x40 MLOAD DUP1 SWAP2 SUB SWAP1 KECCAK256 PUSH1 0x3 ADD PUSH1 0x0 SWAP1 SLOAD SWAP1 PUSH2 0x100 EXP SWAP1 DIV PUSH1 0xFF AND ISZERO ISZERO EQ PUSH2 0x5F9 JUMPI PUSH1 0x40 MLOAD PUSH32 0x8C379A000000000000000000000000000000000000000000000000000000000 DUP2 MSTORE PUSH1 0x4 ADD PUSH2 0x5F0 SWAP1 PUSH2 0xDF5 JUMP JUMPDEST PUSH1 0x40 MLOAD DUP1 SWAP2 SUB SWAP1 REVERT JUMPDEST DUP1 PUSH1 0x1 DUP3 PUSH1 0x40 MLOAD PUSH2 0x60A SWAP2 SWAP1 PUSH2 0xC6E JUMP JUMPDEST SWAP1 DUP2 MSTORE PUSH1 0x20 ADD PUSH1 0x40 MLOAD DUP1 SWAP2 SUB SWAP1 KECCAK256 PUSH1 0x0 ADD SWAP1 DUP1 MLOAD SWAP1 PUSH1 0x20 ADD SWAP1 PUSH2 0x62E SWAP3 SWAP2 SWAP1 PUSH2 0x6A7 JUMP JUMPDEST POP PUSH1 0x1 DUP1 DUP3 PUSH1 0x40 MLOAD PUSH2 0x640 SWAP2 SWAP1 PUSH2 0xC6E JUMP JUMPDEST SWAP1 DUP2 MSTORE PUSH1 0x20 ADD PUSH1 0x40 MLOAD DUP1 SWAP2 SUB SWAP1 KECCAK256 PUSH1 0x3 ADD PUSH1 0x0 PUSH2 0x100 EXP DUP2 SLOAD DUP2 PUSH1 0xFF MUL NOT AND SWAP1 DUP4 ISZERO ISZERO MUL OR SWAP1 SSTORE POP PUSH1 0x2 DUP2 SWAP1 DUP1 PUSH1 0x1 DUP2 SLOAD ADD DUP1 DUP3 SSTORE DUP1 SWAP2 POP POP PUSH1 0x1 SWAP1 SUB SWAP1 PUSH1 0x0 MSTORE PUSH1 0x20 PUSH1 0x0 KECCAK256 ADD PUSH1 0x0 SWAP1 SWAP2 SWAP1 SWAP2 SWAP1 SWAP2 POP SWAP1 DUP1 MLOAD SWAP1 PUSH1 0x20 ADD SWAP1 PUSH2 0x6A3 SWAP3 SWAP2 SWAP1 PUSH2 0x6A7 JUMP JUMPDEST POP POP JUMP JUMPDEST DUP3 DUP1 SLOAD PUSH2 0x6B3 SWAP1 PUSH2 0xB5D JUMP JUMPDEST SWAP1 PUSH1 0x0 MSTORE PUSH1 0x20 PUSH1 0x0 KECCAK256 SWAP1 PUSH1 0x1F ADD PUSH1 0x20 SWAP1 DIV DUP2 ADD SWAP3 DUP3 PUSH2 0x6D5 JUMPI PUSH1 0x0 DUP6 SSTORE PUSH2 0x71C JUMP JUMPDEST DUP3 PUSH1 0x1F LT PUSH2 0x6EE JUMPI DUP1 MLOAD PUSH1 0xFF NOT AND DUP4 DUP1 ADD OR DUP6 SSTORE PUSH2 0x71C JUMP JUMPDEST DUP3 DUP1 ADD PUSH1 0x1 ADD DUP6 SSTORE DUP3 ISZERO PUSH2 0x71C JUMPI SWAP2 DUP3 ADD JUMPDEST DUP3 DUP2 GT ISZERO PUSH2 0x71B JUMPI DUP3 MLOAD DUP3 SSTORE SWAP2 PUSH1 0x20 ADD SWAP2 SWAP1 PUSH1 0x1 ADD SWAP1 PUSH2 0x700 JUMP JUMPDEST JUMPDEST POP SWAP1 POP PUSH2 0x729 SWAP2 SWAP1 PUSH2 0x72D JUMP JUMPDEST POP SWAP1 JUMP JUMPDEST JUMPDEST DUP1 DUP3 GT ISZERO PUSH2 0x746 JUMPI PUSH1 0x0 DUP2 PUSH1 0x0 SWAP1 SSTORE POP PUSH1 0x1 ADD PUSH2 0x72E JUMP JUMPDEST POP SWAP1 JUMP JUMPDEST PUSH1 0x0 PUSH1 0x40 MLOAD SWAP1 POP SWAP1 JUMP JUMPDEST PUSH1 0x0 DUP1 REVERT JUMPDEST PUSH1 0x0 DUP1 REVERT JUMPDEST PUSH1 0x0 DUP1 REVERT JUMPDEST PUSH1 0x0 DUP1 REVERT JUMPDEST PUSH1 0x0 PUSH1 0x1F NOT PUSH1 0x1F DUP4 ADD AND SWAP1 POP SWAP2 SWAP1 POP JUMP JUMPDEST PUSH32 0x4E487B7100000000000000000000000000000000000000000000000000000000 PUSH1 0x0 MSTORE PUSH1 0x41 PUSH1 0x4 MSTORE PUSH1 0x24 PUSH1 0x0 REVERT JUMPDEST PUSH2 0x7B1 DUP3 PUSH2 0x768 JUMP JUMPDEST DUP2 ADD DUP2 DUP2 LT PUSH8 0xFFFFFFFFFFFFFFFF DUP3 GT OR ISZERO PUSH2 0x7D0 JUMPI PUSH2 0x7CF PUSH2 0x779 JUMP JUMPDEST JUMPDEST DUP1 PUSH1 0x40 MSTORE POP POP POP JUMP JUMPDEST PUSH1 0x0 PUSH2 0x7E3 PUSH2 0x74A JUMP JUMPDEST SWAP1 POP PUSH2 0x7EF DUP3 DUP3 PUSH2 0x7A8 JUMP JUMPDEST SWAP2 SWAP1 POP JUMP JUMPDEST PUSH1 0x0 PUSH8 0xFFFFFFFFFFFFFFFF DUP3 GT ISZERO PUSH2 0x80F JUMPI PUSH2 0x80E PUSH2 0x779 JUMP JUMPDEST JUMPDEST PUSH2 0x818 DUP3 PUSH2 0x768 JUMP JUMPDEST SWAP1 POP PUSH1 0x20 DUP2 ADD SWAP1 POP SWAP2 SWAP1 POP JUMP JUMPDEST DUP3 DUP2 DUP4 CALLDATACOPY PUSH1 0x0 DUP4 DUP4 ADD MSTORE POP POP POP JUMP JUMPDEST PUSH1 0x0 PUSH2 0x847 PUSH2 0x842 DUP5 PUSH2 0x7F4 JUMP JUMPDEST PUSH2 0x7D9 JUMP JUMPDEST SWAP1 POP DUP3 DUP2 MSTORE PUSH1 0x20 DUP2 ADD DUP5 DUP5 DUP5 ADD GT ISZERO PUSH2 0x863 JUMPI PUSH2 0x862 PUSH2 0x763 JUMP JUMPDEST JUMPDEST PUSH2 0x86E DUP5 DUP3 DUP6 PUSH2 0x825 JUMP JUMPDEST POP SWAP4 SWAP3 POP POP POP JUMP JUMPDEST PUSH1 0x0 DUP3 PUSH1 0x1F DUP4 ADD SLT PUSH2 0x88B JUMPI PUSH2 0x88A PUSH2 0x75E JUMP JUMPDEST JUMPDEST DUP2 CALLDATALOAD PUSH2 0x89B DUP5 DUP3 PUSH1 0x20 DUP7 ADD PUSH2 0x834 JUMP JUMPDEST SWAP2 POP POP SWAP3 SWAP2 POP POP JUMP JUMPDEST PUSH1 0x0 PUSH1 0x20 DUP3 DUP5 SUB SLT ISZERO PUSH2 0x8BA JUMPI PUSH2 0x8B9 PUSH2 0x754 JUMP JUMPDEST JUMPDEST PUSH1 0x0 DUP3 ADD CALLDATALOAD PUSH8 0xFFFFFFFFFFFFFFFF DUP2 GT ISZERO PUSH2 0x8D8 JUMPI PUSH2 0x8D7 PUSH2 0x759 JUMP JUMPDEST JUMPDEST PUSH2 0x8E4 DUP5 DUP3 DUP6 ADD PUSH2 0x876 JUMP JUMPDEST SWAP2 POP POP SWAP3 SWAP2 POP POP JUMP JUMPDEST PUSH1 0x0 DUP2 MLOAD SWAP1 POP SWAP2 SWAP1 POP JUMP JUMPDEST PUSH1 0x0 DUP3 DUP3 MSTORE PUSH1 0x20 DUP3 ADD SWAP1 POP SWAP3 SWAP2 POP POP JUMP JUMPDEST PUSH1 0x0 JUMPDEST DUP4 DUP2 LT ISZERO PUSH2 0x927 JUMPI DUP1 DUP3 ADD MLOAD DUP2 DUP5 ADD MSTORE PUSH1 0x20 DUP2 ADD SWAP1 POP PUSH2 0x90C JUMP JUMPDEST DUP4 DUP2 GT ISZERO PUSH2 0x936 JUMPI PUSH1 0x0 DUP5 DUP5 ADD MSTORE JUMPDEST POP POP POP POP JUMP JUMPDEST PUSH1 0x0 PUSH2 0x947 DUP3 PUSH2 0x8ED JUMP JUMPDEST PUSH2 0x951 DUP2 DUP6 PUSH2 0x8F8 JUMP JUMPDEST SWAP4 POP PUSH2 0x961 DUP2 DUP6 PUSH1 0x20 DUP7 ADD PUSH2 0x909 JUMP JUMPDEST PUSH2 0x96A DUP2 PUSH2 0x768 JUMP JUMPDEST DUP5 ADD SWAP2 POP POP SWAP3 SWAP2 POP POP JUMP JUMPDEST PUSH1 0x0 DUP2 ISZERO ISZERO SWAP1 POP SWAP2 SWAP1 POP JUMP JUMPDEST PUSH2 0x98A DUP2 PUSH2 0x975 JUMP JUMPDEST DUP3 MSTORE POP POP JUMP JUMPDEST PUSH1 0x0 PUSH1 0x40 DUP3 ADD SWAP1 POP DUP2 DUP2 SUB PUSH1 0x0 DUP4 ADD MSTORE PUSH2 0x9AA DUP2 DUP6 PUSH2 0x93C JUMP JUMPDEST SWAP1 POP PUSH2 0x9B9 PUSH1 0x20 DUP4 ADD DUP5 PUSH2 0x981 JUMP JUMPDEST SWAP4 SWAP3 POP POP POP JUMP JUMPDEST PUSH1 0x0 DUP2 SWAP1 POP SWAP2 SWAP1 POP JUMP JUMPDEST PUSH2 0x9D3 DUP2 PUSH2 0x9C0 JUMP JUMPDEST DUP2 EQ PUSH2 0x9DE JUMPI PUSH1 0x0 DUP1 REVERT JUMPDEST POP JUMP JUMPDEST PUSH1 0x0 DUP2 CALLDATALOAD SWAP1 POP PUSH2 0x9F0 DUP2 PUSH2 0x9CA JUMP JUMPDEST SWAP3 SWAP2 POP POP JUMP JUMPDEST PUSH1 0x0 DUP1 PUSH1 0x0 DUP1 PUSH1 0x0 PUSH1 0xA0 DUP7 DUP9 SUB SLT ISZERO PUSH2 0xA12 JUMPI PUSH2 0xA11 PUSH2 0x754 JUMP JUMPDEST JUMPDEST PUSH1 0x0 PUSH2 0xA20 DUP9 DUP3 DUP10 ADD PUSH2 0x9E1 JUMP JUMPDEST SWAP6 POP POP PUSH1 0x20 PUSH2 0xA31 DUP9 DUP3 DUP10 ADD PUSH2 0x9E1 JUMP JUMPDEST SWAP5 POP POP PUSH1 0x40 PUSH2 0xA42 DUP9 DUP3 DUP10 ADD PUSH2 0x9E1 JUMP JUMPDEST SWAP4 POP POP PUSH1 0x60 DUP7 ADD CALLDATALOAD PUSH8 0xFFFFFFFFFFFFFFFF DUP2 GT ISZERO PUSH2 0xA63 JUMPI PUSH2 0xA62 PUSH2 0x759 JUMP JUMPDEST JUMPDEST PUSH2 0xA6F DUP9 DUP3 DUP10 ADD PUSH2 0x876 JUMP JUMPDEST SWAP3 POP POP PUSH1 0x80 DUP7 ADD CALLDATALOAD PUSH8 0xFFFFFFFFFFFFFFFF DUP2 GT ISZERO PUSH2 0xA90 JUMPI PUSH2 0xA8F PUSH2 0x759 JUMP JUMPDEST JUMPDEST PUSH2 0xA9C DUP9 DUP3 DUP10 ADD PUSH2 0x876 JUMP JUMPDEST SWAP2 POP POP SWAP3 SWAP6 POP SWAP3 SWAP6 SWAP1 SWAP4 POP JUMP JUMPDEST PUSH1 0x0 DUP2 SWAP1 POP SWAP2 SWAP1 POP JUMP JUMPDEST PUSH2 0xABC DUP2 PUSH2 0xAA9 JUMP JUMPDEST DUP2 EQ PUSH2 0xAC7 JUMPI PUSH1 0x0 DUP1 REVERT JUMPDEST POP JUMP JUMPDEST PUSH1 0x0 DUP2 CALLDATALOAD SWAP1 POP PUSH2 0xAD9 DUP2 PUSH2 0xAB3 JUMP JUMPDEST SWAP3 SWAP2 POP POP JUMP JUMPDEST PUSH1 0x0 PUSH1 0x20 DUP3 DUP5 SUB SLT ISZERO PUSH2 0xAF5 JUMPI PUSH2 0xAF4 PUSH2 0x754 JUMP JUMPDEST JUMPDEST PUSH1 0x0 PUSH2 0xB03 DUP5 DUP3 DUP6 ADD PUSH2 0xACA JUMP JUMPDEST SWAP2 POP POP SWAP3 SWAP2 POP POP JUMP JUMPDEST PUSH1 0x0 PUSH1 0x20 DUP3 ADD SWAP1 POP DUP2 DUP2 SUB PUSH1 0x0 DUP4 ADD MSTORE PUSH2 0xB26 DUP2 DUP5 PUSH2 0x93C JUMP JUMPDEST SWAP1 POP SWAP3 SWAP2 POP POP JUMP JUMPDEST PUSH32 0x4E487B7100000000000000000000000000000000000000000000000000000000 PUSH1 0x0 MSTORE PUSH1 0x22 PUSH1 0x4 MSTORE PUSH1 0x24 PUSH1 0x0 REVERT JUMPDEST PUSH1 0x0 PUSH1 0x2 DUP3 DIV SWAP1 POP PUSH1 0x1 DUP3 AND DUP1 PUSH2 0xB75 JUMPI PUSH1 0x7F DUP3 AND SWAP2 POP JUMPDEST PUSH1 0x20 DUP3 LT DUP2 EQ ISZERO PUSH2 0xB89 JUMPI PUSH2 0xB88 PUSH2 0xB2E JUMP JUMPDEST JUMPDEST POP SWAP2 SWAP1 POP JUMP JUMPDEST PUSH1 0x0 DUP3 DUP3 MSTORE PUSH1 0x20 DUP3 ADD SWAP1 POP SWAP3 SWAP2 POP POP JUMP JUMPDEST PUSH32 0x4F6E6C7920636F6E74726163742773206F776E65722063616E20616464206461 PUSH1 0x0 DUP3 ADD MSTORE PUSH32 0x7461000000000000000000000000000000000000000000000000000000000000 PUSH1 0x20 DUP3 ADD MSTORE POP JUMP JUMPDEST PUSH1 0x0 PUSH2 0xBFC PUSH1 0x22 DUP4 PUSH2 0xB8F JUMP JUMPDEST SWAP2 POP PUSH2 0xC07 DUP3 PUSH2 0xBA0 JUMP JUMPDEST PUSH1 0x40 DUP3 ADD SWAP1 POP SWAP2 SWAP1 POP JUMP JUMPDEST PUSH1 0x0 PUSH1 0x20 DUP3 ADD SWAP1 POP DUP2 DUP2 SUB PUSH1 0x0 DUP4 ADD MSTORE PUSH2 0xC2B DUP2 PUSH2 0xBEF JUMP JUMPDEST SWAP1 POP SWAP2 SWAP1 POP JUMP JUMPDEST PUSH1 0x0 DUP2 SWAP1 POP SWAP3 SWAP2 POP POP JUMP JUMPDEST PUSH1 0x0 PUSH2 0xC48 DUP3 PUSH2 0x8ED JUMP JUMPDEST PUSH2 0xC52 DUP2 DUP6 PUSH2 0xC32 JUMP JUMPDEST SWAP4 POP PUSH2 0xC62 DUP2 DUP6 PUSH1 0x20 DUP7 ADD PUSH2 0x909 JUMP JUMPDEST DUP1 DUP5 ADD SWAP2 POP POP SWAP3 SWAP2 POP POP JUMP JUMPDEST PUSH1 0x0 PUSH2 0xC7A DUP3 DUP5 PUSH2 0xC3D JUMP JUMPDEST SWAP2 POP DUP2 SWAP1 POP SWAP3 SWAP2 POP POP JUMP JUMPDEST PUSH32 0x412073656E736F722077617320616C7265616479207265676973747265642077 PUSH1 0x0 DUP3 ADD MSTORE PUSH32 0x697468207468652073616D65207075626C6963206B6579000000000000000000 PUSH1 0x20 DUP3 ADD MSTORE POP JUMP JUMPDEST PUSH1 0x0 PUSH2 0xCE1 PUSH1 0x37 DUP4 PUSH2 0xB8F JUMP JUMPDEST SWAP2 POP PUSH2 0xCEC DUP3 PUSH2 0xC85 JUMP JUMPDEST PUSH1 0x40 DUP3 ADD SWAP1 POP SWAP2 SWAP1 POP JUMP JUMPDEST PUSH1 0x0 PUSH1 0x20 DUP3 ADD SWAP1 POP DUP2 DUP2 SUB PUSH1 0x0 DUP4 ADD MSTORE PUSH2 0xD10 DUP2 PUSH2 0xCD4 JUMP JUMPDEST SWAP1 POP SWAP2 SWAP1 POP JUMP JUMPDEST PUSH32 0x4F6E6C7920636F6E74726163742773206F776E65722063616E20616464206120 PUSH1 0x0 DUP3 ADD MSTORE PUSH32 0x73656E736F720000000000000000000000000000000000000000000000000000 PUSH1 0x20 DUP3 ADD MSTORE POP JUMP JUMPDEST PUSH1 0x0 PUSH2 0xD73 PUSH1 0x26 DUP4 PUSH2 0xB8F JUMP JUMPDEST SWAP2 POP PUSH2 0xD7E DUP3 PUSH2 0xD17 JUMP JUMPDEST PUSH1 0x40 DUP3 ADD SWAP1 POP SWAP2 SWAP1 POP JUMP JUMPDEST PUSH1 0x0 PUSH1 0x20 DUP3 ADD SWAP1 POP DUP2 DUP2 SUB PUSH1 0x0 DUP4 ADD MSTORE PUSH2 0xDA2 DUP2 PUSH2 0xD66 JUMP JUMPDEST SWAP1 POP SWAP2 SWAP1 POP JUMP JUMPDEST PUSH32 0x53656E736F722068617320616C72656164792061646465640000000000000000 PUSH1 0x0 DUP3 ADD MSTORE POP JUMP JUMPDEST PUSH1 0x0 PUSH2 0xDDF PUSH1 0x18 DUP4 PUSH2 0xB8F JUMP JUMPDEST SWAP2 POP PUSH2 0xDEA DUP3 PUSH2 0xDA9 JUMP JUMPDEST PUSH1 0x20 DUP3 ADD SWAP1 POP SWAP2 SWAP1 POP JUMP JUMPDEST PUSH1 0x0 PUSH1 0x20 DUP3 ADD SWAP1 POP DUP2 DUP2 SUB PUSH1 0x0 DUP4 ADD MSTORE PUSH2 0xE0E DUP2 PUSH2 0xDD2 JUMP JUMPDEST SWAP1 POP SWAP2 SWAP1 POP JUMP INVALID LOG2 PUSH5 0x6970667358 0x22 SLT KECCAK256 MUL 0x2D 0xB3 0x24 0xF9 0xC0 SWAP8 0xD5 0xB2 PUSH19 0x7A1F81A70AA477828CE73E3FE92DBD531A33F 0x26 RETURNDATACOPY 0x23 PUSH5 0x736F6C6343 STOP ADDMOD MULMOD STOP CALLER "
				},
				"gasEstimates": {
					"creation": {
						"codeDepositCost": "731800",
						"executionCost": "25032",
						"totalCost": "756832"
					},
					"external": {
						"Devices(bytes)": "infinite",
						"SensorDeviceList(uint256)": "infinite",
						"newData(bytes32,bytes32,bytes32,bytes,bytes)": "infinite",
						"newSensor(bytes)": "infinite"
					}
				},
				"methodIdentifiers": {
					"Devices(bytes)": "4262a742",
					"SensorDeviceList(uint256)": "7736ca6f",
					"newData(bytes32,bytes32,bytes32,bytes,bytes)": "69fe6de1",
					"newSensor(bytes)": "8c89f6fc"
				}
			},
			"storageLayout": {
				"storage": [
					{
						"astId": 3,
						"contract": "StorageContract.sol:StorageContract",
						"label": "owner",
						"offset": 0,
						"slot": "0",
						"type": "t_address_payable"
					},
					{
						"astId": 32,
						"contract": "StorageContract.sol:StorageContract",
						"label": "Devices",
						"offset": 0,
						"slot": "1",
						"type": "t_mapping(t_bytes_memory_ptr,t_struct(SensorDevice)27_storage)"
					},
					{
						"astId": 35,
						"contract": "StorageContract.sol:StorageContract",
						"label": "SensorDeviceList",
						"offset": 0,
						"slot": "2",
						"type": "t_array(t_bytes_storage)dyn_storage"
					}
				],
				"types": {
					"t_address_payable": {
						"encoding": "inplace",
						"label": "address payable",
						"numberOfBytes": "20"
					},
					"t_array(t_bytes32)dyn_storage": {
						"base": "t_bytes32",
						"encoding": "dynamic_array",
						"label": "bytes32[]",
						"numberOfBytes": "32"
					},
					"t_array(t_bytes_storage)dyn_storage": {
						"base": "t_bytes_storage",
						"encoding": "dynamic_array",
						"label": "bytes[]",
						"numberOfBytes": "32"
					},
					"t_bool": {
						"encoding": "inplace",
						"label": "bool",
						"numberOfBytes": "1"
					},
					"t_bytes32": {
						"encoding": "inplace",
						"label": "bytes32",
						"numberOfBytes": "32"
					},
					"t_bytes_memory_ptr": {
						"encoding": "bytes",
						"label": "bytes",
						"numberOfBytes": "32"
					},
					"t_bytes_storage": {
						"encoding": "bytes",
						"label": "bytes",
						"numberOfBytes": "32"
					},
					"t_mapping(t_bytes32,t_struct(SensorData)14_storage)": {
						"encoding": "mapping",
						"key": "t_bytes32",
						"label": "mapping(bytes32 => struct StorageContract.SensorData)",
						"numberOfBytes": "32",
						"value": "t_struct(SensorData)14_storage"
					},
					"t_mapping(t_bytes_memory_ptr,t_struct(SensorDevice)27_storage)": {
						"encoding": "mapping",
						"key": "t_bytes_memory_ptr",
						"label": "mapping(bytes => struct StorageContract.SensorDevice)",
						"numberOfBytes": "32",
						"value": "t_struct(SensorDevice)27_storage"
					},
					"t_struct(SensorData)14_storage": {
						"encoding": "inplace",
						"label": "struct StorageContract.SensorData",
						"members": [
							{
								"astId": 5,
								"contract": "StorageContract.sol:StorageContract",
								"label": "cid",
								"offset": 0,
								"slot": "0",
								"type": "t_bytes32"
							},
							{
								"astId": 7,
								"contract": "StorageContract.sol:StorageContract",
								"label": "url",
								"offset": 0,
								"slot": "1",
								"type": "t_bytes32"
							},
							{
								"astId": 9,
								"contract": "StorageContract.sol:StorageContract",
								"label": "timestamp",
								"offset": 0,
								"slot": "2",
								"type": "t_bytes32"
							},
							{
								"astId": 11,
								"contract": "StorageContract.sol:StorageContract",
								"label": "signature",
								"offset": 0,
								"slot": "3",
								"type": "t_bytes_storage"
							},
							{
								"astId": 13,
								"contract": "StorageContract.sol:StorageContract",
								"label": "created",
								"offset": 0,
								"slot": "4",
								"type": "t_bool"
							}
						],
						"numberOfBytes": "160"
					},
					"t_struct(SensorDevice)27_storage": {
						"encoding": "inplace",
						"label": "struct StorageContract.SensorDevice",
						"members": [
							{
								"astId": 16,
								"contract": "StorageContract.sol:StorageContract",
								"label": "public_key",
								"offset": 0,
								"slot": "0",
								"type": "t_bytes_storage"
							},
							{
								"astId": 21,
								"contract": "StorageContract.sol:StorageContract",
								"label": "Data",
								"offset": 0,
								"slot": "1",
								"type": "t_mapping(t_bytes32,t_struct(SensorData)14_storage)"
							},
							{
								"astId": 24,
								"contract": "StorageContract.sol:StorageContract",
								"label": "SensorDataList",
								"offset": 0,
								"slot": "2",
								"type": "t_array(t_bytes32)dyn_storage"
							},
							{
								"astId": 26,
								"contract": "StorageContract.sol:StorageContract",
								"label": "created",
								"offset": 0,
								"slot": "3",
								"type": "t_bool"
							}
						],
						"numberOfBytes": "128"
					}
				}
			},
			"userdoc": {
				"kind": "user",
				"methods": {},
				"version": 1
			}
		}
	}
}