{
  "contractName": "LoraCoin",
  "abi": [
    {
      "inputs": [],
      "stateMutability": "nonpayable",
      "type": "constructor"
    },
    {
      "anonymous": false,
      "inputs": [
        {
          "indexed": true,
          "internalType": "address",
          "name": "owner",
          "type": "address"
        },
        {
          "indexed": true,
          "internalType": "address",
          "name": "spender",
          "type": "address"
        },
        {
          "indexed": false,
          "internalType": "uint256",
          "name": "value",
          "type": "uint256"
        }
      ],
      "name": "Approval",
      "type": "event"
    },
    {
      "anonymous": false,
      "inputs": [
        {
          "indexed": true,
          "internalType": "address",
          "name": "from",
          "type": "address"
        },
        {
          "indexed": true,
          "internalType": "address",
          "name": "to",
          "type": "address"
        },
        {
          "indexed": false,
          "internalType": "uint256",
          "name": "value",
          "type": "uint256"
        }
      ],
      "name": "Transfer",
      "type": "event"
    },
    {
      "inputs": [
        {
          "internalType": "address",
          "name": "owner",
          "type": "address"
        },
        {
          "internalType": "address",
          "name": "spender",
          "type": "address"
        }
      ],
      "name": "allowance",
      "outputs": [
        {
          "internalType": "uint256",
          "name": "",
          "type": "uint256"
        }
      ],
      "stateMutability": "view",
      "type": "function"
    },
    {
      "inputs": [
        {
          "internalType": "address",
          "name": "spender",
          "type": "address"
        },
        {
          "internalType": "uint256",
          "name": "amount",
          "type": "uint256"
        }
      ],
      "name": "approve",
      "outputs": [
        {
          "internalType": "bool",
          "name": "",
          "type": "bool"
        }
      ],
      "stateMutability": "nonpayable",
      "type": "function"
    },
    {
      "inputs": [
        {
          "internalType": "address",
          "name": "account",
          "type": "address"
        }
      ],
      "name": "balanceOf",
      "outputs": [
        {
          "internalType": "uint256",
          "name": "",
          "type": "uint256"
        }
      ],
      "stateMutability": "view",
      "type": "function"
    },
    {
      "inputs": [],
      "name": "decimals",
      "outputs": [
        {
          "internalType": "uint8",
          "name": "",
          "type": "uint8"
        }
      ],
      "stateMutability": "view",
      "type": "function"
    },
    {
      "inputs": [
        {
          "internalType": "address",
          "name": "spender",
          "type": "address"
        },
        {
          "internalType": "uint256",
          "name": "subtractedValue",
          "type": "uint256"
        }
      ],
      "name": "decreaseAllowance",
      "outputs": [
        {
          "internalType": "bool",
          "name": "",
          "type": "bool"
        }
      ],
      "stateMutability": "nonpayable",
      "type": "function"
    },
    {
      "inputs": [
        {
          "internalType": "address",
          "name": "",
          "type": "address"
        }
      ],
      "name": "devices",
      "outputs": [
        {
          "internalType": "address",
          "name": "owner",
          "type": "address"
        },
        {
          "internalType": "uint8",
          "name": "v",
          "type": "uint8"
        },
        {
          "internalType": "bytes32",
          "name": "r",
          "type": "bytes32"
        },
        {
          "internalType": "bytes32",
          "name": "s",
          "type": "bytes32"
        },
        {
          "internalType": "bool",
          "name": "created",
          "type": "bool"
        }
      ],
      "stateMutability": "view",
      "type": "function"
    },
    {
      "inputs": [
        {
          "internalType": "address",
          "name": "",
          "type": "address"
        },
        {
          "internalType": "uint256",
          "name": "",
          "type": "uint256"
        }
      ],
      "name": "devicesByOwners",
      "outputs": [
        {
          "internalType": "address",
          "name": "",
          "type": "address"
        }
      ],
      "stateMutability": "view",
      "type": "function"
    },
    {
      "inputs": [],
      "name": "ethNeededToRegisterNode",
      "outputs": [
        {
          "internalType": "uint256",
          "name": "",
          "type": "uint256"
        }
      ],
      "stateMutability": "view",
      "type": "function"
    },
    {
      "inputs": [
        {
          "internalType": "address",
          "name": "spender",
          "type": "address"
        },
        {
          "internalType": "uint256",
          "name": "addedValue",
          "type": "uint256"
        }
      ],
      "name": "increaseAllowance",
      "outputs": [
        {
          "internalType": "bool",
          "name": "",
          "type": "bool"
        }
      ],
      "stateMutability": "nonpayable",
      "type": "function"
    },
    {
      "inputs": [],
      "name": "name",
      "outputs": [
        {
          "internalType": "string",
          "name": "",
          "type": "string"
        }
      ],
      "stateMutability": "view",
      "type": "function"
    },
    {
      "inputs": [],
      "name": "registerReward",
      "outputs": [
        {
          "internalType": "uint256",
          "name": "",
          "type": "uint256"
        }
      ],
      "stateMutability": "view",
      "type": "function"
    },
    {
      "inputs": [],
      "name": "root",
      "outputs": [
        {
          "internalType": "address",
          "name": "",
          "type": "address"
        }
      ],
      "stateMutability": "view",
      "type": "function"
    },
    {
      "inputs": [],
      "name": "sentReward",
      "outputs": [
        {
          "internalType": "uint256",
          "name": "",
          "type": "uint256"
        }
      ],
      "stateMutability": "view",
      "type": "function"
    },
    {
      "inputs": [],
      "name": "symbol",
      "outputs": [
        {
          "internalType": "string",
          "name": "",
          "type": "string"
        }
      ],
      "stateMutability": "view",
      "type": "function"
    },
    {
      "inputs": [],
      "name": "tokenAmountCreate",
      "outputs": [
        {
          "internalType": "uint256",
          "name": "",
          "type": "uint256"
        }
      ],
      "stateMutability": "view",
      "type": "function"
    },
    {
      "inputs": [],
      "name": "totalSupply",
      "outputs": [
        {
          "internalType": "uint256",
          "name": "",
          "type": "uint256"
        }
      ],
      "stateMutability": "view",
      "type": "function"
    },
    {
      "inputs": [
        {
          "internalType": "address",
          "name": "to",
          "type": "address"
        },
        {
          "internalType": "uint256",
          "name": "amount",
          "type": "uint256"
        }
      ],
      "name": "transfer",
      "outputs": [
        {
          "internalType": "bool",
          "name": "",
          "type": "bool"
        }
      ],
      "stateMutability": "nonpayable",
      "type": "function"
    },
    {
      "inputs": [
        {
          "internalType": "address",
          "name": "from",
          "type": "address"
        },
        {
          "internalType": "address",
          "name": "to",
          "type": "address"
        },
        {
          "internalType": "uint256",
          "name": "amount",
          "type": "uint256"
        }
      ],
      "name": "transferFrom",
      "outputs": [
        {
          "internalType": "bool",
          "name": "",
          "type": "bool"
        }
      ],
      "stateMutability": "nonpayable",
      "type": "function"
    },
    {
      "inputs": [],
      "name": "getOwner",
      "outputs": [
        {
          "internalType": "address",
          "name": "",
          "type": "address"
        }
      ],
      "stateMutability": "view",
      "type": "function"
    },
    {
      "inputs": [
        {
          "internalType": "address",
          "name": "_address",
          "type": "address"
        }
      ],
      "name": "hello",
      "outputs": [
        {
          "internalType": "bool",
          "name": "",
          "type": "bool"
        }
      ],
      "stateMutability": "view",
      "type": "function"
    },
    {
      "inputs": [],
      "name": "mint",
      "outputs": [
        {
          "internalType": "bool",
          "name": "",
          "type": "bool"
        }
      ],
      "stateMutability": "nonpayable",
      "type": "function"
    },
    {
      "inputs": [
        {
          "internalType": "address",
          "name": "_address",
          "type": "address"
        },
        {
          "internalType": "uint8",
          "name": "_v",
          "type": "uint8"
        },
        {
          "internalType": "bytes32",
          "name": "_r",
          "type": "bytes32"
        },
        {
          "internalType": "bytes32",
          "name": "_s",
          "type": "bytes32"
        }
      ],
      "name": "createDevice",
      "outputs": [
        {
          "internalType": "bool",
          "name": "",
          "type": "bool"
        }
      ],
      "stateMutability": "nonpayable",
      "type": "function"
    },
    {
      "inputs": [],
      "name": "getDevices",
      "outputs": [
        {
          "internalType": "address[]",
          "name": "",
          "type": "address[]"
        }
      ],
      "stateMutability": "view",
      "type": "function"
    },
    {
      "inputs": [
        {
          "internalType": "bytes",
          "name": "data",
          "type": "bytes"
        }
      ],
      "name": "sendTransaction",
      "outputs": [
        {
          "internalType": "bool",
          "name": "",
          "type": "bool"
        }
      ],
      "stateMutability": "nonpayable",
      "type": "function"
    },
    {
      "inputs": [
        {
          "internalType": "address",
          "name": "_sensorAddress",
          "type": "address"
        },
        {
          "internalType": "bytes32",
          "name": "transactionHash",
          "type": "bytes32"
        }
      ],
      "name": "registerTransaction",
      "outputs": [
        {
          "internalType": "bool",
          "name": "",
          "type": "bool"
        }
      ],
      "stateMutability": "nonpayable",
      "type": "function"
    },
    {
      "inputs": [
        {
          "internalType": "address",
          "name": "_address",
          "type": "address"
        },
        {
          "internalType": "uint8",
          "name": "v",
          "type": "uint8"
        },
        {
          "internalType": "bytes32",
          "name": "r",
          "type": "bytes32"
        },
        {
          "internalType": "bytes32",
          "name": "s",
          "type": "bytes32"
        }
      ],
      "name": "registerDevice",
      "outputs": [
        {
          "internalType": "bool",
          "name": "",
          "type": "bool"
        }
      ],
      "stateMutability": "nonpayable",
      "type": "function"
    }
  ],
  "bytecode": "0x60806040523480156200001157600080fd5b506040518060400160405280600881526020017f4c6f7261436f696e0000000000000000000000000000000000000000000000008152506040518060400160405280600581526020017f4c6f52614300000000000000000000000000000000000000000000000000000081525081600390816200008f91906200052c565b508060049081620000a191906200052c565b50505033600560006101000a81548173ffffffffffffffffffffffffffffffffffffffff021916908373ffffffffffffffffffffffffffffffffffffffff16021790555060006103e890506200012b33620001016200013260201b60201c565b60ff16600a62000112919062000796565b836200011f9190620007e7565b6200013b60201b60201c565b5062000934565b60006012905090565b600073ffffffffffffffffffffffffffffffffffffffff168273ffffffffffffffffffffffffffffffffffffffff1603620001ad576040517f08c379a0000000000000000000000000000000000000000000000000000000008152600401620001a490620008a9565b60405180910390fd5b620001c160008383620002a860201b60201c565b8060026000828254620001d59190620008cb565b92505081905550806000808473ffffffffffffffffffffffffffffffffffffffff1673ffffffffffffffffffffffffffffffffffffffff168152602001908152602001600020600082825401925050819055508173ffffffffffffffffffffffffffffffffffffffff16600073ffffffffffffffffffffffffffffffffffffffff167fddf252ad1be2c89b69c2b068fc378daa952ba7f163c4a11628f55a4df523b3ef8360405162000288919062000917565b60405180910390a3620002a460008383620002ad60201b60201c565b5050565b505050565b505050565b600081519050919050565b7f4e487b7100000000000000000000000000000000000000000000000000000000600052604160045260246000fd5b7f4e487b7100000000000000000000000000000000000000000000000000000000600052602260045260246000fd5b600060028204905060018216806200033457607f821691505b6020821081036200034a5762000349620002ec565b5b50919050565b60008190508160005260206000209050919050565b60006020601f8301049050919050565b600082821b905092915050565b600060088302620003b47fffffffffffffffffffffffffffffffffffffffffffffffffffffffffffffffff8262000375565b620003c0868362000375565b95508019841693508086168417925050509392505050565b6000819050919050565b6000819050919050565b60006200040d620004076200040184620003d8565b620003e2565b620003d8565b9050919050565b6000819050919050565b6200042983620003ec565b62000441620004388262000414565b84845462000382565b825550505050565b600090565b6200045862000449565b620004658184846200041e565b505050565b5b818110156200048d57620004816000826200044e565b6001810190506200046b565b5050565b601f821115620004dc57620004a68162000350565b620004b18462000365565b81016020851015620004c1578190505b620004d9620004d08562000365565b8301826200046a565b50505b505050565b600082821c905092915050565b60006200050160001984600802620004e1565b1980831691505092915050565b60006200051c8383620004ee565b9150826002028217905092915050565b6200053782620002b2565b67ffffffffffffffff811115620005535762000552620002bd565b5b6200055f82546200031b565b6200056c82828562000491565b600060209050601f831160018114620005a457600084156200058f578287015190505b6200059b85826200050e565b8655506200060b565b601f198416620005b48662000350565b60005b82811015620005de57848901518255600182019150602085019450602081019050620005b7565b86831015620005fe5784890151620005fa601f891682620004ee565b8355505b6001600288020188555050505b505050505050565b7f4e487b7100000000000000000000000000000000000000000000000000000000600052601160045260246000fd5b60008160011c9050919050565b6000808291508390505b6001851115620006a15780860481111562000679576200067862000613565b5b6001851615620006895780820291505b8081029050620006998562000642565b945062000659565b94509492505050565b600082620006bc57600190506200078f565b81620006cc57600090506200078f565b8160018114620006e55760028114620006f05762000726565b60019150506200078f565b60ff84111562000705576200070462000613565b5b8360020a9150848211156200071f576200071e62000613565b5b506200078f565b5060208310610133831016604e8410600b8410161715620007605782820a9050838111156200075a576200075962000613565b5b6200078f565b6200076f84848460016200064f565b9250905081840481111562000789576200078862000613565b5b81810290505b9392505050565b6000620007a382620003d8565b9150620007b083620003d8565b9250620007df7fffffffffffffffffffffffffffffffffffffffffffffffffffffffffffffffff8484620006aa565b905092915050565b6000620007f482620003d8565b91506200080183620003d8565b9250817fffffffffffffffffffffffffffffffffffffffffffffffffffffffffffffffff04831182151516156200083d576200083c62000613565b5b828202905092915050565b600082825260208201905092915050565b7f45524332303a206d696e7420746f20746865207a65726f206164647265737300600082015250565b600062000891601f8362000848565b91506200089e8262000859565b602082019050919050565b60006020820190508181036000830152620008c48162000882565b9050919050565b6000620008d882620003d8565b9150620008e583620003d8565b92508282019050808211156200090057620008ff62000613565b5b92915050565b6200091181620003d8565b82525050565b60006020820190506200092e600083018462000906565b92915050565b61378680620009446000396000f3fe608060405234801561001057600080fd5b506004361061018e5760003560e01c806395d89b41116100de578063af0000a711610097578063e0e26d2f11610071578063e0e26d2f146104ff578063e7b4cac61461052f578063ebf0c71714610563578063ec58744c146105815761018e565b8063af0000a714610481578063d611d6c8146104b1578063dd62ed3e146104cf5761018e565b806395d89b4114610385578063a00e78ab146103a3578063a457c2d7146103d3578063a65d537214610403578063a9059cbb14610421578063a934801a146104515761018e565b8063313ce5671161014b57806370a082311161012557806370a08231146102d757806374d9e3a81461030757806384fae76014610337578063893d20e8146103675761018e565b8063313ce5671461026b57806339509351146102895780635ee82e36146102b95761018e565b806306fdde0314610193578063095ea7b3146101b15780631249c58b146101e157806318160ddd146101ff57806323b872dd1461021d578063280405031461024d575b600080fd5b61019b61059f565b6040516101a89190612348565b60405180910390f35b6101cb60048036038101906101c69190612412565b610631565b6040516101d8919061246d565b60405180910390f35b6101e9610654565b6040516101f6919061246d565b60405180910390f35b61020761066c565b6040516102149190612497565b60405180910390f35b610237600480360381019061023291906124b2565b610676565b604051610244919061246d565b60405180910390f35b6102556106a5565b6040516102629190612497565b60405180910390f35b6102736106aa565b6040516102809190612521565b60405180910390f35b6102a3600480360381019061029e9190612412565b6106b3565b6040516102b0919061246d565b60405180910390f35b6102c16106ea565b6040516102ce9190612497565b60405180910390f35b6102f160048036038101906102ec919061253c565b6106f0565b6040516102fe9190612497565b60405180910390f35b610321600480360381019061031c91906125cb565b610738565b60405161032e919061246d565b60405180910390f35b610351600480360381019061034c919061253c565b610ae7565b60405161035e919061246d565b60405180910390f35b61036f610b82565b60405161037c9190612641565b60405180910390f35b61038d610bac565b60405161039a9190612348565b60405180910390f35b6103bd60048036038101906103b8919061265c565b610c3e565b6040516103ca919061246d565b60405180910390f35b6103ed60048036038101906103e89190612412565b61106f565b6040516103fa919061246d565b60405180910390f35b61040b6110e6565b6040516104189190612497565b60405180910390f35b61043b60048036038101906104369190612412565b6110eb565b604051610448919061246d565b60405180910390f35b61046b60048036038101906104669190612412565b61110e565b6040516104789190612641565b60405180910390f35b61049b600480360381019061049691906127d1565b61115c565b6040516104a8919061246d565b60405180910390f35b6104b9611379565b6040516104c691906128d8565b60405180910390f35b6104e960048036038101906104e491906128fa565b611407565b6040516104f69190612497565b60405180910390f35b610519600480360381019061051491906125cb565b61148e565b604051610526919061246d565b60405180910390f35b6105496004803603810190610544919061253c565b61170a565b60405161055a959493929190612949565b60405180910390f35b61056b61177a565b6040516105789190612641565b60405180910390f35b6105896117a0565b6040516105969190612497565b60405180910390f35b6060600380546105ae906129cb565b80601f01602080910402602001604051908101604052809291908181526020018280546105da906129cb565b80156106275780601f106105fc57610100808354040283529160200191610627565b820191906000526020600020905b81548152906001019060200180831161060a57829003601f168201915b5050505050905090565b60008061063c6117a5565b90506106498185856117ad565b600191505092915050565b6000610665336402540be400611976565b6001905090565b6000600254905090565b6000806106816117a5565b905061068e858285611acc565b610699858585611b58565b60019150509392505050565b600a81565b60006012905090565b6000806106be6117a5565b90506106df8185856106d08589611407565b6106da9190612a2b565b6117ad565b600191505092915050565b61271081565b60008060008373ffffffffffffffffffffffffffffffffffffffff1673ffffffffffffffffffffffffffffffffffffffff168152602001908152602001600020549050919050565b6000600560009054906101000a900473ffffffffffffffffffffffffffffffffffffffff1673ffffffffffffffffffffffffffffffffffffffff163373ffffffffffffffffffffffffffffffffffffffff16146107ca576040517f08c379a00000000000000000000000000000000000000000000000000000000081526004016107c190612ad1565b60405180910390fd5b600560009054906101000a900473ffffffffffffffffffffffffffffffffffffffff1673ffffffffffffffffffffffffffffffffffffffff168573ffffffffffffffffffffffffffffffffffffffff160361085a576040517f08c379a000000000000000000000000000000000000000000000000000000000815260040161085190612b63565b60405180910390fd5b600760008673ffffffffffffffffffffffffffffffffffffffff1673ffffffffffffffffffffffffffffffffffffffff16815260200190815260200160002060040160009054906101000a900460ff16156108ea576040517f08c379a00000000000000000000000000000000000000000000000000000000081526004016108e190612bf5565b60405180910390fd5b6040518060c00160405280600073ffffffffffffffffffffffffffffffffffffffff1681526020018560ff168152602001848152602001838152602001600067ffffffffffffffff811115610942576109416126a6565b5b6040519080825280602002602001820160405280156109705781602001602082028036833780820191505090505b50815260200160011515815250600760008773ffffffffffffffffffffffffffffffffffffffff1673ffffffffffffffffffffffffffffffffffffffff16815260200190815260200160002060008201518160000160006101000a81548173ffffffffffffffffffffffffffffffffffffffff021916908373ffffffffffffffffffffffffffffffffffffffff16021790555060208201518160000160146101000a81548160ff021916908360ff16021790555060408201518160010155606082015181600201556080820151816003019080519060200190610a5492919061224e565b5060a08201518160040160006101000a81548160ff0219169083151502179055509050506009859080600181540180825580915050600190039060005260206000200160009091909190916101000a81548173ffffffffffffffffffffffffffffffffffffffff021916908373ffffffffffffffffffffffffffffffffffffffff16021790555060019050949350505050565b6000600560009054906101000a900473ffffffffffffffffffffffffffffffffffffffff1673ffffffffffffffffffffffffffffffffffffffff168273ffffffffffffffffffffffffffffffffffffffff1603610b79576040517f08c379a0000000000000000000000000000000000000000000000000000000008152600401610b7090612b63565b60405180910390fd5b60019050919050565b6000600560009054906101000a900473ffffffffffffffffffffffffffffffffffffffff16905090565b606060048054610bbb906129cb565b80601f0160208091040260200160405190810160405280929190818152602001828054610be7906129cb565b8015610c345780601f10610c0957610100808354040283529160200191610c34565b820191906000526020600020905b815481529060010190602001808311610c1757829003601f168201915b5050505050905090565b60006006600083815260200190815260200160002060009054906101000a900460ff1615610ca1576040517f08c379a0000000000000000000000000000000000000000000000000000000008152600401610c9890612c61565b60405180910390fd5b600760003373ffffffffffffffffffffffffffffffffffffffff1673ffffffffffffffffffffffffffffffffffffffff16815260200190815260200160002060040160009054906101000a900460ff1615610d31576040517f08c379a0000000000000000000000000000000000000000000000000000000008152600401610d2890612ccd565b60405180910390fd5b600760008473ffffffffffffffffffffffffffffffffffffffff1673ffffffffffffffffffffffffffffffffffffffff16815260200190815260200160002060040160009054906101000a900460ff1615610dc1576040517f08c379a0000000000000000000000000000000000000000000000000000000008152600401610db890612d39565b60405180910390fd5b600073ffffffffffffffffffffffffffffffffffffffff16600760003373ffffffffffffffffffffffffffffffffffffffff1673ffffffffffffffffffffffffffffffffffffffff16815260200190815260200160002060000160009054906101000a900473ffffffffffffffffffffffffffffffffffffffff1673ffffffffffffffffffffffffffffffffffffffff1603610e92576040517f08c379a0000000000000000000000000000000000000000000000000000000008152600401610e8990612da5565b60405180910390fd5b600073ffffffffffffffffffffffffffffffffffffffff16600760008573ffffffffffffffffffffffffffffffffffffffff1673ffffffffffffffffffffffffffffffffffffffff16815260200190815260200160002060000160009054906101000a900473ffffffffffffffffffffffffffffffffffffffff1673ffffffffffffffffffffffffffffffffffffffff1603610f63576040517f08c379a0000000000000000000000000000000000000000000000000000000008152600401610f5a90612e11565b60405180910390fd5b600760008473ffffffffffffffffffffffffffffffffffffffff1673ffffffffffffffffffffffffffffffffffffffff16815260200190815260200160002060030182908060018154018082558091505060019003906000526020600020016000909190919091505560016006600084815260200190815260200160002060006101000a81548160ff021916908315150217905550611065600760003373ffffffffffffffffffffffffffffffffffffffff1673ffffffffffffffffffffffffffffffffffffffff16815260200190815260200160002060000160009054906101000a900473ffffffffffffffffffffffffffffffffffffffff16600a611976565b6001905092915050565b60008061107a6117a5565b905060006110888286611407565b9050838110156110cd576040517f08c379a00000000000000000000000000000000000000000000000000000000081526004016110c490612ea3565b60405180910390fd5b6110da82868684036117ad565b60019250505092915050565b600181565b6000806110f66117a5565b9050611103818585611b58565b600191505092915050565b6008602052816000526040600020818154811061112a57600080fd5b906000526020600020016000915091509054906101000a900473ffffffffffffffffffffffffffffffffffffffff1681565b6000600760003373ffffffffffffffffffffffffffffffffffffffff1673ffffffffffffffffffffffffffffffffffffffff16815260200190815260200160002060040160009054906101000a900460ff16156111ee576040517f08c379a00000000000000000000000000000000000000000000000000000000081526004016111e590612f0f565b60405180910390fd5b600073ffffffffffffffffffffffffffffffffffffffff16600760003373ffffffffffffffffffffffffffffffffffffffff1673ffffffffffffffffffffffffffffffffffffffff16815260200190815260200160002060000160009054906101000a900473ffffffffffffffffffffffffffffffffffffffff1673ffffffffffffffffffffffffffffffffffffffff16036112bf576040517f08c379a00000000000000000000000000000000000000000000000000000000081526004016112b690612f7b565b60405180910390fd5b6000825111611303576040517f08c379a00000000000000000000000000000000000000000000000000000000081526004016112fa90612fe7565b60405180910390fd5b611370600760003373ffffffffffffffffffffffffffffffffffffffff1673ffffffffffffffffffffffffffffffffffffffff16815260200190815260200160002060000160009054906101000a900473ffffffffffffffffffffffffffffffffffffffff166001611976565b60019050919050565b606060098054806020026020016040519081016040528092919081815260200182805480156113fd57602002820191906000526020600020905b8160009054906101000a900473ffffffffffffffffffffffffffffffffffffffff1673ffffffffffffffffffffffffffffffffffffffff16815260200190600101908083116113b3575b5050505050905090565b6000600160008473ffffffffffffffffffffffffffffffffffffffff1673ffffffffffffffffffffffffffffffffffffffff16815260200190815260200160002060008373ffffffffffffffffffffffffffffffffffffffff1673ffffffffffffffffffffffffffffffffffffffff16815260200190815260200160002054905092915050565b6000600760008673ffffffffffffffffffffffffffffffffffffffff1673ffffffffffffffffffffffffffffffffffffffff16815260200190815260200160002060040160009054906101000a900460ff1661151f576040517f08c379a000000000000000000000000000000000000000000000000000000000815260040161151690612f0f565b60405180910390fd5b600073ffffffffffffffffffffffffffffffffffffffff16600760008773ffffffffffffffffffffffffffffffffffffffff1673ffffffffffffffffffffffffffffffffffffffff16815260200190815260200160002060000160009054906101000a900473ffffffffffffffffffffffffffffffffffffffff1673ffffffffffffffffffffffffffffffffffffffff16146115f0576040517f08c379a00000000000000000000000000000000000000000000000000000000081526004016115e790613053565b60405180910390fd5b6116046115fc33611dce565b858585611e95565b73ffffffffffffffffffffffffffffffffffffffff168573ffffffffffffffffffffffffffffffffffffffff1614611671576040517f08c379a0000000000000000000000000000000000000000000000000000000008152600401611668906130bf565b60405180910390fd5b33600760008773ffffffffffffffffffffffffffffffffffffffff1673ffffffffffffffffffffffffffffffffffffffff16815260200190815260200160002060000160006101000a81548173ffffffffffffffffffffffffffffffffffffffff021916908373ffffffffffffffffffffffffffffffffffffffff1602179055506116fe33612710611976565b60019050949350505050565b60076020528060005260406000206000915090508060000160009054906101000a900473ffffffffffffffffffffffffffffffffffffffff16908060000160149054906101000a900460ff16908060010154908060020154908060040160009054906101000a900460ff16905085565b600560009054906101000a900473ffffffffffffffffffffffffffffffffffffffff1681565b600181565b600033905090565b600073ffffffffffffffffffffffffffffffffffffffff168373ffffffffffffffffffffffffffffffffffffffff160361181c576040517f08c379a000000000000000000000000000000000000000000000000000000000815260040161181390613151565b60405180910390fd5b600073ffffffffffffffffffffffffffffffffffffffff168273ffffffffffffffffffffffffffffffffffffffff160361188b576040517f08c379a0000000000000000000000000000000000000000000000000000000008152600401611882906131e3565b60405180910390fd5b80600160008573ffffffffffffffffffffffffffffffffffffffff1673ffffffffffffffffffffffffffffffffffffffff16815260200190815260200160002060008473ffffffffffffffffffffffffffffffffffffffff1673ffffffffffffffffffffffffffffffffffffffff168152602001908152602001600020819055508173ffffffffffffffffffffffffffffffffffffffff168373ffffffffffffffffffffffffffffffffffffffff167f8c5be1e5ebec7d5bd14f71427d1e84f3dd0314c0f7b2291e5b200ac8c7c3b925836040516119699190612497565b60405180910390a3505050565b600073ffffffffffffffffffffffffffffffffffffffff168273ffffffffffffffffffffffffffffffffffffffff16036119e5576040517f08c379a00000000000000000000000000000000000000000000000000000000081526004016119dc9061324f565b60405180910390fd5b6119f160008383612041565b8060026000828254611a039190612a2b565b92505081905550806000808473ffffffffffffffffffffffffffffffffffffffff1673ffffffffffffffffffffffffffffffffffffffff168152602001908152602001600020600082825401925050819055508173ffffffffffffffffffffffffffffffffffffffff16600073ffffffffffffffffffffffffffffffffffffffff167fddf252ad1be2c89b69c2b068fc378daa952ba7f163c4a11628f55a4df523b3ef83604051611ab49190612497565b60405180910390a3611ac860008383612046565b5050565b6000611ad88484611407565b90507fffffffffffffffffffffffffffffffffffffffffffffffffffffffffffffffff8114611b525781811015611b44576040517f08c379a0000000000000000000000000000000000000000000000000000000008152600401611b3b906132bb565b60405180910390fd5b611b5184848484036117ad565b5b50505050565b600073ffffffffffffffffffffffffffffffffffffffff168373ffffffffffffffffffffffffffffffffffffffff1603611bc7576040517f08c379a0000000000000000000000000000000000000000000000000000000008152600401611bbe9061334d565b60405180910390fd5b600073ffffffffffffffffffffffffffffffffffffffff168273ffffffffffffffffffffffffffffffffffffffff1603611c36576040517f08c379a0000000000000000000000000000000000000000000000000000000008152600401611c2d906133df565b60405180910390fd5b611c41838383612041565b60008060008573ffffffffffffffffffffffffffffffffffffffff1673ffffffffffffffffffffffffffffffffffffffff16815260200190815260200160002054905081811015611cc7576040517f08c379a0000000000000000000000000000000000000000000000000000000008152600401611cbe90613471565b60405180910390fd5b8181036000808673ffffffffffffffffffffffffffffffffffffffff1673ffffffffffffffffffffffffffffffffffffffff16815260200190815260200160002081905550816000808573ffffffffffffffffffffffffffffffffffffffff1673ffffffffffffffffffffffffffffffffffffffff168152602001908152602001600020600082825401925050819055508273ffffffffffffffffffffffffffffffffffffffff168473ffffffffffffffffffffffffffffffffffffffff167fddf252ad1be2c89b69c2b068fc378daa952ba7f163c4a11628f55a4df523b3ef84604051611db59190612497565b60405180910390a3611dc8848484612046565b50505050565b6060600082604051602001611de391906134d9565b604051602081830303815290604052905060006040518060400160405280600281526020017f3078000000000000000000000000000000000000000000000000000000000000815250905060005b60148160ff161015611e8a57611e7582611e70858460ff1681518110611e5a57611e596134f4565b5b602001015160f81c60f81b60f81c60ff1661204b565b612222565b91508080611e8290613523565b915050611e31565b508092505050919050565b6000806040518060400160405280602081526020017f19457468657265756d205369676e6564204d6573736167653a0a303030303030815250905060008087519050603983019150620f423f811115611eed57600080fd5b600080620186a090505b60008114611f915760008184611f0d919061357b565b905060008103611f355760008303611f3457600a82611f2c919061357b565b915050611ef7565b5b8280611f40906135ac565b9350508181611f4f91906135f4565b84611f5a919061364e565b9350600a82611f69919061357b565b9150603081611f789190612a2b565b90508480611f85906135ac565b95505080855350611ef7565b60008203611fa257601b9150611fb2565b601a82611faf9190612a2b565b91505b8185526000858b604051602001611fca9291906136be565b6040516020818303038152906040528051906020012090506001818b8b8b6040516000815260200160405260405161200594939291906136e2565b6020604051602081039080840390855afa158015612027573d6000803e3d6000fd5b505050602060405103519650505050505050949350505050565b505050565b505050565b606060008203612092576040518060400160405280600281526020017f3030000000000000000000000000000000000000000000000000000000000000815250905061221d565b600060108310156120a257600190505b600083905060005b600082146120cc5780806120bd906135ac565b915050600482901c91506120aa565b6000600f905060008267ffffffffffffffff8111156120ee576120ed6126a6565b5b6040519080825280601f01601f1916602001820160405280156121205781602001600182028036833780820191505090505b50905060008390505b600088146121c15760008389169050600981116121555780603061214d9190612a2b565b60f81b612166565b8060576121629190612a2b565b60f81b5b838361217190613727565b93508381518110612185576121846134f4565b5b60200101907effffffffffffffffffffffffffffffffffffffffffffffffffffffffffffff1916908160001a905350600489901c985050612129565b8515612213576122066040518060400160405280600181526020017f300000000000000000000000000000000000000000000000000000000000000081525083612222565b965050505050505061221d565b8196505050505050505b919050565b606082826040516020016122379291906136be565b604051602081830303815290604052905092915050565b82805482825590600052602060002090810192821561228a579160200282015b8281111561228957825182559160200191906001019061226e565b5b509050612297919061229b565b5090565b5b808211156122b457600081600090555060010161229c565b5090565b600081519050919050565b600082825260208201905092915050565b60005b838110156122f25780820151818401526020810190506122d7565b60008484015250505050565b6000601f19601f8301169050919050565b600061231a826122b8565b61232481856122c3565b93506123348185602086016122d4565b61233d816122fe565b840191505092915050565b60006020820190508181036000830152612362818461230f565b905092915050565b6000604051905090565b600080fd5b600080fd5b600073ffffffffffffffffffffffffffffffffffffffff82169050919050565b60006123a98261237e565b9050919050565b6123b98161239e565b81146123c457600080fd5b50565b6000813590506123d6816123b0565b92915050565b6000819050919050565b6123ef816123dc565b81146123fa57600080fd5b50565b60008135905061240c816123e6565b92915050565b6000806040838503121561242957612428612374565b5b6000612437858286016123c7565b9250506020612448858286016123fd565b9150509250929050565b60008115159050919050565b61246781612452565b82525050565b6000602082019050612482600083018461245e565b92915050565b612491816123dc565b82525050565b60006020820190506124ac6000830184612488565b92915050565b6000806000606084860312156124cb576124ca612374565b5b60006124d9868287016123c7565b93505060206124ea868287016123c7565b92505060406124fb868287016123fd565b9150509250925092565b600060ff82169050919050565b61251b81612505565b82525050565b60006020820190506125366000830184612512565b92915050565b60006020828403121561255257612551612374565b5b6000612560848285016123c7565b91505092915050565b61257281612505565b811461257d57600080fd5b50565b60008135905061258f81612569565b92915050565b6000819050919050565b6125a881612595565b81146125b357600080fd5b50565b6000813590506125c58161259f565b92915050565b600080600080608085870312156125e5576125e4612374565b5b60006125f3878288016123c7565b945050602061260487828801612580565b9350506040612615878288016125b6565b9250506060612626878288016125b6565b91505092959194509250565b61263b8161239e565b82525050565b60006020820190506126566000830184612632565b92915050565b6000806040838503121561267357612672612374565b5b6000612681858286016123c7565b9250506020612692858286016125b6565b9150509250929050565b600080fd5b600080fd5b7f4e487b7100000000000000000000000000000000000000000000000000000000600052604160045260246000fd5b6126de826122fe565b810181811067ffffffffffffffff821117156126fd576126fc6126a6565b5b80604052505050565b600061271061236a565b905061271c82826126d5565b919050565b600067ffffffffffffffff82111561273c5761273b6126a6565b5b612745826122fe565b9050602081019050919050565b82818337600083830152505050565b600061277461276f84612721565b612706565b9050828152602081018484840111156127905761278f6126a1565b5b61279b848285612752565b509392505050565b600082601f8301126127b8576127b761269c565b5b81356127c8848260208601612761565b91505092915050565b6000602082840312156127e7576127e6612374565b5b600082013567ffffffffffffffff81111561280557612804612379565b5b612811848285016127a3565b91505092915050565b600081519050919050565b600082825260208201905092915050565b6000819050602082019050919050565b61284f8161239e565b82525050565b60006128618383612846565b60208301905092915050565b6000602082019050919050565b60006128858261281a565b61288f8185612825565b935061289a83612836565b8060005b838110156128cb5781516128b28882612855565b97506128bd8361286d565b92505060018101905061289e565b5085935050505092915050565b600060208201905081810360008301526128f2818461287a565b905092915050565b6000806040838503121561291157612910612374565b5b600061291f858286016123c7565b9250506020612930858286016123c7565b9150509250929050565b61294381612595565b82525050565b600060a08201905061295e6000830188612632565b61296b6020830187612512565b612978604083018661293a565b612985606083018561293a565b612992608083018461245e565b9695505050505050565b7f4e487b7100000000000000000000000000000000000000000000000000000000600052602260045260246000fd5b600060028204905060018216806129e357607f821691505b6020821081036129f6576129f561299c565b5b50919050565b7f4e487b7100000000000000000000000000000000000000000000000000000000600052601160045260246000fd5b6000612a36826123dc565b9150612a41836123dc565b9250828201905080821115612a5957612a586129fc565b5b92915050565b7f4f6e6c792073797374656d20726f6f742063616e20637265617465206465766960008201527f6365730000000000000000000000000000000000000000000000000000000000602082015250565b6000612abb6023836122c3565b9150612ac682612a5f565b604082019050919050565b60006020820190508181036000830152612aea81612aae565b9050919050565b7f41646472657373206d75737420626520646966666572656e74206f662074686560008201527f20726f6f74206164647265737300000000000000000000000000000000000000602082015250565b6000612b4d602d836122c3565b9150612b5882612af1565b604082019050919050565b60006020820190508181036000830152612b7c81612b40565b9050919050565b7f44657669636520616c726561647920616464656420746f20746865206e65747760008201527f6f726b0000000000000000000000000000000000000000000000000000000000602082015250565b6000612bdf6023836122c3565b9150612bea82612b83565b604082019050919050565b60006020820190508181036000830152612c0e81612bd2565b9050919050565b7f5472616e73616374696f6e20616c726561647920726567697374657265640000600082015250565b6000612c4b601e836122c3565b9150612c5682612c15565b602082019050919050565b60006020820190508181036000830152612c7a81612c3e565b9050919050565b7f47617465776179206e6f74206372656174656420796574000000000000000000600082015250565b6000612cb76017836122c3565b9150612cc282612c81565b602082019050919050565b60006020820190508181036000830152612ce681612caa565b9050919050565b7f4e6f6465206e6f74206372656174656420796574000000000000000000000000600082015250565b6000612d236014836122c3565b9150612d2e82612ced565b602082019050919050565b60006020820190508181036000830152612d5281612d16565b9050919050565b7f4761746572617920646f6e27742068617320616e206f776e6572000000000000600082015250565b6000612d8f601a836122c3565b9150612d9a82612d59565b602082019050919050565b60006020820190508181036000830152612dbe81612d82565b9050919050565b7f4e6f646520646f6e27742068617320616e206f776e6572000000000000000000600082015250565b6000612dfb6017836122c3565b9150612e0682612dc5565b602082019050919050565b60006020820190508181036000830152612e2a81612dee565b9050919050565b7f45524332303a2064656372656173656420616c6c6f77616e63652062656c6f7760008201527f207a65726f000000000000000000000000000000000000000000000000000000602082015250565b6000612e8d6025836122c3565b9150612e9882612e31565b604082019050919050565b60006020820190508181036000830152612ebc81612e80565b9050919050565b7f446576696365206e6f7420637265617465642079657400000000000000000000600082015250565b6000612ef96016836122c3565b9150612f0482612ec3565b602082019050919050565b60006020820190508181036000830152612f2881612eec565b9050919050565b7f44657669636520646f6e27742068617320616e206f776e657200000000000000600082015250565b6000612f656019836122c3565b9150612f7082612f2f565b602082019050919050565b60006020820190508181036000830152612f9481612f58565b9050919050565b7f4e6f20646174612073656e740000000000000000000000000000000000000000600082015250565b6000612fd1600c836122c3565b9150612fdc82612f9b565b602082019050919050565b6000602082019050818103600083015261300081612fc4565b9050919050565b7f44657669636520616c72656164792068617320616e206f776e65720000000000600082015250565b600061303d601b836122c3565b915061304882613007565b602082019050919050565b6000602082019050818103600083015261306c81613030565b9050919050565b7f4572726f72207265636f766572696e67207369676e6174757265000000000000600082015250565b60006130a9601a836122c3565b91506130b482613073565b602082019050919050565b600060208201905081810360008301526130d88161309c565b9050919050565b7f45524332303a20617070726f76652066726f6d20746865207a65726f2061646460008201527f7265737300000000000000000000000000000000000000000000000000000000602082015250565b600061313b6024836122c3565b9150613146826130df565b604082019050919050565b6000602082019050818103600083015261316a8161312e565b9050919050565b7f45524332303a20617070726f766520746f20746865207a65726f20616464726560008201527f7373000000000000000000000000000000000000000000000000000000000000602082015250565b60006131cd6022836122c3565b91506131d882613171565b604082019050919050565b600060208201905081810360008301526131fc816131c0565b9050919050565b7f45524332303a206d696e7420746f20746865207a65726f206164647265737300600082015250565b6000613239601f836122c3565b915061324482613203565b602082019050919050565b600060208201905081810360008301526132688161322c565b9050919050565b7f45524332303a20696e73756666696369656e7420616c6c6f77616e6365000000600082015250565b60006132a5601d836122c3565b91506132b08261326f565b602082019050919050565b600060208201905081810360008301526132d481613298565b9050919050565b7f45524332303a207472616e736665722066726f6d20746865207a65726f20616460008201527f6472657373000000000000000000000000000000000000000000000000000000602082015250565b60006133376025836122c3565b9150613342826132db565b604082019050919050565b600060208201905081810360008301526133668161332a565b9050919050565b7f45524332303a207472616e7366657220746f20746865207a65726f206164647260008201527f6573730000000000000000000000000000000000000000000000000000000000602082015250565b60006133c96023836122c3565b91506133d48261336d565b604082019050919050565b600060208201905081810360008301526133f8816133bc565b9050919050565b7f45524332303a207472616e7366657220616d6f756e742065786365656473206260008201527f616c616e63650000000000000000000000000000000000000000000000000000602082015250565b600061345b6026836122c3565b9150613466826133ff565b604082019050919050565b6000602082019050818103600083015261348a8161344e565b9050919050565b60008160601b9050919050565b60006134a982613491565b9050919050565b60006134bb8261349e565b9050919050565b6134d36134ce8261239e565b6134b0565b82525050565b60006134e582846134c2565b60148201915081905092915050565b7f4e487b7100000000000000000000000000000000000000000000000000000000600052603260045260246000fd5b600061352e82612505565b915060ff8203613541576135406129fc565b5b600182019050919050565b7f4e487b7100000000000000000000000000000000000000000000000000000000600052601260045260246000fd5b6000613586826123dc565b9150613591836123dc565b9250826135a1576135a061354c565b5b828204905092915050565b60006135b7826123dc565b91507fffffffffffffffffffffffffffffffffffffffffffffffffffffffffffffffff82036135e9576135e86129fc565b5b600182019050919050565b60006135ff826123dc565b915061360a836123dc565b9250817fffffffffffffffffffffffffffffffffffffffffffffffffffffffffffffffff0483118215151615613643576136426129fc565b5b828202905092915050565b6000613659826123dc565b9150613664836123dc565b925082820390508181111561367c5761367b6129fc565b5b92915050565b600081905092915050565b6000613698826122b8565b6136a28185613682565b93506136b28185602086016122d4565b80840191505092915050565b60006136ca828561368d565b91506136d6828461368d565b91508190509392505050565b60006080820190506136f7600083018761293a565b6137046020830186612512565b613711604083018561293a565b61371e606083018461293a565b95945050505050565b6000613732826123dc565b915060008203613745576137446129fc565b5b60018203905091905056fea26469706673582212201df50bf199a3dc512c1276d0924fad9947118c8a04c59cb0b5ea335dd21f97d464736f6c63430008100033",
  "immutableReferences": {},
  "source": "// SPDX-License-Identifier: GPL-3.0\n\npragma solidity ^0.8.9;\n\nimport \"@openzeppelin/contracts/token/ERC20/ERC20.sol\";\n\ncontract LoraCoin is ERC20 {\n    /*\n     *   Address of the SC deployer wich will be the only one\n     *   that will be able create gateways and verified nodes\n     */\n    address public root;\n\n    uint256 public constant ethNeededToRegisterNode = 1; //Only used in the future\n    uint256 public constant registerReward = 1;\n    uint256 public constant sentReward = 10;\n    uint256 public constant tokenAmountCreate = 10000;\n\n    struct NetworkDevice {\n        address owner;\n        uint8 v;\n        bytes32 r;\n        bytes32 s;\n        bytes32[] transactions;\n        bool created;\n    }\n    \n    //Used to store all registered transactions to validate if they are already registered\n    mapping(bytes32 => bool) transactionsValidation;\n\n    //Stores a map of the network devices using their addresses as keys\n    mapping(address => NetworkDevice) public devices;\n    mapping(address => address[]) public devicesByOwners;\n    address[] deviceAddresses;\n\n    constructor() ERC20(\"LoraCoin\", \"LoRaC\") {\n        root = msg.sender;\n        uint256 n = 1000;\n        _mint(msg.sender, n * 10**uint256(decimals()));\n    }\n\n    function getOwner() public view returns (address) {\n        return root;\n    }\n\n    function hello(address _address) public view returns (bool) {\n        require(\n            _address != root,\n            \"Address must be different of the root address\"\n        );\n        return true;\n    }\n\n    function mint() public returns (bool) {\n        _mint(msg.sender, 10000000000);\n        return true;\n    }\n\n    // @notice creates a new device\n    // @pre msg.sender = root\n    // @param _address is the address of the device to be registered\n    // @param _v,_r,_s parameter _address (lowercase) ECDSA signed by the msg.sender\n    // @return device created or not\n    function createDevice(\n        address _address,\n        uint8 _v,\n        bytes32 _r,\n        bytes32 _s\n    ) public returns (bool) {\n        require(msg.sender == root, \"Only system root can create devices\");\n        require(\n            _address != root,\n            \"Address must be different of the root address\"\n        );\n        require(\n            !devices[_address].created,\n            \"Device already added to the network\"\n        );\n        // require(\n        //     recoverSigner(addressToString(_address), _v, _r, _s) == root,\n        //     \"Bad signature.\"\n        // );\n        devices[_address] = NetworkDevice(\n            address(0x0),\n            _v,\n            _r,\n            _s,\n            new bytes32[](0),\n            true\n        );\n        deviceAddresses.push(_address);\n        return true;\n    }\n\n    // // @notice creates a new device\n    // // @pre msg.sender = root\n    // // @param message is the message\n    // // @param sig parameter _address (lowercase) ECDSA signed by the msg.sender\n    // // @return device created or not\n    // function createDevice(bytes32 message, bytes memory sig)\n    //     public\n    //     returns (bool)\n    // {\n    //     require(msg.sender == root, \"Only system root can create devices\");\n\n    //     address _address = dataToAddress(message);\n\n    //     require(\n    //         _address != root,\n    //         \"Address must be different of the root address\"\n    //     );\n    //     require(\n    //         !devices[_address].created,\n    //         \"Device already added to the network\"\n    //     );\n\n    //     uint8 v;\n    //     bytes32 r;\n    //     bytes32 s;\n\n    //     (v, r, s) = splitSignature(sig);\n\n    //     require(ecrecover(message, v, r, s) == root, \"Bad signature.\");\n    //     devices[_address] = NetworkDevice(\n    //         address(0x0),\n    //         v,\n    //         r,\n    //         s,\n    //         new bytes32[](0),\n    //         true\n    //     );\n    //     deviceAddresses.push(_address);\n    //     return true;\n    // }\n\n    // @notice returns a list with all network devices\n    // @return list with all deviceAddresses\n    function getDevices() public view returns (address[] memory) {\n        return deviceAddresses;\n    }\n\n    // @notice used to send data to the BC and pays to the owner of the sensor\n    // @param sensor location and sensoring info\n    // @return whether the creation was successful or not\n    function sendTransaction(bytes memory data) public returns (bool) {\n        require(!devices[msg.sender].created, \"Device not created yet\"); // gateway already registerd\n        require(\n            devices[msg.sender].owner != address(0x0),\n            \"Device don't has an owner\"\n        ); // gateway already registerd\n        require(data.length > 0, \"No data sent\");\n        _mint(devices[msg.sender].owner, registerReward);\n        return true;\n    }\n\n    // @notice used to save transaction and paying to the gateway\n    // @param transaction hash\n    // @return whether the creation was successful or not\n    function registerTransaction(\n        address _sensorAddress,\n        bytes32 transactionHash\n    ) public returns (bool) {\n        require(\n            !transactionsValidation[transactionHash],\n            \"Transaction already registered\"\n        );\n        require(!devices[msg.sender].created, \"Gateway not created yet\"); // gateway already registerd\n        require(!devices[_sensorAddress].created, \"Node not created yet\"); // gateway already registerd\n        require(\n            devices[msg.sender].owner != address(0x0),\n            \"Gateray don't has an owner\"\n        ); // gateway already registerd\n        require(\n            devices[_sensorAddress].owner != address(0x0),\n            \"Node don't has an owner\"\n        ); // gateway already registerd\n        devices[_sensorAddress].transactions.push(transactionHash);\n        transactionsValidation[transactionHash] = true;\n        _mint(devices[msg.sender].owner, sentReward);\n        return true;\n    }\n\n    function uint2hexstr(uint256 i) private pure returns (string memory) {\n        if (i == 0) return \"00\";\n        bool short;\n        if (i < 16) short = true;\n        uint256 j = i;\n        uint256 length;\n        while (j != 0) {\n            length++;\n            j = j >> 4;\n        }\n        uint256 mask = 15;\n        bytes memory bstr = new bytes(length);\n        uint256 k = length;\n        while (i != 0) {\n            uint256 curr = (i & mask);\n            bstr[--k] = curr > 9\n                ? bytes1(uint8(87 + curr))\n                : bytes1(uint8(48 + curr)); // 55 = 65 - 10\n            i = i >> 4;\n        }\n        if (short) return concatenate(\"0\", string(bstr));\n        return string(bstr);\n    }\n\n    function concatenate(string memory a, string memory b)\n        private\n        pure\n        returns (string memory)\n    {\n        return string(abi.encodePacked(a, b));\n    }\n\n    function addressToString(address _address)\n        private\n        pure\n        returns (string memory)\n    {\n        bytes memory z = abi.encodePacked(_address);\n        string memory n = \"0x\";\n        for (uint8 i = 0; i < 20; i++) {\n            n = concatenate(n, uint2hexstr(uint8(z[i])));\n        }\n        return string(n);\n    }\n\n    // @notice registers the owner of a device\n    // @param _address is the address of the device to be registered\n    // @param signature value of the hashed owner address signed by the own dev\n    // @return whether the creation was successful or not\n    function registerDevice(\n        address _address,\n        uint8 v,\n        bytes32 r,\n        bytes32 s\n    ) public returns (bool) {\n        require(devices[_address].created, \"Device not created yet\"); // gateway already registerd\n        require(\n            devices[_address].owner == address(0x0),\n            \"Device already has an owner\"\n        ); // gateway already registerd\n        require(\n            (_address == recoverSigner(addressToString(msg.sender), v, r, s)),\n            \"Error recovering signature\"\n        );\n        devices[_address].owner = msg.sender;\n        _mint(msg.sender, tokenAmountCreate);\n        return true;\n    }\n\n    /*\n     * @dev Recover signer address from a message by using their signature\n     * @param hash bytes32 message, the hash is the signed message. What is recovered is the signer address.\n     * @param sig bytes signature, the signature is generated using web3.eth.sign()\n     */\n    function recoverSigner(\n        string memory message,\n        uint8 v,\n        bytes32 r,\n        bytes32 s\n    ) private pure returns (address signer) {\n        // The message header; we will fill in the length next\n        string memory header = \"\\x19Ethereum Signed Message:\\n000000\";\n        uint256 lengthOffset;\n        uint256 length;\n        assembly {\n            // The first word of a string is its length\n            length := mload(message)\n            // The beginning of the base-10 message length in the prefix\n            lengthOffset := add(header, 57)\n        }\n        require(length <= 999999);\n        uint256 lengthLength = 0;\n        uint256 divisor = 100000;\n        while (divisor != 0) {\n            // The place value at the divisor\n            uint256 digit = length / divisor;\n            if (digit == 0) {\n                // Skip leading zeros\n                if (lengthLength == 0) {\n                    divisor /= 10;\n                    continue;\n                }\n            }\n            lengthLength++;\n            length -= digit * divisor;\n            divisor /= 10;\n            digit += 0x30;\n            lengthOffset++;\n            assembly {\n                mstore8(lengthOffset, digit)\n            }\n        }\n        // The null string requires exactly 1 zero (unskip 1 leading 0)\n        if (lengthLength == 0) {\n            lengthLength = 1 + 0x19 + 1;\n        } else {\n            lengthLength += 1 + 0x19;\n        }\n        // Truncate the tailing zeros from the header\n        assembly {\n            mstore(header, lengthLength)\n        }\n        // Perform the elliptic curve recover operation\n        bytes32 check = keccak256(abi.encodePacked(header, message));\n        return ecrecover(check, v, r, s);\n    }\n\n    // function recoverSigner(bytes32 message, bytes memory sig)\n    //     internal\n    //     pure\n    //     returns (address)\n    // {\n    //     uint8 v;\n    //     bytes32 r;\n    //     bytes32 s;\n\n    //     (v, r, s) = splitSignature(sig);\n\n    //     return ecrecover(message, v, r, s);\n    // }\n\n    // function splitSignature(bytes memory sig)\n    //     internal\n    //     pure\n    //     returns (\n    //         uint8,\n    //         bytes32,\n    //         bytes32\n    //     )\n    // {\n    //     require(sig.length == 65);\n\n    //     bytes32 r;\n    //     bytes32 s;\n    //     uint8 v;\n\n    //     assembly {\n    //         // first 32 bytes, after the length prefix\n    //         r := mload(add(sig, 32))\n    //         // second 32 bytes\n    //         s := mload(add(sig, 64))\n    //         // final byte (first byte of the next 32 bytes)\n    //         v := byte(0, mload(add(sig, 96)))\n    //     }\n\n    //     return (v, r, s);\n    // }\n\n    function dataToAddress(bytes32 data) internal pure returns (address) {\n        return address(uint160(uint256(data)));\n    }\n}\n\n",
  "sourcePath": "/home/gustavo/Documentos/Universidad/TFG/Project/SmartContracts/contracts/LoraCoin.sol",
  "compiler": {
    "name": "solc",
    "version": "0.8.16+commit.07a7930e.Emscripten.clang"
  },
  "schemaVersion": "3.4.9",
  "updatedAt": "2023-03-17T18:18:22.472Z",
  "devdoc": {
    "kind": "dev",
    "methods": {
      "allowance(address,address)": {
        "details": "See {IERC20-allowance}."
      },
      "approve(address,uint256)": {
        "details": "See {IERC20-approve}. NOTE: If `amount` is the maximum `uint256`, the allowance is not updated on `transferFrom`. This is semantically equivalent to an infinite approval. Requirements: - `spender` cannot be the zero address."
      },
      "balanceOf(address)": {
        "details": "See {IERC20-balanceOf}."
      },
      "decimals()": {
        "details": "Returns the number of decimals used to get its user representation. For example, if `decimals` equals `2`, a balance of `505` tokens should be displayed to a user as `5.05` (`505 / 10 ** 2`). Tokens usually opt for a value of 18, imitating the relationship between Ether and Wei. This is the value {ERC20} uses, unless this function is overridden; NOTE: This information is only used for _display_ purposes: it in no way affects any of the arithmetic of the contract, including {IERC20-balanceOf} and {IERC20-transfer}."
      },
      "decreaseAllowance(address,uint256)": {
        "details": "Atomically decreases the allowance granted to `spender` by the caller. This is an alternative to {approve} that can be used as a mitigation for problems described in {IERC20-approve}. Emits an {Approval} event indicating the updated allowance. Requirements: - `spender` cannot be the zero address. - `spender` must have allowance for the caller of at least `subtractedValue`."
      },
      "increaseAllowance(address,uint256)": {
        "details": "Atomically increases the allowance granted to `spender` by the caller. This is an alternative to {approve} that can be used as a mitigation for problems described in {IERC20-approve}. Emits an {Approval} event indicating the updated allowance. Requirements: - `spender` cannot be the zero address."
      },
      "name()": {
        "details": "Returns the name of the token."
      },
      "symbol()": {
        "details": "Returns the symbol of the token, usually a shorter version of the name."
      },
      "totalSupply()": {
        "details": "See {IERC20-totalSupply}."
      },
      "transfer(address,uint256)": {
        "details": "See {IERC20-transfer}. Requirements: - `to` cannot be the zero address. - the caller must have a balance of at least `amount`."
      },
      "transferFrom(address,address,uint256)": {
        "details": "See {IERC20-transferFrom}. Emits an {Approval} event indicating the updated allowance. This is not required by the EIP. See the note at the beginning of {ERC20}. NOTE: Does not update the allowance if the current allowance is the maximum `uint256`. Requirements: - `from` and `to` cannot be the zero address. - `from` must have a balance of at least `amount`. - the caller must have allowance for ``from``'s tokens of at least `amount`."
      }
    },
    "version": 1
  },
  "userdoc": {
    "kind": "user",
    "methods": {},
    "version": 1
  }
}