{
  "contractName": "StorageContract",
  "abi": [
    {
      "inputs": [],
      "stateMutability": "nonpayable",
      "type": "constructor"
    },
    {
      "anonymous": false,
      "inputs": [
        {
          "indexed": true,
          "internalType": "string",
          "name": "cid",
          "type": "string"
        },
        {
          "indexed": true,
          "internalType": "address",
          "name": "_provider_address",
          "type": "address"
        },
        {
          "indexed": false,
          "internalType": "string",
          "name": "url",
          "type": "string"
        }
      ],
      "name": "EventDataAdded",
      "type": "event"
    },
    {
      "anonymous": false,
      "inputs": [
        {
          "indexed": true,
          "internalType": "address",
          "name": "addressProvider",
          "type": "address"
        },
        {
          "indexed": false,
          "internalType": "uint256",
          "name": "date",
          "type": "uint256"
        }
      ],
      "name": "EventProviderAdded",
      "type": "event"
    },
    {
      "inputs": [
        {
          "internalType": "uint256",
          "name": "",
          "type": "uint256"
        }
      ],
      "name": "DataProviderList",
      "outputs": [
        {
          "internalType": "address",
          "name": "",
          "type": "address"
        }
      ],
      "stateMutability": "view",
      "type": "function"
    },
    {
      "inputs": [
        {
          "internalType": "address",
          "name": "",
          "type": "address"
        }
      ],
      "name": "Devices",
      "outputs": [
        {
          "internalType": "address",
          "name": "provider_address",
          "type": "address"
        },
        {
          "internalType": "bool",
          "name": "created",
          "type": "bool"
        }
      ],
      "stateMutability": "view",
      "type": "function"
    },
    {
      "inputs": [
        {
          "internalType": "address",
          "name": "_provider_address",
          "type": "address"
        }
      ],
      "name": "newProvider",
      "outputs": [],
      "stateMutability": "nonpayable",
      "type": "function"
    },
    {
      "inputs": [
        {
          "internalType": "string",
          "name": "_cid",
          "type": "string"
        },
        {
          "internalType": "string",
          "name": "_url",
          "type": "string"
        },
        {
          "internalType": "uint256",
          "name": "_timestamp",
          "type": "uint256"
        },
        {
          "internalType": "uint8",
          "name": "_v",
          "type": "uint8"
        },
        {
          "internalType": "bytes32",
          "name": "_r",
          "type": "bytes32"
        },
        {
          "internalType": "bytes32",
          "name": "_s",
          "type": "bytes32"
        },
        {
          "internalType": "bytes32",
          "name": "_hash",
          "type": "bytes32"
        }
      ],
      "name": "newData",
      "outputs": [],
      "stateMutability": "nonpayable",
      "type": "function"
    },
    {
      "inputs": [
        {
          "internalType": "address",
          "name": "_provider_address",
          "type": "address"
        }
      ],
      "name": "getDataProviderCids",
      "outputs": [
        {
          "internalType": "string[]",
          "name": "",
          "type": "string[]"
        }
      ],
      "stateMutability": "view",
      "type": "function"
    },
    {
      "inputs": [],
      "name": "getAllDataProviders",
      "outputs": [
        {
          "internalType": "address[]",
          "name": "",
          "type": "address[]"
        }
      ],
      "stateMutability": "view",
      "type": "function"
    },
    {
      "inputs": [
        {
          "internalType": "string",
          "name": "_cid",
          "type": "string"
        },
        {
          "internalType": "address",
          "name": "_provider_address",
          "type": "address"
        }
      ],
      "name": "getSensorData",
      "outputs": [
        {
          "internalType": "string",
          "name": "",
          "type": "string"
        },
        {
          "internalType": "string",
          "name": "",
          "type": "string"
        },
        {
          "internalType": "uint256",
          "name": "",
          "type": "uint256"
        },
        {
          "internalType": "uint8",
          "name": "",
          "type": "uint8"
        },
        {
          "internalType": "bytes32",
          "name": "",
          "type": "bytes32"
        },
        {
          "internalType": "bytes32",
          "name": "",
          "type": "bytes32"
        },
        {
          "internalType": "bytes32",
          "name": "",
          "type": "bytes32"
        }
      ],
      "stateMutability": "view",
      "type": "function"
    }
  ],
  "bytecode": "0x608060405234801561001057600080fd5b50336000806101000a81548173ffffffffffffffffffffffffffffffffffffffff021916908373ffffffffffffffffffffffffffffffffffffffff160217905550611e59806100606000396000f3fe608060405234801561001057600080fd5b506004361061007d5760003560e01c80635b485a141161005b5780635b485a1414610106578063825ecbeb146101225780639790e96a14610152578063c01684c6146101835761007d565b80633113709014610082578063442ab024146100b2578063531d231a146100d0575b600080fd5b61009c6004803603810190610097919061102e565b61019f565b6040516100a9919061109c565b60405180910390f35b6100ba6101de565b6040516100c79190611175565b60405180910390f35b6100ea60048036038101906100e59190611309565b61026c565b6040516100fd9796959493929190611428565b60405180910390f35b610120600480360381019061011b91906114a5565b6105f2565b005b61013c600480360381019061013791906114a5565b6108a5565b60405161014991906115de565b60405180910390f35b61016c600480360381019061016791906114a5565b610a56565b60405161017a92919061161b565b60405180910390f35b61019d6004803603810190610198919061169c565b610aa7565b005b600281815481106101af57600080fd5b906000526020600020016000915054906101000a900473ffffffffffffffffffffffffffffffffffffffff1681565b6060600280548060200260200160405190810160405280929190818152602001828054801561026257602002820191906000526020600020905b8160009054906101000a900473ffffffffffffffffffffffffffffffffffffffff1673ffffffffffffffffffffffffffffffffffffffff1681526020019060010190808311610218575b5050505050905090565b606080600080600080600060011515600160008a73ffffffffffffffffffffffffffffffffffffffff1673ffffffffffffffffffffffffffffffffffffffff16815260200190815260200160002060030160009054906101000a900460ff1615151461030d576040517f08c379a0000000000000000000000000000000000000000000000000000000008152600401610304906117c2565b60405180910390fd5b60011515600160008a73ffffffffffffffffffffffffffffffffffffffff1673ffffffffffffffffffffffffffffffffffffffff1681526020019081526020016000206001018a604051610361919061181e565b908152602001604051809103902060070160009054906101000a900460ff161515146103c2576040517f08c379a00000000000000000000000000000000000000000000000000000000081526004016103b990611881565b60405180910390fd5b6000600160008a73ffffffffffffffffffffffffffffffffffffffff1673ffffffffffffffffffffffffffffffffffffffff1681526020019081526020016000206001018a604051610414919061181e565b90815260200160405180910390206040518061010001604052908160008201805461043e906118d0565b80601f016020809104026020016040519081016040528092919081815260200182805461046a906118d0565b80156104b75780601f1061048c576101008083540402835291602001916104b7565b820191906000526020600020905b81548152906001019060200180831161049a57829003601f168201915b505050505081526020016001820180546104d0906118d0565b80601f01602080910402602001604051908101604052809291908181526020018280546104fc906118d0565b80156105495780601f1061051e57610100808354040283529160200191610549565b820191906000526020600020905b81548152906001019060200180831161052c57829003601f168201915b50505050508152602001600282015481526020016003820160009054906101000a900460ff1660ff1660ff1681526020016004820154815260200160058201548152602001600682015481526020016007820160009054906101000a900460ff1615151515815250509050806000015181602001518260400151836060015184608001518560a001518660c0015197509750975097509750975097505092959891949750929550565b60008054906101000a900473ffffffffffffffffffffffffffffffffffffffff1673ffffffffffffffffffffffffffffffffffffffff163373ffffffffffffffffffffffffffffffffffffffff1614610680576040517f08c379a000000000000000000000000000000000000000000000000000000000815260040161067790611973565b60405180910390fd5b60001515600160008373ffffffffffffffffffffffffffffffffffffffff1673ffffffffffffffffffffffffffffffffffffffff16815260200190815260200160002060030160009054906101000a900460ff16151514610716576040517f08c379a000000000000000000000000000000000000000000000000000000000815260040161070d906119df565b60405180910390fd5b80600160008373ffffffffffffffffffffffffffffffffffffffff1673ffffffffffffffffffffffffffffffffffffffff16815260200190815260200160002060000160006101000a81548173ffffffffffffffffffffffffffffffffffffffff021916908373ffffffffffffffffffffffffffffffffffffffff16021790555060018060008373ffffffffffffffffffffffffffffffffffffffff1673ffffffffffffffffffffffffffffffffffffffff16815260200190815260200160002060030160006101000a81548160ff0219169083151502179055506002819080600181540180825580915050600190039060005260206000200160009091909190916101000a81548173ffffffffffffffffffffffffffffffffffffffff021916908373ffffffffffffffffffffffffffffffffffffffff1602179055508073ffffffffffffffffffffffffffffffffffffffff167f1b8d6e7edd12ce9bf5cbe0cf36d5e75e86617a943f642908cb445fdadb4830514260405161089a91906119ff565b60405180910390a250565b606060011515600160008473ffffffffffffffffffffffffffffffffffffffff1673ffffffffffffffffffffffffffffffffffffffff16815260200190815260200160002060030160009054906101000a900460ff1615151461093d576040517f08c379a0000000000000000000000000000000000000000000000000000000008152600401610934906117c2565b60405180910390fd5b600160008373ffffffffffffffffffffffffffffffffffffffff1673ffffffffffffffffffffffffffffffffffffffff168152602001908152602001600020600201805480602002602001604051908101604052809291908181526020016000905b82821015610a4b5783829060005260206000200180546109be906118d0565b80601f01602080910402602001604051908101604052809291908181526020018280546109ea906118d0565b8015610a375780601f10610a0c57610100808354040283529160200191610a37565b820191906000526020600020905b815481529060010190602001808311610a1a57829003601f168201915b50505050508152602001906001019061099f565b505050509050919050565b60016020528060005260406000206000915090508060000160009054906101000a900473ffffffffffffffffffffffffffffffffffffffff16908060030160009054906101000a900460ff16905082565b600060018286868660405160008152602001604052604051610acc9493929190611a1a565b6020604051602081039080840390855afa158015610aee573d6000803e3d6000fd5b50505060206040510351905060011515600160008373ffffffffffffffffffffffffffffffffffffffff1673ffffffffffffffffffffffffffffffffffffffff16815260200190815260200160002060030160009054906101000a900460ff16151514610b90576040517f08c379a0000000000000000000000000000000000000000000000000000000008152600401610b8790611ad1565b60405180910390fd5b3373ffffffffffffffffffffffffffffffffffffffff168173ffffffffffffffffffffffffffffffffffffffff1614610bfe576040517f08c379a0000000000000000000000000000000000000000000000000000000008152600401610bf590611b63565b60405180910390fd5b87600160008373ffffffffffffffffffffffffffffffffffffffff1673ffffffffffffffffffffffffffffffffffffffff16815260200190815260200160002060010189604051610c4f919061181e565b90815260200160405180910390206000019081610c6c9190611d2f565b5086600160008373ffffffffffffffffffffffffffffffffffffffff1673ffffffffffffffffffffffffffffffffffffffff16815260200190815260200160002060010189604051610cbe919061181e565b90815260200160405180910390206001019081610cdb9190611d2f565b5085600160008373ffffffffffffffffffffffffffffffffffffffff1673ffffffffffffffffffffffffffffffffffffffff16815260200190815260200160002060010189604051610d2d919061181e565b90815260200160405180910390206002018190555084600160008373ffffffffffffffffffffffffffffffffffffffff1673ffffffffffffffffffffffffffffffffffffffff16815260200190815260200160002060010189604051610d93919061181e565b908152602001604051809103902060030160006101000a81548160ff021916908360ff16021790555083600160008373ffffffffffffffffffffffffffffffffffffffff1673ffffffffffffffffffffffffffffffffffffffff16815260200190815260200160002060010189604051610e0d919061181e565b90815260200160405180910390206004018190555082600160008373ffffffffffffffffffffffffffffffffffffffff1673ffffffffffffffffffffffffffffffffffffffff16815260200190815260200160002060010189604051610e73919061181e565b90815260200160405180910390206005018190555060018060008373ffffffffffffffffffffffffffffffffffffffff1673ffffffffffffffffffffffffffffffffffffffff16815260200190815260200160002060010189604051610ed9919061181e565b908152602001604051809103902060070160006101000a81548160ff021916908315150217905550600160008273ffffffffffffffffffffffffffffffffffffffff1673ffffffffffffffffffffffffffffffffffffffff16815260200190815260200160002060020188908060018154018082558091505060019003906000526020600020016000909190919091509081610f759190611d2f565b508073ffffffffffffffffffffffffffffffffffffffff1688604051610f9b919061181e565b60405180910390207fd0b00ac49d62054f92ad59cb475a8675a9728f80bf0f45492e8dfa47e19c426d89604051610fd29190611e01565b60405180910390a35050505050505050565b6000604051905090565b600080fd5b600080fd5b6000819050919050565b61100b81610ff8565b811461101657600080fd5b50565b60008135905061102881611002565b92915050565b60006020828403121561104457611043610fee565b5b600061105284828501611019565b91505092915050565b600073ffffffffffffffffffffffffffffffffffffffff82169050919050565b60006110868261105b565b9050919050565b6110968161107b565b82525050565b60006020820190506110b1600083018461108d565b92915050565b600081519050919050565b600082825260208201905092915050565b6000819050602082019050919050565b6110ec8161107b565b82525050565b60006110fe83836110e3565b60208301905092915050565b6000602082019050919050565b6000611122826110b7565b61112c81856110c2565b9350611137836110d3565b8060005b8381101561116857815161114f88826110f2565b975061115a8361110a565b92505060018101905061113b565b5085935050505092915050565b6000602082019050818103600083015261118f8184611117565b905092915050565b600080fd5b600080fd5b6000601f19601f8301169050919050565b7f4e487b7100000000000000000000000000000000000000000000000000000000600052604160045260246000fd5b6111ea826111a1565b810181811067ffffffffffffffff82111715611209576112086111b2565b5b80604052505050565b600061121c610fe4565b905061122882826111e1565b919050565b600067ffffffffffffffff821115611248576112476111b2565b5b611251826111a1565b9050602081019050919050565b82818337600083830152505050565b600061128061127b8461122d565b611212565b90508281526020810184848401111561129c5761129b61119c565b5b6112a784828561125e565b509392505050565b600082601f8301126112c4576112c3611197565b5b81356112d484826020860161126d565b91505092915050565b6112e68161107b565b81146112f157600080fd5b50565b600081359050611303816112dd565b92915050565b600080604083850312156113205761131f610fee565b5b600083013567ffffffffffffffff81111561133e5761133d610ff3565b5b61134a858286016112af565b925050602061135b858286016112f4565b9150509250929050565b600081519050919050565b600082825260208201905092915050565b60005b8381101561139f578082015181840152602081019050611384565b60008484015250505050565b60006113b682611365565b6113c08185611370565b93506113d0818560208601611381565b6113d9816111a1565b840191505092915050565b6113ed81610ff8565b82525050565b600060ff82169050919050565b611409816113f3565b82525050565b6000819050919050565b6114228161140f565b82525050565b600060e0820190508181036000830152611442818a6113ab565b9050818103602083015261145681896113ab565b905061146560408301886113e4565b6114726060830187611400565b61147f6080830186611419565b61148c60a0830185611419565b61149960c0830184611419565b98975050505050505050565b6000602082840312156114bb576114ba610fee565b5b60006114c9848285016112f4565b91505092915050565b600081519050919050565b600082825260208201905092915050565b6000819050602082019050919050565b600082825260208201905092915050565b600061151a82611365565b61152481856114fe565b9350611534818560208601611381565b61153d816111a1565b840191505092915050565b6000611554838361150f565b905092915050565b6000602082019050919050565b6000611574826114d2565b61157e81856114dd565b935083602082028501611590856114ee565b8060005b858110156115cc57848403895281516115ad8582611548565b94506115b88361155c565b925060208a01995050600181019050611594565b50829750879550505050505092915050565b600060208201905081810360008301526115f88184611569565b905092915050565b60008115159050919050565b61161581611600565b82525050565b6000604082019050611630600083018561108d565b61163d602083018461160c565b9392505050565b61164d816113f3565b811461165857600080fd5b50565b60008135905061166a81611644565b92915050565b6116798161140f565b811461168457600080fd5b50565b60008135905061169681611670565b92915050565b600080600080600080600060e0888a0312156116bb576116ba610fee565b5b600088013567ffffffffffffffff8111156116d9576116d8610ff3565b5b6116e58a828b016112af565b975050602088013567ffffffffffffffff81111561170657611705610ff3565b5b6117128a828b016112af565b96505060406117238a828b01611019565b95505060606117348a828b0161165b565b94505060806117458a828b01611687565b93505060a06117568a828b01611687565b92505060c06117678a828b01611687565b91505092959891949750929550565b7f50726f766964657220646f65736e277420657869737473000000000000000000600082015250565b60006117ac601783611370565b91506117b782611776565b602082019050919050565b600060208201905081810360008301526117db8161179f565b9050919050565b600081905092915050565b60006117f882611365565b61180281856117e2565b9350611812818560208601611381565b80840191505092915050565b600061182a82846117ed565b915081905092915050565b7f53656e736f7244617461206e6f7420666f756e64000000000000000000000000600082015250565b600061186b601483611370565b915061187682611835565b602082019050919050565b6000602082019050818103600083015261189a8161185e565b9050919050565b7f4e487b7100000000000000000000000000000000000000000000000000000000600052602260045260246000fd5b600060028204905060018216806118e857607f821691505b6020821081036118fb576118fa6118a1565b5b50919050565b7f4f6e6c7920636f6e74726163742773206f776e65722063616e2061646420612060008201527f70726f7669646572000000000000000000000000000000000000000000000000602082015250565b600061195d602883611370565b915061196882611901565b604082019050919050565b6000602082019050818103600083015261198c81611950565b9050919050565b7f50726f76696465722068617320616c7265616479206164646564000000000000600082015250565b60006119c9601a83611370565b91506119d482611993565b602082019050919050565b600060208201905081810360008301526119f8816119bc565b9050919050565b6000602082019050611a1460008301846113e4565b92915050565b6000608082019050611a2f6000830187611419565b611a3c6020830186611400565b611a496040830185611419565b611a566060830184611419565b95945050505050565b7f496e76616c6964207369676e61747572652c2070726f766964657220646f657360008201527f6e27742065786973747300000000000000000000000000000000000000000000602082015250565b6000611abb602a83611370565b9150611ac682611a5f565b604082019050919050565b60006020820190508181036000830152611aea81611aae565b9050919050565b7f4f6e6c792070726f76696465722063616e2075706c6f6164206e65772064617460008201527f6100000000000000000000000000000000000000000000000000000000000000602082015250565b6000611b4d602183611370565b9150611b5882611af1565b604082019050919050565b60006020820190508181036000830152611b7c81611b40565b9050919050565b60008190508160005260206000209050919050565b60006020601f8301049050919050565b600082821b905092915050565b600060088302611be57fffffffffffffffffffffffffffffffffffffffffffffffffffffffffffffffff82611ba8565b611bef8683611ba8565b95508019841693508086168417925050509392505050565b6000819050919050565b6000611c2c611c27611c2284610ff8565b611c07565b610ff8565b9050919050565b6000819050919050565b611c4683611c11565b611c5a611c5282611c33565b848454611bb5565b825550505050565b600090565b611c6f611c62565b611c7a818484611c3d565b505050565b5b81811015611c9e57611c93600082611c67565b600181019050611c80565b5050565b601f821115611ce357611cb481611b83565b611cbd84611b98565b81016020851015611ccc578190505b611ce0611cd885611b98565b830182611c7f565b50505b505050565b600082821c905092915050565b6000611d0660001984600802611ce8565b1980831691505092915050565b6000611d1f8383611cf5565b9150826002028217905092915050565b611d3882611365565b67ffffffffffffffff811115611d5157611d506111b2565b5b611d5b82546118d0565b611d66828285611ca2565b600060209050601f831160018114611d995760008415611d87578287015190505b611d918582611d13565b865550611df9565b601f198416611da786611b83565b60005b82811015611dcf57848901518255600182019150602085019450602081019050611daa565b86831015611dec5784890151611de8601f891682611cf5565b8355505b6001600288020188555050505b505050505050565b60006020820190508181036000830152611e1b81846113ab565b90509291505056fea2646970667358221220b2a2576e78c2265bc5f4eb5d28a2a5986f475fe02140665a3cdd34c0c499513164736f6c63430008100033",
  "immutableReferences": {},
  "source": "// SPDX-License-Identifier: GPL-3.0\n\npragma solidity ^0.8.9;\n\ncontract StorageContract{ \n\n    address payable owner;\n\n    struct SensorData{\n        string cid; //Identificador\n        string url; \n        uint256 timestamp; \n        uint8 v;\n        bytes32 r;\n        bytes32 s;\n        bytes32 hash;\n        bool created;\n    }\n\n    struct DataProvider {\n        address provider_address; //Identificador\n        mapping(string => SensorData) Data;\n        string[] SensorDataList;\n        bool created;\n    }\n\n    mapping(address => DataProvider) public Devices;\n    address[] public DataProviderList;\n\n    event EventProviderAdded (\n        address indexed addressProvider,\n        uint date\n        );\n    \n    event EventDataAdded (\n        string indexed cid,\n        address indexed _provider_address,\n        string url\n    );\n\n    constructor() {\n        owner = payable(msg.sender);\n    }\n\n    function newProvider (\n        address _provider_address\n    )\n\n    public {\n        require(payable(msg.sender) == owner, \"Only contract's owner can add a provider\");\n        require(Devices[_provider_address].created == false, \"Provider has already added\");\n\n        Devices[_provider_address].provider_address = _provider_address;\n        Devices[_provider_address].created = true;\n        DataProviderList.push(_provider_address);\n        \n        emit EventProviderAdded(_provider_address, block.timestamp);\n\n    }\n\n    /*\n     * @dev Upload new data using its signature\n     * @param v, r, s and hash make up signature using the EIP-191 standard.\n        The signature is generated using encode_defunct and eth.account.sign_message\n     */\n    function newData (\n        string memory _cid,\n        string memory _url,\n        uint256 _timestamp,\n        uint8 _v,\n        bytes32 _r,\n        bytes32 _s,\n        bytes32 _hash\n    )\n    public {\n        address recoveredAddress = ecrecover(_hash, _v, _r, _s);\n        require(Devices[recoveredAddress].created == true, \"Invalid signature, provider doesn't exists\");\n        require(recoveredAddress == msg.sender, \"Only provider can upload new data\");\n\n\n        Devices[recoveredAddress].Data[_cid].cid = _cid;\n        Devices[recoveredAddress].Data[_cid].url = _url;\n        Devices[recoveredAddress].Data[_cid].timestamp= _timestamp;\n        Devices[recoveredAddress].Data[_cid].v = _v;\n        Devices[recoveredAddress].Data[_cid].r = _r;\n        Devices[recoveredAddress].Data[_cid].s = _s;\n        Devices[recoveredAddress].Data[_cid].created = true;\n\n        Devices[recoveredAddress].SensorDataList.push(_cid);\n\n        emit EventDataAdded(_cid, recoveredAddress, _url);\n    }\n\n    // @return returns a list with all cids of one provider\n    function getDataProviderCids(address _provider_address) public view returns (string[] memory) {\n        require(Devices[_provider_address].created == true, \"Provider doesn't exists\");\n        return Devices[_provider_address].SensorDataList;\n    }\n\n    // @return returns a list with all addreess of providers\n    function getAllDataProviders() public view returns (address[] memory) {\n        return DataProviderList;\n    }\n\n    // @return returns information of one SensorData\n    function getSensorData(string memory _cid, address _provider_address) public view returns (string memory, string memory, uint256, uint8, bytes32, bytes32, bytes32) {\n        require(Devices[_provider_address].created == true, \"Provider doesn't exists\");\n        require(Devices[_provider_address].Data[_cid].created  == true, \"SensorData not found\");\n        SensorData memory sensor_data = Devices[_provider_address].Data[_cid];\n\n        return (sensor_data.cid, sensor_data.url, sensor_data.timestamp, sensor_data.v, sensor_data.r, sensor_data.s, sensor_data.hash);\n    }\n\n}\n",
  "sourcePath": "/home/gustavo/Documentos/Universidad/TFG/Project/SmartContracts/contracts/StorageContract.sol",
  "compiler": {
    "name": "solc",
    "version": "0.8.16+commit.07a7930e.Emscripten.clang"
  },
  "schemaVersion": "3.4.9",
  "updatedAt": "2023-02-08T22:38:52.512Z",
  "devdoc": {
    "kind": "dev",
    "methods": {},
    "version": 1
  },
  "userdoc": {
    "kind": "user",
    "methods": {},
    "version": 1
  }
}