{
  "contractName": "StorageContract",
  "abi": [
    {
      "inputs": [],
      "stateMutability": "nonpayable",
      "type": "constructor"
    },
    {
      "anonymous": false,
      "inputs": [
        {
          "indexed": true,
          "internalType": "string",
          "name": "cid",
          "type": "string"
        },
        {
          "indexed": true,
          "internalType": "address",
          "name": "_provider_address",
          "type": "address"
        },
        {
          "indexed": false,
          "internalType": "string",
          "name": "mac",
          "type": "string"
        },
        {
          "indexed": false,
          "internalType": "string",
          "name": "url",
          "type": "string"
        }
      ],
      "name": "EventDataAdded",
      "type": "event"
    },
    {
      "anonymous": false,
      "inputs": [
        {
          "indexed": true,
          "internalType": "address",
          "name": "addressProvider",
          "type": "address"
        },
        {
          "indexed": false,
          "internalType": "uint256",
          "name": "date",
          "type": "uint256"
        }
      ],
      "name": "EventProviderAdded",
      "type": "event"
    },
    {
      "anonymous": false,
      "inputs": [
        {
          "indexed": true,
          "internalType": "address",
          "name": "addressProvider",
          "type": "address"
        },
        {
          "indexed": false,
          "internalType": "string",
          "name": "mac",
          "type": "string"
        },
        {
          "indexed": false,
          "internalType": "uint256",
          "name": "date",
          "type": "uint256"
        }
      ],
      "name": "EventSensorAdded",
      "type": "event"
    },
    {
      "inputs": [
        {
          "internalType": "uint256",
          "name": "",
          "type": "uint256"
        }
      ],
      "name": "DataProviderList",
      "outputs": [
        {
          "internalType": "address",
          "name": "",
          "type": "address"
        }
      ],
      "stateMutability": "view",
      "type": "function"
    },
    {
      "inputs": [
        {
          "internalType": "address",
          "name": "",
          "type": "address"
        }
      ],
      "name": "Devices",
      "outputs": [
        {
          "internalType": "address",
          "name": "provider_address",
          "type": "address"
        },
        {
          "internalType": "bool",
          "name": "created",
          "type": "bool"
        }
      ],
      "stateMutability": "view",
      "type": "function"
    },
    {
      "inputs": [
        {
          "internalType": "address",
          "name": "_provider_address",
          "type": "address"
        }
      ],
      "name": "newProvider",
      "outputs": [],
      "stateMutability": "nonpayable",
      "type": "function"
    },
    {
      "inputs": [
        {
          "internalType": "string",
          "name": "_mac",
          "type": "string"
        },
        {
          "internalType": "uint8",
          "name": "_v",
          "type": "uint8"
        },
        {
          "internalType": "bytes32",
          "name": "_r",
          "type": "bytes32"
        },
        {
          "internalType": "bytes32",
          "name": "_s",
          "type": "bytes32"
        },
        {
          "internalType": "bytes32",
          "name": "_hash",
          "type": "bytes32"
        }
      ],
      "name": "newSensor",
      "outputs": [],
      "stateMutability": "nonpayable",
      "type": "function"
    },
    {
      "inputs": [
        {
          "internalType": "string",
          "name": "_mac",
          "type": "string"
        },
        {
          "internalType": "string",
          "name": "_cid",
          "type": "string"
        },
        {
          "internalType": "string",
          "name": "_url",
          "type": "string"
        },
        {
          "internalType": "uint256",
          "name": "_timestamp",
          "type": "uint256"
        },
        {
          "internalType": "uint8",
          "name": "_v",
          "type": "uint8"
        },
        {
          "internalType": "bytes32",
          "name": "_r",
          "type": "bytes32"
        },
        {
          "internalType": "bytes32",
          "name": "_s",
          "type": "bytes32"
        },
        {
          "internalType": "bytes32",
          "name": "_hash",
          "type": "bytes32"
        }
      ],
      "name": "newData",
      "outputs": [],
      "stateMutability": "nonpayable",
      "type": "function"
    },
    {
      "inputs": [],
      "name": "getAllProviders",
      "outputs": [
        {
          "internalType": "address[]",
          "name": "",
          "type": "address[]"
        }
      ],
      "stateMutability": "view",
      "type": "function"
    },
    {
      "inputs": [
        {
          "internalType": "address",
          "name": "_provider_address",
          "type": "address"
        }
      ],
      "name": "getMacList",
      "outputs": [
        {
          "internalType": "string[]",
          "name": "",
          "type": "string[]"
        }
      ],
      "stateMutability": "view",
      "type": "function"
    },
    {
      "inputs": [
        {
          "internalType": "address",
          "name": "_provider_address",
          "type": "address"
        },
        {
          "internalType": "string",
          "name": "_mac",
          "type": "string"
        }
      ],
      "name": "getLastCID",
      "outputs": [
        {
          "internalType": "string",
          "name": "",
          "type": "string"
        }
      ],
      "stateMutability": "view",
      "type": "function"
    },
    {
      "inputs": [
        {
          "internalType": "address",
          "name": "_provider_address",
          "type": "address"
        },
        {
          "internalType": "string",
          "name": "_mac",
          "type": "string"
        }
      ],
      "name": "getAllCids",
      "outputs": [
        {
          "internalType": "string[]",
          "name": "",
          "type": "string[]"
        }
      ],
      "stateMutability": "view",
      "type": "function"
    }
  ],
  "bytecode": "0x608060405234801561001057600080fd5b50336000806101000a81548173ffffffffffffffffffffffffffffffffffffffff021916908373ffffffffffffffffffffffffffffffffffffffff160217905550612a28806100606000396000f3fe608060405234801561001057600080fd5b50600436106100935760003560e01c8063802e9cb911610066578063802e9cb9146101325780639790e96a1461014e578063d35309751461017f578063f5e757421461019b578063fe41576f146101cb57610093565b806331137090146100985780633bb4497c146100c85780634f65e878146100e65780635b485a1414610116575b600080fd5b6100b260048036038101906100ad919061192e565b6101fb565b6040516100bf919061199c565b60405180910390f35b6100d061023a565b6040516100dd9190611a75565b60405180910390f35b61010060048036038101906100fb9190611c09565b6102c8565b60405161010d9190611ce4565b60405180910390f35b610130600480360381019061012b9190611d06565b6105e0565b005b61014c60048036038101906101479190611da2565b610893565b005b61016860048036038101906101639190611d06565b610be6565b604051610176929190611e54565b60405180910390f35b61019960048036038101906101949190611e7d565b610c37565b005b6101b560048036038101906101b09190611d06565b611324565b6040516101c29190612093565b60405180910390f35b6101e560048036038101906101e09190611c09565b6114d5565b6040516101f29190612093565b60405180910390f35b6002818154811061020b57600080fd5b906000526020600020016000915054906101000a900473ffffffffffffffffffffffffffffffffffffffff1681565b606060028054806020026020016040519081016040528092919081815260200182805480156102be57602002820191906000526020600020905b8160009054906101000a900473ffffffffffffffffffffffffffffffffffffffff1673ffffffffffffffffffffffffffffffffffffffff1681526020019060010190808311610274575b5050505050905090565b606060011515600160008573ffffffffffffffffffffffffffffffffffffffff1673ffffffffffffffffffffffffffffffffffffffff16815260200190815260200160002060030160009054906101000a900460ff16151514610360576040517f08c379a000000000000000000000000000000000000000000000000000000000815260040161035790612101565b60405180910390fd5b60011515600160008573ffffffffffffffffffffffffffffffffffffffff1673ffffffffffffffffffffffffffffffffffffffff168152602001908152602001600020600101836040516103b4919061215d565b908152602001604051809103902060030160009054906101000a900460ff16151514610415576040517f08c379a000000000000000000000000000000000000000000000000000000000815260040161040c906121c0565b60405180910390fd5b6000600160008573ffffffffffffffffffffffffffffffffffffffff1673ffffffffffffffffffffffffffffffffffffffff16815260200190815260200160002060010183604051610467919061215d565b9081526020016040518091039020600201805490509050600081036104c4576040518060400160405280601281526020017f53656e736f72206861736e2774206369647300000000000000000000000000008152509150506105da565b600160008573ffffffffffffffffffffffffffffffffffffffff1673ffffffffffffffffffffffffffffffffffffffff16815260200190815260200160002060010183604051610514919061215d565b9081526020016040518091039020600201600182610532919061220f565b8154811061054357610542612243565b5b906000526020600020018054610558906122a1565b80601f0160208091040260200160405190810160405280929190818152602001828054610584906122a1565b80156105d15780601f106105a6576101008083540402835291602001916105d1565b820191906000526020600020905b8154815290600101906020018083116105b457829003601f168201915b50505050509150505b92915050565b60008054906101000a900473ffffffffffffffffffffffffffffffffffffffff1673ffffffffffffffffffffffffffffffffffffffff163373ffffffffffffffffffffffffffffffffffffffff161461066e576040517f08c379a000000000000000000000000000000000000000000000000000000000815260040161066590612344565b60405180910390fd5b60001515600160008373ffffffffffffffffffffffffffffffffffffffff1673ffffffffffffffffffffffffffffffffffffffff16815260200190815260200160002060030160009054906101000a900460ff16151514610704576040517f08c379a00000000000000000000000000000000000000000000000000000000081526004016106fb906123b0565b60405180910390fd5b80600160008373ffffffffffffffffffffffffffffffffffffffff1673ffffffffffffffffffffffffffffffffffffffff16815260200190815260200160002060000160006101000a81548173ffffffffffffffffffffffffffffffffffffffff021916908373ffffffffffffffffffffffffffffffffffffffff16021790555060018060008373ffffffffffffffffffffffffffffffffffffffff1673ffffffffffffffffffffffffffffffffffffffff16815260200190815260200160002060030160006101000a81548160ff0219169083151502179055506002819080600181540180825580915050600190039060005260206000200160009091909190916101000a81548173ffffffffffffffffffffffffffffffffffffffff021916908373ffffffffffffffffffffffffffffffffffffffff1602179055508073ffffffffffffffffffffffffffffffffffffffff167f1b8d6e7edd12ce9bf5cbe0cf36d5e75e86617a943f642908cb445fdadb4830514260405161088891906123df565b60405180910390a250565b6000600182868686604051600081526020016040526040516108b89493929190612418565b6020604051602081039080840390855afa1580156108da573d6000803e3d6000fd5b50505060206040510351905060011515600160008373ffffffffffffffffffffffffffffffffffffffff1673ffffffffffffffffffffffffffffffffffffffff16815260200190815260200160002060030160009054906101000a900460ff1615151461097c576040517f08c379a0000000000000000000000000000000000000000000000000000000008152600401610973906124cf565b60405180910390fd5b60001515600160008373ffffffffffffffffffffffffffffffffffffffff1673ffffffffffffffffffffffffffffffffffffffff168152602001908152602001600020600101876040516109d0919061215d565b908152602001604051809103902060030160009054906101000a900460ff16151514610a31576040517f08c379a0000000000000000000000000000000000000000000000000000000008152600401610a289061253b565b60405180910390fd5b85600160008373ffffffffffffffffffffffffffffffffffffffff1673ffffffffffffffffffffffffffffffffffffffff16815260200190815260200160002060010187604051610a82919061215d565b90815260200160405180910390206000019081610a9f9190612707565b5060018060008373ffffffffffffffffffffffffffffffffffffffff1673ffffffffffffffffffffffffffffffffffffffff16815260200190815260200160002060010187604051610af1919061215d565b908152602001604051809103902060030160006101000a81548160ff021916908315150217905550600160008273ffffffffffffffffffffffffffffffffffffffff1673ffffffffffffffffffffffffffffffffffffffff16815260200190815260200160002060020186908060018154018082558091505060019003906000526020600020016000909190919091509081610b8d9190612707565b508073ffffffffffffffffffffffffffffffffffffffff167f54c4764e35db3b768b99b60a6d4768f57731e91c4f672b4b8f19c366321528368742604051610bd69291906127d9565b60405180910390a2505050505050565b60016020528060005260406000206000915090508060000160009054906101000a900473ffffffffffffffffffffffffffffffffffffffff16908060030160009054906101000a900460ff16905082565b600060018286868660405160008152602001604052604051610c5c9493929190612418565b6020604051602081039080840390855afa158015610c7e573d6000803e3d6000fd5b50505060206040510351905060011515600160008373ffffffffffffffffffffffffffffffffffffffff1673ffffffffffffffffffffffffffffffffffffffff16815260200190815260200160002060030160009054906101000a900460ff16151514610d20576040517f08c379a0000000000000000000000000000000000000000000000000000000008152600401610d17906124cf565b60405180910390fd5b3373ffffffffffffffffffffffffffffffffffffffff168173ffffffffffffffffffffffffffffffffffffffff1614610d8e576040517f08c379a0000000000000000000000000000000000000000000000000000000008152600401610d859061287b565b60405180910390fd5b60011515600160008373ffffffffffffffffffffffffffffffffffffffff1673ffffffffffffffffffffffffffffffffffffffff1681526020019081526020016000206001018a604051610de2919061215d565b908152602001604051809103902060030160009054906101000a900460ff16151514610e43576040517f08c379a0000000000000000000000000000000000000000000000000000000008152600401610e3a906128e7565b60405180910390fd5b87600160008373ffffffffffffffffffffffffffffffffffffffff1673ffffffffffffffffffffffffffffffffffffffff1681526020019081526020016000206001018a604051610e94919061215d565b908152602001604051809103902060010189604051610eb3919061215d565b90815260200160405180910390206000019081610ed09190612707565b5086600160008373ffffffffffffffffffffffffffffffffffffffff1673ffffffffffffffffffffffffffffffffffffffff1681526020019081526020016000206001018a604051610f22919061215d565b908152602001604051809103902060010189604051610f41919061215d565b90815260200160405180910390206001019081610f5e9190612707565b5085600160008373ffffffffffffffffffffffffffffffffffffffff1673ffffffffffffffffffffffffffffffffffffffff1681526020019081526020016000206001018a604051610fb0919061215d565b908152602001604051809103902060010189604051610fcf919061215d565b90815260200160405180910390206002018190555084600160008373ffffffffffffffffffffffffffffffffffffffff1673ffffffffffffffffffffffffffffffffffffffff1681526020019081526020016000206001018a604051611035919061215d565b908152602001604051809103902060010189604051611054919061215d565b908152602001604051809103902060030160006101000a81548160ff021916908360ff16021790555083600160008373ffffffffffffffffffffffffffffffffffffffff1673ffffffffffffffffffffffffffffffffffffffff1681526020019081526020016000206001018a6040516110ce919061215d565b9081526020016040518091039020600101896040516110ed919061215d565b90815260200160405180910390206004018190555082600160008373ffffffffffffffffffffffffffffffffffffffff1673ffffffffffffffffffffffffffffffffffffffff1681526020019081526020016000206001018a604051611153919061215d565b908152602001604051809103902060010189604051611172919061215d565b90815260200160405180910390206005018190555060018060008373ffffffffffffffffffffffffffffffffffffffff1673ffffffffffffffffffffffffffffffffffffffff1681526020019081526020016000206001018a6040516111d8919061215d565b9081526020016040518091039020600101896040516111f7919061215d565b908152602001604051809103902060070160006101000a81548160ff021916908315150217905550600160008273ffffffffffffffffffffffffffffffffffffffff1673ffffffffffffffffffffffffffffffffffffffff1681526020019081526020016000206001018960405161126f919061215d565b9081526020016040518091039020600201889080600181540180825580915050600190039060005260206000200160009091909190915090816112b29190612707565b508073ffffffffffffffffffffffffffffffffffffffff16886040516112d8919061215d565b60405180910390207fa30fa568a3da991493dc4ffbb1e531dc3712025f0bc9570a32d8d28ce91b3eb08b8a604051611311929190612907565b60405180910390a3505050505050505050565b606060011515600160008473ffffffffffffffffffffffffffffffffffffffff1673ffffffffffffffffffffffffffffffffffffffff16815260200190815260200160002060030160009054906101000a900460ff161515146113bc576040517f08c379a00000000000000000000000000000000000000000000000000000000081526004016113b39061298a565b60405180910390fd5b600160008373ffffffffffffffffffffffffffffffffffffffff1673ffffffffffffffffffffffffffffffffffffffff168152602001908152602001600020600201805480602002602001604051908101604052809291908181526020016000905b828210156114ca57838290600052602060002001805461143d906122a1565b80601f0160208091040260200160405190810160405280929190818152602001828054611469906122a1565b80156114b65780601f1061148b576101008083540402835291602001916114b6565b820191906000526020600020905b81548152906001019060200180831161149957829003601f168201915b50505050508152602001906001019061141e565b505050509050919050565b606060011515600160008573ffffffffffffffffffffffffffffffffffffffff1673ffffffffffffffffffffffffffffffffffffffff16815260200190815260200160002060030160009054906101000a900460ff1615151461156d576040517f08c379a000000000000000000000000000000000000000000000000000000000815260040161156490612101565b60405180910390fd5b60011515600160008573ffffffffffffffffffffffffffffffffffffffff1673ffffffffffffffffffffffffffffffffffffffff168152602001908152602001600020600101836040516115c1919061215d565b908152602001604051809103902060030160009054906101000a900460ff16151514611622576040517f08c379a0000000000000000000000000000000000000000000000000000000008152600401611619906121c0565b60405180910390fd5b6000600160008573ffffffffffffffffffffffffffffffffffffffff1673ffffffffffffffffffffffffffffffffffffffff16815260200190815260200160002060010183604051611674919061215d565b908152602001604051809103902060020180549050905060008167ffffffffffffffff8111156116a7576116a6611ade565b5b6040519080825280602002602001820160405280156116da57816020015b60608152602001906001900390816116c55790505b5090506000820361179557600167ffffffffffffffff811115611700576116ff611ade565b5b60405190808252806020026020018201604052801561173357816020015b606081526020019060019003908161171e5790505b5090506040518060400160405280601281526020017f53656e736f72206861736e277420636964730000000000000000000000000000815250816000815181106117805761177f612243565b5b602002602001018190525080925050506118de565b60005b828110156118d757600160008773ffffffffffffffffffffffffffffffffffffffff1673ffffffffffffffffffffffffffffffffffffffff168152602001908152602001600020600101856040516117f0919061215d565b9081526020016040518091039020600201818154811061181357611812612243565b5b906000526020600020018054611828906122a1565b80601f0160208091040260200160405190810160405280929190818152602001828054611854906122a1565b80156118a15780601f10611876576101008083540402835291602001916118a1565b820191906000526020600020905b81548152906001019060200180831161188457829003601f168201915b50505050508282815181106118b9576118b8612243565b5b602002602001018190525080806118cf906129aa565b915050611798565b5080925050505b92915050565b6000604051905090565b600080fd5b600080fd5b6000819050919050565b61190b816118f8565b811461191657600080fd5b50565b60008135905061192881611902565b92915050565b600060208284031215611944576119436118ee565b5b600061195284828501611919565b91505092915050565b600073ffffffffffffffffffffffffffffffffffffffff82169050919050565b60006119868261195b565b9050919050565b6119968161197b565b82525050565b60006020820190506119b1600083018461198d565b92915050565b600081519050919050565b600082825260208201905092915050565b6000819050602082019050919050565b6119ec8161197b565b82525050565b60006119fe83836119e3565b60208301905092915050565b6000602082019050919050565b6000611a22826119b7565b611a2c81856119c2565b9350611a37836119d3565b8060005b83811015611a68578151611a4f88826119f2565b9750611a5a83611a0a565b925050600181019050611a3b565b5085935050505092915050565b60006020820190508181036000830152611a8f8184611a17565b905092915050565b611aa08161197b565b8114611aab57600080fd5b50565b600081359050611abd81611a97565b92915050565b600080fd5b600080fd5b6000601f19601f8301169050919050565b7f4e487b7100000000000000000000000000000000000000000000000000000000600052604160045260246000fd5b611b1682611acd565b810181811067ffffffffffffffff82111715611b3557611b34611ade565b5b80604052505050565b6000611b486118e4565b9050611b548282611b0d565b919050565b600067ffffffffffffffff821115611b7457611b73611ade565b5b611b7d82611acd565b9050602081019050919050565b82818337600083830152505050565b6000611bac611ba784611b59565b611b3e565b905082815260208101848484011115611bc857611bc7611ac8565b5b611bd3848285611b8a565b509392505050565b600082601f830112611bf057611bef611ac3565b5b8135611c00848260208601611b99565b91505092915050565b60008060408385031215611c2057611c1f6118ee565b5b6000611c2e85828601611aae565b925050602083013567ffffffffffffffff811115611c4f57611c4e6118f3565b5b611c5b85828601611bdb565b9150509250929050565b600081519050919050565b600082825260208201905092915050565b60005b83811015611c9f578082015181840152602081019050611c84565b60008484015250505050565b6000611cb682611c65565b611cc08185611c70565b9350611cd0818560208601611c81565b611cd981611acd565b840191505092915050565b60006020820190508181036000830152611cfe8184611cab565b905092915050565b600060208284031215611d1c57611d1b6118ee565b5b6000611d2a84828501611aae565b91505092915050565b600060ff82169050919050565b611d4981611d33565b8114611d5457600080fd5b50565b600081359050611d6681611d40565b92915050565b6000819050919050565b611d7f81611d6c565b8114611d8a57600080fd5b50565b600081359050611d9c81611d76565b92915050565b600080600080600060a08688031215611dbe57611dbd6118ee565b5b600086013567ffffffffffffffff811115611ddc57611ddb6118f3565b5b611de888828901611bdb565b9550506020611df988828901611d57565b9450506040611e0a88828901611d8d565b9350506060611e1b88828901611d8d565b9250506080611e2c88828901611d8d565b9150509295509295909350565b60008115159050919050565b611e4e81611e39565b82525050565b6000604082019050611e69600083018561198d565b611e766020830184611e45565b9392505050565b600080600080600080600080610100898b031215611e9e57611e9d6118ee565b5b600089013567ffffffffffffffff811115611ebc57611ebb6118f3565b5b611ec88b828c01611bdb565b985050602089013567ffffffffffffffff811115611ee957611ee86118f3565b5b611ef58b828c01611bdb565b975050604089013567ffffffffffffffff811115611f1657611f156118f3565b5b611f228b828c01611bdb565b9650506060611f338b828c01611919565b9550506080611f448b828c01611d57565b94505060a0611f558b828c01611d8d565b93505060c0611f668b828c01611d8d565b92505060e0611f778b828c01611d8d565b9150509295985092959890939650565b600081519050919050565b600082825260208201905092915050565b6000819050602082019050919050565b600082825260208201905092915050565b6000611fcf82611c65565b611fd98185611fb3565b9350611fe9818560208601611c81565b611ff281611acd565b840191505092915050565b60006120098383611fc4565b905092915050565b6000602082019050919050565b600061202982611f87565b6120338185611f92565b93508360208202850161204585611fa3565b8060005b8581101561208157848403895281516120628582611ffd565b945061206d83612011565b925060208a01995050600181019050612049565b50829750879550505050505092915050565b600060208201905081810360008301526120ad818461201e565b905092915050565b7f496e76616c69642070726f766964657220616464726573730000000000000000600082015250565b60006120eb601883611c70565b91506120f6826120b5565b602082019050919050565b6000602082019050818103600083015261211a816120de565b9050919050565b600081905092915050565b600061213782611c65565b6121418185612121565b9350612151818560208601611c81565b80840191505092915050565b6000612169828461212c565b915081905092915050565b7f496e76616c69642073656e736f72204d41430000000000000000000000000000600082015250565b60006121aa601283611c70565b91506121b582612174565b602082019050919050565b600060208201905081810360008301526121d98161219d565b9050919050565b7f4e487b7100000000000000000000000000000000000000000000000000000000600052601160045260246000fd5b600061221a826118f8565b9150612225836118f8565b925082820390508181111561223d5761223c6121e0565b5b92915050565b7f4e487b7100000000000000000000000000000000000000000000000000000000600052603260045260246000fd5b7f4e487b7100000000000000000000000000000000000000000000000000000000600052602260045260246000fd5b600060028204905060018216806122b957607f821691505b6020821081036122cc576122cb612272565b5b50919050565b7f4f6e6c7920636f6e74726163742773206f776e65722063616e2061646420612060008201527f70726f7669646572000000000000000000000000000000000000000000000000602082015250565b600061232e602883611c70565b9150612339826122d2565b604082019050919050565b6000602082019050818103600083015261235d81612321565b9050919050565b7f50726f76696465722068617320616c7265616479206164646564000000000000600082015250565b600061239a601a83611c70565b91506123a582612364565b602082019050919050565b600060208201905081810360008301526123c98161238d565b9050919050565b6123d9816118f8565b82525050565b60006020820190506123f460008301846123d0565b92915050565b61240381611d6c565b82525050565b61241281611d33565b82525050565b600060808201905061242d60008301876123fa565b61243a6020830186612409565b61244760408301856123fa565b61245460608301846123fa565b95945050505050565b7f496e76616c6964207369676e61747572652c2070726f766964657220646f657360008201527f6e27742065786973747300000000000000000000000000000000000000000000602082015250565b60006124b9602a83611c70565b91506124c48261245d565b604082019050919050565b600060208201905081810360008301526124e8816124ac565b9050919050565b7f53656e736f722068617320616c72656164792061646465640000000000000000600082015250565b6000612525601883611c70565b9150612530826124ef565b602082019050919050565b6000602082019050818103600083015261255481612518565b9050919050565b60008190508160005260206000209050919050565b60006020601f8301049050919050565b600082821b905092915050565b6000600883026125bd7fffffffffffffffffffffffffffffffffffffffffffffffffffffffffffffffff82612580565b6125c78683612580565b95508019841693508086168417925050509392505050565b6000819050919050565b60006126046125ff6125fa846118f8565b6125df565b6118f8565b9050919050565b6000819050919050565b61261e836125e9565b61263261262a8261260b565b84845461258d565b825550505050565b600090565b61264761263a565b612652818484612615565b505050565b5b818110156126765761266b60008261263f565b600181019050612658565b5050565b601f8211156126bb5761268c8161255b565b61269584612570565b810160208510156126a4578190505b6126b86126b085612570565b830182612657565b50505b505050565b600082821c905092915050565b60006126de600019846008026126c0565b1980831691505092915050565b60006126f783836126cd565b9150826002028217905092915050565b61271082611c65565b67ffffffffffffffff81111561272957612728611ade565b5b61273382546122a1565b61273e82828561267a565b600060209050601f831160018114612771576000841561275f578287015190505b61276985826126eb565b8655506127d1565b601f19841661277f8661255b565b60005b828110156127a757848901518255600182019150602085019450602081019050612782565b868310156127c457848901516127c0601f8916826126cd565b8355505b6001600288020188555050505b505050505050565b600060408201905081810360008301526127f38185611cab565b905061280260208301846123d0565b9392505050565b7f4f6e6c792070726f76696465722063616e2075706c6f6164206e65772064617460008201527f6100000000000000000000000000000000000000000000000000000000000000602082015250565b6000612865602183611c70565b915061287082612809565b604082019050919050565b6000602082019050818103600083015261289481612858565b9050919050565b7f53656e736f7220646f65736e2774206578697374730000000000000000000000600082015250565b60006128d1601583611c70565b91506128dc8261289b565b602082019050919050565b60006020820190508181036000830152612900816128c4565b9050919050565b600060408201905081810360008301526129218185611cab565b905081810360208301526129358184611cab565b90509392505050565b7f50726f766964657220646f65736e277420657869737473000000000000000000600082015250565b6000612974601783611c70565b915061297f8261293e565b602082019050919050565b600060208201905081810360008301526129a381612967565b9050919050565b60006129b5826118f8565b91507fffffffffffffffffffffffffffffffffffffffffffffffffffffffffffffffff82036129e7576129e66121e0565b5b60018201905091905056fea26469706673582212203fe4b2535aada9087ba17b0727840e4723c6a0fcacf7d3b626f013f6196acf1464736f6c63430008100033",
  "immutableReferences": {},
  "source": "// SPDX-License-Identifier: GPL-3.0\n\npragma solidity ^0.8.9;\n\ncontract StorageContract {\n    address payable owner;\n\n    struct SensorData {\n        string cid; //Identificador\n        string url;\n        uint256 timestamp;\n        uint8 v;\n        bytes32 r;\n        bytes32 s;\n        bytes32 hash;\n        bool created;\n    }\n\n    struct Sensor {\n        string mac; //Identificador\n        mapping(string => SensorData) Data;\n        string[] SensorDataList;\n        bool created;\n    }\n\n    struct DataProvider {\n        address provider_address; //Identificador\n        mapping(string => Sensor) SensorInfo;\n        string[] SensorInfoList;\n        bool created;\n    }\n\n    mapping(address => DataProvider) public Devices;\n    address[] public DataProviderList;\n\n    event EventProviderAdded(address indexed addressProvider, uint256 date);\n\n    event EventSensorAdded(\n        address indexed addressProvider,\n        string mac,\n        uint256 date\n    );\n\n    event EventDataAdded(\n        string indexed cid,\n        address indexed _provider_address,\n        string mac,\n        string url\n    );\n\n    constructor() {\n        owner = payable(msg.sender);\n    }\n\n    function newProvider(address _provider_address) public {\n        require( payable(msg.sender) == owner, \"Only contract's owner can add a provider\");\n        require( Devices[_provider_address].created == false, \"Provider has already added\");\n\n        Devices[_provider_address].provider_address = _provider_address;\n        Devices[_provider_address].created = true;\n        DataProviderList.push(_provider_address);\n\n        emit EventProviderAdded(_provider_address, block.timestamp);\n    }\n\n    /*\n     * @dev Add new sensor using provider signature\n     * @param v, r, s and hash make up signature using the EIP-191 standard.\n        The signature is generated using encode_defunct and eth.account.sign_message in python\n     */\n    function newSensor(\n        string memory _mac,\n        uint8 _v,\n        bytes32 _r,\n        bytes32 _s,\n        bytes32 _hash\n    ) public {\n        address recoveredAddress = ecrecover(_hash, _v, _r, _s);\n        require(Devices[recoveredAddress].created == true, \"Invalid signature, provider doesn't exists\");\n        require(Devices[recoveredAddress].SensorInfo[_mac].created == false, \"Sensor has already added\");\n\n        Devices[recoveredAddress].SensorInfo[_mac].mac = _mac;\n        Devices[recoveredAddress].SensorInfo[_mac].created = true;\n        Devices[recoveredAddress].SensorInfoList.push(_mac);\n\n        emit EventSensorAdded(recoveredAddress, _mac, block.timestamp);\n    }\n\n    /*\n     * @dev Upload new data using its signature\n     * @param v, r, s and hash make up signature using the EIP-191 standard.\n        The signature is generated using encode_defunct and eth.account.sign_message in python\n     */\n    function newData(\n        string memory _mac,\n        string memory _cid,\n        string memory _url,\n        uint256 _timestamp,\n        uint8 _v,\n        bytes32 _r,\n        bytes32 _s,\n        bytes32 _hash\n    ) public {\n        address recoveredAddress = ecrecover(_hash, _v, _r, _s);\n        require(Devices[recoveredAddress].created == true, \"Invalid signature, provider doesn't exists\");\n        require(recoveredAddress == msg.sender, \"Only provider can upload new data\");\n        require(Devices[recoveredAddress].SensorInfo[_mac].created == true, \"Sensor doesn't exists\");\n\n        Devices[recoveredAddress].SensorInfo[_mac].Data[_cid].cid = _cid;\n        Devices[recoveredAddress].SensorInfo[_mac].Data[_cid].url = _url;\n        Devices[recoveredAddress].SensorInfo[_mac].Data[_cid].timestamp = _timestamp;\n        Devices[recoveredAddress].SensorInfo[_mac].Data[_cid].v = _v;\n        Devices[recoveredAddress].SensorInfo[_mac].Data[_cid].r = _r;\n        Devices[recoveredAddress].SensorInfo[_mac].Data[_cid].s = _s;\n        Devices[recoveredAddress].SensorInfo[_mac].Data[_cid].created = true;\n\n        Devices[recoveredAddress].SensorInfo[_mac].SensorDataList.push(_cid);\n\n        emit EventDataAdded(_cid, recoveredAddress, _mac, _url);\n    }\n\n    function getAllProviders() public view returns (address[] memory) {\n        return DataProviderList;\n    }\n\n    function getMacList(address _provider_address) public view returns (string[] memory) {\n        require(Devices[_provider_address].created == true, \"Provider doesn't exists\");\n        return Devices[_provider_address].SensorInfoList;\n    }\n\n    function getLastCID(address _provider_address, string memory _mac) public view returns (string memory) {\n        require(Devices[_provider_address].created == true, \"Invalid provider address\");\n        require(Devices[_provider_address].SensorInfo[_mac].created == true, \"Invalid sensor MAC\");\n\n        uint256 len = Devices[_provider_address].SensorInfo[_mac].SensorDataList.length;\n        if (len == 0) {\n            return \"Sensor hasn't cids\";\n        }\n        return Devices[_provider_address].SensorInfo[_mac].SensorDataList[len - 1];\n    }\n\n    function getAllCids(address _provider_address, string memory _mac) public view returns (string[] memory) {\n        require(Devices[_provider_address].created == true, \"Invalid provider address\");\n        require(Devices[_provider_address].SensorInfo[_mac].created == true, \"Invalid sensor MAC\");\n\n        uint256 len = Devices[_provider_address].SensorInfo[_mac].SensorDataList.length;\n\n        string[] memory cids = new string[](len);\n\n        if (len == 0) {\n            cids = new string[](1);\n            cids[0] = \"Sensor hasn't cids\";\n            return cids;\n        }\n\n        for (uint256 i = 0; i < len; i++) {\n            cids[i] = Devices[_provider_address].SensorInfo[_mac].SensorDataList[i];\n        }\n\n        return cids;\n    }\n}\n",
  "sourcePath": "/home/gustavo/Documentos/Universidad/TFG/Project/SmartContracts/contracts/StorageContract.sol",
  "compiler": {
    "name": "solc",
    "version": "0.8.16+commit.07a7930e.Emscripten.clang"
  },
  "schemaVersion": "3.4.9",
  "updatedAt": "2023-03-19T01:40:32.985Z",
  "devdoc": {
    "kind": "dev",
    "methods": {},
    "version": 1
  },
  "userdoc": {
    "kind": "user",
    "methods": {},
    "version": 1
  }
}